:020000042001D9
:10000000C82C0220DD0101202D370120C93201203A
:100010003D360120A91501201364012000000000D5
:10002000000000000000000000000000C15E012090
:100030000919012000000000D1080120D54A012043
:1000400017020120170201201702012017020120C8
:100050001702012017020120BD19012017020120FB
:1000600017020120170201201702012017020120A8
:100070001702012017020120170201201702012098
:100080001702012017020120170201201702012088
:100090001702012017020120170201201702012078
:1000A0001702012017020120170201201702012068
:1000B0001702012017020120170201201702012058
:1000C0001702012017020120170201201702012048
:1000D0001702012017020120170201201702012038
:1000E0001702012017020120170201201702012028
:1000F0001702012017020120170201201702012018
:100100001702012017020120170201201702012007
:1001100017020120170201201702012017020120F7
:1001200017020120170201201702012017020120E7
:1001300017020120170201201702012017020120D7
:1001400017020120170201201702012017020120C7
:1001500017020120170201201702012017020120B7
:1001600017020120170201201702012017020120A7
:100170001702012017020120170201201702012097
:100180001702012017020120170201201702012087
:100190001702012017020120170201201702012077
:1001A0001702012017020120170201201702012067
:1001B0001702012017020120170201201702012057
:1001C0001702012017020120DFF80CD000F076FAA8
:1001D00000480047016D0120C82C02200E488047CE
:1001E000DFF83800016841F470010160BFF34F8F00
:1001F000DFF82C00016821F040410160BFF36F8FF0
:1002000008480047FEE7FEE7FEE7FEE7FEE7FEE7F9
:10021000FEE7FEE7FEE7FEE70D5F012088ED00E068
:1002200034EF00E0C901012072B6704762B6704732
:10023000EFF3108072B6704780F31088704730BFBC
:10024000704720BF7047B0FA80F0704790FAA0F076
:10025000B0FA80F0704790FAA0F070472DE9F05F97
:100260000546002092469B46884606468146402425
:100270001BE0284641464746224600F057F85346C1
:100280005A46C01A914110D311461846224600F032
:100290003EF82D1A67EB01084F4622460120002147
:1002A00000F035F817EB00094E41201EA4F10104BF
:1002B000DFDC484631462A464346BDE8F09F40EA27
:1002C00001039B0703D009E008C9121F08C0042AD4
:1002D000FAD203E011F8013B00F8013B521EF9D2BB
:1002E000704730B50B46014600202022012409E06A
:1002F00021FA02F59D4205D303FA02F5491B04FADF
:1003000002F52844151EA2F10102F1DC30BD202ABD
:1003100004DB203A00FA02F1002070479140C2F15C
:10032000200320FA03F3194390407047202A04DB8E
:10033000203A21FA02F00021704721FA02F3D0405E
:10034000C2F1200291400843194670472DE9FE4F43
:10035000804681EA0300C00F0C46009021F0004166
:1003600023F00045B8EB0200A94105D240462146E2
:1003700090461C460B46024623F00040104347D0EF
:10038000270DC7F30A00C3F30A510290401A0190E7
:1003900040286BDAC3F3130040F4801B00989246A8
:1003A00020B10023D2EB030A63EB0B0B01985946F3
:1003B000C0F140025046FFF7AAFF06460D465046E0
:1003C0005946019A00F08CF910EB080061410024B5
:1003D00087EA115284EAE7731A4340D0009A62B365
:1003E000019A012A4FEA075215DC001B61EB02015A
:1003F0004FF0004202EA0752CDE90042001C41F5ED
:10040000801132462B4600F08CF903B0BDE8F08F26
:1004100040462146F9E7001B61EB0201001C41F553
:10042000801300185B412018A2F5001747EB030169
:1004300040EAD570B6196D4111E06D084FEA3606F5
:1004400045EAC0754FEA0752001B61EB0201001C30
:1004500041F5801149084FEA3000001951413246F8
:100460002B4603B0BDE8F04F00F04CB900980122D4
:1004700040000023D0EB020263EBE07300982146BA
:100480004FEAE074B8EB000061EB0401E9E783F0A8
:1004900000435BE781F0004158E72DE9FE4F81EA18
:1004A000030404F0004421F0004100944FF0000BDD
:1004B00023F0004350EA01045ED052EA03045BD00B
:1004C000C3F30A54C1F30A552C44A4F2F334019443
:1004D000A0FB0254C1F3130141F48011C3F31303D1
:1004E00043F4801301FB024400FB034E840A970A85
:1004F00044EA815447EA8357A4FB076802958D0AB2
:1005000005FB07854FEA932C04FB0C542705029D3D
:100510004FEA065847EA1637B5EB08056EEB070CAD
:10052000870E920E47EA811742EA8312A7FB020167
:10053000B6EB0B0164EB00042B0D43EA0C335E18A1
:1005400044EB1C50DA465146E7FB0201C5F31304A5
:100550004FEA0B3343EA14534FEA0432019C43EA57
:100560000603A4F10C040294009CCDE900B400F051
:10057000D8F803B0BDE8F08F00200146F9E72DE977
:10058000F04D81EA030404F0004B21F000451446CD
:100590004FF0000A23F0004150EA050220D054EA4F
:1005A00001021DD0C5F30A570246C5F31303C1F378
:1005B0001300C1F30A5640F4801543F48013A7EBEF
:1005C0000608101BD64608F2FD3873EB050002D36F
:1005D00008F1010801E092185B41B8F1000F03DA5D
:1005E00000200146BDE8F08D00204FF48011064642
:1005F00084460EE0171B73EB050705D3121B63EB54
:10060000050306434CEA010C49084FEA30009218F2
:100610005B4150EA0107EDD152EA030012D082EAB1
:10062000040083EA0501084305D0101BAB4106D244
:100630000122002306E000224FF0004302E06FF0A9
:10064000010253101AEB06004CEB085110EB0A00A4
:1006500041EB0B01BDE8F04D00F054B8C1F30A5274
:10066000C1F3130140F2FF3341F480119A4202DAE0
:1006700000200146704740F233439A42A2F23342CF
:1006800002DC5242FFF752BEFFF741BE30B5041EF6
:1006900071F1000404DB4FF00044404264EB0101BF
:1006A000141E73F1000405DB1C464FF00043524258
:1006B00063EB0403994208BF904230BD064C074DDE
:1006C00006E0E06840F0010394E807009847103422
:1006D000AC42F6D3FFF77CFD3899012058990120F0
:1006E000202A06DBCB17203A41FA02F043EAE073F6
:1006F00006E041FA02F3D040C2F1200291400843E3
:100700001946704710B5141E73F1000408DA401C36
:1007100041F1000192185B411A4301D120F0010020
:1007200010BD2DE9F04D92469B4611B1B1FA81F210
:1007300002E0B0FA80F220329046FFF7E8FD04466E
:100740000F4640EA0A0041EA0B0153465A46084365
:1007500013D0114653EA010019D0C8F140025046A7
:10076000FFF7E4FD05460E46504659464246FFF760
:10077000CEFD084305D0012004E020463946BDE8FF
:10078000F08D0020054346EAE0762C4337430A9873
:100790006305E40AA0EB08000022FD0A44EA47547E
:1007A0000A3002D500200146E9E701051019694128
:1007B000DDE9084500196941BDE8F04DA2E770B5D3
:1007C0008C1810F8015B15F0070301D110F8013BFC
:1007D0002A1106D110F8012B03E010F8016B01F883
:1007E000016B5B1EF9D12B0705D40023521E0DD4DB
:1007F00001F8013BFAE710F8013BCB1A921C03E029
:1008000013F8015B01F8015B521EF9D5A142D8D360
:10081000002070BDEFF3098141B1F1EE101A40F8EC
:10082000041D20ED200A3E490A6810607047B0ECB4
:10083000200A02C8E1EE101A3A490A6810607047AF
:1008400072B64EF62250CEF2000040F2FF01C0F226
:10085000000101704FF0000080F3098804F002F8F5
:1008600040F25810C2F20200016881F3088840F299
:10087000E200C2F2020040F2E301C2F202010A7891
:10088000027040F25015C2F2020540F25411C2F259
:1008900002010A682A60106880F30988EFF3148067
:1008A00040F0020080F31488BFF36F8FBDE8F00FB3
:1008B0000FBCBDE8005006BC62B608471A484FF0AE
:1008C00080510160704718484FF0805101607047B7
:1008D00072B6EFF3098020E9F00F40F25015C2F232
:1008E00002052E683060744603F0BCFF40F2E2005F
:1008F000C2F2020040F2E301C2F202010A78027081
:1009000040F25411C2F202010A682A6044F0F40E67
:100910001068B0E8F00F80F3098862B670470000F5
:10092000500102205401022004ED00E0F0B58BB02C
:10093000144806A9144A03250024059409AE234649
:1009400081E87000416E0DF1040C4FF48077009542
:1009500004948CE88300C0380CA103F045FC06A980
:10096000104805940023104A81E87000416E01AEE2
:100970000095049486E88300C0380CA103F034FC91
:100980000BB0F0BDDC1F0220655F01204B65726E6D
:10099000656C204F626A65637473205461736B20C9
:1009A000410000009C2402209D5F01204B65726E77
:1009B000656C204F626A65637473205461736B20A9
:1009C000420000000EB500F09EF800F0EFFD02A816
:1009D00003F0A8FB00F036FE05F094FB00F022F9CE
:1009E0000DA005F017FD1A48002215A16B4603F073
:1009F000F7F918A005F00EFDFFF798FF002000F0B2
:100A0000E7FB002402AD002264231146CDE9004536
:100A1000104603F0A9FFF6E74372656174696E67DB
:100A2000204170706C69636174696F6E206B6572D0
:100A30006E656C206F626A656374730D0A00000056
:100A40004B657920446574656374696F6E000000BE
:100A50009C2802204372656174696E672041707042
:100A60006C69636174696F6E205461736B730D0AF6
:100A7000000000007047000010B5FFF7D9FB0446E6
:100A800000F0FEFD0E490D4808600F490D48086052
:100A90000F490E48086010490E48086010490F4879
:100AA000086011490F48086011491048086000F0BB
:100AB000F7FD2046BDE81040FFF7BEBB750A0120D8
:100AC000AC000220F50A0120B0000220F70A012044
:100AD000A0000220F90A0120A4000220FB0A012044
:100AE000A8000220FD0A0120B4000220FF0A012014
:100AF000B80002207047704770477047704701F098
:100B0000D9BA02F061B8F0B591B000F03BF801201D
:100B100019238205010402241E010827CDE906429B
:100B2000CDE9000100250395CDE90836CDE90A4756
:100B3000684602F0D1F801F0D3FB00B1FEE74FF4B4
:100B400080524FF4A0510F20CDE90F120CAA0721BB
:100B500082E831000CA801F051FF002000F006FBF4
:100B600000F030FF0021012000F068FB11B0F0BD63
:100B7000FFF75ABB622803D21030C0B200F0A8BD04
:100B80007047FEE710B500240349204600F006F840
:100B9000641C622CF8D310BD830B012070B5622851
:100BA0000D4604460ED2FFF743FB064600F068FDF3
:100BB000054840F8245000F073FD3046BDE8704011
:100BC000FFF73ABB70BD0000640402201CB5044668
:100BD00000F0B6F9034600F0A3F902460020CDE983
:100BE00000040648064C006800EB800101EBC001E0
:100BF00004EB8101C96D02F0F5FB1CBD440002202D
:100C0000F40202200648C02330B408240522046000
:100C100061034361C261C16230BC01F097BB000057
:100C20007002022010B500F09BF901204FF0404106
:100C300000F0DAF9012000F06BFA104800F07CFABD
:100C400002F056FB0EA002F099FB14A002F05AFB32
:100C5000042018A100F0FAF805201BA100F0F6F816
:100C6000062026A100F0F2F807202AA100F0EEF8F5
:100C7000BDE8104008202DA100F0E8B8480002208F
:100C800075434F532D4949492053656D6170686F15
:100C9000726573204578616D706C650053544D33F7
:100CA00032377836472D4556414C20626F61726469
:100CB000000000003E2054657374696E67204D6526
:100CC00074686F643A000000313A20436F6E6E65BD
:100CD0006374207468652053657269616C20436198
:100CE000626C6520746F205468652044423920434B
:100CF0006F6E6E6563746F722E000000323A205280
:100D0000756E20687970657274726D2E6578652EC7
:100D100000000000333A204261756452617465201E
:100D20003D203131353230302E000000343A204839
:100D30006172647761726520466C6F7720436F6ED5
:100D400074726F6C2044697361626C65642E00007C
:100D500030B40A4C0A4B246804EB440403EB8403CC
:100D60009B689C881D68E41DDB88E408203A14FB1E
:100D700002F203FB025230BC00F0C8BD4400022066
:100D8000DC0302202DE9F04700270446154689467A
:100D900010463A4600E0521C10F8011B0029FAD117
:100DA00000F0BEF8DFF89CC0012B274EDCF80010E5
:100DB00001EB410106EB810189688988B0FBF1F004
:100DC00002D0022B09D104E0801A484304EB500002
:100DD00002E0801A4843001B84B247F6FF71601E90
:100DE000884200D30124E04600F09AF80146D8F882
:100DF000000000EB400006EB80008068808807FB65
:100E0000101189B2814213D3012012E049462046D5
:100E1000FFF79EFFD8F800007F1CBFB26D1C00EBEF
:100E2000400006EB800080688088204484B2DBE7C5
:100E300000202A780AB1012100E000210842E5D112
:100E4000BDE8F08744000220DC0302200A46034686
:100E500010B500F057F8C088BDE810405843032390
:100E600081B20020FFF78EBF10B50B46044600F09C
:100E700057F8074903FB0040096801EB810303EBC6
:100E8000C101044B03EB8101C96D41F8202010BD65
:100E900044000220F40202202DE9FC419846174B41
:100EA0000746174E15460C46186800EB400056F8EA
:100EB000200000F04FF900F033F8196800FB0470CF
:100EC00001EB810202EBC101A6F1E80202EB810114
:100ED000C96D01EB800400F023F801461868491B36
:100EE000434600EB400256F82220CDE900122A4684
:100EF000214602F077FABDE8FC81000044000220A0
:100F0000DC03022004480549006800EB400001EBC7
:100F1000800080687047000044000220DC0302204B
:100F20000548006800EB800101EBC000034901EBBC
:100F30008000006E7047000044000220F40202208E
:100F40000548006800EB800101EBC000034901EB9C
:100F50008000406E7047000044000220F40202202E
:100F60002DE9F0411D4C2820092140F2391604F1E9
:100F7000140840F27A252A2240F21D1C0B234FF45C
:100F8000037788E8EF1000212046FFF73BFE4FF47F
:100F9000F07222664FF488716166002084F8340094
:100FA00084F8350084F836006060A0600C4AE06088
:100FB00022602061204601F0CEF818B900212046B9
:100FC00000F04EF8054801F0C9F800F0A1F9054815
:100FD00000F0B2F80020BDE8F0810000F402022029
:100FE000006801404800022030B58DB00A46002359
:100FF00004460093FFF794FFCDE90103FFF7A0FF3C
:10100000FF21039007208DF8303009924FF4C0651E
:101010008DF83130CDE9043106938DF83230CDE9C9
:101020000750FFF77DFF0A90FFF78AFF0B902246DB
:101030000948694601F066F8074904EB44004FF09F
:10104000FF34E83101EB800223065460034C9460C6
:1010500041F820300DB030BDF402022048000220DB
:10106000274870B50025016886B041F080610160B5
:10107000006800F08060059021481438016841F450
:1010800000010160016801F400010591016841F46B
:1010900080710160016801F480710591016841F47B
:1010A00000710160016801F400710591016841F46B
:1010B00080610160006802240E26694600F48060A9
:1010C00005904FF470408DE831000E48CDE903469D
:1010D00000F0F0FE4FF6FF7069468DE831000A48D7
:1010E000CDE9034600F0E6FEFF2069468DE83100B9
:1010F0000648CDE9034600F0DDFE06B070BD0000F5
:1011000044380240002002400024024000280240EF
:101110000149086070470000440002200449054A64
:10112000096801EB410102EB810148607047000052
:1011300044000220DC0302200449054A096801EB4F
:10114000410102EB810188607047000044000220E9
:10115000DC0302200349044A096801EB410142F81B
:101160002100704744000220DC03022070B51549BD
:101170000500154886B005D0012D03D0022D01D001
:10118000032D08D10A6842F001020A60096804468A
:1011900001F0010100910D4E0120032156F8252098
:1011A000CDE90120CDE9030101A9204600F082FE2E
:1011B00036F82500012281B2204600F070FF06B00B
:1011C00070BD00003038024000000240886D0120F0
:1011D0000849020005D0012A03D0022A01D0032ABF
:1011E00000D10846044931F82210012289B200F0EA
:1011F00056BF000000000240886D01200749020030
:1012000005D0012A03D0022A01D0032A00D10846C2
:10121000034931F8221089B200F03DBF00000240BE
:10122000886D01200349044A31F8101052F820005B
:1012300000F02CBF986D01202000022030B52F4A0D
:10124000040087B04FF000000ED0012C14D0022C07
:1012500012D0032C10D0042C16D0052C14D0062C40
:1012600012D0072C10D017E0136843F0010313606D
:10127000126802F001020EE0136843F004031360E9
:10128000126802F0040206E0136843F040031360A2
:10129000126802F040020592194D4FF00203194AFC
:1012A00049B1012912D135F81410CDE9020300919A
:1012B00074B115480DE035F81410CDE90010CDE9F2
:1012C000020352F82400694600F0F4FD07B030BD77
:1012D0000E486946019052F8240000F0EBFD084DDD
:1012E00000220F21103515F8140040B200F0C6FF9F
:1012F00015F8140040B200F0B6FFE7E730380240BE
:10130000986D012020000220000021100000111023
:101310002DE9F0411E4804211C4B072200F134073F
:101320004FF0020C0125036000F11C08C7F800C053
:101330000024C7E90121FA602022C7F810C0402329
:10134000C7F814C04FF4C076C7F818C04F02C0E900
:1013500001454FF4805C88E8901084620C3080E88E
:101360004E0000210C3800F05DF80949084834317E
:1013700001F084FE074E08B1357000E0347040F291
:10138000036000F009F83078BDE8F081400100A06A
:1013900010020220400002202DE9F843204C1027C3
:1013A00000254FF6FF780126009521468146C4E9C5
:1013B0000067C4E90265A1F15000424601F092FEC7
:1013C000012000F05BFD02202146C4E90007C4E9CA
:1013D0000265A1F15000424601F084FE032142461D
:1013E000C4E9001708202146C4E90205A1F1500014
:1013F00001F078FE4FF40C70009004214246C4E9DD
:101400000260C4E900172146A1F1500001F06AFE14
:10141000A4F150004946BDE8F84301F051BE000078
:1014200060020220F0B505464F48002487B00168ED
:1014300041F00101016000684B4900F00100059096
:101440000839086840F480000860086800F48000EB
:101450000590086840F008000860086800F008007F
:101460000590086840F010000860086800F010005F
:101470000590086840F020000860086800F020002F
:101480000590086840F040000860086800F04000DF
:101490000590086840F080000860086800F080004F
:1014A0000590086840F480700860086801210C22EB
:1014B0004CF2037300F4807005900220CDE9010125
:1014C00000936946CDE90302284800F0F3FC4FF68B
:1014D000837000902648694600F0ECFC4FF63F0010
:1014E00000902448694600F0E5FC48F23310009073
:1014F0002148694600F0DEFC4FF62C7000901F4832
:10150000694600F0D7FC40F2FF6000901C48694635
:1015100000F0D0FC4FF400731A494FF0800CDE004D
:101520005F004C605801C1E902C3C1E90476C20002
:10153000154EC1E9060403230846C1E90824C1E9A0
:101540000A340E600C6329638D6300F026FC0D489D
:1015500000F04EFC00220521382000F08FFE3820DC
:1015600000F081FE07B0F0BD38380240000C0240A8
:10157000001002400014024000180240001C02400B
:1015800000200240600102201064024010B501F00A
:101590001BFB04490968BDE81040B0FBF1F003F003
:1015A000B1BA000010990120FEE7000005490020B3
:1015B00010B5486000F030F900F006F8BDE81040C2
:1015C00000F0E8B8780002202DE9F041104C002529
:1015D0002E4625806580A560E5606561A561256171
:1015E000FEF726FE00278046656100F049F800F00E
:1015F00057F87F1C60693F0406443F0CF4D0C4E9EF
:1016000004654046A561BDE8F041FEF715BE000047
:101610007800022003490969884201D9401A7047BD
:10162000002070477800022010B5FEF701FE044943
:101630004C69FEF701FE2046BDE81040FFF7EABF07
:101640007800022010B5FFF7EFFF0446FEF7F0FD2B
:10165000034A00215161FEF7EFFD204610BD000056
:101660007800022010B5FEF7E3FD04498C69FEF70F
:10167000E3FD2046BDE81040FFF7CCBF7800022014
:1016800010B5064C2088401C2080608810B900F0FE
:10169000DBF8A0606088401C608010BD78000220EC
:1016A00010B50A4C6088401E0004000C60800CD10C
:1016B00000F0CAF8E060A2686169801A814200D235
:1016C0006061A169814200D2A06110BD7800022052
:1016D00070B52F4C10284FF0E02535D2DFE800F030
:1016E0005757575708111E57575757575757572788
:1016F000FEF79EFD0546FFF7C3FF206840F48030EB
:1017000007E0FEF795FD0546FFF7BAFF206840F4B5
:1017100000302060FFF7C4FF284634E0FEF788FD64
:101720000546FFF7ADFF206840F48020F1E7FEF7A3
:101730007FFD0446FFF7A4FF286940F001002861FF
:10174000FFF7AEFF20461EE06A68302101EB421130
:10175000C9B288421BD21038C11700EBD161C1F366
:10176000471421F01F01451AFEF762FD0646FFF7F8
:1017700087FF0120A840A10001F1E021C1F800018C
:10178000FFF78EFF3046BDE87040FEF755BD70BDD7
:1017900024ED00E010B5FEF74BFD0446FFF770FFA7
:1017A0000548102101F04BFFFFF77AFF2046BDE806
:1017B0001040FEF741BD0000EC05022070B50C00A2
:1017C000054616D0B5B1102104F095FB102814D2AF
:1017D000FEF72EFD0646FFF753FF0A481022294662
:1017E00004F070FBFFF75CFF3046FEF725FD00209C
:1017F00005E0FEE70A20088070BD4FF47A70208073
:1018000070BD0000EC050220FEE7000001494860C1
:10181000704700007800022010B5FFF772F9084AFF
:1018200008491468002344F0807414604B600A680F
:1018300042F001020A60BDE81040FFF7E7BF000078
:10184000FCED00E0001000E0014840687047000037
:10185000001000E0F0B50568059C44EA03446C64A0
:101860000368DA634268B2F5403F02D00068C160A5
:10187000F0BD01F47F42856801F47F04224301F04A
:101880007F4301F47F0701F47F46CCB2BDB1012D47
:1018900016D001F47F02C1F3C401D20C022D11D085
:1018A000032D14D0310B3A0D0D01190F45EA022218
:1018B00042EA013242EA141200688263F0BD1A4320
:1018C0002243F9E7B30A5B0143EAC22206E0F40AC5
:1018D000DB0F640144EA822242EAC3320A43EBE7A7
:1018E00001681823CAB2103AB2FBF3F2054B6FF34A
:1018F0000901032A9B5C436500D9091D016508465F
:1019000070470000C4980120704700002DE9F74F90
:1019100029480026DFF89CA0006800EB40000AEB95
:10192000800080688588C788E81D834620F007000E
:10193000401B00F0FF0939E04FEADB010298012962
:1019400001FB060009D0022909D00178427883788A
:10195000080440EA0220184303E0007801E0008810
:1019600040BA002480461AE02A1B02EB090101203C
:10197000491E884010EA080F009800EB04020E4848
:10198000016890B201EB410202D05AF8222002E035
:101990000AEB82014A680199FFF766FA641CAC42BF
:1019A000E2D30198401C80B20190761CBE42C3D3A2
:1019B000BDE8FE8FDC03022044000220012000F07D
:1019C0006DBA00000E48002100B587B0026842F0F1
:1019D000010202600068012200F001000590094840
:1019E0000092CDE901010848694600F063FA074911
:1019F0000620FFF7D3F80620FFF7BCF807B000BDBC
:101A0000303802400000211000000240BD190120C2
:101A1000F0B5D1E90125D1E90343D1E905762A439F
:101A2000D1F800C044EA0304D1E9073542EA0402D0
:101A3000496A42EA0702BCF1010F42EA060208D0F5
:101A400004681A432A430A43E30BDB031A43026088
:101A50000BE0066844682B43F50B6FF30E04ED03AF
:101A600029430B430360224342600020F0BD4269DA
:101A700042EA4101416100207047F8B5054614462D
:101A8000D1E90003D1E902216FF01F06184306EBEC
:101A9000421242EA412108430090286100F004FB11
:101AA000064609E0601C07D024B100F0FDFA801B57
:101AB000A04201D90320F8BDA8698006F2D4002015
:101AC000F8BD2DE9F043914691E81C006FF00F0539
:101AD000521E2E0105EB03132F031A430B7E4FEA10
:101AE000054C0D8A06EB04268C8AC96832434FF0F8
:101AF0007F48B9F1010F07EB05450CEB045408EBE7
:101B000003630CD086683F1107EB01310A432A4377
:101B100022431A4306F070410A4382600FE0C66810
:101B2000090387682A431A43A1F58051214306F02F
:101B300070431A43C26007F0704421438160002063
:101B4000BDE8F083F0B590F8383000EB01121832A0
:101B5000012B25D0012480F83840022380F8393049
:101B600000292F4D066851681CD0F3692B400A29C3
:101B700041D009293FD015891943177B2B0443EA2B
:101B800007630B43F361036811681D696FF30D056B
:101B90002943196151680A2935D0092933D037E022
:101BA0000220F0BD736A2B400A2916D0092914D0EF
:101BB00015891943177B2B0443EA07630B437362B0
:101BC000036811689D696FF30D0529439961516898
:101BD0000A290AD0092908D01AE017891943D568BB
:101BE00005F07F4343EA0743E8E7D168026821F044
:101BF0007F4191620CE017891943D56805F07F4356
:101C000043EA0743BDE7D168026821F07F411162D2
:101C1000002180F8394080F838100846F0BD0000F7
:101C2000F0FFFC0070B5040004D094F839000025E2
:101C300010B106E0012070BD204684F8385000F055
:101C40001EF8022084F83900D4E9001001230A6844
:101C500022F44032104308602168A0684A6B22F0E9
:101C60000702104348632168E0680A6C6FF30D02B5
:101C700010430864E56384F83930002070BD704774
:101C80002DE9F0470446006800260D4601274FF075
:101C900004084FF003090068C0072BD000F004FAD5
:101CA000824623E04168426801F0200002F0010111
:101CB000084309D0216820228A6021688F6084F857
:101CC000398084F8386025E0681C0FD02DB100F011
:101CD000EBF9A0EB0A00A84208D9E16B84F8386060
:101CE00041F02001E16384F8399025E020684168E3
:101CF0008907D7D52068C069800623D500F0D4F9BC
:101D000082461BE04068000707D5226808219160E1
:101D100084F839800120BDE8F087681C0ED02DB111
:101D200000F0C2F9A0EB0A00A84207D9E06B40F02E
:101D30002000E06384F839900320ECE720684168D4
:101D4000C906DFD5226802211020916021688860D1
:101D500084F83970002084F83860DCE7F8B5044670
:101D600090F83800069D012815D0012684F83860C7
:101D7000022084F839002068066826F00106066013
:101D800020460095FFF766FD2068016841F00101DB
:101D900001600020F8BD0220F8BD70B5040025D018
:101DA00094F83500022821D02068002521220168FE
:101DB00021F001010160206805602068456020680D
:101DC00085602068C5602068056120684261204602
:101DD000FFF786FD94F854203F2191408160E5642F
:101DE00084F83550002084F8345070BD012070BD57
:101DF0002DE9F041040020D01F4D0220626A84F8D2
:101E00003500201D90E80B10084354F8141B43EADA
:101E10000C03184394E8C0500B68143C40EA0600D9
:101E200040EA070040EA0C0003EA050340EA0E001E
:101E3000042A40EA030003D006E00120BDE8F08157
:101E4000D4E90B231A43104308602168606A4A6989
:101E5000042822F0070240EA020001D1A26A1043DE
:101E600048612046FFF73CFD0021E164012084F831
:101E700035000846E2E700003F8010F031B500F081
:101E800013F9044600F010F90099001B8842F9D3B9
:101E900038BD08B50020009008BD0000044910B509
:101EA0000A68024202D00860FFF7F3FF10BD00008D
:101EB000143C01402DE9F84FDFF89CE100224FF07F
:101EC00001084FF0030B4FF00F0A00BF0B6808FA30
:101ED00002F42340A34271D14D68022D01D0122D8E
:101EE0000FD1D5080E69570700EB8505A9462D6A65
:101EF000FF0E0AFA07FCBE4025EA0C052E43C9F87E
:101F000020600F79550006680BFA05FC07F00307FF
:101F100026EA0C06AF40374307604E68012E05D015
:101F2000022E03D0112E01D0122E0ED18668CF685A
:101F300026EA0C06AF403743876046680F79A64310
:101F4000C7F30017974037434760C4688E6824EA98
:101F50000C04AE402643C6604C68E40075D53F4C87
:101F6000256845F480452560246822F0030695071E
:101F700004F4804400943A4C2D0F2644D6F80848C7
:101F8000DFF8E0C00AFA05F7604524EA070401D14A
:101F900000272EE0344FB84201D1012729E0334F0A
:101FA000B84201D1022724E0314FB84201D10327C2
:101FB0001FE0304FB84202D104271AE045E02E4F0F
:101FC000B84201D1052714E02C4FB84201D10627B1
:101FD0000FE02B4FB84201D107270AE0294FB84242
:101FE00001D1082705E0284FB84201D1092700E0B8
:101FF0000A27AF4027437546C6F808784E68DEF8D2
:102000000040F60324EA030400D51C43124E2C6062
:10201000361D4D683468AD0324EA030400D51C4323
:102020000D4F346008374D683C68ED0224EA030424
:1020300000D51C43084D3C600C354E682C68B60238
:1020400024EA030400D51C432C60521C102AFFF420
:102050003DAFBDE8F88F0000003C0140443802402D
:10206000003001400000024000040240000802402D
:10207000000C024000100240001402400018024010
:10208000001C024000200240002402400069084079
:1020900000D00120704742694A40426170470AB14E
:1020A000816170470904FBE7014800687047000040
:1020B0006000022002480168491C0160704700006E
:1020C00060000220074810B5016841F4007101600A
:1020D000032000F0F3F80F2000F006F800F0BFF83E
:1020E000002010BD003C0240002010B500F0E6F8D2
:1020F0000348007808B1FFF749FA002010BD00003E
:10210000C80002202DE9F041044690F8A0001646D0
:102110000F4601281DD0012584F8A050022084F824
:10212000A10006EB860000EBC600342204EB800021
:102130003830FEF7C4F832463946204601F080F9BF
:10214000216800204D6284F8A15084F8A000BDE809
:10215000F0810220FBE790F8A10070472DE9F041E3
:10216000040004D094F8A100002518B107E0012074
:10217000BDE8F081204684F8A05000F06FF83648A2
:10218000022184F8A110012202CC8B6923F0704354
:102190008B6194E84A001943E3681E4354F8043DF8
:1021A00031439E693143996121688B6803408B609C
:1021B0002168A68AA7698B683B4343EA06438B6084
:1021C0002168CB680340CB602168A38B276ACE6867
:1021D0003E4346EA0346CE6021680B6903400B612B
:1021E0002168A68CA76A0B693B4343EA06430B614F
:1021F00021684B6903404B612168A38D266B4869B8
:10220000304340EA03404861236894F8351094F85D
:102210003600DE6A000406F07F46DE62236840EA8C
:10222000012094F83460D96A31430143D9622068AF
:10223000416B41F0040141632068416B41F00201B0
:1022400041632068816941F001018161C4F8A450B3
:1022500084F8A12000208BE700F800F0704708B553
:102260000020009008BD410900F01F0289000120F4
:1022700001F1E0219040C1F8000170470E4BF0B42D
:102280001B680D46C3F30223C3F10706042E00D9D1
:102290000426191D072901D2002300E0DB1E0124BA
:1022A00004FA06F19C40491E2940641E99401440DE
:1022B0002143F0BC01F03BBA0CED00E0064900F010
:1022C000070210B54FF6FF040868044B204040EAAF
:1022D00002201843086010BD0CED00E00000FA0574
:1022E0001848F8B5016841F0805101600068164C4B
:1022F00000F080500090206840F480302060FFF7AC
:10230000D3FE4FF47A76054605E000BFFFF7CCFE1A
:10231000401BB0420FD86068C003F7D5206840F476
:1023200000302060FFF7C0FE054606E0FFF7BCFE68
:10233000401BB04201D90320F8BD60688003F5D589
:102340000020F8BD40380240007000402DE9F84FF1
:1023500004460078DFF828844FF000063546C007B1
:102360000ED0D8F8001021F40001C8F80010D8F8F9
:102370000010626B1143C8F80010606B00B90126B1
:102380002068000310D5FE48E26B8430016821F418
:10239000401111430160E06BB0F5801F01D010B116
:1023A00002E0012600E001252068C00210D5F448B3
:1023B000226C8430016821F4400111430160206CDB
:1023C000B0F5800F01D010B102E0012600E0012538
:1023D0002068C10100D50126800657D5E84838306D
:1023E000016841F0805101600068DFF8989300F0C7
:1023F00080500090D9F8001041F48071C9F80010A5
:10240000FFF752FE074604E0FFF74EFEC01B6428AC
:102410007ED8D9F80000C005F6D5D94F218E68378F
:10242000386801F4407100F4407088422ED038685A
:10243000396820F4407041F480313960820739688E
:1024400021F48031396038600FD5FFF72DFE8146C9
:1024500041F2883A06E000BFFFF726FEA0EB090133
:102460005145D5D838688007F6D5206BC0F30121D7
:1024700003297CD0D8F8001021F4F811C8F8001016
:10248000218E3868C1F30B01084338602078C006FC
:1024900009D5BB488430016821F080710160016872
:1024A000A26B114301602188B5488830490405D5E5
:1024B000626E016821F440311143016021880904F2
:1024C00005D5A26E016821F4402111430160216805
:1024D000C90305D5E26E016821F440111143016082
:1024E0002168890305D5226F016821F44001114359
:1024F00001602178490605D5626C016821F003016D
:10250000114301602178090607D5A26C016800E03B
:10251000FEE021F00C01114301602188C90505D5B9
:10252000E26C016821F030011143016021888905C6
:1025300005D5226D016821F0C00111430160218899
:10254000490505D5626D016821F4407111430160B0
:102550002188090505D5A26D016821F44061114368
:1025600001602188C90407D5E26D016800E023E01D
:1025700021F44051114301602188890405D5226E60
:10258000016821F44041114301602168490205D5E9
:10259000A26F016821F08061114301602168890206
:1025A00015D5E26F016821F0006111430160E16F10
:1025B000B1F1006F0AD00AE0734AD8F80030104039
:1025C00023F4F8120243C8F8002059E701252168D6
:1025D0000A0700D50125490305D5626F016821F07E
:1025E0004071114301602168090206D5D4F88020AA
:1025F000016821F0805111430160012E4FF4403BEE
:102600004FF0706A4FF0E04903D02068B0F1007FCE
:102610007DD15B4E083E306820F080603060FFF76F
:1026200043FD074605E000BFFFF73EFDC01B6428E1
:102630006ED85348083800680001F5D42078DFF8D8
:1026400040E1C0070EF17C0E33D0606B88BBDEF832
:1026500000C09BFAABF7DEF8002047F6C076B7FA69
:1026600087F860680CF440319AFAAAFC21FA08F164
:1026700096FAA6F7BCFA8CF8B7FA87FC9BFAABF689
:1026800002F0706200FA0CF0B6FA86F69AFAAAF72F
:1026900022FA08F2B14099FAA9FCA668B7FA87F7BE
:1026A0000843BA40BCFA8CF110438E403043CEF858
:1026B00000002068010303D5E16BB1F5801F05D050
:1026C000C00241D5206CB0F5800F3DD1DEF800107E
:1026D0009BFAABF647F6C07CB6FA86F7DEF80060E8
:1026E00001F4403160689CFAACFCF9409AFAAAF710
:1026F000BCFA8CFCB7FA87F89BFAABF399FAA9F706
:1027000000FA0CF0B7FA87F7B3FA83FC01E08DE02A
:1027100007E101FA0CF106F0E046E36899FAA9F244
:10272000FE4003FA08F3B2FA82F7154A08438432EE
:10273000BE4018433043CEF800001068616A20F0B4
:102740001F00491E084310602068C00139D5DEF81B
:1027500000209AFAAAF1DEF8003047F6C07602F0BF
:102760007062B1FA81F199FAA9FC9BFAABF7CA4001
:1027700096FAA6F60092BCFA8CFCB7FA87F705E049
:102780000838024000700040FFFCFF0F2269B6FAD3
:1027900086F861689AFAAAF603F0E040BA4001FAB6
:1027A00008F11143009AB6FA86F699FAA9F720FAC9
:1027B0000CF0B240B7FA87F61143B0400143CEF8AF
:1027C00000102068800120D504F1080147F6C07090
:1027D0009BFAABFC90FAA0F260688AC9B2FA82F266
:1027E000BCFA8CF89AFAAAFC904099FAA9F6BCFABD
:1027F0008CFC07FA08F703FA0CF3B6FA86F63843AE
:10280000B14018430843CEF800007B4E306840F0DA
:1028100080603060FFF748FC074604E0FFF744FCA7
:10282000C01B64287DD830680001F7D5002D79D011
:10283000714D286820F080502860FFF735FC06466F
:1028400005E000BFFFF730FC801B642869D86A48A8
:102850000068C0438000F5D56748216888300A03C6
:1028600001D5E26B1AB1C9023CD5216CD1BB02681B
:102870009BFAABF647F6C071B6FA86F7066802F423
:10288000403291FAA1FC6169FA409AFAAAF7BCFABF
:102890008CFC9BFAABF501FA0CF1B7FA87F899FAC0
:1028A000A9F7B5FA85FCA56906F0E04602FA0CF234
:1028B000B7FA87F799FAA9F3FE4011434E4A05FA91
:1028C00008F5B3FA83F38C329E402943314301600B
:1028D0006FF0FF071168A36A21F4F85107EB032397
:1028E000194311602168890235D5E16FB1F1006F9C
:1028F00031D101689AFAAAF2056847F6C07601F06C
:10290000706196FAA6F7B2FA82F299FAA9F69BFAE2
:10291000ABFC21FA02F8216AB6FA86F6BCFA8CFC06
:1029200001E060E066E06269B7FA87F701FA0CF14E
:102930009AFAAAFCBA4005F0E04599FAA9F3BCFA64
:102940008CF7F5400A4308FA07F1B3FA83F30A4318
:102950009D402A4302602178090736D50368026842
:102960009BFAABF79AFAAAFC47F6C07102F4403220
:10297000214DB7FA87F891FAA1F7616922FA08F2B6
:10298000BCFA8CF8B7FA87FC9BFAABF603F07063DD
:1029900001FA0CF1B6FA86F623FA08F39AFAAAF7C6
:1029A000B24099FAA9FCE669B7FA87F78C3511436A
:1029B000BB40BCFA8CF21943964031430160286851
:1029C000E16A20F44030084328600B4C206840F056
:1029D00080502060FFF768FB054607E0FFF764FBC7
:1029E000401B642802D90320BDE8F88F2068C0434B
:1029F0008000F3D40020F7E7003802402DE9F047CB
:102A0000DFF8BC910E4605466E4841F28838D9F889
:102A100000106C4C01F00F010834B1425AD2D9F8C1
:102A2000002022F00F023243C9F80020D9F800102C
:102A300001F00F01B14270D12978890705D5AA6844
:102A4000216821F0F001114321602978C90729D0BC
:102A50006968012914D00068022914D08007002871
:102A60005BDA206820F0030008432060FFF71CFBBE
:102A70000646686801280FD00228474619D024E08E
:102A800000688003EBE78001E9E700BFFFF70CFB7C
:102A9000801BB84201D964E047462068C0F381003A
:102AA0000128F3D173E000BFFFF7FEFA801BB842A4
:102AB00057D82068C0F381000228F5D167E000BF35
:102AC000FFF7F2FA801BB8424BD8206810F00C0FC9
:102AD000F6D15CE02978890705D5AA68216821F03C
:102AE000F001114321602978C90741D069680129A3
:102AF00014D00068022914D08007002845DA206825
:102B000020F0030008432060FFF7CEFA074668680C
:102B100001280ED0022818D026E036E00068800395
:102B2000EBE78001E9E700BFFFF7BEFAC11B4145B3
:102B300017D82068C0F381000128F5D118E000BF44
:102B4000FFF7B2FAC11B41450BD82068C0F38100E2
:102B50000228F5D10CE000BFFFF7A6FAC11B4145E2
:102B600002D90320BDE8F087206810F00C0FF3D1E4
:102B7000D9F8001021F00F013143C9F80010D9F83D
:102B8000000000F00F00B04201D00120EAE72878F1
:102B9000400705D5E968206820F4E050084320602C
:102BA0002878000706D52869216821F4604141EAA8
:102BB000C00020600F20FFF797FA0020D2E7000046
:102BC000003C02400038024000B500F043F80849DC
:102BD000F0230A6893FAA3F3064902F0F002B3FA6D
:102BE00083F3DA40044B9A5CD040086000BD0000DB
:102BF0000838024064000220CC98012000B5FFF79D
:102C0000E3FF07494FF4E052096892FAA2F201F497
:102C1000E051B2FA82F2D140024A515CC84000BD94
:102C200008380240CC98012000B5FFF7CDFF0749D6
:102C30004FF46042096892FAA2F201F46041B2FADC
:102C400082F2D140024A515CC84000BD08380240BF
:102C5000CC9801201D4930B51D48096811F00C01C0
:102C60001AD01C4B042916D0082915D1174947F64C
:102C7000C072091F0C680D6804F03F046D020CD58A
:102C80000D68B3FBF4F092FAA2F31540B3FA83F2A5
:102C9000D54068430BE0184630BD0B68B0FBF4F03C
:102CA00092FAA2F41340B4FA84F2D340584309686C
:102CB0004FF4403292FAA2F201F44031B2FA82F2B9
:102CC000D140491C4900B0FBF1F030BD083802404A
:102CD0000024F40040787D012DE9F84FE54E0446CC
:102CE0000078A6F10409A9F10405C0076BD030688B
:102CF000C0F38100012808D03068C0F381000228A9
:102D00000AD1D9F80000400206D5286880035AD5B8
:102D10006068002870D056E0286820F48030286071
:102D2000286820F480202860286820F480302860FB
:102D3000FFF7BAF94FF4FA77804605E0FFF7B4F9E8
:102D4000A0EB0800B84277D828688003F6D428683A
:102D500020F4803028606068B0F5803F10D0B0F576
:102D6000A02F286810D020F480202860286820F444
:102D7000803028606068C8B1FFF796F9804611E09E
:102D8000286820F4802001E040F480202860286832
:102D900040F48030EDE700BFFFF786F9A0EB0800B4
:102DA000B842D0D828688003F6D50CE0FFF77CF94C
:102DB000804605E0FFF778F9A0EB0800B842C2D8DA
:102DC00028688003F6D42078800745D530684FF016
:102DD000F80810F00C0F08D03068C0F3810002280A
:102DE0000BD1D9F80000400207D42868800717D516
:102DF000E068012800D113E039E1E0680028286884
:102E00001BD040F001002860FFF74EF9074604E0B0
:102E1000FFF74AF9C01B642895D828688007F7D5C2
:102E200020692A6898FAA8F1B1FA81F1884022F065
:102E3000F801014329600FE096E020F001002860CE
:102E4000FFF732F9074604E0FFF72EF9C01B6428AC
:102E5000A7D828688007F7D42078000729D58548A7
:102E600061696C3000298046016811D041F0010190
:102E70000160FFF719F9074605E000BFFFF714F9F5
:102E8000C01B642870D8D8F800008007F6D510E081
:102E900021F001010160FFF707F9074605E000BFD7
:102EA000FFF702F9C01B64285ED8D8F8000080073D
:102EB000F6D42078400776D56E483830016841F066
:102EC000805101600068DFF8B08100F08050009010
:102ED000D8F8001041F48071C8F80010FFF7E4F84A
:102EE000074604E0FFF7E0F8C01B64283CD8D8F898
:102EF0000000C005F6D55F4F6837386820F0010044
:102F00003860386820F004003860386820F001002C
:102F10003860FFF7C9F8824641F2883806E000BF02
:102F2000FFF7C2F8A0EB0A0141451DD838688007B9
:102F3000F6D4386820F001003860A06801280FD06E
:102F40000528386811D020F004003860386820F077
:102F500001003860A068C8B1FFF7A6F8824611E00A
:102F6000386820F0040002E079E040F004003860A6
:102F7000386840F00100ECE7FFF796F8A0EB0A0193
:102F800041456CD838688007F6D50CE0FFF78CF81F
:102F9000824605E0FFF788F8A0EB0A0141455ED8BC
:102FA00038688007F6D4A069E8B33168C1F38101BD
:102FB00002295CD00228286820F08070286003D0A5
:102FC000FFF772F804464DE0FFF76EF8064604E09E
:102FD000FFF76AF8801B642841D828688001F7D47D
:102FE00047F6C0704FF0FF364FF4403790FAA0F22A
:102FF000D4E9090397FAA7F7B2FA82F24FF0706C9E
:1030000006EB53039040D4E90761B7FA87F7E26A09
:103010009CFAACF4BB401843B4FA84F331439A40B1
:103020000143114300E020E041F00051C9F80010D5
:10303000286840F080702860FFF736F8044604E006
:10304000FFF732F8001B642809D828688001F7D5FB
:103050000BE000BFFFF728F8001B642802D903200B
:10306000BDE8F88F28688001F4D40020F8E701203B
:10307000F6E70000083802400070004070B5040018
:103080000D4603D094F82C0010B107E0012070BD6C
:10309000002084F82D00204600F011F8022084F86A
:1030A0002C002068211DFEF7B3FCD4E9000229465C
:1030B000FEF707FD012084F82C00002070BD70474A
:1030C00010B5044690F82C00022809D0022084F89C
:1030D0002C002068FEF7CBFC012084F82C00002097
:1030E00010BD000070B5044690F82C000D46022873
:1030F0000DD0022084F82C002068FEF7BEFC286862
:10310000022805D05FF0010084F82C00002070BD7B
:103110000520F9E710B5040003D094F8690010B158
:1031200007E0012010BD002084F86800204600F070
:1031300027F8022084F869002068016821F0010165
:103140000160204602F0F8FF0128EBD0606A10B160
:10315000204602F04BFF2068416821F49041416015
:103160002068816821F02A0181602068016841F0AF
:10317000010101602046BDE8104002F09BBF000045
:103180001D4830B5A7B0016841F001010160016838
:1031900001F001012691016841F001010160006820
:1031A0000124119400F00100269040200090684610
:1031B000FFF7CCF810481430016841F010010160AD
:1031C000006821AB022100F010002690600283E825
:1031D00013000725094C032221A92046CDE9242507
:1031E000FEF768FE2015259521A921902046FEF7BF
:1031F00061FE27B030BD00003038024000000240C0
:103200002DE9F047044690F8690099460D460128DB
:1032100003D094F86900222854D125B31AB394F846
:10322000680001284ED00027E766012694F869005F
:1032300084F86860222819D05FF0120084F86900D1
:10324000A4F850204FF48058A4F852200022B4F87B
:10325000520080214B46401EA4F85200204603F045
:103260008FF8C8B904E00120BDE8F0873220E5E717
:10327000A068404501D1206980B115F8010B216893
:103280008862B4F852000028E0D100224B46402169
:10329000204603F075F838B10320E5E735F8020B56
:1032A0002168C0F30800EBE794F86900322805D0E4
:1032B00084F86960002084F86870D5E7222084F8DB
:1032C0006900F7E70220CFE7FEE70000074800218A
:1032D0004B1E012203618180C18001814181818176
:1032E000027041708170C170C1817047000002207E
:1032F00010B5FFF7EBFFBDE810404FF07F40FDF742
:1033000065BC00002DE9F04106461A48FDF714FFA0
:10331000194F3846FDF71EFFFDF702FE84B2FDF798
:103320000FFE144D01462246E888091A001D83B29B
:10333000091F89B20020FDF7AFFD3C162046FDF7BE
:1033400009FF3846FDF7EAFEFDF7FAFDE98801239B
:103350003246401A81B20020FDF714FD2006FDF729
:10336000DDFE2046FDF7F6FE2846BDE8F041FDF7FC
:10337000E3BE000058000220FF0000FF2DE9F041ED
:1033800005461548FDF7D8FE144E3046FDF7E2FE1F
:10339000FDF7C6FD104C82B20021E08800EB400032
:1033A00083B20846FDF778FD37163846FDF7D2FEA2
:1033B0003046FDF7B3FEE188012300202A46FDF7E1
:1033C000E1FC3006FDF7AAFE3846FDF7C3FEBDE876
:1033D000F0410348FDF7B0BE50000220FF0000FF9F
:1033E000580002202DE9F843074613480E461349BA
:1033F000DDE908C81C46154600234FF4403280E83A
:103400000E10FEF70FFC002814D10B483946FEF7CA
:1034100099FB00280ED108482B46324641460094BD
:10342000FEF79CFC002805D1BDE8F84302480A21BC
:10343000FEF726BCBDE8F8839C03022000B00240E2
:103440002DE9FE4F81460068882493468D888C22A2
:1034500004EBCB178A46C3689421BE46C459C3F314
:103460000B432B4404F470441F04019702EBCB126E
:1034700040F80E4001EBCB13DAF800709C214FF0BE
:10348000AC0C01EBCB1440F2077102910CEBCB11A9
:10349000D9F800C098250020CDF800C0A02605EB83
:1034A000CB15DCF80CC006EBCB16CCF30B4C0CF1B7
:1034B000010C07EB0C08DDF800C0019F48EA070883
:1034C0004CF80E80D9F80070BAF80CC0B846FF6806
:1034D000C7F30A0767444FEA074E58F8027007F42B
:1034E000704C48F802C0D9F800C0DAF80870DCF86F
:1034F0000C80C8F30A0808F10108B84448EA0E082D
:103500004CF80280D9F80020D75827F00707D75089
:10351000D9F80070DAF81020FA509AF831209AF8A9
:1035200018304FEA022C9AF83220120442EA036261
:10353000D9F800301F5918519AF8303043EA0C037B
:103540001343D9F800201351D9F80020535923F020
:10355000FF035351D9F80020DAF814305351D9F849
:1035600000209359029CA3439351D9F80030DAE923
:10357000072422439A51D9F8002053585050D9F8C3
:103580000020DAF824005050DAF81000C8B30128FF
:103590003AD004283AD0022838D0032836D0072859
:1035A00034D00120D9F80030B02505EBCB11B4227E
:1035B00084245D5802EBCB1205F0E0255D50DAE97A
:1035C000003504EBCB14EB1ABAF8285043434543BB
:1035D000D9F80000DB1C43EA05434350D9F800004A
:1035E00081586FF30A018150D9F80000DAF82C10E5
:1035F0008150D9F80000015941F001010151BDE8A5
:10360000FE8FFFE70420CDE70320CBE70220C9E7C8
:10361000012000F001B8000070B50446FCF708FE78
:103620000546FEF72DF804480460FEF739F82846F1
:10363000BDE87040FCF700BE94000220FEE70A4699
:10364000002100F051B800000EB50B4900200B4AD4
:10365000086002A90120CDE90001830202F5806122
:1036600007A000F011F8BDF80800A0F51C511039B2
:1036700001D0FEF7C9F80EBD98000220FC0502201B
:1036800048656170000000002DE9F84F1D4617469F
:1036900088468146DDE90A6AFCF7CAFD0446FDF763
:1036A000EFFF33463A4641464846009500F00CF895
:1036B000FDF7F6FF2046FCF7BFFD42F21071AAF8B5
:1036C0000010BDE8F88F000010B5029814180548E6
:1036D000641EC1E900248A600268C1E90323016015
:1036E00010BD000098000220002310B54FEA03042B
:1036F000641C042C41EA0323FAD310F0030405D11F
:103700000BE000BF521E641C00F8011B002A0CD005
:10371000042CF7D301E0121F08C0042AFBD202E0F8
:10372000521E00F8011B002AFAD110BD704709078C
:1037300000284FEA116106DA00F00F0000F1E020E6
:1037400080F8141D704700F1E02080F800147047E5
:103750007047000002480068002800D0004770470A
:10376000AC00022010B5044600F09CF83C4A002052
:103770003A4910703B4A10703B4A10703B4A106047
:103780003B4A10603B4A10703B4A10703B4A107035
:103790000A6832B13A4A12681AB1096801C2491E70
:1037A000FCD1384908603849086038490860384910
:1037B0000860384908603849086038490860384965
:1037C000087001F0F9FB01F02DFC204601F0B0F982
:1037D0002088002841D1204601F004FA20880028E2
:1037E0003BD1204601F00AFA2088002835D1204636
:1037F00001F06EFA208800282FD1204601F006FC47
:103800002088002829D1204601F0A8FC2088002823
:1038100023D1204601F0FAFE208800281DD1204641
:1038200001F0ACF92088002817D1204602F0E4F915
:103830002088002811D1204601F008FE20880028A9
:103840000BD1204602F032FA2088002805D101F081
:103850006DF9BDE81040FFF77BBF10BDEC9801206B
:10386000C0000220C8000220EE0002205001022009
:1038700054010220E2000220E3000220E4000220C2
:10388000E8980120A0000220A4000220A800022045
:10389000AC000220B0000220B4000220B8000220D8
:1038A0001A010220064905480A680068054900EB2C
:1038B000820020F00700086070470000E8980120AF
:1038C000EC98012058010220194810B50078012811
:1038D0002CD1FCF7ADFC04461648017809B3491E0B
:1038E00011F0FF0101701CD113480078C8B901F034
:1038F00051FB124A00EB400311491070114850F877
:10390000230008601049096888420AD00F49D0F89E
:103910008C20521CC0F88C200868401C0860FCF702
:10392000D2FF2046BDE81040FCF786BC10BD000069
:10393000C8000220C0000220EE000220E3000220A6
:10394000540102206C1602205001022010010220B6
:103950002DE9F041044617480F461646007810B18D
:1039600042F6E16023E004B3FCF762FC8046FDF719
:1039700087FE0025256210486562C4E9000784F8C7
:10398000285004F10800E56201F034FA204601F005
:1039900071F90A490888401C0880FDF781FE4046FD
:1039A000FCF74AFC3580BDE8F08145F6C350108035
:1039B000F9E70000C00002204D555458E0000220F5
:1039C0002DE9F04705465C4888B01C46904689467C
:1039D0000078109E10B146F2AE1065E03DB11000C7
:1039E00008D0B2F5004F05D045F625605CE045F6FD
:1039F000C35059E051492868884202D045F6C45066
:103A000052E04FF0000704B12760FCF711FC82463A
:103A1000FDF736FE95F82810494899B16A6A03689F
:103A20009A422CD1FF2922D0491C85F828100CB1CC
:103A3000E86A2060FDF734FE5046FCF7FDFB45F2D6
:103A4000827031E0026801216A6285F828100CB1A9
:103A5000E96A21600068C16B2962C563FDF720FE39
:103A60005046FCF7E9FB378008B0BDE8F087FDF76A
:103A700017FE5046FCF7E0FB45F2847014E05FEA65
:103A8000084107D5FDF70CFE5046FCF7D5FB46F282
:103A9000B01009E02B49097841B1FDF701FE50460D
:103AA000FCF7CAFB46F663503080DDE792F837C07A
:103AB000804693F837108C4502D9104601F038FD46
:103AC00004224B462946684601F00EF9FDF7E8FD51
:103AD0005046FCF7B1FB00F0DFF8FCF7A9FB054608
:103AE000FDF7CEFDD8F8000090F8351041B101295E
:103AF0000BD002291AD003290DD046F62E600EE015
:103B00000CB1806C206037800AE00CB1806C2060C2
:103B100046F2A91003E004B1276047F2D9203080B3
:103B2000FDF7BEFD2846FCF787FB9DE70CB1806CD6
:103B3000206045F6C250F2E7C00002204D555458AF
:103B400050010220EE0002202DE9FC5F04464E48A1
:103B500015468A46007810B146F20E2011E03CB1BD
:103B6000080008D0B1F5004F05D045F6256008E003
:103B700045F6C35005E045492068884204D045F623
:103B8000C4501080BDE8FC9FFCF752FB0190FDF78C
:103B900077FD3F4E606A3168884207D0FDF780FDAF
:103BA0000198FCF749FB45F2817012E0FDF74CFEED
:103BB00094F828108146E062491E11F0FF0084F855
:103BC000280008D0FDF76CFD0198FCF735FB45F2A5
:103BD00083702880D6E73068214601F06EF8208A8D
:103BE00004F108074FF0000BE8B3306890F8371085
:103BF00090F8382091421BD001F04EF83168804691
:103C000091F83820424500D2904691F8370040455F
:103C10000ED2084601F066FA306880F837804046D8
:103C200001F0D0F9306801F043FA1A4880F80080BA
:103C30000120396800231A468968616284F82800E7
:103C4000C86B20622046CC63CDF8009001F034F9B7
:103C5000FDF726FD0198FCF7EFFA5FEA0A4001D470
:103C600000F01AF800E002E0A5F800B08AE7C4F816
:103C700024B05E4684F828B0FDF712FD0198FCF7E9
:103C8000DBFA2E807EE70000C00002204D5554581C
:103C900050010220E2000220184810B500780028E8
:103CA0002AD117480078002826D1FCF7C1FA04462B
:103CB00001F070F9134900EB4002087013481249F3
:103CC00050F82200086012490968884204D1204651
:103CD000BDE81040FCF7B0BA0E49D0F88C20521C59
:103CE000C0F88C200868401C0860FCF7E7FD2046FF
:103CF000FCF7A2FABFF36F8F10BD0000C0000220D6
:103D0000EE000220E3000220540102206C16022083
:103D1000500102201001022070B5044611480078BD
:103D200010B146F662501BE00F480078012802D01F
:103D300045F6896014E00D4D2878FA2802D345F243
:103D400009200DE0FCF774FA0646FDF799FC287887
:103D5000401C2870FDF7A4FC3046FCF76DFA0020EB
:103D6000208070BDC0000220C8000220EE000220AA
:103D700070B504461748007810B146F6655027E044
:103D800015480078012802D045F6896020E0134DDF
:103D9000287890B1FCF74CFA0646FDF771FC2878BC
:103DA000401E10F0FF0028700AD0FDF779FC304665
:103DB000FCF742FA46F663500AE046F6645007E024
:103DC000FDF76EFC3046FCF737FAFFF765FF002081
:103DD000208070BDC0000220C8000220EE0002203A
:103DE0002DE9F04704461648174688461D460078D8
:103DF00010B142F6E16020E0ECB1FCF719FA81461F
:103E0000FDF73EFC0F480026C4E9000804F1080055
:103E1000C4E9087600F0EEFF204601F08DF90A496A
:103E20000888401C0880FDF73BFC4846FCF704FA74
:103E30002E80BDE8F08745F6C3501880F9E70000F2
:103E4000C000022053454D41F40002202DE9F04FFF
:103E500006464D4889B01C4691468A460078129D18
:103E600010B146F2AE100AE03EB1100009D0B2F532
:103E7000004F06D045F6256001E045F6C350288086
:103E800062E042483168814202D045F6C450F6E70C
:103E90004FF0000704B12760FCF7CAF98346FDF72D
:103EA000EFFBD6F82080B8F1000F0ED0A8F1010882
:103EB000C6F820800CB1706A2060346AFDF7F0FB10
:103EC0005846FCF7B9F92F8056E05FEA09400BD558
:103ED000FDF7E6FB5846FCF7AFF946F2B010288034
:103EE000404609B0BDE8F08F2948007838B1FDF7A9
:103EF000D7FB5846FCF7A0F946F66350BFE7062209
:103F000053463146684600F0EFFEFDF7C9FB5846C0
:103F1000FCF792F9FFF7C0FEFCF78AF98046FDF73F
:103F2000AFFB1C48006890F8351079B1012912D018
:103F3000022923D0032914D046F62E602880FDF7ED
:103F4000AFFB4046FCF778F90020CAE70CB1806C63
:103F500020602F800AE00CB1806C206046F2A9102E
:103F600003E004B1276047F2D9202880346AFDF7C6
:103F700097FB4046FCF760F92046B2E70CB1806C35
:103F8000206045F6C250F0E7C000022053454D4185
:103F9000EE0002205001022070B505000E461446C6
:103FA0000CD076B1B6F5007F0BD0B6F5004F08D037
:103FB000B6F5024F05D045F6256008E045F6C3503A
:103FC00005E009492868884204D045F6C4501080AD
:103FD000002070BDFDF738FC0246234631462846D6
:103FE000BDE8704001F0C6B853454D4170B50F4D66
:103FF0000446287818B145F68A60208070BD00F02C
:10400000C9FF0B4B00EB40060A49012218700A4B0E
:1040100018700A4850F826000860094908602A709C
:10402000FCF70EFC43F69920E7E70000C8000220E9
:10403000E300022054010220E20002206C1602205C
:10404000500102202DE9F0410646FCF7F1F8044644
:10405000FDF716FB2B48002505802B4805602B48F3
:1040600005602B4805602B4805602B480581FDF74E
:1040700017FB2046FCF7E0F8FCF7DAF80746FDF7F7
:10408000FFFA264804681CE0FCF7D2F80746FDF763
:10409000F7FAC4F8B0506567C4F8A450C4F88C505F
:1040A000A4F88850A4F88A50C4F89850C4F89C50DA
:1040B000FDF7CAFB0146C4F894106C200553D4F8F0
:1040C000B840FDF7EDFA3846FCF7B6F8002CDBD126
:1040D000FCF7AEF80746FDF7D3FA1148046806E08E
:1040E000FCF7A6F80746FDF7CBFAA585A469FDF70E
:1040F000D7FA3846FCF7A0F8002CF1D13580BDE89E
:10410000F0810000FA0002200C01022020010220B0
:1041100040010220C4000220601602201401022087
:10412000E8000220F8B504462448694600F086FB02
:10413000BDF8000058BB00216A46022000F0CAFB0F
:10414000BDF8000018BBFCF773F80746FDF798FAB6
:104150001B4E00253560FDF7A3FA3846FCF76CF8D6
:10416000184919480A6803689A4202D9B2FBF3F069
:1041700010B90A21B2FBF1F000216A4600F0AAFB57
:104180000E48694600F0E8F8BDF8000008B120804C
:10419000F8BDFCF74DF80746FDF772FA0B49012010
:1041A0000B4A0D60316811600A490870FDF778FA12
:1041B0003846FCF741F82580F8BD00009C19022024
:1041C000FC00022010990120FC9801200C01022023
:1041D000000102200801022002480068002800D0E7
:1041E00000477047B00002202DE9FF4F83B004461E
:1041F00050489346DDE91785DDE910960078139F56
:1042000010B147F24A1025E054B1BBF1000F0AD0BB
:1042100066B14948006887420BD246F6306019E023
:1042200047F2AD1016E047F24F1013E046F62F604C
:1042300010E01298B84202D346F631600AE0B9F1B4
:10424000200F46F2732005D2B9F11F0F06D13B496A
:104250008C4203D0288007B0BDE8F08F204601F0E3
:10426000E5F95FEAC8714FF0000AA5F800A00AD08E
:104270005FEA887007D500213046524601E0491CAC
:1042800004C0B942FBD312993246CDE900785846B2
:1042900006EB810506992B4600F09CF9C4F828B07E
:1042A0000699E162514684F8379084F83890276483
:1042B0006662A560A4F8448020600020049A22620F
:1042C000169A626004EB8003421C12F0FF009967AB
:1042D000F8D0149904F1600000F0C4FC204600F00E
:1042E00033F8FBF7A5FF0546FDF7CAF994F8370048
:1042F00000F068FE204600F0DBFE204601F074F975
:104300000F490888401C08800E480078012807D013
:10431000FDF7C6F907B02846BDE8F04FFBF78CBFA4
:10432000FDF7BEF92846FBF787FF07B0BDE8F04F61
:10433000FFF7B2BCC00002200C990120A01502209A
:1043400018010220C800022002490968002900D093
:1043500008477047A000022070B5054612480C4679
:10436000007818B147F25510088070BDFBF760FF68
:104370000646FDF785F91DB10C480068854208D155
:10438000FDF78EF93046FBF757FF47F257102080B4
:1043900070BDFDF785F93046FBF74EFF21462846F4
:1043A000BDE8704001F09CB9C0000220500102201D
:1043B00002490968002900D008477047A800022078
:1043C0002DE9F04781464B4814461E468846007842
:1043D00010B146F2AE1006E0080006D0B1F5004F6D
:1043E00003D045F6256018803EE04FF0000704B189
:1043F0002760FBF71DFF8246FDF742F93E4D296815
:10440000C86CD8B1401EC86480460CB1886C20606E
:10441000FDF71AFA29688A6C801AC1F8A000D1F851
:10442000A420824201D2C1F8A400FDF739F9504618
:10443000FBF702FF40463780BDE8F0875FEA08409F
:1044400007D5FDF72DF95046FBF7F6FE46F2B01002
:1044500009E02A48007848B1FDF722F95046FBF7F9
:10446000EBFE46F6635030800020E5E700214B4626
:104470000722084600F038FCFDF712F95046FBF71A
:10448000DBFEFFF709FCFBF7D3FE8046FDF7F8F8EB
:10449000286890F8351031B1012916D003291AD0B7
:1044A00046F62E601BE074B1806C2060FDF7CCF9FD
:1044B00029688A6C801AC1F8A000D1F8A420824231
:1044C00001D2C1F8A40037800AE00CB1806C2060F2
:1044D00046F2A91003E004B1276047F2D9203080EA
:1044E0002868C46CFDF7DCF84046FBF7A5FE2046C3
:1044F000A2E70000C000022050010220EE000220CE
:1045000070B50D000646144607D0B5F5004F04D02F
:1045100045F625601080002070BDFDF795F9024634
:10452000234629463046BDE8704001F045B90000F9
:104530002DE9F0470546254816460F461C460078EB
:1045400010B147F259100AE046F2D5203FB136B11A
:10455000FBF76EFE8146FDF793F81DB104E018806D
:10456000BDE8F0871A4805684FF00008286858B180
:1045700095F84400C00710D0FDF792F84846FBF7C5
:104580005BFE696A002016E0FDF78AF84846FBF7F3
:1045900053FE404647F2521107E0FDF781F84846C6
:1045A000FBF74AFE404647F25411386030602180E4
:1045B000D6E7401C091D0A68002AFAD038602A6C28
:1045C000101A3060A4F80080CAE70000C000022082
:1045D000500102202DE9F0434FF0807C4FF003366C
:1045E0004FF002374FF01038DDE9075402EB850237
:1045F0004FF0123522F00702640742F804CC4FF066
:10460000113C42F8080C724842F80C0CA2F110025E
:10461000A2F10400A0F104041560A4F104020660F4
:10462000A2F104002760A0F104041360A4F10402C5
:1046300001604FF0093540F804CCA2F1040044F8C1
:10464000048CA0F10404A4F104024FF008360560C4
:10465000A2F10405A5F1040026604FF007371760AA
:104660004FF006332B60A0F104024FF005310160DA
:104670004FF0043C914645F808CC7DD5A9F10807D8
:10468000DFF85081B50549F8045CA9F10C0C4846E7
:10469000C7F80080A9F11001DFF83C810A1FCCF8AF
:1046A0000080131FDFF834811C1FC1F80080251F14
:1046B000DFF82C81A9F18406C2F80080B146DFF84A
:1046C0002481A0F12406C3F80080371FDFF8188189
:1046D000A0F12C0CC4F80080A0F13001DFF80C81AF
:1046E0000A1FC5F80080131FDFF804811C1FC6F8DD
:1046F0000080251FDFF8FC802E1FC7F80080371FC1
:10470000DFF8F480CCF80080A0F14C0CDFF8EC80EE
:10471000C1F800802039DFF8E880C2F800800A1F65
:10472000DFF8E080C3F80080131FDFF8DC80C4F8F6
:1047300000801C1FDFF8D480C5F800804FF083484C
:10474000C6F80080251FDFF8C8802E1FC7F800803C
:10475000371FDFF8C080CCF80080A0F16C0CDFF8C8
:10476000B880C1F800802039DFF8B080C2F800803E
:104770000A1FDFF8AC8000E027E0C3F80080131FB9
:10478000DFF8A080C4F800801C1FDFF89C80C5F80B
:1047900000804FF082453560DFF89080C7F80080D8
:1047A0004FF08147224D234ECCF800504FF07E5CF5
:1047B0000E60DFF88480750217600021C3F8008066
:1047C000256040F880CCC9F800104846BDE8F08369
:1047D000995701200000F8410000F0410000E84135
:1047E0000000E0410000D8410000D0410000C84175
:1047F0000000C0410000B8410000B0410000A841E5
:104800000000A04100009841000090410000884154
:104810000000704100006041000050410000404134
:104820000000304100002041000010410000E04045
:104830000000C0400000A04000004040074A12783D
:1048400012B147F25D1004E0054A904203D147F2ED
:104850005B100880704701F005B80000C00002201E
:10486000A015022070B5184C206890F84410490734
:1048700002D50068FBF7CEFF144D286890F844106D
:10488000490702D50068FBF7D2FF1148006800B164
:104890008047FCF7D9FF21682A68914207D0D1E907
:1048A0002535C31A1D44C1F89850C1F89030C2F89C
:1048B0009400FCF7C7FE2168D1F8B020824201D2F3
:1048C000C1F8B00070BD0000500102205401022068
:1048D000B40002202DE9F041064620480D4614465A
:1048E000007810B147F2752027E01D48007810B11C
:1048F00046F6635021E045B1022D06D0042D05D0C7
:10490000082D02D045F6256017E0A6B1FBF790FC14
:104910000746FCF7B5FE2A46124D23463146286865
:1049200001F024F8208858B1FCF7BAFE3846BDE8FB
:10493000F041FBF781BC47F27E201080BDE8F0819A
:10494000286800F0CFFBFCF7ABFE3846FBF774FCA1
:10495000FFF7A2F900202080F0E70000C00002204D
:10496000EE000220500102202DE9F047424DDDE922
:1049700008642D7815B147F2752077E03F4D2D780A
:1049800015B146F6635071E016F00E0547F27E2928
:1049900045F6256705D0022D03D0042D05D0082D3E
:1049A00006D113B90AB901B9F0B336F01E0C02D022
:1049B0002780BDE8F087C6F3001747F27926012F5C
:1049C00047F2782C4FF47A770DD0BB4201D3B01C5C
:1049D0004CE03B2A02D947F27A2047E03B2906D82F
:1049E000632808D80AE042F20F78414501D92680B1
:1049F000DFE7B84202D3A4F800C0DAE7204E4FF454
:104A0000FA7C4FF46168C1EB011100FB08F03668D5
:104A100000EB8101BCFBF6FC114463447343B3FB20
:104A2000F7F001FB060600E022E00EB3FBF700FC06
:104A30000746FCF725FE2A46124D234631462868D4
:104A400000F094FF208830B1FCF72AFE3846BDE81C
:104A5000F047FBF7F1BB286800F044FBFCF720FEB1
:104A60003846FBF7E9FBFFF717F900202080A0E7A5
:104A7000A4F800909DE70000C0000220EE00022094
:104A8000109901205001022008B500F01BF80948D8
:104A900000216A46FFF734FD07490868401E086098
:104AA00007D106486A460068086000210448FFF7FD
:104AB00027FD08BDAC1802204C010220480102204D
:104AC0009C19022002480068002800D00047704767
:104AD000B800022010B5FBF7ABFB0446FCF7D0FD95
:104AE00007490878401C0870FCF7DAFD2046FBF700
:104AF000A3FBFFF7C9FFBDE81040FEF7E5BE0000CD
:104B0000C00002204FF0E021074A401E48611068B3
:104B100020F07F401060086940F0050008610869D6
:104B200040F002000861704720ED00E0704700008F
:104B3000034A00211160034A118001807047000080
:104B4000CC000220D00002200A4C0B4DFBF770FB7A
:104B50000646FCF795FD2068401C20602868401C34
:104B60002860FCF79DFD3046FBF766FBFEF7F2FD83
:104B7000ECE70000BC000220FC0002200E4B0021EC
:104B800010B58AB00B2219601F2405910691CDE95A
:104B900007200B4A094813680A4A00681268009403
:104BA000CDE90130CDE90321074A0B460C4807A1A6
:104BB000FFF71AFB0AB010BDBC000220E0980120EC
:104BC000DC980120E4980120494B012075432F4FC8
:104BD000532D4949492049646C65205461736B0029
:104BE000A0150220034A00211160034A11800180B0
:104BF00070470000D4000220D8000220F0B5164C07
:104C0000216851B1154E318851B18FB2236800220D
:104C10007F1E1546BFB219460DE045F21E7101E038
:104C200045F21D710180F0BD6D1CC1E900320A81A1
:104C3000ADB2CA6010311033BD42F5D30A60084BE3
:104C40004A600A81CA602168196031889980DA80D7
:104C50001A810280F0BD0000F4980120F098012034
:104C6000601602200181002242818281026042603E
:104C700070470000074A0023436105A1C161116824
:104C800019B181614861106070478361FBE70000E2
:104C900020000000DC0002201F213C3008E0826878
:104CA0002AB1926892F837208A4200D21146203009
:104CB00000680028F3D1084670473C3001E002F15B
:104CC000200002688A42FAD1116A01607047000030
:104CD000034A00211160034A1180018070470000DF
:104CE000DC000220E00002202DE9F041114D0746D2
:104CF00000260C461946286880F8342080F8356074
:104D000000F002FC64B1FC600122286804F108068E
:104D1000394600F011F83946304600F070F803E0EB
:104D20002868A0F84660066320462968BDE8F0417F
:104D300000F016B85001022010B50023A0F846205C
:104D40001C46016309E04B60641C0B60A4B20B615C
:104D50004B610B83CB61886020319442F3D310BD4B
:104D600038B14368C1F8BC3081688968096AC1619B
:104D7000704791F83400022803D0072803D004A01C
:104D800002E004A000E005A0C1F8BC0070470000EC
:104D9000200000005461736B205100005461736B5C
:104DA0002053656D0000000005A2C1F8BC20816899
:104DB00011B18968096A00E001A1C1617047000072
:104DC0002000000070B5B0F84640056B0FE0EE68BB
:104DD000308A0836012807D92946304600F051F8B4
:104DE0002946304600F00BF8641EA4B22035002C92
:104DF000EDD170BD0021016041600181704730B587
:104E00008A680023048992F837501CB10268641C38
:104E100004810BE0012202814B600B60016014E011
:104E2000946894F83740AC4203D85268002AF7D10E
:104E300007E032B1146854B1C1E900426160116009
:104E400030BD4B6042680A605160416030BD116006
:104E5000C1E90032016030BD70B5B0F84640064689
:104E6000056B07E0E8682946083000F00AF8641E80
:104E7000A4B22035002CF5D10020A6F846003063FE
:104E800070BD10B502890023012A0BD00A6862B1F7
:104E90004C6874B1546022600289521E02814B60DA
:104EA0000B6010BD03604360F6E74A681360026060
:104EB000F2E753604260EFE7F8B50C4691F8361020
:104EC00000250646069808294ED2DFE801F04D4D30
:104ED00004044D4D282894F83410032910D0A265FD
:104EE000A4F85C30A06436B12046FFF7B5FF214638
:104EF0003046FFF759FF94F83600032806D008E043
:104F000021460090304600F030F8ECE7204600F0F3
:104F10006DFD204600F098F884F8365020E094F8B3
:104F20003410032910D0A265A4F85C30A06436B117
:104F30002046FFF791FF21463046FFF735FF94F8F2
:104F40003600072806D008E021460090304600F0E1
:104F50000CF8ECE7204600F049FD042084F8360008
:104F600084F8355084F83450F8BD70B50C6BB1F846
:104F70004610049D0AE0E668864204D1C4E90402B2
:104F80002383E56170BD491E89B220340029F2D126
:104F900070BD000010B50748002402E02034001D59
:104FA000E4B201680029F9D00846FBF74CF9204427
:104FB000C0B210BD9C00022001490020086070476B
:104FC0009C000220074A410900F01F030120C3F1A1
:104FD0001F0310B552F821409840044342F8214085
:104FE00010BD00009C000220074A410900F01F0389
:104FF0000120C3F11F0310B552F8214098408443AB
:1050000042F8214010BD00009C000220034A00210C
:105010001160034A1180018070470000E8000220FF
:10502000EC000220074B00214FEA010000EB400298
:10503000401C03EB8202C0B2202811811160516034
:10504000F4D370476C16022010B5044690F8370070
:10505000FFF7B8FF074994F83700097888422046DF
:1050600003D1BDE8104000F023B8BDE8104000F0C7
:1050700003B80000E200022090F8371000230B4A2A
:1050800001EB410102EB81010A8942B1521C0A8104
:105090000A68C0E903230A681061086070470122AA
:1050A0000A81C36003610860486070476C16022083
:1050B00090F8371000220A4B01EB410103EB81010C
:1050C0000B893BB15B1C0B81C2604A680261D060F6
:1050D0004860704701230B81C26002610860F7E7F6
:1050E0006C16022070B5054690F83700114B00246D
:1050F00000EB4001D5E9030203EB81014AB10B89C2
:10510000A3F101030B81D06090B102612C61EC60CE
:1051100070BD28B10A89521E0A8104610860F5E752
:105120000C810C604C6095F83700FFF75DFFEDE7F0
:105130004A60EBE76C160220074A0023436105A191
:10514000C161116819B18161486110607047836164
:10515000FBE7000020000000F0000220034A0021CD
:105160001160034A1180018070470000F0000220A6
:10517000F40002202DE9F84F1E46174688460446E3
:10518000FBF756F88346FCF77BFA258A04F1080002
:105190004FF0000A0DB300685FEA88510BD4012577
:1051A0000023D0E901911A4620460097FFF784FEBC
:1051B0006D1E4846ADB2002DF2D1246AFCF770FA9C
:1051C0005846FBF739F85FEA084001D4FEF764FD62
:1051D0002046A6F800A0BDE8F88F256A681C0BD011
:1051E0006D1CC4E90857FCF75BFA5846FBF724F836
:1051F0002846A6F800A0EEE7FCF752FA5846FBF75F
:105200001BF846F6C55030800020E4E77F4C0EB511
:105210007F4E2068450004E0002128466A46FFF7DB
:1052200059FB30780128F7D16846FEF70BFF794823
:1052300022680168914204D9B1FBF2F15FEA0108EA
:1052400003D100680A21B0FBF1F8DFF8CCB15FF0C0
:105250000006724F42F2107AFCF7F6FA0190FCF762
:1052600001FA6F490860FAF7E3FF0546FCF708FA10
:105270006C486D4C016821600660FCF711FA284605
:10528000FAF7DAFF6948236802689A422BD968481E
:10529000824202D20121504615E06648824203D282
:1052A0000A214FF47A700EE06348824202D26420F1
:1052B000014608E06148824203D20A204FF47A7125
:1052C00001E0012051465843B2FBF1F35C49B0FBC9
:1052D000F3F0AAEB000080B2ABF800000A8882422B
:1052E00003D2088001E0ABF80060FEF775FF0024F0
:1052F000FAF79EFF8146FCF7C3F93D6816E000BF50
:10530000FAF796FF8146FCF7BBF9D5F89800E5E976
:105310002660FCF7C5F94846FAF78EFF6868044432
:10532000FAF786FF8146FCF7ABF92D6AFCF7B8F96E
:105330004846FAF781FF002DE2D12CB33C48844265
:1053400002D20120554615E03A48844203D20A2091
:105350004FF47A750EE03848844202D2642528461C
:1053600008E03648844203D20A254FF47A7001E0FF
:1053700001255046B4FBF0F08146FAF759FF029040
:10538000FCF77EF93C6822E000250120F4E700BF2D
:10539000D4F89C006843B0FBF9F080B2504500D9C6
:1053A0005046B4F88A10A4F88800814201D2A4F8CB
:1053B0008A0004F1A802111D6B462046FFF7B8F8D9
:1053C000FAF736FF0290FCF75BF9D4F8B840FCF727
:1053D00067F90298FAF730FF002CD9D11948017803
:1053E000012903D106706846FEF72CFEFCF72CFA63
:1053F0001549019A801A0A68824200D20860002189
:105400006A464046FFF766FA26E70000FC9801204E
:105410000801022010990120F80002201401022046
:10542000C4000220FC00022004010220000102202E
:10543000801A060000093D00005A62020084D71756
:10544000FA000220F60002200C0102201E4B00216F
:1054500030B589B01B4A19601C4B19601C4B196090
:105460001C4B19701C4B1970136843B11B4B1C4C1F
:105470001D682468A54205D246F62C6108E046F670
:105480002B6105E0174C25781F2D04D346F62A61C1
:10549000018009B030BD032505910691CDE9075083
:1054A0001868114B12681B68CDE9030110A1CDE902
:1054B00001232078002300900C4A1248FEF794FE46
:1054C000E7E7000000990120FC000220040102200F
:1054D0000001022008010220F600022008990120A4
:1054E0000C990120F8980120049901200D52012007
:1054F00075432F4F532D49494920537461742054EB
:1055000061736B00EC17022010B5044631B10A46F6
:105510000146064800F0FAF9032000E0022084F872
:1055200036002046BDE81040FFF7DCBD2C0102200C
:1055300070B50C464FEA000595F8360095F83760CF
:1055400008281CD2DFE800F004191C1C19191C1CC7
:105550002846FFF7C7FD204685F83740FFF732FDA4
:10556000204800688542284603D1BDE87040FFF717
:1055700083BDBDE87040FFF79BBD85F8374070BD27
:1055800095F8340085F837400728F8D2DFE800F0B6
:10559000040504050A050500F1E72846BDE870404A
:1055A000FFF710BC2846FFF70DFC286BA642C06829
:1055B000456A95F8370002D9A042E0D90EE0B04222
:1055C0000CD12846FFF768FB044695F83800A04246
:1055D00000D2044695F83700A042D0D0002DABD1C0
:1055E00070BD000050010220074B0022C0F8B4201B
:1055F000196829B1C0F8B810C1F8B4001860704734
:10560000C0F8B820FAE7000014010220044A002183
:105610001160044A1180044A116001807047000043
:1056200014010220180102201001022070B5044666
:10563000002528A029462560A5606560E5602561F4
:105640006561A561C4E90750656204F16000A56267
:10565000E562A564A565A4F85C50FFF703FB256728
:1056600000206567E567A4F88450C4F8805004EB17
:105670008002411C11F0FF009567F8D0E564C4F882
:10568000A050C4F8A450256484F88650C4F8AC50E7
:10569000C4F8A850A4F8445025656565A4F888505E
:1056A000A4F88A50C4F88C50C4F890503434FCF7F5
:1056B000CBF80146C4E91815E5672020257007A13D
:1056C0006570A570E0702071A560C4F88050C4E9D1
:1056D000215170BD3F5461736B0000002000000039
:1056E00070B50D460446FAF7A3FD0646FBF7C8FF62
:1056F0000020288094F83610082944D2DFE801F011
:10570000040404040D232D37FBF7CAFF3046FAF7D3
:1057100093FD47F25310288011E094F88610491E3B
:1057200011F0FF0184F8861004D184F83600204679
:10573000FFF78AFCFBF7B4FF3046FAF77DFDBDE8C2
:105740007040FEF7A9BA94F88600401E10F0FF00E2
:1057500084F88600EED1012012E094F88600401E05
:1057600010F0FF0084F88600E4D1022008E094F8ED
:105770008600401E10F0FF0084F88600DAD1032076
:1057800084F83600D6E7FBF78BFF3046FAF754FD76
:1057900046F62D60288070BD054808B50068FEF704
:1057A00007FE044C00216A462068FFF793F8F9E7EA
:1057B00050010220109901202DE9F8431E4614469D
:1057C00088460546FAF734FD8146FBF759FF0DB9C7
:1057D00023480568002046F6C557AC64308095F82C
:1057E0003600082830D2DFE800F004040F0F04046C
:1057F0000F0FEC6C601C1ED0641CEC64FBF750FFB8
:105800004846FAF719FD28E095F834000728F0D14A
:10581000002329461A4618460094FFF74DFBEC6C0E
:10582000FBF73EFF4846FAF707FD5FEA084014D44D
:10583000FEF732FA11E0FBF733FF4846FAF7FCFCBB
:1058400000203780BDE8F883FBF72AFF4846FAF7C7
:10585000F3FC002446F62D6030802046F2E700007D
:105860005001022070B50D460446FAF7E1FC0646E9
:10587000FBF706FF234804B90468006884420AD194
:105880002148007838B1FBF70BFF3046FAF7D4FC1B
:1058900046F6635033E00021298094F83610012049
:1058A000082925D2DFE801F0040D181C1E1E1E1E5B
:1058B000042184F8361084F886002046FFF712FC95
:1058C00001E0052109E0FBF7EBFE3046FAF7B4FCF6
:1058D000BDE87040FEF7E0B9062184F8361004E018
:1058E0000721FAE794F88600401C84F88600EAE76E
:1058F000FBF7D6FE3046FAF79FFC46F62D6028806F
:1059000070BD000050010220EE00022070B5036857
:1059100000253BB94D6101230A65C1E906500160CC
:10592000838070BD1E6D964216D39C694B610A65DB
:1059300054B1C1E906401D6DAA1A1A6599616161E9
:105940008188491C818070BDC1E906501C6DA21A76
:105950001A6599610160F3E71C465B69921B002B95
:10596000E0D14D610A65C1E90640E8E7F0B51C46A3
:105970001B4BDFF870C0042A47F27E264FF000056B
:105980001B6804D0082A08D029B10A4615E0CA1AB3
:10599000624500D88AB905651FE0D0F854E0A3EB52
:1059A0000E078F4203D90B440A46436505E0CA1B24
:1059B00062450BD852B171444165012180F836101F
:1059C00001460948FFF7A2FF2580F0BDB7FBF1F2C1
:1059D00001FB02E21144C0E914512680F0BD000031
:1059E0001C0102200000FFFF2401022030B5D0E995
:1059F0000524C369002174B1626122B19461046D10
:105A0000156D2C44146581619A88521E9A804161FB
:105A10000165C16130BD32B19161146D056D2C44D9
:105A200014651A60F0E719609980F1E72DE9F047F5
:105A3000FAF7FEFB8246FBF723FEFBF705FF1C4D42
:105A4000002607462C681CB3206DB0464FF00409B1
:105A5000401E20651AE000BF94F83600761CB6B2EE
:105A6000012802D0052806D007E0204684F83680B9
:105A7000FFF7EAFA01E084F8369064692C609CB183
:105A8000A888401EA880C4F81880206D0028E3D0A4
:105A9000EE80FBF7D9FEC41BFBF702FE5046FAF777
:105AA000CBFB2046BDE8F087A5F80480F0E70000B6
:105AB000240102202DE9F047FAF7BAFB8246FBF7F2
:105AC000DFFDFBF7C1FE364E002780463468ECB39D
:105AD000206DB946401E20654FE000BF94F83400A9
