:020000042001D9
:10000000F0060220DD010120E5010120E7010120C9
:10001000E9010120EB010120ED01012000000000B9
:10002000000000000000000000000000EF010120BF
:10003000F101012000000000F3010120E51B012077
:10004000F7010120F7010120F7010120F70101204C
:10005000F7010120F7010120F7010120F70101203C
:10006000F7010120F7010120F7010120F70101202C
:10007000F7010120F7010120F7010120F70101201C
:10008000F7010120F7010120F7010120F70101200C
:10009000F7010120F7010120F7010120F7010120FC
:1000A000F7010120F7010120F7010120F7010120EC
:1000B000F7010120F7010120F7010120F7010120DC
:1000C000F7010120F7010120F7010120F7010120CC
:1000D000F7010120F7010120F7010120F7010120BC
:1000E000F7010120F7010120F7010120F7010120AC
:1000F000F7010120F7010120F7010120F70101209C
:10010000F7010120F7010120F7010120F70101208B
:10011000F7010120F7010120F7010120F70101207B
:10012000F7010120F7010120F7010120F70101206B
:10013000F7010120F7010120F7010120F70101205B
:10014000F7010120F7010120F7010120F70101204B
:10015000F7010120F7010120F7010120F70101203B
:10016000F7010120F7010120F7010120F70101202B
:10017000F7010120F7010120F7010120F70101201B
:10018000F7010120F7010120F7010120F70101200B
:10019000F7010120F7010120F7010120F7010120FB
:1001A000F7010120F7010120F7010120F7010120EB
:1001B000911B0120F7010120F7010120F701012027
:1001C000F7010120F7010120DFF80CD000F018F84A
:1001D0000048004765210120F006022006488047BC
:1001E00006480047FEE7FEE7FEE7FEE7FEE7FEE71C
:1001F000FEE7FEE7FEE7FEE7491C0120C9010120FA
:10020000064C074D06E0E06840F0010394E8070063
:1002100098471034AC42F6D3FFF7DAFFBC22012036
:10022000DC22012070B515490500154886B005D0BF
:10023000012D03D0022D01D0032D08D10A6842F010
:1002400001020A600968044601F0010100910D4EA7
:100250000120032156F82520CDE90120CDE9030135
:1002600001A9204600F016F936F82500012281B2D6
:10027000204600F0FFF906B070BD000030380240A3
:10028000000002407C2201200749020005D0012A1B
:1002900003D0022A01D0032A00D10846034931F8CD
:1002A000221089B200F0E2B9000002407C22012055
:1002B000F0B5BFF34F8FBFF36F8F20490020DFF8F9
:1002C00078E00860DEF8001041F40031CEF800104C
:1002D000BFF34F8FBFF36F8F174970310A1F08604C
:1002E000106800F00705C0F3C903C0F34E31B3FA3C
:1002F00083F02D1D00F01F07BFF34F8FDFF83CC0C8
:100300000CF1100C184601FA05F200BF00FA07F6CE
:100310001643CCF80060401EF8D2491EF2D2BFF35B
:100320004F8FDEF8000040F48030CEF80000BFF3BD
:100330004F8FBFF36F8FF0BD14ED00E050EF00E082
:100340002DE9F04FDFF81CE1894600214FF0010A4A
:100350004FF00F0B0AFA01F409EA0403A3427BD120
:10036000076803254E00CA08B540AF4307604E0733
:1003700000EB8202D2F820C04FEAD6680BFA08F7E9
:100380002CEA070CC2F820C08F0721F00308D0F830
:1003900008C03F0F08EB0E06DFF8CC800BFA07F21F
:1003A0002CEA050CC0F808C0D0F804C040452CEA7F
:1003B000040CC0F804C0C46824EA0504C460D6F87C
:1003C000084802EA040401D100252DE0274DA84287
:1003D00001D1012528E0264DA84201D1022523E0C4
:1003E000244DA84201D103251EE0234DA84201D18E
:1003F000042519E0214DA84201D1052514E0204D26
:10040000A84201D106250FE01E4DA84201D10725C3
:100410000AE01D4DA84201D1082505E01B4DA84268
:1004200001D1092500E00A25BD40A54214D1D6F826
:100430000858174C271D9543C6F8085826683A1DDA
:10044000151D9E4326603C689C433C6014689C4399
:1004500014602A689A432A60491C1029FFF47AAF75
:10046000BDE8F08F0030014000000240000402406F
:1004700000080240000C024000100240001402403C
:1004800000180240001C02400020024000240240EC
:10049000003C01402DE9F84FDFF89CE100224FF0CD
:1004A00001084FF0030B4FF00F0A00BF0B6808FA6A
:1004B00002F42340A34271D14D68022D01D0122DC8
:1004C0000FD1D5080E69570700EB8505A9462D6A9F
:1004D000FF0E0AFA07FCBE4025EA0C052E43C9F8B8
:1004E00020600F79550006680BFA05FC07F003073A
:1004F00026EA0C06AF40374307604E68012E05D050
:10050000022E03D0112E01D0122E0ED18668CF6894
:1005100026EA0C06AF403743876046680F79A6434A
:10052000C7F30017974037434760C4688E6824EAD2
:100530000C04AE402643C6604C68E40075D53F4CC1
:10054000256845F480452560246822F00306950758
:1005500004F4804400943A4C2D0F2644D6F8084801
:10056000DFF8E0C00AFA05F7604524EA070401D184
:1005700000272EE0344FB84201D1012729E0334F44
:10058000B84201D1022724E0314FB84201D10327FC
:100590001FE0304FB84202D104271AE045E02E4F49
:1005A000B84201D1052714E02C4FB84201D10627EB
:1005B0000FE02B4FB84201D107270AE0294FB8427C
:1005C00001D1082705E0284FB84201D1092700E0F2
:1005D0000A27AF4027437546C6F808784E68DEF80C
:1005E0000040F60324EA030400D51C43124E2C609D
:1005F000361D4D683468AD0324EA030400D51C435E
:100600000D4F346008374D683C68ED0224EA03045E
:1006100000D51C43084D3C600C354E682C68B60272
:1006200024EA030400D51C432C60521C102AFFF45A
:100630003DAFBDE8F88F0000003C01404438024067
:100640000030014000000240000402400008024067
:10065000000C02400010024000140240001802404A
:10066000001C0240002002400024024042694A402F
:10067000426170470AB1816170470904FBE70000DD
:10068000014800687047000000000220024801682D
:10069000491C01607047000000000220074810B5A7
:1006A000016841F400710160032000F051F80F204F
:1006B00000F006F800F015F8002010BD003C0240E4
:1006C00010B5044600F0C6FD4FF47A71B0FBF1F0AE
:1006D00001F014F800222146501E00F019F8002005
:1006E00010BD7047410900F01F028900012001F18F
:1006F000E0219040C1F880017047410900F01F02DD
:100700008900012001F1E0219040C1F8000170470B
:100710000E4BF0B41B680D46C3F30223C3F107066A
:10072000042E00D90426191D072901D2002300E058
:10073000DB1E012404FA06F19C40491E2940641E78
:10074000994014402143F0BC01F086B80CED00E064
:10075000064900F0070210B54FF6FF040868044B85
:10076000204040EA02201843086010BD0CED00E074
:100770000000FA051848F8B5016841F080510160A1
:100780000068164C00F080500090206840F48030E3
:100790002060FFF775FF4FF47A76054605E000BF4D
:1007A000FFF76EFF401BB0420FD86068C003F7D55B
:1007B000206840F400302060FFF762FF054606E045
:1007C000FFF75EFF401BB04201D90320F8BD60680F
:1007D0008003F5D50020F8BD40380240007000408D
:1007E00010B504460068016841F002010160236C05
:1007F00001220221204601F077F908B1032010BD43
:1008000021680220C8600022236C2021204601F0CC
:100810006BF9012184F8391010BD2DE9F047044629
:1008200090F83800154689469A4601280ED00127CF
:100830004FF0000884F8387094F83900012807D088
:10084000022684F838803046BDE8F0870220FBE7B6
:100850004221C4F83C8084F839100022202120462F
:1008600001F042F90600ECD121682868886221680D
:10087000686848622168A868C862206829690268B7
:1008800022F4400242F4800211430160E9684FF013
:1008900000622046C9F82810494601F011F80122EB
:1008A00053460821204601F01FF908B10326C8E786
:1008B00021680820C86084F83970C2E72DE9F0414A
:1008C000044690F838001546884601280DD00120CE
:1008D00084F83800002794F83900012807D0022650
:1008E00084F838703046BDE8F0810220FBE74220F2
:1008F000E76384F839000022236C2021204601F0B0
:10090000F3F80600ECD121682868886221686868DD
:1009100048622168A868C8622168D5E904020B68AA
:10092000104323F4400210430860E9684FF000626E
:100930002046C8F82810414600F0C2FF2068016830
:1009400041F450210160CBE702480178491C017055
:1009500070470000180002202DE9F047044690F887
:1009600038008946924601280DD0012684F8386067
:10097000002794F83900012807D0022584F8387040
:100980002846BDE8F0870220FBE74FF00208E76346
:1009900084F83980202113462046002201F0A4F873
:1009A0000500EBD100224946204600F089FFD9F826
:1009B000240058B9012253460221204601F094F840
:1009C00008B10325DAE72168C1F80C8084F83960A2
:1009D000D4E72DE9F041044690F838000E4601288E
:1009E0000ED001274FF0000884F8387094F83900D1
:1009F000012807D0022584F838802846BDE8F08118
:100A00000220FBE70221C4F83C8084F83910002260
:100A1000236C2021204601F067F80500EBD1706AB5
:100A200020B92068016841F440310160002231465C
:100A3000204600F045FF706A0028DCD084F8397049
:100A4000D9E710B5040015D094F83800012813D068
:100A5000012084F838002068016821F0010101605C
:100A6000204600F027F90020E06384F8390084F87C
:100A7000380010BD012010BD022010BD7047704726
:100A800070B50446006882680168C2F38002C1F351
:100A9000804152B349B394F83910203012290ED056
:100AA00094F83910222919D01CE0618DD1B1616A06
:100AB0004A1C626209780170618D491E6185216856
:100AC00089684907F1D40DE0618E59B10378E16A74
:100AD0004A1CE2620B70618E491E6186216889683A
:100AE0004907F1D42046FFF7CAFF20680125816835
:100AF0000268C1F34001C2F34042A1B39AB302219C
:100B0000C1602068016821F4E021016094F8390097
:100B1000122808D094F8390022280BD094F8390014
:100B2000022821D023E02046FFF75AFE204600F09D
:100B3000A3FA1CE02068203009E0618E61B10378DF
:100B4000E16A4A1CE2620B70618E491E618621686F
:100B5000896811F4F85FF0D12046FFF741FE204686
:100B600000F0F6F903E004E02046FFF7EDFE84F81C
:100B70003950206881680268C1F3C001C2F3C042E5
:100B800079B172B10821C16020680168490205D5B8
:100B9000016821F45021016084F83950204600F0AA
:100BA000DFF920688168036811F0010FC3F3004189
:100BB00010D079B10421C5602068026822F4702247
:100BC0000260E06B40F00200E06384F839102046D8
:100BD000FFF754FF206881680368C1F30012002A00
:100BE000C3F3005106D0002904D01021C160204673
:100BF00000F0BEF970BD00002DE9F04104000BD0FB
:100C000094F8380001280AD0012684F838600025BD
:100C100094F8390028B10CE00120BDE8F0810220F1
:100C2000FBE784F83850204600F078F841F288302D
:100C3000206420686FF0FF02A168036802EB0122C4
:100C400023F4706111430160236C002220212046AF
:100C500000F04AFF30BB2268D4E9077C94F804E036
:100C6000E16813683943114F4CEA0E6EDFF840C05B
:100C70003B4041EA0E01194311602168D4E9052780
:100C8000B4F810E04B683A4303EA0C0343EA0E431E
:100C90001A434A6021680A6842F001020A60E5636B
:100CA00084F8396084F83850B7E700002FFFFF0060
:100CB000FEF8E0FF5C2010B5FFF714FD144C402156
:100CC0002046FFF73DFB04212046FFF739FBA11525
:100CD000104C2046FFF734FB61152046FFF730FB30
:100CE00080212046FFF72CFB40212046FFF728FB00
:100CF000094809492031026842F002020260026894
:100D000022F002020260086820F00200086010BDB4
:100D10000004024000140240183802404248F0B576
:100D2000016887B041F002010160006800F0020034
:100D300005903D482038016841F0020101600168DA
:100D400021F00201016038480838016841F00201D1
:100D50000160016801F002010591016841F00201A2
:100D60000160016801F002010591016841F0200174
:100D70000160016801F020010591016841F0200146
:100D80000160016801F020010591016841F0200136
:100D90000160016801F020010591016841F0200126
:100DA0000160006801AB4026204F00F02000059054
:100DB0000220009601210A24032283E817006946D5
:100DC0003846FFF767FB042100910020694609259A
:100DD000049502903846FFF75DFB154FB000694659
:100DE000049400903846FFF755FBF00069460494E0
:100DF00000903846FFF74EFB80206946049500902E
:100E00003846FFF747FB6946384600960495FFF7DA
:100E100041FB00220F215C20FFF77AFC5C20FFF7EA
:100E20006CFC07B0F0BD00003838024000040240FE
:100E3000001402402DE9F0410446006890468269A2
:100E400094F8383000F12005012B0DD0012684F8EC
:100E50003860002794F83930012B07D05FF002008A
:100E600084F83870BDE8F0810220FBE7C1B322238B
:100E7000E76384F8393003695B1C638603695B1C94
:100E80002386E162416921F0406141F08061416166
:100E9000206882610EE00621204600F025FE08B1A0
:100EA00003201AE02A78E06A411CE1620270608E39
:100EB000401E6086608E43464FF001020028EAD152
:100EC0004FF00201204600F00FFE0028E8D1216813
:100ED0000220C8602046FFF783FC84F83960BFE732
:100EE000FFE70120BCE7000070B5026800239569A8
:100EF00090F83840012C0DD0012680F8386000248D
:100F000090F83960012E07D05FF0020380F8384076
:100F1000184670BD022070BDC1B12226C46380F89E
:100F200039601669761C46861669761C0686C1628B
:100F3000516921F0406141F08061516101688D612A
:100F400001680A6842F4E0220A60DFE70123DDE776
:100F500002484178491C4170704700001800022087
:100F60000248C178491CC170704700001800022077
:100F700070472DE9F041904690F83820044600680B
:100F8000012A00F120050CD0012684F838600027E2
:100F900094F83920012A06D0022084F83870BDE880
:100FA000F0810220FBE7A1B31222E76384F8392025
:100FB0000269521C62850269521C22856162416984
:100FC00021F0406141610EE00421204600F08CFDDB
:100FD00008B103201AE0606A411C61620078287041
:100FE000608D401E6085608D43464FF001020028F1
:100FF000EAD14FF00201204600F076FD0028E8D14A
:1010000021680220C8602046FFF7EAFB84F83960B7
:10101000C3E7FFE70120C0E730B590F83830002281
:10102000012B0DD0012380F83830002490F839309E
:10103000012B07D05FF0020280F83840104630BD27
:10104000022030BDA9B11223C46380F8393003688F
:101050001D696D1C45851D696D1C058541625969B9
:1010600021F04061596101680B6843F4E0230B6093
:10107000E2E70122E0E7000002488178491C817024
:1010800070470000180002202DE9F047DFF8BC91FE
:101090000E4605466E4841F28838D9F800106C4C6F
:1010A00001F00F010834B1425AD2D9F8002022F0E1
:1010B0000F023243C9F80020D9F8001001F00F01E7
:1010C000B14270D12978890705D5AA68216821F035
:1010D000F001114321602978C90729D069680129E5
:1010E00014D00068022914D0800700285BDA206839
:1010F00020F0030008432060FFF7C2FA0646686844
:1011000001280FD00228474619D024E00068800348
:10111000EBE78001E9E700BFFFF7B2FA801BB842B6
:1011200001D964E047462068C0F381000128F3D16B
:1011300073E000BFFFF7A4FA801BB84257D82068BD
:10114000C0F381000228F5D167E000BFFFF798FAED
:10115000801BB8424BD8206810F00C0FF6D15CE031
:101160002978890705D5AA68216821F0F001114383
:1011700021602978C90741D06968012914D0006825
:10118000022914D08007002845DA206820F00300E7
:1011900008432060FFF774FA0746686801280ED0FC
:1011A000022818D026E036E000688003EBE78001D3
:1011B000E9E700BFFFF764FAC11B414517D8206873
:1011C000C0F381000128F5D118E000BFFFF758FAFD
:1011D000C11B41450BD82068C0F381000228F5D11E
:1011E0000CE000BFFFF74CFAC11B414502D90320B8
:1011F000BDE8F087206810F00C0FF3D1D9F800108B
:1012000021F00F013143C9F80010D9F8000000F0B7
:101210000F00B04201D00120EAE72878400705D549
:10122000E968206820F4E05008432060287800072F
:1012300006D52869216821F4604141EAC000206098
:101240000F20FFF73DFA0020D2E70000003C0240EB
:101250000038024000B500F043F80849F0230A685E
:1012600093FAA3F3064902F0F002B3FA83F3DA40EB
:10127000044B9A5CD040086000BD00000838024072
:1012800004000220AC22012000B5FFF7E3FF07496C
:101290004FF4E052096892FAA2F201F4E051B2FA76
:1012A00082F2D140024A515CC84000BD0838024079
:1012B000AC22012000B5FFF7CDFF07494FF4604293
:1012C000096892FAA2F201F46041B2FA82F2D140C6
:1012D000024A515CC84000BD08380240AC220120DF
:1012E0001D4930B51D48096811F00C011AD01C4B7E
:1012F000042916D0082915D1174947F6C072091FCD
:101300000C680D6804F03F046D020CD50D68B3FB4A
:10131000F4F092FAA2F31540B3FA83F2D540684391
:101320000BE0184630BD0B68B0FBF4F092FAA2F463
:101330001340B4FA84F2D340584309684FF4403262
:1013400092FAA2F201F44031B2FA82F2D140491C81
:101350004900B0FBF1F030BD083802400024F40031
:1013600040787D012DE9F84FDFF888830446007846
:1013700041F2883BA8F10409A9F10405C00769D02E
:10138000D8F800104046C1F38101012908D0006857
:10139000C0F3810002280AD1D9F80000400206D526
:1013A0002868800356D56068002878D052E0286805
:1013B00020F480302860286820F480202860286885
:1013C00020F480302860FFF75BF907465E4604E0B2
:1013D000FFF756F9C01BB04276D828688003F7D4CF
:1013E000286820F4803028606068B0F5803F10D015
:1013F000B0F5A02F286810D020F48020286028683D
:1014000020F4803028606068B8B1FFF739F90746EA
:101410000FE0286820F4802001E040F4802028605C
:10142000286840F48030EDE7FFF72AF9C01BB0428E
:10143000D2D828688003F7D50CE0FFF721F90746DA
:1014400005E000BFFFF71CF9C01BB042C4D82868F4
:101450008003F7D42078800746D5D8F80010F82705
:10146000404611F00C0F08D00068C0F3810002283C
:101470000AD1D9F80000400206D42868800717D5A1
:10148000E06801280BD113E0E068002828681CD030
:1014900040F001002860FFF7F3F8064605E026E17A
:1014A000FFF7EEF8801B642896D828688007F7D5E8
:1014B0002069296897FAA7F2B2FA82F221F0F801BE
:1014C0009040014329600FE093E020F00100286084
:1014D000FFF7D6F8064604E0FFF7D2F8801B642831
:1014E000A6D828688007F7D42078000724D5814E35
:1014F00060696C36002830680FD040F00100306021
:10150000FFF7BEF8074604E0FFF7BAF8C01B6428EF
:101510006FD830688007F7D50EE020F0010030600A
:10152000FFF7AEF8074604E0FFF7AAF8C01B6428EF
:101530005FD830688007F7D42078400771D56D48B0
:101540003830016841F08051016000686A4E00F057
:1015500080500090306840F480703060FFF790F861
:10156000074604E0FFF78CF8C01B642841D83068B8
:10157000C005F7D55F4E6836306820F00100306056
:10158000306820F004003060306820F001003060E6
:10159000FFF776F882465F4606E000BFFFF770F877
:1015A000A0EB0A00B84224D830688007F6D430682F
:1015B00020F001003060A06801280FD005283068B5
:1015C00010D020F004003060306820F0010030605E
:1015D000A068C8B1FFF754F8824611E0306820F0E7
:1015E000040001E040F004003060306840F0010089
:1015F000EDE774E0FFF744F8A0EB0A00B8426ED8BC
:1016000030688007F6D50CE0FFF73AF8824605E02F
:10161000FFF736F8A0EB0A00B84260D830688007C0
:10162000F6D4A069F0B3D8F80010C1F38101022903
:101630005DD00228286820F08070286003D0FFF772
:101640001FF804464EE0FFF71BF8064605E000BF12
:10165000FFF716F8801B642841D828688001F7D46A
:1016600047F6C0704FF0FF364FF4403790FAA0F2C3
:1016700004F1200097FAA7F7B2FA82F20BC84FF0F4
:10168000706CB7FA87F706EB5303E6699140E26A9C
:101690009CFAACF4BB4019433043B4FA84F30843DA
:1016A0009A4000E021E0104340F00050C9F80000EB
:1016B000286840F080702860FEF7E2FF044604E0EE
:1016C000FEF7DEFF001B642809D828688001F7D5E3
:1016D0000BE000BFFEF7D4FF001B642802D90320F3
:1016E000BDE8F88F28688001F4D40020F8E70120D5
:1016F000F6E700000838024000700040401EB0F1DC
:10170000807F10B501D3012010BD4FF0E02460614F
:101710000F21601700F0A0F80020A06107212161CF
:1017200010BD10B5040003D094F8690010B107E0B3
:10173000012010BD002084F86800204600F026F843
:10174000022084F869002068016821F0010101602D
:10175000204600F065FB0128EBD0606A10B12046FE
:1017600000F0BCFA2068416821F490414160206893
:10177000816821F02A0181602068016841F001013F
:1017800001602046BDE8104000F00CBB704700002F
:101790002DE9F047044690F8690099460D46012866
:1017A00003D094F86900222854D125B31AB394F8D1
:1017B000680001284ED00027E766012694F86900EA
:1017C00084F86860222819D05FF0120084F869005C
:1017D000A4F850204FF48058A4F852200022B4F806
:1017E000520080214B46401EA4F85200204600F0D3
:1017F0003BFCC8B904E00120BDE8F0873220E5E7F2
:10180000A068404501D1206980B115F8010B21681D
:101810008862B4F852000028E0D100224B464021F3
:10182000204600F021FC38B10320E5E735F8020B33
:101830002168C0F30800EBE794F86900322805D06E
:1018400084F86960002084F86870D5E7222084F865
:101850006900F7E70220CFE7090700284FEA116186
:1018600006DA00F00F0000F1E02080F8141D704748
:1018700000F1E02080F800147047000010B594B02B
:10188000012100200A06052306930C020B90CDE9E6
:101890000E028A051390CDE90C40CDE9000110231A
:1018A00011901290CDE90402CDE90231034806A956
:1018B0006A46FFF703F814B010BD0000740202205E
:1018C0002DE9F0434B6A4FF040652BB1AA4203D09B
:1018D00004688B6A5B1E23618B69002B68D00C6ADD
:1018E000B4B303688C68DC61CC69FCB1D1E90B3816
:1018F000D1F824C04E6B8F8A43EA080346EA0C06EF
:1019000033430E6A43EA8743D1E9037C43EA0C037D
:1019100033438E693B430F682343046833433B439F
:1019200065E0006849688161BDE8F083D1E90B3664
:101930004F6A4C6B8D8A33433C430E6923430C6AD8
:1019400043EA85438D693343096823432B4362E0AF
:10195000FFE7CC695FEA040918D0D1E90B484F6A68
:101960004E6BB1F814C044EA08043E430F68344398
:10197000CE6844EA8C44344344EA09041C430368B7
:101980003C431443AA425C61CBD1CDE7D1E90B467D
:101990004F6A4D6BB1F814C034433D4300682C438B
:1019A000096844EA8C441C430C4314434461BBE77C
:1019B0000B6AABB303688C68DC61CC69E4B1D1E934
:1019C0000B38D1F824C04E6B8F8A43EA080346EAED
:1019D0000C0633430E6A43EA8743D1E9037C43EAAA
:1019E0000C0333438E693B4323430468334313435F
:1019F000AA42636195D197E7D1E90B364F6A4C6BE8
:101A00008D8A33433C430E6923430C6A43EA854382
:101A100089693343234300680B431343436183E7DE
:101A2000FFE7CC6984B1D1E90B384F6A4E6BB1F84E
:101A300014C043EA08033E433343CE6843EA8C4371
:101A4000334323430468D2E74C6A002C9DD0D1E98C
:101A50000B368F8A4D6B0168334325432B4343EA92
:101A60008740104348615FE710B590B000204FF405
:101A700080748521009122040694079041F28834F5
:101A800005900123CDE908020B9022460C9069468F
:101A90000D9014480A93FEF75FFF12480EA92246E4
:101AA000FFF7C8F90F4800F045F8F02081210091B8
:101AB00090FAA0F29DF838000A21B2FA82F220F0E2
:101AC000F000914008438DF83800064822466946E8
:101AD000FEF742FF03480EA92246FFF74AFA10B06C
:101AE00010BD0000740202202DE9F0411D4616468B
:101AF0000F460446FEF7C4FD804612E0681C10D075
:101B00002DB1FEF7BDFDA0EB0800A84209D90420C5
:101B100084F83900E06B40F00100E0630320BDE889
:101B2000F08120688068384000D00120B042E5D1C3
:101B30000020F4E7F0B595B041F2883500242A463C
:101B40004FF4807106200690CDE90C140E9406A97E
:101B50000E480F940B94119412941394FEF7FCFE0C
:101B6000022010224305C7050F9700900121CDE9FF
:101B7000044305260696039106A9CDE90102034810
:101B80002B466A46FEF749FE15B0F0BD74020220EE
:101B90000148FEF775BF00007402022070B5104DB9
:101BA0000E4828602846FEF74CFF19200024042127
:101BB000C5E903406C610222AC612846C5E90121F8
:101BC000FFF71AF805F144004FF4807204625101E6
:101BD000C462046344638261C16070BD001000A0F0
:101BE00074020220FEF752BD70B5022492B0600567
:101BF00001250DF1200CCDE906402E04684619217F
:101C000009230B934FF4D8728CE81600CDE90056E7
:101C1000FFF7A8FB00B1FEE7FEF7ACFD00B1FEE761
:101C20000EAD00214FF4A0524FF4805385E80E0012
:101C30000F20CDE90C0407210CA8FFF725FA002896
:101C400000D0FEE712B070BD104A30B510481468DD
:101C500000210F4B44F470041460083305680D4AEA
:101C60000D4C45F00105056019600368051D134022
:101C7000074A03600C322C600568044C074B25F4BE
:101C80008025803C05601160236030BD88ED00E058
:101C900000380240FFFFF6FE103000240000012053
:101CA00010B5FEF705FBFEF7F9FCFFF79DFF00F00E
:101CB000A1F8BDE8104001A000F020BA0A0D537948
:101CC0007374656D20696E697469616C697A6520E9
:101CD000737563636573730A0D00000090F8241038
:101CE000C90706D00168836A4A6822F400321A43A1
:101CF0004A6090F82410890706D50168C36A4A68CB
:101D000022F480321A434A6090F82410490706D51D
:101D10000168036B4A6822F480221A434A6090F8F3
:101D20002410090706D50168436B4A6822F4004273
:101D30001A434A6090F82410C90606D50168836BDF
:101D40008A6822F480521A438A6090F82410890627
:101D500006D50168C36B8A6822F400521A438A6070
:101D600090F82410490611D50168036C4A6822F4E2
:101D700080121A434A60016CB1F5801F06D10168D8
:101D8000436C4A6822F4C0021A434A6090F8241057
:101D9000090606D50168826C486820F400201043CB
:101DA0004860704770B5002504466FF07E46C566F2
:101DB00000680068000707D5002233464FF4001181
:101DC000204600F051F958B920680068400709D54D
:101DD000002233464FF48001204600F045F908B157
:101DE000032070BD012084F86900002084F8685049
:101DF00070BD00000948002130B4074C4FF4E133B6
:101E00000C220460C0E90131C1600161C0E9052113
:101E100030BCFFF786BC0000001001401401022016
:101E20002DE9F04704468068834B844F2668D4E947
:101E30000415E2690843D6F800C0102115430022BA
:101E4000284315460CEA030C7D4B4CEA000CC6F8FF
:101E500000C04FF400492068D4F80CC0466826F44E
:101E6000405646EA0C0646602668D4F82080A069F1
:101E7000D6F808C040EA08002CF4306C4CEA000C9C
:101E8000C6F808C02068B8420AD11B6813F00303E3
:101E900052D0012B7AD0022B76D0032B79D177E068
:101EA000684EB0420AD11B6813F00C036AD0042BB1
:101EB0006CD0082B68D00C2B6BD169E0624EB0421D
:101EC0000AD11B6813F030035CD0102B5ED0202B9E
:101ED0005AD0302B5DD15BE05C4EB0420AD11B681A
:101EE00013F0C0034ED0402B50D0802B4CD0C02BD1
:101EF0004FD14DE0564EB0420DD11B6813F44073E4
:101F000040D0B3F5807F41D0B3F5007F3CD0B3F52E
:101F1000407F3ED13CE04F4EB0420FD11B6813F4DE
:101F2000406309D0B3F5806F30D0B3F5006F2BD08C
:101F3000B3F5406F2DD12BE001212AE0464EB0428F
:101F40000DD11B6813F440531CD0B3F5805F1DD036
:101F5000B3F5005F18D0B3F5405F1AD118E03F4EDB
:101F6000B04216D11B6813F440430BD0B3F5804F39
:101F70000CD04B4508D0B3F5404F0AD108E005E03E
:101F800002E0FFE7002104E0022102E0042100E07A
:101F90000821E6694E4527D109291DD2DFE801F065
:101FA0000508101C131C1C1C1600FFF76DF901E03E
:101FB000FFF780F961684000B0FBF1F082B20CE0FD
:101FC0002749606805E0FFF78BF9F3E760684FF495
:101FD0008031B1FBF0F0F1E70125216822F00F001C
:101FE000C2F3420210431BE0092920D2DFE801F0CE
:101FF00005080B1F111F1F1F1A00FFF745F90AE004
:10200000FFF758F907E0174A6168B2FBF1F189B2AE
:102010000BE0FFF765F9D4E90012B0FBF2F080B2F3
:10202000C86005E06168B9FBF1F1C16000E001251D
:102030002846BDE8F0870000F369FFEF001001407B
:10204000903802400044004000480040004C0040EE
:10205000005000400014014000780040007C004027
:102060000048E8010024F4002DE9F0471D469046A1
:102070000E460446FEF704FBB8F1000F07464FF08A
:1020800000094FF0010808D030E0681C05D095B178
:10209000FEF7F6FAC01BA8420DD22068C06936EAE6
:1020A0000000F2D127E0681C20D025B1FEF7E8FA45
:1020B000C01BA8421AD32068036823F08003036082
:1020C0002068036823F0200303602068036823F47A
:1020D000807303602068836823F00103836084F8C1
:1020E0006980032084F86890BDE8F0872068C069A3
:1020F00036EA0000D7D00020F6E70000014A024986
:1021000000F013B84D2101201001022002E008C8A0
:10211000121F08C1002AFAD170477047002001E061
:1021200001C1121F002AFBD170472DE9F04116466C
:102130000F460446002503E03946B047641C6D1C79
:1021400020780028F8D12846BDE8F08113B504486E
:1021500001224FF6FF736946FFF71AFB00981CBD7A
:102160001401022008B500252F468DF80050FFF716
:1021700097FD0020FEF756F8FFF710FD394E4FF49B
:102180008068394C41F288399DF800000628FBD25E
:10219000DFE800F0031A25414A600020257033492A
:1021A000421C0D5490B2F028FAD33148FFF7C2FC1C
:1021B0007562D821C6F81C807561C6E900172949E7
:1021C0002B48FEF706FC04E020780028DCD02570C0
:1021D00025E09DF80000401C8DF80000D4E7E07871
:1021E0000028D1D0E570A5702148FFF7A3FCF022AC
:1021F000C6F81C80322333604FF040711C48C6E99A
:10220000091218494A46FEF7A7FB17491848091D45
:10221000FEF702FFDDE7A0780028B5D0A570E570D5
:102220001348FFF72BFBD4E7E0780028ACD0E5702B
:1022300065700F48FFF718FC6B2131600A20706150
:1022400008494A460A48FEF787FB08490848FEF74E
:102250004BFEBEE76078002896D065700020FEF740
:1022600013F8FEE7B80202201800022084010220C1
:1022700074020220000200040700070000010000B1
:10228000000100000001000000010000010000202A
:10229000002000204000800000040002060028000A
:1022A0002800280017001700280017000000000071
:1022B000010203040102030406070809DC220120CD
:1022C00000000220140100000C210120F023012055
:1022D00014010220DC0500001C2101200000000088
:1022E0000024F400000000000000000001020304CC
:1022F0000607080900000000202A2A2A2A51535004
:102300004920636F6D6D756E69636174696F6E20CE
:102310006261736564206F6E2049542A2A2A2A203C
:10232000202A2A2A2A5153504920636F6D6D756EF9
:1023300069636174696F6E206261736564206F6E9A
:102340002049542A2A2A2A20202A2A2A2A5153504C
:102350004920636F6D6D756E69636174696F6E207E
:102360006261736564206F6E2049542A2A2A2A20EC
:10237000202A2A2A2A5153504920636F6D6D756EA9
:1023800069636174696F6E206261736564206F6E4A
:102390002049542A2A2A2A20202A2A2A2A515350FC
:1023A0004920636F6D6D756E69636174696F6E202E
:1023B0006261736564206F6E2049542A2A2A2A209C
:1023C000202A2A2A2A5153504920636F6D6D756E59
:1023D00069636174696F6E206261736564206F6EFA
:1023E0002049542A2A2A2A20000000000000000068
:04000005200101C90C
:00000001FF
