:020000042001D9
:1000000070420220990201206F170120B9160120C9
:100010006D170120E1030120B31C01200000000046
:10002000000000000000000000000000DD010120D1
:100030005904012000000000310201209317012023
:10004000B3020120B3020120B3020120B302012058
:10005000B3020120B3020120B3020120B302012048
:10006000B3020120B3020120B3020120B302012038
:10007000B3020120B3020120B3020120B302012028
:10008000B3020120B3020120B3020120B302012018
:10009000B3020120B3020120B3020120B302012008
:1000A000B3020120B3020120B3020120B3020120F8
:1000B000B3020120B3020120B3020120B3020120E8
:1000C000B3020120B3020120B3020120B3020120D8
:1000D000B3020120B3020120B3020120B3020120C8
:1000E000B3020120B3020120B3020120B3020120B8
:1000F000B3020120B3020120B3020120B3020120A8
:10010000B3020120B3020120B3020120B302012097
:10011000B3020120B3020120B3020120B302012087
:10012000B3020120B3020120B3020120B302012077
:10013000B3020120B3020120B3020120B302012067
:10014000B3020120B3020120B3020120B302012057
:10015000B3020120B3020120B3020120B302012047
:10016000B3020120B3020120B3020120B302012037
:10017000B3020120B3020120B3020120B302012027
:10018000B3020120B3020120B3020120B302012017
:10019000B3020120B3020120B3020120B302012007
:1001A000B3020120B3020120B3020120B3020120F7
:1001B000B3020120B3020120B3020120B3020120E7
:1001C000B3020120B3020120DFF80CD000F09AF84E
:1001D00000480047291D0120704202202B4B19685E
:1001E0000868B0E8F04F80F30988BFF36F8F4FF0D5
:1001F000000080F311887047000000000648006886
:10020000006880F3088862B661B6BFF34F8FBFF312
:100210006F8F00DF00BF00BF08ED00E0DFF80C00CB
:10022000016841F470010160704700BF88ED00E093
:10023000EFF30980BFF36F8F144B1A681EF0100F95
:1002400008BF20ED108A20E9F04F106008B44FF08D
:10025000500072B680F31188BFF34F8FBFF36F8FDA
:1002600062B602F037FC4FF0000080F3118808BC42
:1002700019680868B0E8F04F1EF0100F08BFB0EC26
:10028000108A80F30988BFF36F8F7047180002202F
:10029000EFF3058070470000064880470648004796
:1002A000FEE7FEE7FEE7FEE7FEE7FEE7FEE7FEE726
:1002B000FEE7FEE701180120C901012040EA010321
:1002C0009B0703D009E008C9121F08C0042AFAD20C
:1002D00003E011F8013B00F8013B521EF9D27047D0
:1002E000D2B201E000F8012B491EFBD27047002278
:1002F000F6E710B513460A4604461946FFF7F0FF25
:10030000204610BD064C074D06E0E06840F00103B2
:1003100094E8070098471034AC42F6D3FFF758FF33
:100320009C370120BC37012070B5154905001548E0
:1003300086B005D0012D03D0022D01D0032D08D1A8
:100340000A6842F001020A600968044601F00101EE
:1003500000910D4E0120032156F82520CDE9012002
:10036000CDE9030101A9204600F078F836F8250010
:10037000012281B2204600F061F906B070BD000094
:1003800030380240000002403437012008490200A2
:1003900005D0012A03D0022A01D0032A00D1084641
:1003A000044931F82210012289B200F047B9000057
:1003B00000000240343701200749020005D0012A1D
:1003C00003D0022A01D0032A00D10846034931F89C
:1003D000221089B200F02EB900000240343701200B
:1003E000FEE70000F0B5BFF34F8FBFF36F8F1949E1
:1003F0000020174B0860196841F400311960BFF301
:100400004F8FBFF36F8F124970310860BFF34F8F6A
:10041000081F104D43F6FF7410350068C0F34E31CD
:10042000C0F3C90204EA4116104600BF46EA8077CD
:100430002F60401EFAD2491EF4D2BFF34F8F1868C6
:1004400040F480301860BFF34F8FBFF36F8FF0BD63
:1004500014ED00E050EF00E0704700002DE9F84F88
:10046000DFF89CE100224FF001084FF0030B4FF042
:100470000F0A00BF0B6808FA02F42340A34271D1AF
:100480004D68022D01D0122D0FD1D5080E695707E6
:1004900000EB8505A9462D6AFF0E0AFA07FCBE404F
:1004A00025EA0C052E43C9F820600F79550006682F
:1004B0000BFA05FC07F0030726EA0C06AF403743AA
:1004C00007604E68012E05D0022E03D0112E01D0F8
:1004D000122E0ED18668CF6826EA0C06AF4037434D
:1004E000876046680F79A643C7F3001797403743E4
:1004F0004760C4688E6824EA0C04AE402643C66098
:100500004C68E40075D53F4C256845F4804525606E
:10051000246822F00306950704F4804400943A4CC2
:100520002D0F2644D6F80848DFF8E0C00AFA05F790
:10053000604524EA070401D100272EE0344FB84279
:1005400001D1012729E0334FB84201D1022724E02D
:10055000314FB84201D103271FE0304FB84202D1DA
:1005600004271AE045E02E4FB84201D1052714E0D8
:100570002C4FB84201D106270FE02B4FB84201D1D2
:1005800007270AE0294FB84201D1082705E0284F84
:10059000B84201D1092700E00A27AF40274375463A
:1005A000C6F808784E68DEF80040F60324EA030433
:1005B00000D51C43124E2C60361D4D683468AD03C7
:1005C00024EA030400D51C430D4F346008374D68FE
:1005D0003C68ED0224EA030400D51C43084D3C604E
:1005E0000C354E682C68B60224EA030400D51C437F
:1005F0002C60521C102AFFF43DAFBDE8F88F0000BC
:10060000003C0140443802400030014000000240FC
:100610000004024000080240000C024000100240AA
:100620000014024000180240001C0240002002405A
:100630000024024042694A40426170470AB1816128
:1006400070470904FBE7000001480068704700009C
:100650000000022002480168491C01607047000048
:1006600000000220074810B5016841F400710160E4
:10067000032000F049F8002000F006F800F015F81B
:10068000002010BD003C024010B5044600F0C2FC42
:100690004FF47A71B0FBF1F000F016FF0022214612
:1006A000501E00F011F8002010BD08B50020009089
:1006B00008BD410900F01F028900012001F1E0217D
:1006C0009040C1F8000170470E4BF0B41B680D4616
:1006D000C3F30223C3F10706042E00D90426191D13
:1006E000072901D2002300E0DB1E012404FA06F1F1
:1006F0009C40491E2940641E994014402143F0BC8F
:1007000001F036B80CED00E0064900F0070210B524
:100710004FF6FF040868044B204040EA02201843CB
:10072000086010BD0CED00E00000FA051848F8B5AF
:10073000016841F0805101600068164C00F0805063
:100740000090206840F480302060FFF77DFF4FF478
:100750007A76054605E000BFFFF776FF401BB04202
:100760000FD86068C003F7D5206840F400302060DF
:10077000FFF76AFF054606E0FFF766FF401BB04241
:1007800001D90320F8BD60688003F5D50020F8BDCD
:1007900040380240007000402DE9F84F04460078D0
:1007A000DFF828844FF000063546C0070ED0D8F891
:1007B000001021F40001C8F80010D8F80010626B96
:1007C0001143C8F80010606B00B9012620680003CF
:1007D00010D5FE48E26B8430016821F440111143CA
:1007E0000160E06BB0F5801F01D010B102E001267E
:1007F00000E001252068C00210D5F448226C843046
:10080000016821F4400111430160206CB0F5800FB4
:1008100001D010B102E0012600E001252068C101ED
:1008200000D50126800657D5E8483830016841F0E8
:10083000805101600068DFF8989300F080500090CC
:10084000D9F8001041F48071C9F80010FFF7FCFEE0
:10085000074604E0FFF7F8FEC01B64287ED8D9F8ED
:100860000000C005F6D5D94F218E6837386801F4ED
:10087000407100F4407088422ED03868396820F406
:10088000407041F4803139608207396821F4803149
:10089000396038600FD5FFF7D7FE814641F2883ABC
:1008A00006E000BFFFF7D0FEA0EB09015145D5D807
:1008B00038688007F6D5206BC0F3012103297CD06E
:1008C000D8F8001021F4F811C8F80010218E38680B
:1008D000C1F30B01084338602078C00609D5BB4836
:1008E0008430016821F0807101600168A26B1143BE
:1008F00001602188B5488830490405D5626E0168D9
:1009000021F44031114301602188090405D5A26E0C
:10091000016821F44021114301602168C90305D514
:10092000E26E016821F440111143016021688903DE
:1009300005D5226F016821F440011143016021783F
:10094000490605D5626C016821F00301114301607D
:100950002178090607D5A26C016800E0FEE021F0CD
:100960000C01114301602188C90505D5E26C0168BD
:1009700021F03001114301602188890505D5226DE0
:10098000016821F0C001114301602188490505D5A6
:10099000626D016821F440711143016021880905ED
:1009A00005D5A26D016821F44061114301602188E1
:1009B000C90407D5E26D016800E023E021F440514D
:1009C000114301602188890405D5226E016821F454
:1009D0004041114301602168490205D5A26F0168B9
:1009E00021F08061114301602168890215D5E26F11
:1009F000016821F0006111430160E16FB1F1006F06
:100A00000AD00AE0734AD8F80030104023F4F812F4
:100A10000243C8F8002059E7012521680A0700D5DC
:100A20000125490305D5626F016821F0407111432A
:100A300001602168090206D5D4F88020016821F000
:100A4000805111430160012E4FF4403B4FF0706A1A
:100A50004FF0E04903D02068B0F1007F7DD15B4EBC
:100A6000083E306820F080603060FFF7EDFD0746FB
:100A700005E000BFFFF7E8FDC01B64286ED85348AF
:100A8000083800680001F5D42078DFF840E1C0079D
:100A90000EF17C0E33D0606B88BBDEF800C09BFA91
:100AA000ABF7DEF8002047F6C076B7FA87F8606843
:100AB0000CF440319AFAAAFC21FA08F196FAA6F74A
:100AC000BCFA8CF8B7FA87FC9BFAABF602F07062BE
:100AD00000FA0CF0B6FA86F69AFAAAF722FA08F2A9
:100AE000B14099FAA9FCA668B7FA87F70843BA405B
:100AF000BCFA8CF110438E403043CEF800002068E1
:100B0000010303D5E16BB1F5801F05D0C00241D5CB
:100B1000206CB0F5800F3DD1DEF800109BFAABF6EB
:100B200047F6C07CB6FA86F7DEF8006001F4403183
:100B300060689CFAACFCF9409AFAAAF7BCFA8CFC03
:100B4000B7FA87F89BFAABF399FAA9F700FA0CF019
:100B5000B7FA87F7B3FA83FC01E08DE007E101FA09
:100B60000CF106F0E046E36899FAA9F2FE4003FAB8
:100B700008F3B2FA82F7154A08438432BE4018439C
:100B80003043CEF800001068616A20F01F00491E53
:100B9000084310602068C00139D5DEF800209AFAB9
:100BA000AAF1DEF8003047F6C07602F07062B1FAC2
:100BB00081F199FAA9FC9BFAABF7CA4096FAA6F61E
:100BC0000092BCFA8CFCB7FA87F705E008380240BF
:100BD00000700040FFFCFF0F2269B6FA86F86168DA
:100BE0009AFAAAF603F0E040BA4001FA08F111437C
:100BF000009AB6FA86F699FAA9F720FA0CF0B240F4
:100C0000B7FA87F61143B0400143CEF800102068D0
:100C1000800120D504F1080147F6C0709BFAABFCB7
:100C200090FAA0F260688AC9B2FA82F2BCFA8CF833
:100C30009AFAAAFC904099FAA9F6BCFA8CFC07FA39
:100C400008F703FA0CF3B6FA86F63843B1401843B6
:100C50000843CEF800007B4E306840F08060306082
:100C6000FFF7F2FC074604E0FFF7EEFCC01B642828
:100C70007DD830680001F7D5002D79D0714D2868F6
:100C800020F080502860FFF7DFFC064605E000BF3B
:100C9000FFF7DAFC801B642869D86A480068C04303
:100CA0008000F5D56748216888300A0301D5E26BDA
:100CB0001AB1C9023CD5216CD1BB02689BFAABF6D4
:100CC00047F6C071B6FA86F7066802F4403291FA28
:100CD000A1FC6169FA409AFAAAF7BCFA8CFC9BFA6B
:100CE000ABF501FA0CF1B7FA87F899FAA9F7B5FA5A
:100CF00085FCA56906F0E04602FA0CF2B7FA87F720
:100D000099FAA9F3FE4011434E4A05FA08F5B3FAE1
:100D100083F38C329E402943314301606FF0FF071B
:100D20001168A36A21F4F85107EB032319431160FA
:100D30002168890235D5E16FB1F1006F31D10168C9
:100D40009AFAAAF2056847F6C07601F0706196FA41
:100D5000A6F7B2FA82F299FAA9F69BFAABFC21FA4D
:100D600002F8216AB6FA86F6BCFA8CFC01E060E073
:100D700066E06269B7FA87F701FA0CF19AFAAAFC01
:100D8000BA4005F0E04599FAA9F3BCFA8CF7F540B2
:100D90000A4308FA07F1B3FA83F30A439D402A4352
:100DA00002602178090736D5036802689BFAABF721
:100DB0009AFAAAFC47F6C07102F44032214DB7FA04
:100DC00087F891FAA1F7616922FA08F2BCFA8CF867
:100DD000B7FA87FC9BFAABF603F0706301FA0CF1EB
:100DE000B6FA86F623FA08F39AFAAAF7B24099FA05
:100DF000A9FCE669B7FA87F78C351143BB40BCFA0A
:100E00008CF219439640314301602868E16A20F46E
:100E10004030084328600B4C206840F08050206030
:100E2000FFF712FC054607E0FFF70EFC401B6428A5
:100E300002D90320BDE8F88F2068C0438000F3D4B6
:100E40000020F7E7003802402DE9F047DFF8BC91B9
:100E50000E4605466E4841F28838D9F800106C4CB1
:100E600001F00F010834B1425AD2D9F8002022F023
:100E70000F023243C9F80020D9F8001001F00F0129
:100E8000B14270D12978890705D5AA68216821F077
:100E9000F001114321602978C90729D06968012927
:100EA00014D00068022914D0800700285BDA20687B
:100EB00020F0030008432060FFF7C6FB0646686881
:100EC00001280FD00228474619D024E0006880038B
:100ED000EBE78001E9E700BFFFF7B6FB801BB842F4
:100EE00001D964E047462068C0F381000128F3D1AE
:100EF00073E000BFFFF7A8FB801BB84257D82068FB
:100F0000C0F381000228F5D167E000BFFFF79CFB2A
:100F1000801BB8424BD8206810F00C0FF6D15CE073
:100F20002978890705D5AA68216821F0F0011143C5
:100F300021602978C90741D06968012914D0006867
:100F4000022914D08007002845DA206820F0030029
:100F500008432060FFF778FB0746686801280ED039
:100F6000022818D026E036E000688003EBE7800115
:100F7000E9E700BFFFF768FBC11B414517D82068B0
:100F8000C0F381000128F5D118E000BFFFF75CFB3A
:100F9000C11B41450BD82068C0F381000228F5D160
:100FA0000CE000BFFFF750FBC11B414502D90320F5
:100FB000BDE8F087206810F00C0FF3D1D9F80010CD
:100FC00021F00F013143C9F80010D9F8000000F0FA
:100FD0000F00B04201D00120EAE72878400705D58C
:100FE000E968206820F4E050084320602878000772
:100FF00006D52869216821F4604141EAC0002060DB
:101000000020FFF741FB0020D2E70000003C024037
:101010000038024000B500F043F80849F0230A68A0
:1010200093FAA3F3064902F0F002B3FA83F3DA402D
:10103000044B9A5CD040086000BD000008380240B4
:10104000040002201C37012000B5FFF7E3FF074929
:101050004FF4E052096892FAA2F201F4E051B2FAB8
:1010600082F2D140024A515CC84000BD08380240BB
:101070001C37012000B5FFF7CDFF07494FF4604250
:10108000096892FAA2F201F46041B2FA82F2D14008
:10109000024A515CC84000BD083802401C3701209C
:1010A0001D4930B51D48096811F00C011AD01C4BC0
:1010B000042916D0082915D1174947F6C072091F0F
:1010C0000C680D6804F03F046D020CD50D68B3FB8D
:1010D000F4F092FAA2F31540B3FA83F2D5406843D4
:1010E0000BE0184630BD0B68B0FBF4F092FAA2F4A6
:1010F0001340B4FA84F2D340584309684FF44032A5
:1011000092FAA2F201F44031B2FA82F2D140491CC3
:101110004900B0FBF1F030BD083802400024F40073
:1011200040787D012DE9F84FE54E04460078A6F1A0
:101130000409A9F10405C0076BD03068C0F3810031
:10114000012808D03068C0F3810002280AD1D9F8FC
:101150000000400206D5286880035AD56068002840
:1011600070D056E0286820F480302860286820F489
:1011700080202860286820F480302860FFF764FA17
:101180004FF4FA77804605E0FFF75EFAA0EB08001F
:10119000B84277D828688003F6D4286820F48030D5
:1011A00028606068B0F5803F10D0B0F5A02F2868A7
:1011B00010D020F480202860286820F48030286037
:1011C0006068C8B1FFF740FA804611E0286820F453
:1011D000802001E040F480202860286840F48030BE
:1011E000EDE700BFFFF730FAA0EB0800B842D0D817
:1011F00028688003F6D50CE0FFF726FA804605E064
:10120000FFF722FAA0EB0800B842C2D82868800392
:10121000F6D42078800745D530684FF0F80810F0F4
:101220000C0F08D03068C0F3810002280BD1D9F828
:101230000000400207D42868800717D5E06801281D
:1012400000D113E039E1E068002828681BD040F0A5
:1012500001002860FFF7F8F9074604E0FFF7F4F90A
:10126000C01B642895D828688007F7D520692A68AC
:1012700098FAA8F1B1FA81F1884022F0F80101430F
:1012800029600FE096E020F001002860FFF7DCF90C
:10129000074604E0FFF7D8F9C01B6428A7D82868E0
:1012A0008007F7D42078000729D5854861696C301C
:1012B00000298046016811D041F001010160FFF76B
:1012C000C3F9074605E000BFFFF7BEF9C01B64285D
:1012D00070D8D8F800008007F6D510E021F00101A1
:1012E0000160FFF7B1F9074605E000BFFFF7ACF971
:1012F000C01B64285ED8D8F800008007F6D4207898
:10130000400776D56E483830016841F08051016061
:101310000068DFF8B08100F080500090D8F800102D
:1013200041F48071C8F80010FFF78EF9074604E019
:10133000FFF78AF9C01B64283CD8D8F80000C00524
:10134000F6D55F4F6837386820F00100386038689C
:1013500020F004003860386820F001003860FFF7A2
:1013600073F9824641F2883806E000BFFFF76CF956
:10137000A0EB0A0141451DD838688007F6D43868CB
:1013800020F001003860A06801280FD005283868D7
:1013900011D020F004003860386820F00100386077
:1013A000A068C8B1FFF750F9824611E0386820F014
:1013B000040002E079E040F004003860386840F052
:1013C0000100ECE7FFF740F9A0EB0A0141456CD8BA
:1013D00038688007F6D50CE0FFF736F9824605E05D
:1013E000FFF732F9A0EB0A0141455ED83868800763
:1013F000F6D4A069E8B33168C1F3810102295CD059
:101400000228286820F08070286003D0FFF71CF9BC
:1014100004464DE0FFF718F9064604E0FFF714F91B
:10142000801B642841D828688001F7D447F6C07033
:101430004FF0FF364FF4403790FAA0F2D4E9090399
:1014400097FAA7F7B2FA82F24FF0706C06EB5303EB
:101450009040D4E90761B7FA87F7E26A9CFAACF4E6
:10146000BB401843B4FA84F331439A40014311431B
:1014700000E020E041F00051C9F80010286840F079
:1014800080702860FFF7E0F8044604E0FFF7DCF81E
:10149000001B642809D828688001F7D50BE000BF3D
:1014A000FFF7D2F8001B642802D90320BDE8F88FAB
:1014B00028688001F4D40020F8E70120F6E7000056
:1014C0000838024000700040401EB0F1807F10B527
:1014D00001D3012010BD4FF0E02460610F2160179F
:1014E00000F046F90020A0610721216110BD10B570
:1014F000040003D094F8690010B107E0012010BD8A
:10150000002084F86800204600F026F8022084F8C5
:1015100069002068016821F001010160204600F0A7
:101520005BFA0128EBD0606A10B1204600F0B2F9F6
:101530002068416821F4904141602068816821F071
:101540002A0181602068016841F0010101602046A4
:10155000BDE8104000F002BA234870B5A8B0016899
:1015600041F001010160016801F00101269101686B
:1015700041F00101016000680125119500F00100B2
:101580002690402000906846FFF706F91648143070
:10159000016841F01001016000680724239500F004
:1015A000100026900220114E0102CDE92110CDE954
:1015B000240421A93046FEF751FFAD02304621A98F
:1015C00021952594FEF74AFF21A9304621952594BF
:1015D000FEF744FF012200212520FFF775F82520A2
:1015E000FFF767F828B070BD3038024000000240B5
:1015F0002DE9F047044690F8690099460D46012808
:1016000003D094F86900222854D125B31AB394F872
:10161000680001284ED00027E766012694F869008B
:1016200084F86860222819D05FF0120084F86900FD
:10163000A4F850204FF48058A4F852200022B4F8A7
:10164000520080214B46401EA4F85200204600F074
:10165000E7FAC8B904E00120BDE8F0873220E5E7E9
:10166000A068404501D1206980B115F8010B2168BF
:101670008862B4F852000028E0D100224B46402195
:10168000204600F0CDFA38B10320E5E735F8020B2B
:101690002168C0F30800EBE794F86900322805D010
:1016A00084F86960002084F86870D5E7222084F807
:1016B0006900F7E70220CFE7FEE70000154F4FF47F
:1016C000C87641F2883400BF00F065FB051904E0DC
:1016D000FEF772FE642000F052FB00F05CFBA842B3
:1016E0004FF00000F4D9FEF751FE002000F0A0FBFF
:1016F00000F051FB051905E00020FEF75DFE3046C5
:1017000000F03DFB00F047FBA842F5D9786800F0F7
:1017100075FBD9E7840002200D4F4FF4FA7542F2B1
:10172000107600BF00F037FB841905E009A000F037
:10173000C1FA284600F023FB00F02DFBA042F5D9AA
:10174000386800F05BFB002000F072FBEAE7000065
:10175000840002200D0A5468726561643220697346
:101760002072756E6E696E67210D0A00FEE7704784
:10177000090700284FEA116106DA00F00F0000F1B6
:10178000E02080F8141D704700F1E02080F800147C
:10179000704710B500F00BFBBDE81040FEF75ABFD4
:1017A00070B5022492B0600501250DF1200CCDE941
:1017B00006402E046846192109230B934FF4D87272
:1017C0008CE81600CDE90056FFF7ACFC00B1FEE74F
:1017D000FEF7ACFF00B1FEE70EAD00214FF4A052C2
:1017E0004FF4805385E80E000F20CDE90C0407214B
:1017F0000CA8FFF729FB002800D0FEE712B070BD4F
:10180000104A30B51048146800210F4B44F470049E
:101810001460083305680D4A0D4C45F0010505605C
:1018200019600368051D1340074A03600C322C60E1
:101830000568044C074B25F48025803C0560116049
:10184000236030BD88ED00E000380240FFFFF6FE67
:10185000103000240000012010B5FEF7C3FDFEF794
:1018600001FFFFF79DFF00F0A1F8BDE8104001A0C7
:1018700000F020BA0A0D53797374656D20696E69A2
:101880007469616C697A6520737563636573730A43
:101890000D00000090F82410C90706D00168836A83
:1018A0004A6822F400321A434A6090F824108907EB
:1018B00006D50168C36A4A6822F480321A434A6036
:1018C00090F82410490706D50168036B4A6822F492
:1018D00080221A434A6090F82410090706D501684F
:1018E000436B4A6822F400421A434A6090F824107D
:1018F000C90606D50168836B8A6822F480521A43B0
:101900008A6090F82410890606D50168C36B8A683E
:1019100022F400521A438A6090F82410490611D527
:101920000168036C4A6822F480121A434A60016C11
:10193000B1F5801F06D10168436C4A6822F4C002E9
:101940001A434A6090F82410090606D50168826C93
:10195000486820F4002010434860704770B50025A7
:1019600004466FF07E46C56600680068000707D52C
:10197000002233464FF40011204600F051F958B9C7
:1019800020680068400709D5002233464FF48001E3
:10199000204600F045F908B1032070BD012084F80D
:1019A0006900002084F8685070BD000009480021DB
:1019B00030B4074C4FF4E1330C220460C0E901312C
:1019C000C1600161C0E9052130BCFFF790BD000096
:1019D00000100140900002202DE9F0470446806885
:1019E000834B844F2668D4E90415E2690843D6F88E
:1019F00000C0102115430022284315460CEA030CB1
:101A00007D4B4CEA000CC6F800C04FF4004920683A
:101A1000D4F80CC0466826F4405646EA0C064660E8
:101A20002668D4F82080A069D6F808C040EA0800EB
:101A30002CF4306C4CEA000CC6F808C02068B842A0
:101A40000AD11B6813F0030352D0012B7AD0022B6A
:101A500076D0032B79D177E0684EB0420AD11B686B
:101A600013F00C036AD0042B6CD0082B68D00C2B1D
:101A70006BD169E0624EB0420AD11B6813F03003AB
:101A80005CD0102B5ED0202B5AD0302B5DD15BE088
:101A90005C4EB0420AD11B6813F0C0034ED0402BFD
:101AA00050D0802B4CD0C02B4FD14DE0564EB04281
:101AB0000DD11B6813F4407340D0B3F5807F41D043
:101AC000B3F5007F3CD0B3F5407F3ED13CE04F4EB4
:101AD000B0420FD11B6813F4406309D0B3F5806F97
:101AE00030D0B3F5006F2BD0B3F5406F2DD12BE084
:101AF00001212AE0464EB0420DD11B6813F4405339
:101B00001CD0B3F5805F1DD0B3F5005F18D0B3F5DE
:101B1000405F1AD118E03F4EB04216D11B6813F453
:101B200040430BD0B3F5804F0CD04B4508D0B3F5F4
:101B3000404F0AD108E005E002E0FFE7002104E0A1
:101B4000022102E0042100E00821E6694E4527D188
:101B500009291DD2DFE801F00508101C131C1C1C0C
:101B60001600FFF771FA01E0FFF784FA61684000A0
:101B7000B0FBF1F082B20CE02749606805E0FFF7A6
:101B80008FFAF3E760684FF48031B1FBF0F0F1E7D2
:101B90000125216822F00F00C2F3420210431BE02E
:101BA000092920D2DFE801F005080B1F111F1F1FB4
:101BB0001A00FFF749FA0AE0FFF75CFA07E0174A54
:101BC0006168B2FBF1F189B20BE0FFF769FAD4E981
:101BD0000012B0FBF2F080B2C86005E06168B9FBAA
:101BE000F1F1C16000E001252846BDE8F087000062
:101BF000F369FFEF001001409038024000440040BC
:101C000000480040004C00400050004000140140DB
:101C100000780040007C00400048E8010024F40007
:101C20002DE9F0471D4690460E460446FEF70CFD92
:101C3000B8F1000F07464FF000094FF0010808D037
:101C400030E0681C05D095B1FEF7FEFCC01BA84231
:101C50000DD22068C06936EA0000F2D127E0681C86
:101C600020D025B1FEF7F0FCC01BA8421AD3206893
:101C7000036823F0800303602068036823F02003D7
:101C800003602068036823F480730360206883681E
:101C900023F00103836084F86980032084F868904E
:101CA000BDE8F0872068C06936EA0000D7D0002080
:101CB000F6E7FEE7014A024900F013B8051D0120CE
:101CC0008C00022002E008C8121F08C1002AFAD1C5
:101CD00070477047002001E001C1121F002AFBD1AC
:101CE00070472DE9F04116460F460446002503E0F3
:101CF0003946B047641C6D1C20780028F8D128466E
:101D0000BDE8F08113B5044801224FF6FF73694620
:101D1000FFF76EFC00981CBD90000220EFF30580D9
:101D2000002800D0012070478AB0FFF795FD002001
:101D3000FEF7FAFA0C4914226846FEF7BFFA0A4980
:101D4000142205A81431FEF7B9FA0021684600F004
:101D500038F8064C0021206005A800F032F86060D9
:101D600000F014F8FEE70000643701208400022030
:101D7000842801464FF0000000D0C81C704710B501
:101D800000B9012000F0D8FC002010BD10B500F013
:101D900005FE002010BD10B5FFF7C0FF18B1BDE86B
:101DA000104001F0BFBABDE8104001F0B5BA10B55F
:101DB00001F0A4FA012803D0BDE8104000F00EBFE6
:101DC00010BD30B585B00D460446B0F90800FFF7E8
:101DD000CFFF0021009004AA2B46CDE901210391F9
:101DE000228AD4E9001092B201F0A4F9012802D0AD
:101DF000002005B030BD0498FBE7000010B5044694
:101E0000FFF78CFF002820460BD001F0EFFB0128E4
:101E100009D1064900070860BFF34F8FBFF36F8FEA
:101E200001E000F065FD002010BD000004ED00E0C1
:101E300010B500F0EBFD002010BD000070B50B4C9C
:101E4000054620684560E0682168854205D2606BE0
:101E5000091DBDE8704000F071BB206B091D00F04A
:101E60006DFBA06A854200D2A56270BD18000220F9
:101E700010B500F087FB134C2068A0B9124800F0A1
:101E80004FFB1148143000F04BFB0F480022A060BC
:101E90000C211430E0600A2000F0B8FE206030B160
:101EA0000AA100F019FCBDE8104000F08FBB72B62B
:101EB000502080F31188BFF34F8FBFF36F8F62B64E
:101EC000FEE700005000022044020220546D7251CF
:101ED0000000000070B5124C124E1AE000F0F2FD46
:101EE0003068D0B101F01EFB00F04CFBF068C56813
:101EF000281D00F003FBA068401EA0606068401E23
:101F0000606000F063FB286B00F076FB284600F071
:101F100073FB60680028E1D170BD01F003FBF8E7B6
:101F2000180002201C02022030B4026C0B46002A6A
:101F30000BD0C16844681144C160A14201D301685B
:101F4000C160184630BCFEF7B9B930BC704770B5F7
:101F50001646026C0025044682B1C6B1E068FEF761
:101F6000ADF9E168206C2268091AE160914202D261
:101F70006168081AE060022E16D01AE02068C0B925
:101F8000606801F03FFA05460020606011E0A0683B
:101F9000FEF794F9D4E90110226C1044A060884245
:101FA00007D32068A06004E0A06B10B1A06B401EB6
:101FB000A063A06B401CA063284670BD11484FF47D
:101FC000705110B5420706D00E49C01D20F0070021
:101FD000411AC1F570510C4C002301440839A4F199
:101FE000100221F00701C4E900030C1A11604B60D4
:101FF0000B60C0E9001494604FF000415460D16060
:1020000010BD00006C02022070000220074C4FF04F
:102010008056074DFFF75EFF20680128FAD92E6031
:10202000BFF34F8FBFF36F8FF4E700004001022032
:1020300004ED00E030B5114900E011460A68824223
:10204000FBD34B685C18844203D1446808462344A0
:102050004B6043681D18954209D1084C103C246818
:10206000A24209D052681A4442600A6812680260AB
:10207000814200D0086030BD0460F9E770000220A2
:1020800070B50D4D914241604FF00004006106D8DB
:102090008169D21A8A4206D2011DE86807E09A4295
:1020A00003D2994201D3012403E0011DA86800F086
:1020B00045FA204670BD00005000022030B52F4D7B
:1020C00087B050E0049800284DDB069C606910B191
:1020D000201D00F013FA02A800F0B8F80246049898
:1020E0000A2840D2DFE800F00505053F293C050538
:1020F0003F290598A169034601442046FFF7C0FF28
:10210000012830D1616A20468847E06901282AD138
:102110000020009005980023A16942181946204626
:1021200001F0D8FAF8B972B6502080F31188BFF3E5
:102130004F8FBFF36F8F62B6FEE70598A06128B19D
:10214000811813462046FFF79BFF0CE072B6502023
:1021500080F31188BFF34F8FBFF36F8F62B6FEE736
:10216000204600F049FA0023286804A91A4600F026
:1021700083FD0028A6D107B030BD0000500002202A
:102180002DE9FC410E46054600F09CFC01A800F03C
:102190005DF80446019818B101F0C4F9BDE8FC816E
:1021A000002E204E2DD1A5422BD801F0BBF9B068EE
:1021B0002746C068C468201D00F0A0F9E069012826
:1021C00011D1A0692B463A4641192046FFF758FF26
:1021D000012808D100202A460346014600902046E7
:1021E00001F078FA18B1616A20468847D6E772B6DE
:1021F000502080F31188BFF34F8FBFF36F8F62B60B
:10220000FEE73068291B00F07BFA01F08BF900280B
:10221000C4D105494FF080500860BFF34F8FBFF322
:102220006F8FBBE75000022004ED00E00648016B11
:10223000096829B1016BC968C9684968816270473A
:102240004FF0FF31FAE700001800022070B5054694
:1022500001F062F8064E04467068844203D200F032
:1022600009F8012000E0002028602046746070BD5D
:1022700050000220F8B51A4D1FE0C068C468066817
:10228000201D00F03BF9616A20468847E06901287B
:1022900013D1A0693044B04206D92461211D606089
:1022A000A86800F04BF908E00020324603460146DA
:1022B0000090204601F00EFA38B1A86801680029A4
:1022C000DBD1E968C5E90210F8BD72B6502080F391
:1022D0001188BFF34F8FBFF36F8F62B6FEE7000028
:1022E000500002200A484068401C72B64FF050006F
:1022F00080F3118805D0BFF34F8FBFF36F8F62B6A5
:10230000FEE7BFF34F8FBFF36F8F62B6FEE70000AB
:1023100078000220002801464FF000000CD00B4B43
:102320004A699A4207D1896AA3F12802914202D0F0
:10233000002900D10120704772B6502080F3118827
:10234000BFF34F8FBFF36F8F62B6FEE730020220FC
:10235000074CA068016841B1C0680021D0F80000B6
:10236000FFF70EFFFFF7AAFEF3E701210020F7E7D2
:102370005000022070B5044600F004F904F1240571
:102380000AE0606A58B1284601F090F808B100F000
:1023900009FAA06C401EA064A06C0028F1DC4FF08C
:1023A000FF36A66400F012F900F0ECF804F1100515
:1023B0000AE0206958B1284601F078F808B100F029
:1023C000F1F9606C401E6064606C0028F1DC6664AA
:1023D000BDE8704000F0FAB82DE9F041002704464E
:1023E00000F070FB344E306808B9FFF7E7FDF06885
:1023F00004424FD1E4B30834600710D004F0070062
:10240000C0F108000444600709D072B6502080F380
:102410001188BFF34F8FBFF36F8F62B6FEE73CB3F7
:102420007068844236D82448103001460D6801E0B7
:1024300028460D466968A14202D229680029F7D1D1
:1024400031688D4226D007682968016008376868BE
:10245000011B102911D9281942070AD072B6502041
:1024600080F31188BFF34F8FBFF36F8F62B6FEE723
:1024700010E041606C60FFF7DDFD69687068401A2C
:102480007060B268904200D2B0600020F2681143E0
:10249000C5E9000101F046F8780709D072B650206E
:1024A00080F31188BFF34F8FBFF36F8F62B6FEE7E3
:1024B0003846BDE8F0810000600002200449086849
:1024C00018B10868026D521C026508687047000068
:1024D0001800022070B5031F1D1F2C1F4FF08076BF
:1024E0001E601C3B2960044D191F256044381A608A
:1024F0006FF002020A6070BDE5220120D0E90132CE
:1025000001699A60D0E901235A604A68824201D188
:1025100082684A60002202610868401E08607047B5
:1025200000F108014FF0FF330022C0E90021C0E9AB
:1025300002310161704700210161704730B50B68BD
:102540005A1C02D000F1080202E0026904E02246AF
:10255000546825689D42FAD953684B6099608A6037
:10256000516008610168491C016030BD42684A60E1
:1025700093688B6093685960916008610168491C99
:102580000160704772B6502080F31188BFF34F8FFF
:10259000BFF36F8F0B4962B64868401C4860012842
:1025A0000ED10948006810F0FF0F09D072B6502014
:1025B00080F31188BFF34F8FBFF36F8F62B6FEE7D2
:1025C000704700007800022004ED00E009494868E7
:1025D00028B1401E486001D180F31188704772B65F
:1025E000502080F31188BFF34F8FBFF36F8F62B617
:1025F000FEE700007800022070B500282BD0164DB1
:10260000A0F108046068E968084209D172B6502058
:1026100080F31188BFF34F8FBFF36F8F62B6FEE771
:1026200022684AB172B6502080F31188BFF34F8FF1
:10263000BFF36F8F62B6FEE78843606000F042FA36
:1026400060686968084468602046FFF7F3FCBDE8ED
:10265000704000F067BF70BD6000022006484FF474
:102660007A73072201684FF0E020B1FBF3F1491EB5
:1026700041610261704700000400022010B5FDF7BF
:1026800007FE1349102810D300F1E0200A7890F8D3
:10269000F003904209D272B6502080F31188BFF344
:1026A0004F8FBFF36F8F62B6FEE70A4889680068F4
:1026B00000F4E060884209D972B6502080F3118896
:1026C000BFF34F8FBFF36F8F62B6FEE710BD000000
:1026D000780002200CED00E0084B5FF0000210B51E
:1026E00053F832401CB1521C082AF9D310BD03EB39
:1026F000C20443F83210606010BD000000010220E7
:1027000070B50D460446FFF73DFF616C0020491C83
:1027100000D16064A16C491C00D1A064FFF756FF92
:10272000A06B20B904F12400294600F075F820467A
:10273000BDE87040FFF71EBE70B5020024D0174CF4
:10274000E06A48B172B6502080F31188BFF34F8F12
:10275000BFF36F8F62B6FEE700F0B4F9E16820685E
:102760008D18001DFFF7CAFE38B9226801212069C3
:1027700092F82C209140884320612846FFF75EFBA9
:1027800000F0D0FE002807D105494FF080500860C6
:10279000BFF34F8FBFF36F8F70BD00001800022092
:1027A00004ED00E001490120C861704718000220D3
:1027B00070B50D4650B1164C21681831FFF7BEFEBA
:1027C0002068001DFFF79AFE50B111E072B650204C
:1027D00080F31188BFF34F8FBFF36F8F62B6FEE7B0
:1027E00022680121206992F82C20914088432061C1
:1027F000681C05D0E0682844BDE87040FFF71EBBA8
:102800002168BDE870400348091DFFF7AFBE000016
:10281000180002203002022070B50D4650B1114C54
:1028200021681831FFF7A2FE2068001DFFF766FE41
:1028300050B111E072B6502080F31188BFF34F8F72
:10284000BFF36F8F62B6FEE722680121206992F81C
:102850002C20914088432061E0682844BDE8704006
:10286000FFF7ECBA1800022070B5002804463AD0F1
:102870001D4DE06A2968C96A884234D2A0690028DF
:1028800004DB2868C06AC0F10800A061E16A174E45
:10289000606901EB810106EB8101884220D1201D96
:1028A000FFF72CFE4FF0010150B9E06A00EB800207
:1028B00056F8222022B92A6901FA00F082432A61DF
:1028C0002868C06AE0622A6981401143296100EBEF
:1028D0008000211D06EB8000BDE87040FFF746BE7A
:1028E0002868C06AE06270BD180002204001022022
:1028F00070B5044658B11C4D2868844233D0FFF7A8
:1029000041FE2046FFF706FD01280AD027E072B6F7
:10291000502080F31188BFF34F8FBFF36F8F62B6E3
:10292000FEE7201DFFF7EAFDE16A01202A698840E1
:102930001043286101EB81000C4901EB8000211D4F
:10294000FFF714FE2868E16AC06A814207D308498C
:102950004FF080500860BFF34F8FBFF36F8FBDE81B
:102960007040FFF733BE70BD180002204001022006
:1029700004ED00E028B108490A6A0260C9684160B4
:10298000704772B6502080F31188BFF34F8FBFF3AA
:102990006F8F62B6FEE70000180002201FB500240A
:1029A00018488022234615A10094019402940394B0
:1029B00000F0C0FB012803D100F064FE01280BD019
:1029C00000281AD172B6502080F31188BFF34F8FC0
:1029D000BFF36F8F62B6FEE772B6502080F31188A6
:1029E000BFF34F8FBFF36F8F62B60748012141617C
:1029F000C460BDE81F4000F09DB81FBD49444C4570
:102A0000000000000D2001201800022070B50446CF
:102A1000FFF7B8FD284D04B92C68201DFFF76EFDA7
:102A200058B9E06A254A00EB800152F8211021B91B
:102A30002A69012181408A432A61A06A18B104F100
:102A40001800FFF75BFD1D48211DF030FFF78EFDDC
:102A5000FFF7BCFD28688442686922D1A0B1E86A0A
:102A600048B172B6502080F31188BFF34F8FBFF387
:102A70006F8F62B6FEE712494FF080500860BFF3D7
:102A80004F8FBFF36F8F70BD0C48A968F03000689E
:102A9000884202D10020286070BDBDE8704000F07F
:102AA00019B80028F8D0FFF76DFDFFF7BFFBBDE8B0
:102AB0007040FFF78BBD000018000220400102208B
:102AC00004ED00E00248C16A491CC1627047000081
:102AD000180002201548C16A11B10121C161704777
:102AE0000021C16112490269B2FA82F2C2F11F02E9
:102AF00002EB820251F822306BB101EB820101F14D
:102B000008034A6852684A609A4201D152684A6092
:102B1000D1680160704772B6502080F31188BFF30E
:102B20004F8FBFF36F8F62B6FEE7000018000220E0
:102B3000400102202549FF201CB50A780192087047
:102B400008788DF800009DF800209DF8000002F044
:102B5000F002824209D072B6502080F31188BFF390
:102B60004F8FBFF36F8F62B6FEE79DF800200720FE
:102B7000174C02F050022270A06005E09DF8002082
:102B800052008DF80020401E9DF800201206F5D45A
:102B9000000200F4E060A060019808700D48016830
:102BA00041F470010160016841F070410160FFF77C
:102BB00055FD00206060FDF731FB0748016841F0DA
:102BC00040410160FDF71AFB00201CBD00E400E05D
:102BD0007800022020ED00E034EF00E072B65020D3
:102BE00010B580F31188BFF34F8FBFF36F8F62B6BC
:102BF00000F0A0FB18B104494FF08050086000209D
:102C000080F3118810BD000004ED00E02DE9F041D3
:102C1000050017460E4617D006B305FB06F0401C0C
:102C20005430FFF7D9FBE8B10446CEB104F15400AB
:102C3000206001212046C4E90F5600F0D9F8204653
:102C400084F85070BDE8F08172B6502080F311888E
:102C5000BFF34F8FBFF36F8F62B6FEE70020DFE751
:102C60002460E6E772B6502080F31188BFF34F8FDF
:102C7000BFF36F8F62B6FEE72DE9FF4704009A4667
:102C800082B089464FF0000703D0B9F1000F0AD097
:102C900015E072B6502080F31188BFF34F8FBFF359
:102CA0006F8F62B6FEE7206C48B172B6502080F399
:102CB0001188BFF34F8FBFF36F8F62B6FEE700F04E
:102CC0001DFB4A4E4FF080554FF0000858B904984C
:102CD00048B172B6502080F31188BFF34F8FBFF315
:102CE0006F8F62B6FEE7FFF74DFCA06B60B3E7683D
:102CF00049462046FFF718F9BAF1000F12D0606A72
:102D0000E76048B104F1240000F0D0FB20B1356049
:102D1000BFF34F8FBFF36F8FFFF758FC012006B052
:102D2000BDE8F087A06B2168401EA06311B9FFF7D2
:102D3000C5FB606020690028EED004F1100000F0AF
:102D4000B5FB0128E3D0E7E7049808B11FB106E01E
:102D5000FFF73CFC1FE06846FFF70CFE0127FFF77A
:102D600035FCFFF7AFFEFFF70DFC606C401C01D196
:102D7000C4F84480A06C401C01D1C4F84880FFF71F
:102D800025FC04A9684600F09BF930B12046FFF706
:102D9000F1FA00F0C7FB0020C1E7FFF7F3FBA06BDF
:102DA00038B1FFF713FC2046FFF7E4FA00F0BAFB56
:102DB00099E7FFF70BFC206830B9FFF7E3FB606889
:102DC000FFF752FDFFF702FC049904F12400FFF71E
:102DD000EFFC2046FFF7CEFA00F0A4FB002882D1DA
:102DE0003560BFF34F8FBFF36F8F7CE704ED00E0DA
:102DF0002DE9F04704008A4629D0FFF7C3FB21687C
:102E00000025D4E90F23D4F840C004F1100810467F
:102E10000E46401E4FF0FF3902FB031200FB0C1060
:102E2000BAF1000FA563C4F84490A660C4F84890B6
:102E30006260E06015D04046FFF772FB04F12400A9
:102E4000FFF76EFBFFF7C2FB0120BDE8F08772B60B
:102E5000502080F31188BFF34F8FBFF36F8F62B69E
:102E6000FEE720690028EDD0404600F01FFB012856
:102E7000E8D1044900070860BFF34F8FBFF36F8F9D
:102E8000E0E7000004ED00E02DE9FF4704001D46E7
:102E900082B08A464FF0000803D0BAF1000F0AD082
:102EA00015E072B6502080F31188BFF34F8FBFF347
:102EB0006F8F62B6FEE7206C48B172B6502080F387
:102EC0001188BFF34F8FBFF36F8F62B6FEE7022DFD
:102ED0000CD1E06B012809D072B6502080F3118824
:102EE000BFF34F8FBFF36F8F62B6FEE700F006FAB5
:102EF000404F4FF080564FF0000958B9049848B140
:102F000072B6502080F31188BFF34F8FBFF36F8FDD
:102F100062B6FEE7FFF736FBA06BE16B884207D392
:102F2000022D05D00498E8B1B8F1000F1DD021E0C2
:102F30002A4651462046FFF70AF8616A31B104F18A
:102F4000240000F0B3FA012801D005E020B13E6072
:102F5000BFF34F8FBFF36F8FFFF738FB012006B031
:102F6000BDE8F087FFF732FB20E06846FFF702FD7F
:102F70004FF00108FFF72AFBFFF7A4FDFFF702FB64
:102F8000606C401C01D1C4F84490A06C401C01D17D
:102F9000C4F84890FFF71AFB04A9684600F090F8BF
:102FA00030B12046FFF7E6F900F0BCFA0020D6E782
:102FB000FFF7E8FAA06BE16B884213D1FFF706FB3D
:102FC000049904F11000FFF7F3FB2046FFF7D2F954
:102FD00000F0A8FA00289DD13E60BFF34F8FBFF3E9
:102FE0006F8F97E7FFF7F2FA2046FFF7C3F900F07B
:102FF00099FA8FE704ED00E02DE9F04104001E4648
:103000001746884603D0B8F1000F0AD015E072B613
:10301000502080F31188BFF34F8FBFF36F8F62B6DC
:10302000FEE7206C48B172B6502080F31188BFF3E0
:103030004F8FBFF36F8F62B6FEE7022E0CD1E06BAD
:10304000012809D072B6502080F31188BFF34F8F4A
:10305000BFF36F8F62B6FEE7FFF710FB72B650202A
:10306000EFF3118580F31188BFF34F8FBFF36F8F9C
:1030700062B6A06BE16B884206D3022E04D000201A
:1030800085F31188BDE8F081324641462046FEF7BF
:103090005EFFA06C401C04D0A06C401CA06401200A
:1030A000EEE7606A0028FAD004F1240000F0FEF98F
:1030B0000028F4D0002FF2D001203860EFE70000A4
:1030C00070B504000D4619D015B3FFF75BFA184A26
:1030D0002868D168431C0FD02368126A934202D03B
:1030E00062688A421ED96268891A81421AD2401ADD
:1030F00028602046FFF73EFC002414E072B6502002
:1031000080F31188BFF34F8FBFF36F8F62B6FEE776
:1031100072B6502080F31188BFF34F8FBFF36F8FCB
:1031200062B6FEE70124FFF751FA204670BD0000A9
:10313000180002202DE9FF5F5FEA000B15468A4662
:10314000DDE90F900E9E0BD0082E13D372B65020DF
:1031500080F31188BFF34F8FBFF36F8F62B6FEE726
:1031600072B6502080F31188BFF34F8FBFF36F8F7B
:1031700062B6FEE74FEA8501884610B90846FFF7B8
:103180002BF9070020D05C20FFF726F90400384611
:1031900018D0A52241462063FDF7A2F8206B6FF0FE
:1031A000030101EB8501084420F0070778070ED0E2
:1031B00072B6502080F31188BFF34F8FBFF36F8F2B
:1031C00062B6FEE7FFF718FA4FF0FF348BE00020FD
:1031D0005146354622180B5C82F834300A5C12B135
:1031E000401C1028F6D3002084F84300082D00D39B
:1031F0000725E562C4E913508046201DFFF79BF9BF
:1032000004F11800FFF797F92461C5F10802646220
:10321000A261C4F8548084F858805946039A38460D
:10322000FFF758F9B9F1000F206001D0C9F800404C
:10323000FFF7A8F92E4DDFF8BC80A868401CA860F5
:10324000286810B1686940B32CE02C60A868012898
:1032500028D1002707EB870108EB8100FFF760F911
:103260007F1C082FF6D32348A030FFF759F92148D7
:10327000B430FFF755F91F48C830FFF751F91D4822
:10328000DC30FFF74DF91B48F030FFF749F91948DA
:10329000A03028631430686304E02868C06AB04234
:1032A00000D82C600121686A401C68626064E06A92
:1032B0002A6981401143296100EB800108EB8100FC
:1032C000211DFFF753F90124FFF780F9686950B118
:1032D0002868C06AB04206D2074920070860BFF3D9
:1032E0004F8FBFF36F8F04B02046BDE8F09F000002
:1032F000180002204001022004ED00E00548416969
:1033000019B1C06A18B1002070470120704702202F
:1033100070470000180002200148C0687047000094
:103320001800022010B5FFF7A9F90148C06810BDC8
:10333000180002202DE9F041304CE06A002640B12F
:10334000A069401CA061E06900B101263046BDE8DB
:10335000F081E068401CE060E768AFB9206B00686E
:1033600048B172B6502080F31188BFF34F8FBFF37E
:103370006F8F62B6FEE7216B606B20636163206A2A
:10338000401C2062FEF752FFDFF87480A06A87427B
:1033900009D3206B006880B1206BC068C56868687D
:1033A00087420DD2A0622068C06A00EB800158F805
:1033B00021000128C7D90126C5E74FF0FF30F1E70A
:1033C000281DFFF79BF8A86A18B105F11800FFF750
:1033D00095F8E86A0121226981401143216100EBDF
:1033E000800108EB8100291DFFF7C0F82068E96A19
:1033F000C06A8142CDD30126CBE70000180002202D
:103400004001022070B504464FF00001F0B3254D95
:103410002868844209D072B6502080F31188BFF327
:103420004F8FBFF36F8F62B6FEE7206D38B1E36C4C
:10343000401EE26A20659A4231D050B12FE072B648
:10344000502080F31188BFF34F8FBFF36F8F62B6A8
:10345000FEE7201DFFF752F8134900284FF0010046
:103460000AD1E26A02EB820351F8233023B92B69B7
:1034700000FA02F293432B61E26CC2F10803A361EC
:10348000E2622B6990401843286100E007E002EBFC
:10349000820001EB8000211DFFF768F8012108463A
:1034A00070BD000018000220400102202DE9F0410B
:1034B000C068C468ACB104F118000746FFF71EF8F5
:1034C000164D0126E86AB0B115483946FFF74EF8A7
:1034D000E06A2968C96A88421ED90120EE61BDE808
:1034E000F08172B6502080F31188BFF34F8FBFF385
:1034F0006F8F62B6FEE7201DFFF700F8E06A2A69C9
:1035000006FA00F111432961054900EB8000C83932
:1035100001EB8000211DD9E70020E0E71800022020
:10352000080202202DE9F0472D4CE06A002638B150
:10353000FFF728F8E06A401EE062E06A50B149E017
:1035400072B6502080F31188BFF34F8FBFF36F8F97
:1035500062B6FEE7234D0120A16879B3A5F1C80941
:1035600080462868E8B1E868C76807F11800FEF7E8
:10357000C5FF381DFEF7C2FFF96A226908FA01F09B
:103580001043206101EB810109EB8100391DFEF739
:10359000EDFF2068F96AC06A8142E2D3C4F81C805A
:1035A000DFE7A06958B14546A06940B1FFF7C2FE08
:1035B00000B1E561A069401EA061F5E70AE0E0699D
:1035C000012807D10849000701260860BFF34F8F83
:1035D000BFF36F8FFEF7FAFF3046BDE8F0870000BB
:1035E000180002200802022004ED00E02DE9F0415D
:1035F00004464FF0000790B1FFF740F872B6502034
:10360000EFF3118580F31188BFF34F8FBFF36F8FF6
:1036100062B62046FEF77EFE01280AD028E072B688
:10362000502080F31188BFF34F8FBFF36F8F62B6C6
:10363000FEE7124EF06A18B1114804F1180115E0C6
:10364000E06A3168C96A884200D30127201DFEF76D
:1036500055FFE06A01213269814011433161084917
:1036600000EB8000C83901EB8000211DFEF77EFFD2
:1036700085F311883846BDE8F0810000180002206B
:10368000080202201FB5FEF7F3FB0E48006868B180
:1036900000200290022103900346CA01CDE90010E8
:1036A0000B4809A1FFF746FD002809D172B650204A
:1036B00080F31188BFF34F8FBFF36F8F62B6FEE7C1
:1036C00004B010BD50000220546D72205376630088
:1036D00051230120FEB5104C1F460346089D0020D3
:1036E0002668002E0ED08DE80E0006290DDAFFF7B1
:1036F00005FE02284FF0000305D00022206869462D
:10370000FFF7C2FBFEBD2A46F8E700233A466946AA
:103710003046FFF771FCFEBD5000022000000000A3
:103720000102030401020304060708090002000461
:103730000700070000010000000100000001000078
:103740000001000001000020002000204000800057
:1037500000040002060028002800280017001700B7
:10376000280017008C370120BD1601200000000042
:10377000000000008000000094370120191701208C
:103780000000000000000000800000005468726526
:10379000616431005468726561643200BC37012095
:1037A0000000022090000000C41C01204C380120C1
:1037B00090000220E0410000D41C01200000000025
:1037C0000024F400000000000000000001020304D7
:1037D00006070809000000000000000000000000CB
:1037E00000000000000000000000000000000000D9
:1037F000000000000000000000000000FFFFFFFFCD
:1038000000000000000000000000000000000000B8
:1038100000000000000000000000000000000000A8
:103820000000000000000000000000000000000098
:103830000000000000000000AAAAAAAA00000000E0
:0C3840000000000000000000000000007C
:04000005200101C90C
:00000001FF
