:020000042001D9
:10000000B0BE0420DD0101208F7501201D5B0120A1
:100010008D750120D50701207B7B012000000000A9
:10002000000000000000000000000000EF010120BF
:10003000550D012000000000F30101201976012078
:10004000F7010120F7010120F7010120F70101204C
:10005000F7010120F7010120F7010120F70101203C
:10006000F7010120F7010120F7010120F70101202C
:10007000F7010120F7010120F7010120F70101201C
:10008000F7010120F7010120F7010120F70101200C
:10009000F7010120F7010120F7010120F7010120FC
:1000A000F7010120F7010120F7010120F7010120EC
:1000B000F701012085760120F7010120F7010120D9
:1000C000F7010120F7010120F7010120F7010120CC
:1000D000F7010120F7010120F7010120F7010120BC
:1000E000F7010120F7010120F7010120F7010120AC
:1000F000F7010120F7010120F7010120F70101209C
:10010000F7010120F7010120F7010120F70101208B
:10011000F7010120F7010120F7010120F70101207B
:10012000F7010120F7010120F7010120F70101206B
:10013000F7010120F7010120F7010120F70101205B
:10014000F7010120F7010120F7010120F70101204B
:10015000F7010120F7010120F7010120F70101203B
:10016000F7010120F7010120F7010120F70101202B
:10017000F7010120F7010120F7010120F70101201B
:10018000F7010120F7010120F7010120F70101200B
:10019000F7010120F7010120F7010120F7010120FB
:1001A000E9720120F7010120F7010120F701012088
:1001B000F7010120F7010120F7010120F7010120DB
:1001C000F7010120F7010120DFF80CD000F06EF8F4
:1001D00000480047F9E20120B0BE042006488047ED
:1001E00006480047FEE7FEE7FEE7FEE7FEE7FEE71C
:1001F000FEE7FEE7FEE7FEE72D760120C9010120BC
:1002000010B5431A934209D28318881803E010F8F6
:10021000011D03F8011D521EF9D210BD40EA010371
:100220009B0703D009E008C9121F08C0042AFAD2AC
:1002300003E011F8013B00F8013B521EF9D210BD5A
:10024000D2B201E000F8012B491EFBD27047002218
:10025000F6E710B513460A4604461946FFF7F0FFC5
:10026000204610BD30B504460020034600E05B1C6C
:10027000934203D2E05CCD5C401BF8D030BD30B57A
:100280000B46014600202022012409E021FA02F554
:100290009D4205D303FA02F5491B04FA02F52844EE
:1002A000151EA2F10102F1DC30BD0000064C074D25
:1002B00006E0E06840F0010394E807009847103436
:1002C000AC42F6D3FFF784FF20FF012040FF01205E
:1002D00070B58C1810F8015B15F0070301D110F808
:1002E000013B2A1106D110F8012B03E010F8016B35
:1002F00001F8016B5B1EF9D12B0705D40023521EB8
:100300000DD401F8013BFAE710F8013BCB1A921C1F
:1003100003E013F8015B01F8015B521EF9D5A1421D
:10032000D8D3002070BD00000146014805F03CB95B
:1003300098B304200A460146014805F03AB9000086
:1003400098B30420002010B500F03EF8044800786F
:10035000012803D1BDE8104000F04AB810BD0000EC
:100360006420022070B515490500154886B005D0F7
:10037000012D03D0022D01D0032D08D10A6842F0CF
:1003800001020A600968044601F0010100910D4E66
:100390000120032156F82520CDE90120CDE90301F4
:1003A00001A9204603F0C4FB36F82500012281B2E2
:1003B000204603F0ADFC06B070BD000030380240AE
:1003C00000000240C8E601200749020005D0012ACA
:1003D00003D0022A01D0032A00D10846034931F88C
:1003E000221089B203F090BC00000240C8E6012050
:1003F00070B586B0684600F07BF91D4CBDF8000072
:100400008DF81000BDF802206188914201D98B1A45
:1004100000E0531ABDF804109DB2A3888B4201D9A5
:100420005B1A00E0CB1A26889BB2864203D1032DCB
:1004300001D8032B1AD9208012B109B16280A180A2
:1004400000F0ACFA00284FF000008DF81100608831
:1004500006D000F087FA0290A08800F091FA01E03F
:100460000290A088039002A802F038FB06B070BD8D
:100470006C2002202DE9F0411E4804211C4B07226C
:1004800000F134074FF0020C0125036000F11C0855
:10049000C7F800C00024C7E90121FA602022C7F88C
:1004A00010C04023C7F814C04FF4C076C7F818C076
:1004B0004F02C0E901454FF4805C88E890108462E7
:1004C0000C3080E84E0000210C3800F05DF809493E
:1004D0000848343105F0E8F8074E08B1357000E0FF
:1004E000347040F2036000F009F83078BDE8F08124
:1004F000400100A074230220142002202DE9F843BB
:10050000204C102700254FF6FF7801260095214644
:100510008146C4E90067C4E90265A1F15000424682
:1005200005F0F6F8012003F0F7FA02202146C4E9AD
:100530000007C4E90265A1F15000424605F0E8F861
:1005400003214246C4E9001708202146C4E90205F8
:10055000A1F1500005F0DCF84FF40C70009004217C
:100560004246C4E90260C4E900172146A1F15000E7
:1005700005F0CEF8A4F150004946BDE8F84305F077
:10058000B5B80000C4230220F0B505464F4800244A
:1005900087B0016841F00101016000684B4900F03B
:1005A000010005900839086840F480000860086878
:1005B00000F480000590086840F0080008600868B2
:1005C00000F008000590086840F010000860086816
:1005D00000F010000590086840F0200008600868EE
:1005E00000F020000590086840F0400008600868AE
:1005F00000F040000590086840F08000086008683E
:1006000000F080000590086840F480700860086879
:1006100001210C224CF2037300F48070059002203B
:10062000CDE9010100936946CDE90302284803F0B2
:100630007FFA4FF6837000902648694603F078FAF7
:100640004FF63F0000902448694603F071FA48F2E3
:10065000331000902148694603F06AFA4FF62C7077
:1006600000901F48694603F063FA40F2FF60009073
:100670001C48694603F05CFA4FF400731A494FF0C6
:10068000800CDE005F004C605801C1E902C3C1E983
:100690000476C200154EC1E9060403230846C1E9E9
:1006A0000824C1E90A340E600C6329638D6303F0EA
:1006B000C1F90D4803F0EAF900220521382004F0C1
:1006C00073F8382004F064F807B0F0BD3838024001
:1006D000000C0240001002400014024000180240CA
:1006E000001C024000200240C4220220106402408C
:1006F0007CB5254C054620690169607888472880CB
:10070000F0B3206901A96A46436960789847BDF84B
:100710000400C0F5805080B2ADF8040021788A074B
:1007200005D5BDF80020C2F58052ADF8002049077C
:1007300005D5BDF80010ADF80000ADF80410BDF807
:100740000400A168884201D9421A00E00A1ABDF8E3
:10075000001093B2E268914201D98A1A00E0521A5D
:1007600092B21A44052A01D9C4E902016088A1683D
:100770004843000B6880A088E1684843000B00E014
:1007800000E0A88000207CBD0020022070B50F4C46
:1007900000250F4E60808220A18071688847A0F5F7
:1007A000006111390BD005F00AFC206901686078FE
:1007B00088472069C16860788847284670BD2661EF
:1007C0008221617002202070EFE7000000200220EB
:1007D0001C200220FEE700002DE9F04F00208FB022
:1007E000FFF7A2FD544E30600120FFF79DFD371D3D
:1007F000A6F11405C0F3CF323860C0F30E012A61B0
:10080000A9603068C0F30E016960C0F3CF30E860C2
:100810006FF07F4002F084F800F069FF002002F0E2
:1008200081F8464802F082F8454809F021F905F0C0
:10083000BBFE00EBD0700522411042A001F0CEF8C3
:1008400001200CF0B9FF00200CF0B6FF0F20039040
:10085000019005F0A9FE0F38049005F0B1FE0024C8
:100860000F3802900DF114080DF124090DF10C0A56
:100870000DF1040B304809EB8403083008EB8402C7
:1008800050F8240000905BF824105AF824000BF074
:100890000FFA641C022CEDDBDDE903104FF47A74CF
:1008A000DDE90532401A6043D11A90FBF1F068602F
:1008B000039A03FB00F102EB4203C3EBC212C1EB4C
:1008C000C202EA60DDE90181A1EB08016143DDE9D3
:1008D00009431B1B91FBF3F12346A9604B4308EB33
:1008E0004801C1EBC811C3EBC1012961316860F354
:1008F0000E01002062F3DE313160FFF71BFD2A8913
:100900003868298A62F30E0061F3DE3040F000415E
:1009100039600120FFF70EFD00F0AAFE00F0E7FEAF
:100920000F4809F0A5F8012028604FF47A7000F014
:10093000B3FF0FB0BDE8F08F88200220B0F0012097
:1009400020FE0120546F7563682073637265656EC5
:100950002043616C6962726174696F6E000000000F
:1009600084FE012005494FF47A72CB68496801FB87
:10097000003090FBF2F080B270470000742002203B
:1009800005494FF47A720B69896801FB003090FBCE
:10099000F2F080B270470000742002200148007815
:1009A0007047000074200220F0B5BFF34F8FBFF3F3
:1009B0006F8F19490020174B0860196841F4003106
:1009C0001960BFF34F8FBFF36F8F1249703108600A
:1009D000BFF34F8F081F104D43F6FF7410350068AA
:1009E000C0F34E31C0F3C90204EA4116104600BFFD
:1009F00046EA80772F60401EFAD2491EF4D2BFF338
:100A00004F8F186840F480301860BFF34F8FBFF3EA
:100A10006F8FF0BD14ED00E050EF00E0FEB515461D
:100A20000F46064602F0BCFF0B49C6EBC602002388
:100A300001EB820451F8222000FB0721D4F810C0FA
:100A400000FB0522CDE900C302933046E36800F0C5
:100A500007F9A560FEBD000040590420FEB50F4E09
:100A6000C0EBC00406EB840CDDF820E0DDE909579B
:100A700056F82460DCF80C4002FB04110EFB043233
:100A8000DCF8143001FB036102FB0362631B029379
:100A9000CDE900732B4600F0E3F8FEBD4059042079
:100AA0002DE9F0471D4616460F468046DDE9084908
:100AB00001F0BEF8012831D0ED1B4046A41B641C98
:100AC0006D1C02F06DFF01461D48C8EBC80350F8CD
:100AD000232000EB8300836801FB0322C168406987
:100AE00006FB01734E4603FB00274046A1EB0508B9
:100AF00005F054FE134965F31F44134A0A608E63E0
:100B0000CF63C1F8408048634C64086840F001003E
:100B100008600868C007FCD1BDE8F08700224046A5
:100B2000192106F0CFF823462A463146384605F00B
:100B30009DFC4046054ABDE8F047192106F0C2B8C1
:100B40004059042000B0024000020300A10A012025
:100B500038B50324009400F055F838BD38B50424A6
:100B6000009400F04FF838BD38B50224009400F02E
:100B700049F838BD38B50024009400F043F838BD7A
:100B800038B50024009400F03DF838BD2DE9F04759
:100B9000984691460C4616491A4605F03BFA154907
:100BA0004246204605F036FA13480021114C012335
:100BB0000F4F03EB0846114AA4F570550260C76059
:100BC0004461C563016181610164C1614162416346
:100BD0004664016841F0010101600168C907FCD168
:100BE00042464946BDE8F047054805F013BA000003
:100BF0005C7704205C95042000B0024000020200F3
:100C00005C590420F8B514460E460649069D05F0C9
:100C100008FA044800222B463146009400F004F8FC
:100C2000F8BD00005C590420F0B50C4C4FF0010CED
:100C300000254FF48137059E27600CEB0646E060E7
:100C4000E16325612564E26163636664206840F0C6
:100C5000010020602068C007FCD1F0BD00B0024058
:100C60002DE9F0470F461D4608A9164691E81003E6
:100C700005F094FD0A4965F31F444A150A60CF60E8
:100C8000CE63C1F81080C1F84090C8614C64086818
:100C900040F0010008600868C007FCD1BDE8F0879B
:100CA00000B0024038B514460D4606490023049AA8
:100CB0000094FFF7B9FF22462946BDE838400148B5
:100CC00005F0AFB95C5904203EB5FF23B3EB116FBB
:100CD00026D0144B4FF48035C2F1FF0480F07F40E2
:100CE000009045EA0262104D81F07F400190240699
:100CF0001D600020C3F80CD001A9596102A94FF072
:100D00000115D963DA615C6258635D64186840F06C
:100D1000010018601868C007FCD1029880F07F407D
:100D20003EBD000000B0024000020200016818232E
:100D3000CAB2103AB2FBF3F2054B6FF30901032A72
:100D40009B5C436500D9091D01650846704700009A
:100D500008E701207047F0B5D1E90125D1E9034347
:100D6000D1E905762A43D1F800C044EA0304D1E969
:100D7000073542EA0402496A42EA0702BCF1010F60
:100D800042EA060208D004681A432A430A43E30BE6
:100D9000DB031A4302600BE0066844682B43F50B43
:100DA0006FF30E04ED0329430B43036022434260BB
:100DB0000020F0BD426942EA4101416100207047D4
:100DC000F8B505461446D1E90003D1E902216FF0D8
:100DD0001F06184306EB421242EA412108430090E5
:100DE000286102F09BFF064609E0601C07D024B191
:100DF00002F094FF801BA04201D90320F8BDA8692E
:100E00008006F2D40020F8BD2DE9F043914691E828
:100E10001C006FF00F05521E2E0105EB03132F036C
:100E20001A430B7E4FEA054C0D8A06EB04268C8A8A
:100E3000C96832434FF07F48B9F1010F07EB054510
:100E40000CEB045408EB03630CD086683F1107EBEE
:100E500001310A432A4322431A4306F070410A43F0
:100E600082600FE0C668090387682A431A43A1F528
:100E70008051214306F070431A43C26007F070446A
:100E8000214381600020BDE8F08300002DE9F0439C
:100E9000C56887B0904689460446002001F044FDAD
:100EA000064625B1287910B146F0020001E026F08F
:100EB000020001F039FD2069012558B1D4E9021280
:100EC0008DE82600039541460568484663882288D8
:100ED000A8471EE0124F2146124B38681B68427C1F
:100EE000E068984730B9E088012801D0002001E08F
:100EF0003868806BA288E388A1680095CDE902324A
:100F0000CDE904100195414663884846228805F0E2
:100F1000DFF807B03046BDE8F04301F005BD000042
:100F2000EC200220E42002202DE9F05F064640F28A
:100F3000C3208846144650434FF47A7190FBF1F772
:100F400002FB02F002EBD27100EB610B2348B118F7
:100F50000368301B7F1C5A6E13680A464146984747
:100F6000012537E005FB05F004FB040159451CDDB4
:100F7000BC4219DD194806EB0509A6EB050AA9F1E3
:100F8000010208EB040103680AF101005B6E1B68B3
:100F900098471248A8EB0401A9F1010203680AF17D
:100FA00001005B6E1B689847641E0C48321908EB01
:100FB000050192460368301B81465B6E1B689847AB
:100FC0000649524648460B68A8EB05015B6E1B6854
:100FD00098476D1CBD42C5DDBDE8F09FEC200220A6
:100FE000002010B501F09CFC6FF07F4001F09AFCEE
:100FF000012001F0E7FC002001F0ECFC002001F0F2
:10100000F3FC002001F090FC0448006801F08EFC25
:10101000BDE81040002001F0B1BC0000E820022033
:10102000014AC2E90001704798200220014AC2E942
:1010300000017047A0200220014AC2E90001704768
:1010400068210220014AC2E900017047A82002205D
:10105000014AC2E900017047702102202DE9F04FDA
:10106000DFF830B191B04FF0FF35DBF80030D3F846
:101070001CC0B3F922100691B3F92490DCF81C408F
:10108000A189814206D8E289824203D3D4F8008044
:10109000471A12E0D4E90181002971D00A888242FE
:1010A0006ED84D8885426BD3801A496880B201EBB7
:1010B0008000B0F90070B0F90250781C60D0A17CBB
:1010C0009CF81800B3F92A60079010FB01FA207C05
:1010D0000890304605F00CFE0246DBF80000A17CCB
:1010E000D2B207FB0A830F920127826B0297059207
:1010F000CDE90313C069089AC17E807ECDE9000165
:10110000DDE90603494604F0E3FF681C18D046F009
:10111000020005F0EDFDDBF8000003AA05FB0A83E1
:10112000A17C856B029782E82A00C069089AC17E7B
:10113000807ECDE90001DDE90603494604F0C8FFE1
:10114000DBF800005D46C069417E007E814214D913
:10115000022E12D086F0040005F0CAFD2868C0698E
:10116000017EC27E857E437E11FB0291089A4B442C
:10117000069812FB050205F079F90F9805F0B8FD05
:10118000DBF80000617C428C1144418411B0BDE861
:10119000F08F0000EC20022004480068C069C0699C
:1011A00009B1027C0A60407C70470000EC200220FC
:1011B000022008807047C06982898A4202D8C289A9
:1011C0008A4210D2806880B102888A420DD8438852
:1011D0008B420AD3406800EB8100A0EB8200B0F99B
:1011E0000000002801DB012070470020704700004C
:1011F0002DE9F0432F4C034687B019462068B0F91B
:101200002A60C069C06900F084F800284FD00188C6
:101210004068591A00EBC1053046AF7805F068FD0B
:101220008146206869680123826BCDE90237CDE9E8
:101230000412C169CB7E8A7ECDE900230B7EB0F912
:1012400024102A78B0F9220004F042FF2068C06917
:10125000417E027E91421ED9C07E022E11FB00F714
:1012600012FB00F617D000F0D0FC804600F0B0FC76
:1012700001F058FB21682A78CB69B1F92200B1F955
:101280002410DB7E12FB0302CB19314405F0EEF88B
:10129000404601F047FB484605F02AFD2068697882
:1012A000C369B0F922209B7E11FB0321418407B062
:1012B000BDE8F083EC20022030B50F4C05460B460C
:1012C00029462068C069C06900F023F8002812D0C0
:1012D0002468028841680120AA1AE469002B00EB07
:1012E000C200085CA47E10FB04F004D011F8321098
:1012F00011FB04F1196030BDEC20022001200880B0
:10130000704700B5C06900F004F8002800D0012043
:1013100000BD06E002888A4202D842888A4202D290
:1013200080680028F6D17047002801D007F07EBF02
:10133000704738B50546FFF7F7FF040009D000F005
:10134000B3F800212A46009002F004FB684600F042
:10135000CDF8204638BD000021F003020149C1E963
:1013600000027047E8B40420002810B514D00446E9
:101370000A48406B10F8341000290DD002290BD216
:10138000042101EBC4014158486807F009FF2046D9
:10139000BDE810400BF00EBA10BD000028B40420C8
:1013A000002805D0034AD16B016001B14860D063C9
:1013B0007047000028B404202DE9F04104460AF0EB
:1013C00071FF2849E41C24F003052D1D086CA84278
:1013D00000D90546CC6B13E054F8042CAA420ED178
:1013E00084B1206808B162684260606808B1226810
:1013F0000260CA6BA24232D12068C8632FE0246821
:10140000002CE9D18846896BD8F80C000F1857F8E2
:10141000040C3E1A306838B100200BF04FFA57F830
:10142000040C3E1A3068D0B97068A84217DB30440B
:10143000441B3046241D0BF0F9F9D8F80C10491B59
:10144000C8F80C10D8F814102944C8F814107068A3
:10145000401B02D0314607F0A3FE44F8045C20464E
:10146000BDE8F08128B4042010B500240AF01AFF6A
:101470000C490F2001EBC002526C1AB101EBC00005
:10148000406C08E0401EF5D508E04168A14200D953
:101490000C46806810B180680028F6D1A4F10C00D9
:1014A00010BD000028B404200549CA69521CCA6155
:1014B000496B01EBC0010A78521C0A7000F02EB88B
:1014C00028B4042010B5FFF7CFFF074AB0F5800F0E
:1014D0004FF06401126A03D990FBF1F0504310BD44
:1014E0004243B2FBF1F010BD28B4042002680A495F
:1014F00052F8082C4B6B03EBC2021378022B03D378
:10150000CB690BB15B1ECB6111780023491E1170B2
:10151000036018467047000028B40420002806D055
:101520000349042202EBC000496B08580830704799
:1015300028B404202DE9FC5F04468946084600F0E3
:101540006BFB2D4E82462B4809EB89074FF00108B3
:1015500056F827100268019142B92649C0F8008068
:10156000091D26480860084602F0ECF9224809EBFC
:101570008901BAF1000F00EB81051CD0504601F043
:10158000BDF983464FF07F4001F0CAF900F0AFF893
:1015900000222068114600F061FA20684288018824
:1015A000504601F0E7F946F82740584685F805808F
:1015B00001F0A4F917E046F82740286985F805806E
:1015C00018B101F0EFF8002028617CB1CDF800805F
:1015D000D4E90003A968EA68A668C91A4B46921BB9
:1015E00001F022F9286148460BF056FE0198BDE84B
:1015F000FC9F00003021022064B504207DC501203D
:1016000070B50D4606461446104600F005FB030073
:10161000164804EB84010AD050F82100D0E90110EB
:10162000711A2A1A1846BDE8704001F0A1B900EB02
:101630008104A268B24201D0012200E00022E368E6
:10164000AB4201D0012300E000231A430CD02369F0
:1016500043B150F82100D0E901016A1A311A184645
:1016600001F0BEF8C4E9026570BD000064B5042055
:1016700002480068407C00F003B80000EC20022023
:10168000094900EB800230B401EB8204012363714D
:1016900051F8221011B130BC0BF0FEBD30BC014638
:1016A0000248FFF747BF000064B5042070F4012032
:1016B00030B5C2B2CBB2D21A00D5524293B2C0F307
:1016C000072403FB03F3C1F30725621B00D5524235
:1016D000000C92B2A0EB114002FB023100B20028D4
:1016E00001DA404200B280B200FB001030BD0021A0
:1016F000084610B500F0E4FA43F6FF725042134674
:10170000BDE81040014600F001B800002DE9FC41A1
:101710001C4615460E460746042005F0E9FA8046A9
:101720001148C068D0E913100F44ADF800700D44A3
:10173000ADF804500644ADF8026004446846ADF8C4
:10174000064007F0F3F807E023462A4631463846BC
:1017500004F08CFE07F0ACF80028F5D1404605F007
:10176000C7FABDE8FC810000E02002202DE9F0412D
:10177000022B1C4616460D46074602DB0020BDE83C
:10178000F0811C20FFF718FE0028F8D00DB105618C
:101790000AE0094A52F8241009B905E011460A681E
:1017A000002AFBD109690161002184618682016000
:1017B0004160C0E90217E2E70421022070B51D462E
:1017C000FFF7D4FF040009D000F00EF8E0680068CD
:1017D00020B90348006800EB85008465204670BD91
:1017E000EC200220FFF7DCBD70B590B38269022ABD
:1017F00030DA1E4C54F8221019B944F8220032E0B5
:1018000019464B68002BFBD106E0CB68C5681B6806
:101810002D68AB4203DD09680029F6D11AE0C1B199
:10182000CB68C6681B683668B3420CD1838A012B2B
:1018300005D008E01946DB681B68AB4203DB0B6888
:10184000002BF7D129B14B6833B118604A68426068
:1018500004E0FFE7012070BD44F8220088424860A0
:1018600000D100210160002070BD00000421022091
:101870000BF08ABF022801DB00207047054951F8B0
:10188000200004E0C16809680029F6D0006800283B
:10189000F8D170470421022070B5044601F066FAC1
:1018A000051908E000F000F9052C01DD052000E035
:1018B000204601F04FFA01F059FA2C1A002CF1DC05
:1018C00070BD00002DE9FC4706005ED000F0B6F9BF
:1018D0003D4C81462068B0F9228000F0C9F92168AA
:1018E00007468A8CD01B888444E000BF47F6FF710E
:1018F000304601F0D7FE82460146304601F0A8FE90
:101900002168054691F82C0000F00300012842D020
:1019100002283CD05FF00000B1F822C06A1EACEB98
:10192000000048840244ADF80000ADF80420A9F19D
:101930000103888C6A46ADF80200C1183046ADF844
:101940000610514601F0A2FB2168BDF80200888410
:101950005146304601F0EEF8064430780A281CD093
:101960000D281AD02168BDF800002844488430783A
:1019700018B1761C30780028B8D12068818C3944A1
:101980008184818D21F003018185BDE8FC8705EB11
:10199000D5704010C0E72846BEE7206890F82C10AC
:1019A00001F0030101290BD0022909D0018C4184E7
:1019B00031780A29DBD1828C02EB09018184D6E7D8
:1019C000A0F82280F4E70000EC200220024B1B6804
:1019D00059849A84FFF776BFEC2002202DE9F0416C
:1019E00007460A4815460E460068B0F92C0040F03C
:1019F000020000F0EFFF04462A4631463846FFF762
:101A0000E5FF2046BDE8F04100F0E4BFEC200220F5
:101A100047F6FF73AFF300802DE9FC4106001F4637
:101A200090460D464FF0000416D065B1084606F00A
:101A300079FE040007D002462946684601F091FE6F
:101A4000684606F06FFE3B4642462946304601F0A6
:101A500075FB204606F066FEBDE8FC817CB5114BA7
:101A6000064600881B68D3E913436518ADF800509B
:101A7000691E0844ADF8040070889C18611EADF81A
:101A800002400844ADF80600684606F04FFF06E045
:101A9000224629463046FFF7F9F906F009FF0028EB
:101AA000F6D17CBDEC20022010B5002400E001241A
:101AB00000F004F80028FAD1204610BD094810B5FE
:101AC0000024006810B1804700B1012406F0F4F949
:101AD00000B101240448006810B1804700B101241E
:101AE000204610BD102102200C21022070B51646A0
:101AF000094A1268D2E913321C185518002006F062
:101B000015FF06E0324629462046FFF70DFA06F09B
:101B1000CFFE0028F6D170BDEC20022008B50028C9
:101B20000B4605D0009281888268C08800F001F8D9
:101B300008BD10B50828029C30D008DC04FB01F475
:101B400001280AD0022813D0042804D11CE0102850
:101B500028D020282CD0002010BD04EBD30003F0A7
:101B60000701C1F10701105CC84000F0010010BD81
:101B700004EB9300062101EA4301105CC1F1060168
:101B8000C84000F0030010BD04EB5300D907105CFF
:101B900002D000F00F0010BD000910BD04FB0130A1
:101BA000105C10BD481004FB003032F8100010BD6E
:101BB000881004FB003052F8200010BD034951F892
:101BC0002000C1688A6A0821104700000421022011
:101BD00010B504F07BFCBDE8104004F025BD00000A
:101BE00002490968C9694A6800211047EC200220AF
:101BF000024A1268D269526810470000EC200220A5
:101C0000002801D006F094B9704710B504F066FCC6
:101C1000BDE8104004F008BD02284FF0000102D2D8
:101C2000024951F820100846704700006021022048
:101C300001480068007C7047EC20022002480068E0
:101C4000C069407E70470000EC20022001F0F6BC25
:101C500070B514460D4604F085FC002802D0002023
:101C60002860206070BD01F039BD01F07FB8000030
:101C70000A480168002091F82C2002F00C02042A86
:101C800007D0082A01D00C2A02D1C869007E40087A
:101C90007047C869007E401E70470000EC2002209B
:101CA000024951F8200000690068704704210220B1
:101CB000024951F820000069406870470421022061
:101CC00070B50D460AF0D6F8044628460AF0DAF850
:101CD000204370BD124910B512480C680122124B06
:101CE00024F001040C608260036000680F498842A0
:101CF00000D0FEE701F0FCF80D492E20087001F03D
:101D00003BF80C480AF096FA0CF0A4FA00210446BD
:101D1000084600F03BFE06F00BFB204610BD00001D
:101D2000002000E000300240C2A507F4CDB5E8B5C0
:101D3000E0200220F4B404201CB520B90C4800684F
:101D4000006E002812D0FFF7AFFB00904469684690
:101D5000FFF7CCFB002C09D02046FFF7A5FB019034
:101D600081688968884701A8FFF7C0FB1CBD000097
:101D7000EC20022001490A4600F002B801F0FFFF02
:101D80002DE9FE435FEA000815460C4642D00020CC
:101D900000F0CAFD814620480068066E4046FFF705
:101DA00083FB02900068806900F0A8FD074640F6BA
:101DB000FF70C44204D10298B0F90440B0F9065053
:101DC0000298621E6B1E0189ADF800401144ADF807
:101DD00004104089ADF802501844ADF8060005F033
:101DE000CDFE02A8FFF782FB684606F09FFD06E0E5
:101DF0002A462146404600F041FB06F059FD0028E6
:101E0000F6D1384600F07AFD304600F053F94846E6
:101E100000F08AFDBDE8FE83EC2002202DE9FE4F94
:101E2000834619488A4619490C9E002798469146D0
:101E30000068407C51F82040E1680968042903D01B
:101E40002468002CF8D100E014B9FFF713FD044614
:101E50000121E068C26A20469047050011D024693C
:101E6000A0688047401C02D1094C46F0010600964C
:101E700043464A4651465846CDE9015400F0A0F980
:101E800007463846BDE8FE8FEC20022004210220E0
:101E9000B8FD012038B5040018D00D480068006E68
:101EA000A04201D100F020FD2046FFF7FDFA00908E
:101EB000406908B100F033FF00980068FFF792FC1A
:101EC0006846FFF713FB2046FFF74EFA38BD0000C7
:101ED000EC2002202DE9FF4F0746464883B0994683
:101EE0008A460068DDF840B0447C4348005701282A
:101EF000204606DD04F060FB8046204604F068FBC7
:101F000005E004F048FB8046204604F04AFB044606
:101F100017B302A901A8FFF7A6FEB7F90060002ECB
:101F200000DA0026B7F90250002D00DA00250199E9
:101F3000B7F904004144491E0AF096FA8046029817
:101F40000119B7F90600491E0AF08EFAA8EB06023D
:101F5000441B521C641C02E0002642463546B9F17F
:101F6000000F01D1C4F10009002A01DD002C03DCBF
:101F7000002007B0BDE8F08F4B4629463046CDF82B
:101F800000B0FFF74BFF5FEA000909D000F058F8F6
:101F90008046484600F08EF8DFF860B000271FE06A
:101FA0005146059888470120E3E7E11B414502DAE5
:101FB000484600F069F83FB1EA193146484600F05A
:101FC0009BF84846FFF7B8FE514605988847DBF86E
:101FD000001009B1002088474846FFF7CBFE474470
:101FE000A742E2DB4846FFF755FF002000F062F809
:101FF000BEE70000EC20022024210220342202202F
:1020000038B54FF0000460B1FFF74EFA0090006859
:1020100000698068804705F04DF904466846FFF77F
:1020200065FA204638BD38B5002808D0FFF73CFADD
:1020300000F1180400906846FFF758FA204638BDB2
:1020400038B54FF0000418B906480068006E38B182
:10205000FFF72AFA0090B0F90A406846FFF746FAFF
:10206000204638BDEC20022070B5002405462846E5
:1020700007F0FCFB641C18B1BDE8704000F06AB8C2
:10208000052CF4DB70BD000038B50C4620B90848BB
:102090000068006E00280AD0FFF706FA0090B0F939
:1020A0000A10A14200DD44816846FFF71FFA38BDDF
:1020B000EC200220F8B50F4E05003068046E16D0F3
:1020C0000CB100F011FC05F047FE2846FFF7ECF9D3
:1020D000009031680D660068FFF786FB6846FFF7E1
:1020E00005FA04F08BFE04F0CDFD2046F8BD00F0AB
:1020F000FBFBFAE7EC2002207CB515460C4620B924
:1021000013480068006E002820D0FFF7CDF900903A
:102110002DB2C58024B2848004F0B4FD00984069DB
:1021200088B1FFF7C1F9009A0190B2F908108180D7
:102130000029B2F90A10C18002D009B1048045809B
:1021400001A8FFF7D3F96846FFF7D0F97CBD00007E
:10215000EC20022001490A4600F002B801F0FFFF1E
:10216000FEB5060015460C4628D0FFF79DF940F64F
:10217000FF710290CC4203D1B0F90440B0F906508F
:102180000189621EADF800401144ADF80410408989
:102190006A1EADF802501044ADF8060002A8FFF721
:1021A000A5F9684606F0C2FB06E02A4621463046FD
:1021B00000F04CF906F07CFB0028F6D1FEBD0000D3
:1021C0002DE9FF4FDFF8E8B083B01C464FF0000860
:1021D00092464246DDE91060DBF800104B7C129914
:1021E000FFF7C4FA050061D028698068804705F0D0
:1021F00061F881460AFB09F1C91DCF08FFF762F9B2
:10220000F10705D1C11700EB9170801000EB400081
:10221000002C09DC1FB11838B0FBF7F000E00020FB
:102220006442A04200DC0446F00707D10090234638
:10223000DDE90301524600F0FBFC8046002C03DC84
:102240002846FFF7CFFA31E004FB07F0F10700F171
:10225000180002D0FFF768F801E0FFF76AF80600FF
:102260001CD0FFF721F901900560DDE9031381809F
:10227000C380A0F808A04481C0F81480C0E90379A5
:1022800001A8FFF733F91298AE602861DBF800006F
:10229000407CA861304607B0BDE8F08F2846FFF7C4
:1022A000A1FA5FEA080001D0FFF75EF80020F2E72C
:1022B000EC2002202DE9F74F8EB0144689460E9887
:1022C000FFF7F2F809900268B0F908B0B0F90A60B7
:1022D000106940680C9009A8FFF708F9584D594F4C
:1022E0002868407C57F82000C1688A6A0821904716
:1022F0001828069001D3202006902868407C57F8C3
:10230000200000690790D0E900010B904E488142FF
:1023100001D0012000E000200A90002000F02DFDF7
:1023200000287DD1286809EB0B01B0F90C20891A2F
:10233000491E002902DDABEB010500E05D46B0F966
:102340000810494505DDA1EB090108916D1A894482
:1023500001E000210891002D6EDDB0F90E10A219E8
:10236000511A491E002902DDA6EB010800E0B04623
:10237000B0F90A00A04204DD061B3444A8EB0608AD
:1023800000E00026B8F1000F56DD08980DAA019074
:102390005F46DDF830A00E980092FFF744FE7743C9
:1023A000214600EB8703DDE9002003EB80002B468C
:1023B000CDE900A20246484600F062FF00280090E6
:1023C0003AD00A98F0B100982946DDE9062300F0DA
:1023D00089FDB8B90798DA46009FD0F810C0584672
:1023E000BCF1000F05D00423024639463846E047C9
:1023F00008E00B993868884701C7AAF101005FEA35
:10240000000AF6D1009A0020069B0121CDE90302C3
:1024100000910590CDE901132146641C012300E0E1
:102420000AE02A46484603F053FEA8F101005FEA9D
:10243000000806F10106A8D111B0BDE8F08F000038
:10244000EC20022004210220AB660120F8B51546DD
:102450000E460746FFF728F8009016210068C0686E
:10246000426A0020904704466846FFF73FF8002C78
:1024700003D02A4631463846A047F8BDF8B5154680
:102480000E460746FFF710F8009044696846FFF7CC
:102490002DF83846FFF7B4FD0828034600DD2CB1BF
:1024A0002A46314638460BF0AFF9F8BD2A46314688
:1024B00038460BF04DFBF8BD02480068407C00F048
:1024C00003B80000EC2002201D49F8B5096809B1E5
:1024D000002200E002461B49895601292EDD184BD7
:1024E000143353F82240641C012C43F8224025D1B8
:1024F000083BA3F10804002654F8225053F8224068
:1025000053F822707F1C8F4243F8227001D143F8A8
:10251000226053F82270AF42F2D03D46FFF7AAF98D
:10252000002800900AD0C0682121426A684690477E
:10253000030003D000982A4621469847F8BD0000C2
:102540003C21022024210220094A10B5126802B160
:102550000020074A1C3252F82030002B07DBA2F182
:1025600018044FF0FF3344F8201042F8203010BD1B
:102570003C21022002480068407C00F003B80000C3
:10258000EC200220144938B5096809B1002200E0A6
:1025900002461249895601291CDD0F49143151F8B0
:1025A00022305B1E41F8223014D1083951F8224004
:1025B000103141F82240FFF75DF90028009009D062
:1025C000C0682221426A68469047020002D0009803
:1025D0002146904738BD00003C21022024210220E2
:1025E000002810B521D009B30AB3B1F90040B2F9FF
:1025F00000309C4200DA23460380B1F90240B2F970
:1026000002309C4200DA23464380B1F90440B2F91B
:1026100004309C4200DD23468380B1F90610B2F9F4
:102620000620914200DC1146C18010BD11460A68A7
:1026300002604968416010BD70B500280BD0038866
:10264000848846880B44C5880C440380B118848074
:102650002A444180C28070BD70B50E4D0446D5E954
:102660000001884209D10C49884201D13C3000E088
:102670000C3807C884E8070006E090E80E0084E8FC
:102680000E0009F007FC2860207A002800D0012005
:1026900070BD00009021022098B504200448D0E9C4
:1026A0000010814201D101207047002070470000D6
:1026B00090210220054A044910B511600AF010FF6C
:1026C000BDE8104000F09AB9B57F01201421022026
:1026D00070B5094C0020D4E900218A420AD0D2E921
:1026E0000056104609F0EEFB31462060284605F002
:1026F00011FF012070BD0000182202202DE9FC41CD
:10270000154DDDE908742D68B5F90860864200DDD5
:102710003046B5F90C60964200DA3246824219DB47
:10272000B5F90A608E4200DD3146B5F90E509D4282
:1027300000DA2B468B420DDB00E02C46E5682D6865
:1027400025B1042D02D02568002DF6D1CDE9007405
:1027500004F076F9BDE8FC81EC200220B0F90220FB
:10276000B1F906309A4213DCB1F90220B0F9063013
:102770009A420DDCB0F90020B1F904309A4207DC2E
:10278000B1F90010B0F90400814201DC012070476A
:10279000002070470146024870220068FDF730BDF6
:1027A000EC20022038B5040019D00AF045FF20467D
:1027B0000AF0B6FF2046FEF777FE00900068FEF7AD
:1027C000EFFD0098C068FEF7CFFD0098C069FEF7E6
:1027D000CBFD6846FEF78AFE2046FEF7C5FD38BDF4
:1027E000002801D00AF0CABA704738B5040019D0E1
:1027F000FEF75AFE0090007C800710D4204609F0B6
:1028000027FE6846FEF772FE20460AF073FD20465A
:10281000FEF74AFE0090018A41F0020101826846FB
:10282000FEF764FE38BD00002DE9F8430446008839
:1028300091468846089FD8B36088C8B3E06818B14D
:102840008068002835D002E0E088202830D1214877
:10285000002107F00102FEF789FF050028D020883B
:102860006188800048432030FEF763FD060022D0D7
:102870003046AE60FEF718FE009007824461A0F873
:102880000480A0F80690238808EB0302521E028100
:10289000628809EB0201491E418105606846FEF726
:1028A00025FEE06858B12146304607F0F9F830B10E
:1028B0000020BDE8F8832846FEF794FFF8E7B80744
:1028C00005D5304609F0C4FD30460AF013FD304608
:1028D000EFE700007CF40120024970220968FDF74F
:1028E0008FBC0000EC20022010B504F081F904F048
:1028F00085FABDE8104005F041B9000070B5044606
:102900000548022C0068457C02D24474FFF7ECFFB6
:1029100002480460284670BDEC200220A821022055
:1029200004F086B904F0BCB904F0E2B903490A68BE
:10293000D16900B1D061084670470000EC20022048
:102940000149C86170470000B02002200149486079
:1029500070470000E0200220014908607047000035
:10296000B02002200149486070470000B0200220DA
:1029700004F0DAB904F0EEB904F02CBA024909689F
:102980008A7E887610467047EC200220094A30B4CF
:102990000A4B1080084A11801B68094A5B7C52F878
:1029A0002330DA68146A0A4601461846A44630BC49
:1029B000604700002C2102202E210220EC20022062
:1029C00004210220024909680A7E087610467047F1
:1029D000EC200220034902460968B1F92C008A85DF
:1029E00070470000EC200220034902460968B1F953
:1029F0002A004A8570470000EC2002200248006847
:102A0000002800D0004770472822022002498A6827
:102A100002B98860FFF7F2BF1822022010B5040047
:102A200009D009F01DFF20460AF086FE2046BDE8C9
:102A30001040FEF799BC10BD38B50C4660B1FEF7EA
:102A400033FD00908089204201D0012400E0002461
:102A50006846FEF74BFD00E00124204638BD00002B
:102A600038B50546002028600648046844B1204671
:102A7000FEF71AFD0090006928606846FEF736FDF3
:102A8000204638BD6C22022038B504000D464FF0B8
:102A90000000086011D02046FEF706FD0090846813
:102AA00044B16846FEF722FD2046FEF7FDFC00908B
:102AB000006928606846FEF719FD204638BD000011
:102AC000054910B591E81C0080E81C00087A002830
:102AD00000D0012010BD00008CB5042010B50949BC
:102AE0000C220446FDF7BEFB002809D0054A94E8F5
:102AF0000B0082E80B002046BDE81040FFF7DABD6E
:102B000010BD00008CB504202DE9F041084E0446AC
:102B1000056830680168284688470746306841687C
:102B200028468847284420603846BDE8F0810000E8
:102B3000F02002202DE9F041074F00250C46064603
:102B400005E0386841683046884706440544641EFD
:102B5000F7D22846BDE8F081F02002202DE9F041AF
:102B60001F46144688460646069D2246641C3B4680
:102B7000B0684146D0F804C03046E0476D1EF4D13D
:102B8000BDE8F0812DE9F041B0F90050B0F9044002
:102B9000491B8C422ADDB0F902500B440469143001
:102BA000551B5B1E05FB0400DC1003F00705FF222C
:102BB000C5F10703B4EBE10500EBE10402FA03F30E
:102BC00001F007072078DEB222FA07F210D0104396
:102BD0006D1E002D04F8010B05DDFF22294620465D
:102BE000FDF72EFB2C44207830432070BDE8F081A7
:102BF00032401043F9E770B5B0F9025000F1140308
:102C000006698024521BB0F9000002FB0632081A44
:102C100002EBE00100F007020878D440204308707E
:102C200070BDB0F90610026951431430FDF70FBBB7
:102C30002DE9F84380461C4602F10F0015468946EF
:102C40000011470003FB07F01430FEF772FB06008B
:102C500013D0FEF729FC00900123A0F80080A0F813
:102C600002908580C4808381054907618160684640
:102C7000FEF73CFC3046BDE8F8830020FBE700008F
:102C8000D0FD012070B5B0F9063000F11405B0F99F
:102C9000044093420B681BDD0069A34202FB005015
:102CA00000EBE30214DA12F8010B641E03F00705CF
:102CB000E410A840A4EBE305C4B206E045B1083334
:102CC00012F8014B6D1E23F00703002CF6D004E030
:102CD000002070BD6006040E5B1C2006FAD5FF2C98
:102CE00007D0184602E06406240E401C6606FAD49B
:102CF00000E0D81DC443640705D006E012F8014B7C
:102D0000FF2C09D108306D1EF8D5C01A0B60401C8D
:102D100070BD6206140E401C2206FAD4F5E738B5E1
:102D20000546FEF7C1FB00908189491E0CB28481E3
:102D30006846FEF7DBFB002C02D12846FEF714FBA9
:102D400038BD000002484FF40C31FEF705BB00000F
:102D5000D423022003490A6810440A68821A002A10
:102D6000FBDC7047482002207047000001480068E3
:102D7000704700004820022070470EB508B102AA33
:102D800000E000226846002301A900F009FC0EBD06
:102D9000074910B5CC6818B10120C860801E03E057
:102DA0000020C8606FF07F4003F050F9204610BD4E
:102DB0004C220220082A10B50EDC012A034618D046
:102DC000022A58D0042A7AD010F8042B491E03F89E
:102DD000012BF9D1012010BD102A08DC4FEA0002B6
:102DE00030F8043B491E22F8023BF9D1F2E70020FB
:102DF00010BD10F8042B491E4FEAC2724FEA12624E
:102E000034D010F8044B491E04F0010442EA841245
:102E10002CD010F8044B491E04F0010442EA44127D
:102E200024D010F8044B491E04F0010442EA0412B5
:102E30001CD010F8044B491E04F0010442EAC402FD
:102E400014D010F8044B491E04F0010442EA840235
:102E50000CD010F8044B491E04F0010442EA44026D
:102E600004D010F8044B04F001042243002903F8B5
:102E7000012BBED1AEE710F8042B491E4FEA827237
:102E80004FEA126215D010F8044B491E04F00304F7
:102E900042EA04120DD010F8044B491E04F003045A
:102EA00042EA840205D010F8044B04F003042243E4
:102EB000491E002903F8012BDDD18BE7FFE710F84D
:102EC000042B491E4FEA02724FEA126205D010F835
:102ED000044B04F00F042243491E002903F8012B80
:102EE000EDD177E738B50024009400F01BF838BD29
:102EF0000A4810B5816900290ED101218161FFF7CF
:102F000021FF03F08DFF054905481C310860084684
:102F1000BDE8104000F016BD10BD0000E02002200A
:102F200051C501202DE9F0410D460446069901B92D
:102F300001461F68082A09DC012A0E461AD0022A17
:102F40005BD0042A7DD0082A13D18DE0102A07DC3B
:102F5000D3F810C00E46BCF1000F04D0022389E064
:102F60000020BDE8F08101CCB8476D1E26F8020BA9
:102F7000F9D189E001CCB847C0076D1E4FEA10684F
:102F800036D001CCB84748EA80106D1E00F0FF082B
:102F90002ED001CCB84748EA40106D1E00F0FF0863
:102FA00026D001CCB84748EA00106D1E00F0FF089B
:102FB0001ED001CCB84748EAC0006D1E00F0FF08E3
:102FC00016D001CCB84748EA80006D1E00F0FF081B
:102FD0000ED001CCB84748EA40006D1E00F0FF0853
:102FE00006D001CCB84740EA08006D1E00F0FF088B
:102FF000002D06F8018BBDD146E001CCB847800713
:103000006D1E4FEA106816D001CCB84748EA001090
:103010006D1E00F0FF080ED001CCB84748EA8000D2
:103020006D1E00F0FF0806D001CCB84740EA08004A
:103030006D1E00F0FF08002D06F8018BDDD123E0A6
:10304000FFE701CCB84700076D1E4FEA106806D0B5
:1030500001CCB84740EA08006D1E00F0FF08002DC3
:1030600006F8018BEDD10FE0D3F810C0BCF1000FD2
:1030700004D001232A462046E04705E001CCB847AA
:103080006D1E06F8010BF9D101206AE77CB50646F2
:1030900028480D46006868B1002005F047FC06E0AE
:1030A0006A462946304606F0A9FC05F001FC0028D6
:1030B000F6D17CBD1068204C0090506801902268C9
:1030C000BDF8000032F84C1F0844ADF80000BDF810
:1030D000020091880844ADF80200BDF80400118890
:1030E0000844ADF804009188BDF806000844ADF826
:1030F0000600684605F01AFC0EE000BF20686A462C
:10310000BDF800104184BDF8021081842946304684
:1031100006F074FC05F0CCFB0028EFD12068418C50
:10312000B0F84C20891A4184818CB0F85020891A5B
:1031300081847CBD28210220EC2002202DE9FF4F54
:1031400085B09A4690460D46FEF778FDDDF814B03E
:103150004FF0000906464C4625B128680090686883
:10316000019002E06846FEF74BFD18F00C0F02D00C
:103170000027554613E0BDF902402DE005987F1C5D
:10318000294600F08FFA014605986D1AFFF7D2FC28
:1031900005990844059005A800F0BAFA08B9002D71
:1031A000ECD108F00C00042804D0082802D00C2828
:1031B00012D105E0BDF9060007FB1604641C0BE004
:1031C000BDF90600BDF90210401A07FB1600401CAD
:1031D00000EBD07001EB60045546CDF814B043E02D
:1031E0000598294600F05EFA074601460598ED1B52
:1031F00000F02EFA18F003010ED0012939D002296F
:103200000DD1BDF90410BDF90020891A091A01EB8E
:10321000D17102EB610101E0BDF900108946174947
:10322000401E4844A3190A685B1E3946A2F8229042
:10323000948402AAADF80C00ADF808900598ADF89A
:103240000A40ADF80E30FFF721FF05983946FFF729
:1032500071FC059908440590FEF7F0FC044405A8AC
:1032600000F056FA002801D1002DB9D109B0BDE80F
:10327000F08FBDF90410091A491CCFE7EC20022099
:103280002DE9FF4F93B0164600211D460DAB0C46AD
:10329000DDF884A004A80A46CAF80010119102A91A
:1032A00000F07EF918B1002017B0BDE8F08F0D983E
:1032B000854200DD0546644F0E9562493868407CC2
:1032C00051F820100A9109690691FEF777FC0790E2
:1032D0003868407CFEF7ECFC5C498146884204D0AB
:1032E0005B49894501D0012000E000200F90209922
:1032F00001CE88478346000E10907CD0119890BB79
:103300005148139901EB04080068B0F908004045E2
:1033100004DDA0EB08018046099101E0002009903E
:10332000049800EB8402DDE9091002EB8101CDE98C
:1033300000100E991398149B471840467A1E1946A0
:10334000FFF7DCF9079818284FF0010011900BDA0D
:10335000049800EB84020998291A02EB8000DDE949
:10336000063200F079F812E00F9880B10498A7EBCC
:10337000080800EB8401099801EB8007494638688A
:10338000884701C7A8F101005FEA0008F6D131487B
:10339000C06988B30498361F029F2B4600EB840057
:1033A000049007EB84022B4C029201463046E469FC
:1033B000A047FF203168B0EB116F02D10499096872
:1033C00004E0049A1268B0EB126F01D1029A116006
:1033D00006F104060499091D049102996D1E01F17C
:1033E00004010291E6D10297DAF8000040F00101F1
:1033F000CAF8001020E021E0FFE71098FF280498A9
:1034000011D050F824101098C0F1FF02584600F077
:103410003FFA029941F82400DAF8000040F0010177
:10342000CAF8001004E0029950F8240041F8240082
:10343000641C6D1E7FF45BAF029835E7029941F87A
:1034400024B0E9E704210220EC200220AB66012031
:10345000A9660120B02002202DE9F05F0C1E18DDC6
:103460005F68082A00EB8405014614DC012AA4F1F8
:10347000010127D0022A48D0042A6BD0082A08D19B
:1034800010EB040616F8010DB847641E45F8040D4C
:10349000F8D1BDE8F09F102AFBDC5E693EB1224600
:1034A000B446BDE8F04F02235DF804EB604701EB42
:1034B000440600BF36F8020DB847641E45F8040DF7
:1034C000F8D1E6E700EBE10001F00706802110F8F3
:1034D00001A921FA06F8B5F1040581460AEA0800B7
:1034E000C6F10701C840B84745F804093EB14FEAA4
:1034F0004860761E4FEA1068641EEFD1C9E719F8DC
:1035000001A907264FF00108F6E700EBA1004FF0F4
:10351000060B01F00306C021720010F801A921FA80
:1035200002F8B5F1040581460AEA0800ABEB460152
:10353000C840B84745F804093EB14FEA8860761E96
:103540004FEA1068641EEFD1A3E7032619F801A91A
:10355000B046F7E701264FF0040B00EB6100A643ED
:10356000F021B20010F801A921FA02F82D1F8146BE
:103570000AEA0800ABEB8601C840B84745F80409E1
:103580003EB14FEA0870761E4FEA1068641EEFD114
:103590007FE719F801A901264FF00F08F6E70000B0
:1035A0002DE9F047224C064600251F4690468946E5
:1035B000A06940B904F120010120A0611D48086004
:1035C000084600F0BFF9606930B91B4800686061C7
:1035D00010B902F0E3FF606107B138604EB1A06836
:1035E00030B960698000FDF7E7FEA06000B90125F1
:1035F0003060B9F1000F0AD0E06830B9606980002E
:10360000FDF7DAFEE06000B90125C9F80000B8F165
:10361000000F0AD0206930B960698000FDF7CCFE48
:10362000206100B90125C8F800002846BDE8F087F0
:10363000B0200220F5C401201C21022003480068AC
:10364000C069017EC07E11FB00F07047EC200220B3
:10365000124A73B5126801A9009890474FF0000410
:103660000090C8B10E4900250968C969496959B176
:103670000A684AB1019990477CBD6846FFF744FA51
:103680000546FEF7ADFA04440198401E0190F4D5BA
:10369000284600F031F8044420467CBD8C210220ED
:1036A000EC20022073B500240D46009890B10A4921
:1036B0000968C969496959B14A684AB129469047B8
:1036C0007CBD6846FFF720FA20B10A2802D0641CAE
:1036D000AC42F6DB20467CBDEC200220044AB2F965
:1036E000002002600348B0F9000008607047000045
:1036F0002C2102202E21022038B500246946009496
:10370000FEF776FA0099814200DD0C1A204638BD9A
:10371000016811F8012B12B10A2A02D002E001203F
:103720007047016000207047B0F90030B1F9002007
:10373000934200DA0280B0F90230B1F902209342DC
:1037400000DA4280B0F90430B1F90420934200DD80
:103750008280B0F90620B1F906108A4200DDC180EE
:10376000704770B5B1F90040B2F900309C4200DDFD
:1037700023460380B1F90250B2F90240A54200DDB0
:103780002C464480B1F90460B2F90450AE4200DA2C
:1037900035468580B1F90610B2F90620914200DB6A
:1037A0001146C1809D4201DBA14201DA002070BDBB
:1037B000012070BD014602480068407C00F002B85C
:1037C000EC2002202DE9F8430228044689464FF0F8
:1037D000010657DADFF8B480080008F1040530D09C
:1037E000012802D002294DD116E055F8240088B9ED
:1037F0002046FEF73FF8009010B3C0680D21426AE2
:103800006846904702003DD000984946904755F8D9
:1038100024000026401C33E02046FEF72BF80090E1
:1038200070B1C0680D21426A68469047040029D0F3
:10383000D8F8000000B1804700984946A04700260C
:1038400020E055F82400012813D12046FEF712F895
:10385000009070B1C0680D21426A68469047070029
:1038600007D0D8F8000000B1804700984946B84713
:10387000002655F8240008B1012100E00021401A7B
:1038800045F824003046BDE8F883000004220220F9
:10389000F0B5FF23B3EB116F2BD0C4B200F47F431C
:1038A00014FB02F500F47F04060EC2F1FF0053433F
:1038B000544301F47F4C16FB02F201F47F06CFB2B1
:1038C000090E0CFB003317FB005506FB004411FBEF
:1038D00000214FF47F4707EA13223E02C5F3072079
:1038E00010434FF07F4C06EA142318430CEA0141C1
:1038F0000843F0BD2DE9F04F15460C460646DDE9BC
:103900000CB900205845804619D20B9F4FF0FF0A92
:1039100001CE08CCAAEB106202FB09F2B2FBFAF16D
:10392000CAB21946FFF7B4FF20F07F407F1E01C5E1
:10393000EED1099804EB800408F10100E2E7BDE84C
:10394000F08F000002494A694260486170470000F8
:10395000E020022010B502E0521E00F8011B0AB15F
:103960008307F9D1930818D001EB014402F0030258
:1039700004EB042405E0046044608460C4601030FB
:103980001B1F042BF7DA01E05B1E10C0002BFBD1DC
:1039900003E000BF521E00F8011B002AFAD110BD3F
:1039A0000549C0EBC00001EB8001D1E90302496980
:1039B00050434843704700004059042070B504004C
:1039C00004D094F83900002510B106E0012070BD44
:1039D000204684F8385000F01FF8022084F839009F
:1039E000D4E9001001230A6822F440321043086031
:1039F0002168A0684A6B22F00702104348632168DF
:103A0000E0680A6C6FF30D0210430864E56384F804
:103A10003930002070BD0000054808B5016841F448
:103A200000010160006800F40000009008BD000083
:103A30003038024070B5040025D094F835000228D3
:103A400021D0206800252122016821F001010160B8
:103A50002068056020684560206885602068C56032
:103A600020680561206842612046FDF75FF994F8FF
:103A700054203F2191408160E56484F83550002056
:103A800084F8345070BD012070BD00002DE9F04174
:103A9000040020D01F4D0220626A84F83500201DEA
:103AA00090E80B10084354F8141B43EA0C03184326
:103AB00094E8C0500B68143C40EA060040EA070056
:103AC00040EA0C0003EA050340EA0E00042A40EA3B
:103AD000030003D006E00120BDE8F081D4E90B2308
:103AE0001A43104308602168606A4A69042822F07A
:103AF000070240EA020001D1A26A10434861204651
:103B0000FDF714F90021E164012084F8350008462E
:103B1000E2E700003F8010F031B500F0FFF8044606
:103B200000F0FCF80099001B8842F9D338BD000072
:103B30002DE9F84FDFF89CE100224FF001084FF02B
:103B4000030B4FF00F0A00BF0B6808FA02F4234082
:103B5000A34271D14D68022D01D0122D0FD1D5088D
:103B60000E69570700EB8505A9462D6AFF0E0AFA74
:103B700007FCBE4025EA0C052E43C9F820600F79EA
:103B8000550006680BFA05FC07F0030726EA0C0649
:103B9000AF40374307604E68012E05D0022E03D098
:103BA000112E01D0122E0ED18668CF6826EA0C069F
:103BB000AF403743876046680F79A643C7F30017C5
:103BC000974037434760C4688E6824EA0C04AE40CF
:103BD0002643C6604C68E40075D53F4C256845F423
:103BE00080452560246822F00306950704F480448C
:103BF00000943A4C2D0F2644D6F80848DFF8E0C070
:103C00000AFA05F7604524EA070401D100272EE0EF
:103C1000344FB84201D1012729E0334FB84201D1D6
:103C2000022724E0314FB84201D103271FE0304F73
:103C3000B84202D104271AE045E02E4FB84201D124
:103C4000052714E02C4FB84201D106270FE02B4F77
:103C5000B84201D107270AE0294FB84201D108270D
:103C600005E0284FB84201D1092700E00A27AF40FC
:103C700027437546C6F808784E68DEF80040F6031C
:103C800024EA030400D51C43124E2C60361D4D68F7
:103C90003468AD0324EA030400D51C430D4F34609F
:103CA00008374D683C68ED0224EA030400D51C4344
:103CB000084D3C600C354E682C68B60224EA0304BB
:103CC00000D51C432C60521C102AFFF43DAFBDE808
:103CD000F88F0000003C01404438024000300140B1
:103CE000000002400004024000080240000C0240B4
:103CF000001002400014024000180240001C024064
:103D0000002002400024024042694A40426170475C
:103D10000AB1816170470904FBE7000001480068AF
:103D2000704700001820022010B5040011D00220B6
:103D300084F835002068016821F001010160204607
:103D400000F0EAF90020A06384F8350084F834001C
:103D500010BD012010BD90F83500704770B504000B
:103D600004D094F83500002510B106E0012070BDA4
:103D7000204684F8345000F0D0F9022084F8350051
:103D80002068016821F001010160D4E9001020F0F1
:103D9000706008612068816821F400418160A0683A
:103DA00030B1E1680129216806D040F40440886000
:103DB000E068022803D006E040F40040F7E72168FD
:103DC0004FF400604860012220680E4B416819439F
:103DD000416054F8106B0BCC084340EA0320F060BC
:103DE00054F81C3CD4E900010843186054F81C0D39
:103DF000016841F001010160A56384F835200020CD
:103E000070BD0000008000022DE9FF4F044690F8CD
:103E1000350081B01D461746012869D1002F65D0B5
:103E2000002D63D020688069C043000460D594F8F9
:103E3000340001285CD022224FF0010984F834902C
:103E4000FF2D4FF0000884F83520C4F838804FF477
:103E500010504FF0807A00904FF0007B3ED90299CD
:103E6000FF225346204601F001FFFF262046042191
:103E700001F046FF18B1A06B042837D028E0206875
:103E8000406A6D1EADB2761E07F8010B17D0002DEB
:103E9000ECD11921204601F073FF0028EBD12368F3
:103EA0002020144DD861206843682B40436084F87B
:103EB0003590002084F8348005B0BDE8F08F002DE7
:103EC000E7D00E9B00228021204601F0E1FE08B1E0
:103ED0000320F1E7FF2DCDF80080C0D802995B46A2
:103EE0002046EAB201F0C2FE2E46BFE70120E3E71A
:103EF0000220E1E700E800FE2DE9FF4F81B0044613
:103F000090F83500DDE90E75DDF840A0012877D185
:103F1000002F64D0002D62D020688069C043000467
:103F20006ED594F8340001286AD04FF0010984F866
:103F3000349062264FF0000884F83560C4F8388069
:103F400020460299CDF800A001F02AFE28B1A06B0E
:103F500084F83480042842D030E0FF2D4FF4105014
:103F600000904FF0807B31D90299FF225B462046BA
:103F700001F07CFEFF26534600222046042101F07A
:103F800087FED8B92068406A6D1EADB2761E07F86C
:103F9000010B0AD0002DEED11921204601F0F0FED0
:103FA000F8B1A06B04281AD008E0002DF4D000224C
:103FB00053468021204601F06BFE18B1032005B066
:103FC000BDE8F08FFF2DCDF80080CDD802994FF0DD
:103FD00000732046EAB201F049FE2E46CBE70120ED
:103FE000EDE723682020074DD861206843682B4007
:103FF000436084F83590002084F83480DFE7FFE7E1
:104000000220DCE700E800FE2DE9FF4F81B0044606
:1040100090F83500DDE90E75DDF840A0012877D174
:10402000002F73D0002D71D020688069C043000438
:104030006ED594F8340001286AD04FF0010984F855
:10404000349052264FF0000884F83560C4F8388068
:1040500020460299CDF800A001F0D5FD28B1A06B53
:1040600084F83480042851D049E0FF2D4FF0807B44
:1040700009D90299FF225B462046CDF8008001F065
:10408000F5FDFF2609E002994FF000732046CDF8B8
:104090000080EAB201F0EAFD2E465146204601F0CA
:1040A00096FE18B1A06B042830D028E021686D1E60
:1040B00017F8010B761E8862ADB217D0002DECD137
:1040C0001921204601F05CFE0028EBD12368202056
:1040D000104DD861206843682B40436084F83590C8
:1040E000002084F8348005B0BDE8F08F002DE7D0C3
:1040F000002253468021204601F0CAFD18B103205A
:10410000F1E705E002E0FF2DBDD9B2E70120EAE7C3
:104110000220E8E700E800FE7047704702480168A7
:10412000491C01607047000018200220074810B5A4
:10413000016841F400710160032000F055FB0F207D
:1041400000F006F800F020FB002010BD003C02400B
:1041500010B5044600F0CEFF4FF47A71B0FBF1F0D9
:1041600001F0EEFA00222146501E00F01DFB002057
:1041700010BD0000F0B590F8A0400025012C06D03D
:104180000126022480F8A14080F8A0601FE00220F0
:10419000F0BD00BF03EB830404EBC30400EB840415
:1041A000A46C062C1CD00F68FCB207F47F4C44EAC8
:1041B000056407F47F0744EA0C043C4307684FF0AA
:1041C000C40C0CEBC31C47F80C40091D6D1C954238
:1041D000E0D3002180F8A16080F8A0100846F0BD6F
:1041E000D1F800C005EB051E0CF0FF040CF47F476E
:1041F00044EA0E643C430CF47F0C44EA0C04DDE713
:1042000030B590F8A030012B18D0012380F8A030F1
:10421000022580F8A150902404EBC2120468A5582E
:1042200005F07F45A5500468A15002680021536243
:1042300080F8A13080F8A010084630BD022030BDC3
:104240002DE9F041044690F8A00016460F460128DB
:104250001DD0012584F8A050022084F8A10006EBAF
:10426000860000EBC600342204EB80003830FBF7F8
:10427000C7FF32463946204603F03CF8216800204B
:104280004D6284F8A15084F8A000BDE8F0810220BE
:10429000FBE710B5044600F05BF90020C4F8A40069
:1042A00084F8A10084F8A00010BD10B590F8A020FB
:1042B000012A16D0012280F8A020022480F8A14013
:1042C000842303EBC11350F8A01BCC5824F0020444
:1042D000CC5050F8A03C00215A6242700170084650
:1042E00010BD022010BD10B590F8A020012A16D0F4
:1042F000012280F8A020022480F8A140842303EB4F
:10430000C11350F8A01BCC5844F01004CC5050F806
:10431000A03C00215A6242700170084610BD022084
:1043200010BD10B590F8A020012A16D0012280F807
:10433000A020022480F8A140842303EBC11350F88D
:10434000A01BCC5844F00204CC5050F8A03C0021F3
:104350005A6242700170084610BD022010BD7047BD
:1043600070B50446006804250026816B490715D501
:10437000816B490712D5416B21F00401416320682C
:10438000C563D4F8A40040F00100C4F8A40084F888
:10439000A150204684F8A060FFF7E1FF2068816B00
:1043A000890716D5816B890713D5426B022122F04C
:1043B000020242632068C163D4F8A40040F0020006
:1043C000C4F8A40084F8A150204684F8A060FFF748
:1043D000C6FF2068816BC90710D0816BC9070DD05B
:1043E000426B012122F0010242632068C16384F81C
:1043F000A110204684F8A06000F082F870BD000093
:104400002DE9F041040004D094F8A100002518B172
:1044100007E00120BDE8F081204684F8A05000F0BC
:10442000A3F83648022184F8A110012202CC8B693E
:1044300023F070438B6194E84A001943E3681E43FC
:1044400054F8043D31439E693143996121688B687A
:1044500003408B602168A68AA7698B683B4343EAC7
:1044600006438B602168CB680340CB602168A38B37
:10447000276ACE683E4346EA0346CE6021680B6950
:1044800003400B612168A68CA76A0B693B4343EA92
:1044900006430B6121684B6903404B612168A38D82
:1044A000266B4869304340EA03404861236894F82A
:1044B000351094F83600DE6A000406F07F46DE62AE
:1044C000236840EA012094F83460D96A31430143FB
:1044D000D9622068416B41F0040141632068416B5F
:1044E00041F0020141632068816941F0010181616D
:1044F000C4F8A45084F8A12000208BE700F800F055
:104500002DE9F041114C064600256068002817DBB4
:10451000D4E90302616863692768504359432A4616
:1045200000FB0171304600F093F83068416A41F0B9
:104530000101416261682846FEF706F8681E606066
:104540003046BDE8F041002100F066B84059042033
:104550000448016841F080610160016821F08061D8
:104560000160704724380240274870B50025016873
:1045700086B041F080610160006800F080600590C5
:1045800021481438016841F480710160016801F428
:1045900080710591016841F400710160016801F4C6
:1045A00000710591016841F4806101600068022496
:1045B0000E26694600F4806005904FF470408DE847
:1045C00031001248CDE90346FFF7B2FA4FF6FF700B
:1045D00069468DE831000E48CDE90346FFF7A8FA99
:1045E000FF2069468DE831000A48CDE90346FFF710
:1045F0009FFA00220F21582000F0D6F8582000F032
:10460000C7F806B070BD00004438024000200240E8
:10461000002402400028024070B590F8A020012A32
:1046200012D0012280F8A020022380F8A13050F897
:10463000A03B064D00245E6B46F001065E632960D8
:1046400042700470204670BD022070BD4068014079
:1046500070B5044690F8A0000B46012818D002EB74
:10466000820000EBC201012584F8A050022084F8EA
:10467000A10004EB81012046CB65383102F03AFEFF
:10468000216800204D6284F8A15084F8A00070BD1C
:10469000022070BD70B5044690F8A0000B460128BA
:1046A00018D002EB820000EBC201012584F8A05073
:1046B000022084F8A10004EB81012046CB6438314C
:1046C00002F018FE216800204D6284F8A15084F8A1
:1046D000A00070BD022070BD70B5044690F8A00027
:1046E0000E46012820D003EB830000EBC301012517
:1046F00084F8A050022084F8A10004EB81018E63AD
:10470000086E3044C1E90F02486E104448643831E5
:104710001A46204602F0EEFD216800204D6284F822
:10472000A15084F8A00070BD022070BDF0B5154CFA
:104730004378211D0A1D23600378F3B143680B60A1
:10474000057BC67A817A437B2D07847B45EA066523
:10475000C77B90F809C0067A90F800E045EAC140AE
:1047600040EA834040EA444040EA074040EA0C20E7
:1047700040EA460040EA0E0001E0002008601060B8
:10478000F0BD000098ED00E008B50020009008BDE5
:10479000410900F01F028900012001F1E021904051
:1047A000C1F80001704700000E4BF0B41B680D46C5
:1047B000C3F30223C3F10706042E00D90426191DF2
:1047C000072901D2002300E0DB1E012404FA06F1D0
:1047D0009C40491E2940641E994014402143F0BC6E
:1047E00002F0D6BE0CED00E0064900F0070210B55D
:1047F0004FF6FF040868044B204040EA02201843AB
:10480000086010BD0CED00E00000FA051848F8B58E
:10481000016841F0805101600068164C00F0805042
:104820000090206840F480302060FFF777FA4FF462
:104830007A76054605E000BFFFF770FA401BB042EC
:104840000FD86068C003F7D5206840F400302060BE
:10485000FFF764FA054606E0FFF760FA401BB04236
:1048600001D90320F8BD60688003F5D50020F8BDAC
:1048700040380240007000402DE9F84F04460078AF
:10488000DFF828844FF000063546C0070ED0D8F870
:10489000001021F40001C8F80010D8F80010626B75
:1048A0001143C8F80010606B00B9012620680003AE
:1048B00010D5FE48E26B8430016821F440111143A9
:1048C0000160E06BB0F5801F01D010B102E001265D
:1048D00000E001252068C00210D5F448226C843025
:1048E000016821F4400111430160206CB0F5800F94
:1048F00001D010B102E0012600E001252068C101CD
:1049000000D50126800657D5E8483830016841F0C7
:10491000805101600068DFF8989300F080500090AB
:10492000D9F8001041F48071C9F80010FFF7F6F9CA
:10493000074604E0FFF7F2F9C01B64287ED8D9F8D7
:104940000000C005F6D5D94F218E6837386801F4CC
:10495000407100F4407088422ED03868396820F4E5
:10496000407041F4803139608207396821F4803128
:10497000396038600FD5FFF7D1F9814641F2883AA6
:1049800006E000BFFFF7CAF9A0EB09015145D5D8F1
:1049900038688007F6D5206BC0F3012103297CD04D
:1049A000D8F8001021F4F811C8F80010218E3868EA
:1049B000C1F30B01084338602078C00609D5BB4815
:1049C0008430016821F0807101600168A26B11439D
:1049D00001602188B5488830490405D5626E0168B8
:1049E00021F44031114301602188090405D5A26EEC
:1049F000016821F44021114301602168C90305D5F4
:104A0000E26E016821F440111143016021688903BD
:104A100005D5226F016821F440011143016021781E
:104A2000490605D5626C016821F00301114301605C
:104A30002178090607D5A26C016800E0FEE021F0AC
:104A40000C01114301602188C90505D5E26C01689C
:104A500021F03001114301602188890505D5226DBF
:104A6000016821F0C001114301602188490505D585
:104A7000626D016821F440711143016021880905CC
:104A800005D5A26D016821F44061114301602188C0
:104A9000C90407D5E26D016800E023E021F440512C
:104AA000114301602188890405D5226E016821F433
:104AB0004041114301602168490205D5A26F016898
:104AC00021F08061114301602168890215D5E26FF0
:104AD000016821F0006111430160E16FB1F1006FE5
:104AE0000AD00AE0734AD8F80030104023F4F812D4
:104AF0000243C8F8002059E7012521680A0700D5BC
:104B00000125490305D5626F016821F04071114309
:104B100001602168090206D5D4F88020016821F0DF
:104B2000805111430160012E4FF4403B4FF0706AF9
:104B30004FF0E04903D02068B0F1007F7DD15B4E9B
:104B4000083E306820F080603060FFF7E7F80746E5
:104B500005E000BFFFF7E2F8C01B64286ED8534899
:104B6000083800680001F5D42078DFF840E1C0077C
:104B70000EF17C0E33D0606B88BBDEF800C09BFA70
:104B8000ABF7DEF8002047F6C076B7FA87F8606822
:104B90000CF440319AFAAAFC21FA08F196FAA6F729
:104BA000BCFA8CF8B7FA87FC9BFAABF602F070629D
:104BB00000FA0CF0B6FA86F69AFAAAF722FA08F288
:104BC000B14099FAA9FCA668B7FA87F70843BA403A
:104BD000BCFA8CF110438E403043CEF800002068C0
:104BE000010303D5E16BB1F5801F05D0C00241D5AB
:104BF000206CB0F5800F3DD1DEF800109BFAABF6CB
:104C000047F6C07CB6FA86F7DEF8006001F4403162
:104C100060689CFAACFCF9409AFAAAF7BCFA8CFCE2
:104C2000B7FA87F89BFAABF399FAA9F700FA0CF0F8
:104C3000B7FA87F7B3FA83FC01E08DE007E101FAE8
:104C40000CF106F0E046E36899FAA9F2FE4003FA97
:104C500008F3B2FA82F7154A08438432BE4018437B
:104C60003043CEF800001068616A20F01F00491E32
:104C7000084310602068C00139D5DEF800209AFA98
:104C8000AAF1DEF8003047F6C07602F07062B1FAA1
:104C900081F199FAA9FC9BFAABF7CA4096FAA6F6FD
:104CA0000092BCFA8CFCB7FA87F705E0083802409E
:104CB00000700040FFFCFF0F2269B6FA86F86168B9
:104CC0009AFAAAF603F0E040BA4001FA08F111435B
:104CD000009AB6FA86F699FAA9F720FA0CF0B240D3
:104CE000B7FA87F61143B0400143CEF800102068B0
:104CF000800120D504F1080147F6C0709BFAABFC97
:104D000090FAA0F260688AC9B2FA82F2BCFA8CF812
:104D10009AFAAAFC904099FAA9F6BCFA8CFC07FA18
:104D200008F703FA0CF3B6FA86F63843B140184395
:104D30000843CEF800007B4E306840F08060306061
:104D4000FEF7ECFF074604E0FEF7E8FFC01B64280F
:104D50007DD830680001F7D5002D79D0714D2868D5
:104D600020F080502860FEF7D9FF064605E000BF1E
:104D7000FEF7D4FF801B642869D86A480068C043E6
:104D80008000F5D56748216888300A0301D5E26BB9
:104D90001AB1C9023CD5216CD1BB02689BFAABF6B3
:104DA00047F6C071B6FA86F7066802F4403291FA07
:104DB000A1FC6169FA409AFAAAF7BCFA8CFC9BFA4A
:104DC000ABF501FA0CF1B7FA87F899FAA9F7B5FA39
:104DD00085FCA56906F0E04602FA0CF2B7FA87F7FF
:104DE00099FAA9F3FE4011434E4A05FA08F5B3FAC1
:104DF00083F38C329E402943314301606FF0FF07FB
:104E00001168A36A21F4F85107EB032319431160D9
:104E10002168890235D5E16FB1F1006F31D10168A8
:104E20009AFAAAF2056847F6C07601F0706196FA20
:104E3000A6F7B2FA82F299FAA9F69BFAABFC21FA2C
:104E400002F8216AB6FA86F6BCFA8CFC01E060E052
:104E500066E06269B7FA87F701FA0CF19AFAAAFCE0
:104E6000BA4005F0E04599FAA9F3BCFA8CF7F54091
:104E70000A4308FA07F1B3FA83F30A439D402A4331
:104E800002602178090736D5036802689BFAABF700
:104E90009AFAAAFC47F6C07102F44032214DB7FAE3
:104EA00087F891FAA1F7616922FA08F2BCFA8CF846
:104EB000B7FA87FC9BFAABF603F0706301FA0CF1CA
:104EC000B6FA86F623FA08F39AFAAAF7B24099FAE4
:104ED000A9FCE669B7FA87F78C351143BB40BCFAE9
:104EE0008CF219439640314301602868E16A20F44E
:104EF0004030084328600B4C206840F08050206010
:104F0000FEF70CFF054607E0FEF708FF401B64288C
:104F100002D90320BDE8F88F2068C0438000F3D495
:104F20000020F7E7003802402DE9F047DFF8BC9198
:104F30000E4605466E4841F28838D9F800106C4C90
:104F400001F00F010834B1425AD2D9F8002022F002
:104F50000F023243C9F80020D9F8001001F00F0108
:104F6000B14270D12978890705D5AA68216821F056
:104F7000F001114321602978C90729D06968012906
:104F800014D00068022914D0800700285BDA20685A
:104F900020F0030008432060FEF7C0FE0646686864
:104FA00001280FD00228474619D024E0006880036A
:104FB000EBE78001E9E700BFFEF7B0FE801BB842D7
:104FC00001D964E047462068C0F381000128F3D18D
:104FD00073E000BFFEF7A2FE801BB84257D82068DE
:104FE000C0F381000228F5D167E000BFFEF796FE0E
:104FF000801BB8424BD8206810F00C0FF6D15CE053
:105000002978890705D5AA68216821F0F0011143A4
:1050100021602978C90741D06968012914D0006846
:10502000022914D08007002845DA206820F0030008
:1050300008432060FEF772FE0746686801280ED01C
:10504000022818D026E036E000688003EBE78001F4
:10505000E9E700BFFEF762FEC11B414517D8206893
:10506000C0F381000128F5D118E000BFFEF756FE1D
:10507000C11B41450BD82068C0F381000228F5D13F
:105080000CE000BFFEF74AFEC11B414502D90320D8
:10509000BDE8F087206810F00C0FF3D1D9F80010AC
:1050A00021F00F013143C9F80010D9F8000000F0D9
:1050B0000F00B04201D00120EAE72878400705D56B
:1050C000E968206820F4E050084320602878000751
:1050D00006D52869216821F4604141EAC0002060BA
:1050E0000F20FFF735F80020D2E70000003C024017
:1050F0000038024000B500F043F80849F0230A6880
:1051000093FAA3F3064902F0F002B3FA83F3DA400C
:10511000044B9A5CD040086000BD00000838024093
:1051200050200220F8E6012000B5FFF7E3FF074911
:105130004FF4E052096892FAA2F201F4E051B2FA97
:1051400082F2D140024A515CC84000BD083802409A
:10515000F8E6012000B5FFF7CDFF07494FF46042A4
:10516000096892FAA2F201F46041B2FA82F2D140E7
:10517000024A515CC84000BD08380240F8E60120F0
:105180001D4930B51D48096811F00C011AD01C4B9F
:10519000042916D0082915D1174947F6C072091FEE
:1051A0000C680D6804F03F046D020CD50D68B3FB6C
:1051B000F4F092FAA2F31540B3FA83F2D5406843B3
:1051C0000BE0184630BD0B68B0FBF4F092FAA2F485
:1051D0001340B4FA84F2D340584309684FF4403284
:1051E00092FAA2F201F44031B2FA82F2D140491CA3
:1051F0004900B0FBF1F030BD083802400024F40053
:1052000040787D012DE9F84FE54E04460078A6F17F
:105210000409A9F10405C0076BD03068C0F3810010
:10522000012808D03068C0F3810002280AD1D9F8DB
:105230000000400206D5286880035AD5606800281F
:1052400070D056E0286820F480302860286820F468
:1052500080202860286820F480302860FEF75EFDFA
:105260004FF4FA77804605E0FEF758FDA0EB080002
:10527000B84277D828688003F6D4286820F48030B4
:1052800028606068B0F5803F10D0B0F5A02F286886
:1052900010D020F480202860286820F48030286016
:1052A0006068C8B1FEF73AFD804611E0286820F436
:1052B000802001E040F480202860286840F480309D
:1052C000EDE700BFFEF72AFDA0EB0800B842D0D8FA
:1052D00028688003F6D50CE0FEF720FD804605E047
:1052E000FEF71CFDA0EB0800B842C2D82868800376
:1052F000F6D42078800745D530684FF0F80810F0D4
:105300000C0F08D03068C0F3810002280BD1D9F807
:105310000000400207D42868800717D5E0680128FC
:1053200000D113E039E1E068002828681BD040F084
:1053300001002860FEF7F2FC074604E0FEF7EEFCF1
:10534000C01B642895D828688007F7D520692A688B
:1053500098FAA8F1B1FA81F1884022F0F8010143EE
:1053600029600FE096E020F001002860FEF7D6FCEF
:10537000074604E0FEF7D2FCC01B6428A7D82868C3
:105380008007F7D42078000729D5854861696C30FB
:1053900000298046016811D041F001010160FEF74B
:1053A000BDFC074605E000BFFEF7B8FCC01B642843
:1053B00070D8D8F800008007F6D510E021F0010180
:1053C0000160FEF7ABFC074605E000BFFEF7A6FC58
:1053D000C01B64285ED8D8F800008007F6D4207877
:1053E000400776D56E483830016841F08051016041
:1053F0000068DFF8B08100F080500090D8F800100D
:1054000041F48071C8F80010FEF788FC074604E0FC
:10541000FEF784FCC01B64283CD8D8F80000C00507
:10542000F6D55F4F6837386820F00100386038687B
:1054300020F004003860386820F001003860FEF782
:105440006DFC824641F2883806E000BFFEF766FC3C
:10545000A0EB0A0141451DD838688007F6D43868AA
:1054600020F001003860A06801280FD005283868B6
:1054700011D020F004003860386820F00100386056
:10548000A068C8B1FEF74AFC824611E0386820F0F7
:10549000040002E079E040F004003860386840F031
:1054A0000100ECE7FEF73AFCA0EB0A0141456CD89D
:1054B00038688007F6D50CE0FEF730FC824605E040
:1054C000FEF72CFCA0EB0A0141455ED83868800746
:1054D000F6D4A069E8B33168C1F3810102295CD038
:1054E0000228286820F08070286003D0FEF716FCA0
:1054F00004464DE0FEF712FC064604E0FEF70EFC03
:10550000801B642841D828688001F7D447F6C07012
:105510004FF0FF364FF4403790FAA0F2D4E9090378
:1055200097FAA7F7B2FA82F24FF0706C06EB5303CA
:105530009040D4E90761B7FA87F7E26A9CFAACF4C5
:10554000BB401843B4FA84F331439A4001431143FA
:1055500000E020E041F00051C9F80010286840F058
:1055600080702860FEF7DAFB044604E0FEF7D6FB05
:10557000001B642809D828688001F7D50BE000BF1C
:10558000FEF7CCFB001B642802D90320BDE8F88F8E
:1055900028688001F4D40020F8E70120F6E7000035
:1055A00008380240007000400068503050F8210078
:1055B00070470068503040F8212070472DE9F041D5
:1055C000040002D0607F18B107E00120BDE8F0813F
:1055D00000202077204600F041F802206077CA21A1
:1055E00022685320516221684862204601F0E2FFA0
:1055F000002820684FF0FF0103D004224162627747
:10560000E3E7154D012382682A408260D4E9002631
:10561000D4E9045790683D433043284390602268A2
:10562000E068106120682289056945EA024202614A
:105630002068C26822F08002C2602068C26C22F03A
:105640000802C2642068A569C26C2A43C26420684B
:10565000416263770020B9E7BFFF8FFF00B58DB0CF
:105660000020012204210091CDE902200490059040
:1056700006906846FFF7C6FD0A490A4868300A687E
:1056800022F4F8120A600A6822F4F8120A6001682B
:1056900041F480710160016841F4004101600DB086
:1056A00000BD00000838024070B504000D4603D06C
:1056B00094F82C0010B107E0012070BD002084F8A0
:1056C0002D00204600F011F8022084F82C002068FC
:1056D000211DFBF740FBD4E900022946FBF794FBB0
:1056E000012084F82C00002070BD704710B50446DE
:1056F00090F82C00022809D0022084F82C002068A1
:10570000FBF758FB012084F82C00002010BD00009E
:1057100070B5044690F82C000D4602280DD00220EA
:1057200084F82C002068FBF74BFB2868022805D082
:105730005FF0010084F82C00002070BD0520F9E71F
:10574000401EB0F1807F10B501D3012010BD4FF095
:10575000E02460610F21601701F01AFF0020A061B2
:105760000721216110BD7047704710B5040003D0B8
:1057700094F8390010B104E0012010BD204600F07B
:105780000DF8022084F839002068211D01F080FF07
:10579000012084F83900002010BD0000094808B538
:1057A000016841F00201016000680122002100F05F
:1057B000020000901D20FEF7F7FFBDE808401D2005
:1057C000FEF7E6BF403802400168CA6842F00102B5
:1057D000CA600068016841F0010101600020704763
:1057E000704770B50446006800250169C943890700
:1057F00015D4C168C943890711D4EA1E0261012189
:105800002176206880698007204602D0FFF7E8FFF4
:1058100004E000F0A5F8204600F0A3F82576206803
:105820000169C943490717D4C168C943490713D45B
:1058300002216FF00402026121762068806910F471
:10584000407F204602D0FFF7CBFF04E000F088F84D
:10585000204600F086F8257620680169C9430907CB
:1058600016D4C168C943090712D404216FF0080295
:10587000026121762068C0698007204602D0FFF7C8
:10588000AFFF04E000F06CF8204600F06AF82576DF
:1058900020680169C943C90617D4C168C943C9064C
:1058A00013D408216FF01002026121762068C069CC
:1058B00010F4407F204602D0FFF792FF04E000F092
:1058C0004FF8204600F04DF8257620680169C9435D
:1058D000C90708D1C168C943C90704D1891E01613C
:1058E000204600F03FF820686FF080050169C94349
:1058F000090607D4C168C943090603D405612046D7
:10590000FFF731FF20680169C943C90507D4C168A1
:10591000C943090603D405612046FFF724FF206828
:105920000169C943490609D4C168C943490605D478
:105930006FF040010161204600F016F8206801690F
:10594000C94389060BD4C168C943890607D46FF0DF
:10595000200101612046BDE87040FFF705BF70BD22
:1059600070477047FAF7EEBC704710B5040003D0DB
:1059700094F8690010B107E0012010BD002084F800
:105980006800204600F026F8022084F869002068AC
:10599000016821F001010160204601F081FF01282A
:1059A000EBD0606A10B1204601F0D4FE2068416857
:1059B00021F4904141602068816821F02A018160D2
:1059C0002068016841F0010101602046BDE81040F7
:1059D00001F024BF1D4830B5A7B0016841F00101B6
:1059E0000160016801F001012691016841F00101A7
:1059F000016000680124119400F00100269040200D
:105A000000906846FEF738FF10481430016841F0F6
:105A100010010160006821AB022100F01000269007
:105A2000600283E813000725094C032221A92046C0
:105A3000CDE92425FEF77CF82015259521A9219094
:105A40002046FEF775F827B030BD00003038024020
:105A5000000002402DE9F047044690F8690099469D
:105A60000D46012803D094F86900222854D125B3AB
:105A70001AB394F8680001284ED00027E766012683
:105A800094F8690084F86860222819D05FF0120049
:105A900084F86900A4F850204FF48058A4F85220EC
:105AA0000022B4F8520080214B46401EA4F8520058
:105AB000204602F019F8C8B904E00120BDE8F087DB
:105AC0003220E5E7A068404501D1206980B115F892
:105AD000010B21688862B4F852000028E0D100224E
