:020000042001D9
:1000000090040220DD010120E5010120E70101202B
:10001000E9010120EB010120ED01012000000000B9
:10002000000000000000000000000000EF010120BF
:10003000F101012000000000F30101203B16012026
:10004000F7010120F7010120F7010120F70101204C
:10005000F7010120F7010120F7010120F70101203C
:10006000F7010120F7010120F7010120F70101202C
:10007000F7010120F7010120F7010120F70101201C
:10008000F7010120F7010120F7010120F70101200C
:10009000F7010120F7010120F7010120F7010120FC
:1000A000F7010120F7010120F7010120F7010120EC
:1000B000F7010120F7010120F7010120F7010120DC
:1000C000F7010120F7010120F7010120F7010120CC
:1000D000F7010120F7010120F7010120F7010120BC
:1000E000F7010120F7010120F7010120F7010120AC
:1000F000F7010120F7010120F7010120F70101209C
:10010000F7010120F7010120F7010120F70101208B
:10011000F7010120F7010120F7010120F70101207B
:10012000F7010120F7010120F7010120F70101206B
:10013000F7010120F7010120F7010120F70101205B
:10014000F7010120F7010120F7010120F70101204B
:10015000F7010120F7010120F7010120F70101203B
:10016000F7010120F7010120F7010120F70101202B
:10017000F7010120F7010120F7010120F70101201B
:10018000F7010120F7010120F7010120F70101200B
:10019000F7010120F7010120F7010120F7010120FB
:1001A000F7010120F7010120F7010120F7010120EB
:1001B000F7010120F7010120F7010120F7010120DB
:1001C000F7010120F7010120DFF80CD000F018F84A
:1001D00000480047591C012090040220064880472F
:1001E00006480047FEE7FEE7FEE7FEE7FEE7FEE71C
:1001F000FEE7FEE7FEE7FEE7B5160120C901012094
:10020000064C074D06E0E06840F0010394E8070063
:1002100098471034AC42F6D3FFF7DAFFE01D012017
:10022000001E012070B515490500154886B005D09F
:10023000012D03D0022D01D0032D08D10A6842F010
:1002400001020A600968044601F0010100910D4EA7
:100250000120032156F82520CDE90120CDE9030135
:1002600001A9204600F024F836F82500012281B2C9
:10027000204600F00DF906B070BD00003038024095
:1002800000000240401D01200749020005D0012A5C
:1002900003D0022A01D0032A00D10846034931F8CD
:1002A000221089B200F0F0B800000240401D012089
:1002B0002DE9F84FDFF89CE100224FF001084FF0E4
:1002C000030B4FF00F0A00BF0B6808FA02F423403B
:1002D000A34271D14D68022D01D0122D0FD1D50846
:1002E0000E69570700EB8505A9462D6AFF0E0AFA2D
:1002F00007FCBE4025EA0C052E43C9F820600F79A3
:10030000550006680BFA05FC07F0030726EA0C0601
:10031000AF40374307604E68012E05D0022E03D050
:10032000112E01D0122E0ED18668CF6826EA0C0657
:10033000AF403743876046680F79A643C7F300177D
:10034000974037434760C4688E6824EA0C04AE4087
:100350002643C6604C68E40075D53F4C256845F4DB
:1003600080452560246822F00306950704F4804444
:1003700000943A4C2D0F2644D6F80848DFF8E0C028
:100380000AFA05F7604524EA070401D100272EE0A8
:10039000344FB84201D1012729E0334FB84201D18F
:1003A000022724E0314FB84201D103271FE0304F2C
:1003B000B84202D104271AE045E02E4FB84201D1DD
:1003C000052714E02C4FB84201D106270FE02B4F30
:1003D000B84201D107270AE0294FB84201D10827C6
:1003E00005E0284FB84201D1092700E00A27AF40B5
:1003F00027437546C6F808784E68DEF80040F603D5
:1004000024EA030400D51C43124E2C60361D4D68AF
:100410003468AD0324EA030400D51C430D4F346057
:1004200008374D683C68ED0224EA030400D51C43FC
:10043000084D3C600C354E682C68B60224EA030473
:1004400000D51C432C60521C102AFFF43DAFBDE8C0
:10045000F88F0000003C0140443802400030014069
:10046000000002400004024000080240000C02406C
:10047000001002400014024000180240001C02401C
:10048000002002400024024042694A404261704715
:100490000AB1816170470904FBE700000148006868
:1004A000704700000000022002480168491C0160FA
:1004B0007047000000000220074810B5016841F4B1
:1004C00000710160032000F049F80F2000F006F8E9
:1004D00000F015F8002010BD003C024010B50446A5
:1004E00000F0C2FC4FF47A71B0FBF1F000F016FF9F
:1004F00000222146501E00F011F8002010BD08B562
:100500000020009008BD410900F01F028900012071
:1005100001F1E0219040C1F8000170470E4BF0B4AA
:100520001B680D46C3F30223C3F10706042E00D94E
:100530000426191D072901D2002300E0DB1E012437
:1005400004FA06F19C40491E2940641E994014405B
:100550002143F0BC01F060B80CED00E0064900F06A
:10056000070210B54FF6FF040868044B204040EA2C
:1005700002201843086010BD0CED00E00000FA05F1
:100580001848F8B5016841F0805101600068164CC8
:1005900000F080500090206840F480302060FFF729
:1005A0007DFF4FF47A76054605E000BFFFF776FF42
:1005B000401BB0420FD86068C003F7D5206840F4F4
:1005C00000302060FFF76AFF054606E0FFF766FF90
:1005D000401BB04201D90320F8BD60688003F5D507
:1005E0000020F8BD40380240007000402DE9F84F6F
:1005F00004460078DFF828844FF000063546C0072F
:100600000ED0D8F8001021F40001C8F80010D8F876
:100610000010626B1143C8F80010606B00B901262E
:100620002068000310D5FE48E26B8430016821F495
:10063000401111430160E06BB0F5801F01D010B193
:1006400002E0012600E001252068C00210D5F44830
:10065000226C8430016821F4400111430160206C58
:10066000B0F5800F01D010B102E0012600E00125B5
:100670002068C10100D50126800657D5E8483830EA
:10068000016841F0805101600068DFF8989300F044
:1006900080500090D9F8001041F48071C9F8001022
:1006A000FFF7FCFE074604E0FFF7F8FEC01B6428D6
:1006B0007ED8D9F80000C005F6D5D94F218E68370D
:1006C000386801F4407100F4407088422ED03868D8
:1006D000396820F4407041F480313960820739680C
:1006E00021F48031396038600FD5FFF7D7FE81469D
:1006F00041F2883A06E000BFFFF7D0FEA0EB090107
:100700005145D5D838688007F6D5206BC0F3012154
:1007100003297CD0D8F8001021F4F811C8F8001093
:10072000218E3868C1F30B01084338602078C00679
:1007300009D5BB488430016821F0807101600168EF
:10074000A26B114301602188B5488830490405D562
:10075000626E016821F4403111430160218809046F
:1007600005D5A26E016821F4402111430160216882
:10077000C90305D5E26E016821F4401111430160FF
:100780002168890305D5226F016821F440011143D6
:1007900001602178490605D5626C016821F00301EA
:1007A000114301602178090607D5A26C016800E0B9
:1007B000FEE021F00C01114301602188C90505D537
:1007C000E26C016821F03001114301602188890544
:1007D00005D5226D016821F0C00111430160218817
:1007E000490505D5626D016821F44071114301602E
:1007F0002188090505D5A26D016821F440611143E6
:1008000001602188C90407D5E26D016800E023E09A
:1008100021F44051114301602188890405D5226EDD
:10082000016821F44041114301602168490205D566
:10083000A26F016821F08061114301602168890283
:1008400015D5E26F016821F0006111430160E16F8D
:10085000B1F1006F0AD00AE0734AD8F800301040B6
:1008600023F4F8120243C8F8002059E70125216853
:100870000A0700D50125490305D5626F016821F0FB
:100880004071114301602168090206D5D4F8802027
:10089000016821F0805111430160012E4FF4403B6B
:1008A0004FF0706A4FF0E04903D02068B0F1007F4C
:1008B0007DD15B4E083E306820F080603060FFF7ED
:1008C000EDFD074605E000BFFFF7E8FDC01B64280B
:1008D0006ED85348083800680001F5D42078DFF856
:1008E00040E1C0070EF17C0E33D0606B88BBDEF8B0
:1008F00000C09BFAABF7DEF8002047F6C076B7FAE7
:1009000087F860680CF440319AFAAAFC21FA08F1E1
:1009100096FAA6F7BCFA8CF8B7FA87FC9BFAABF606
:1009200002F0706200FA0CF0B6FA86F69AFAAAF7AC
:1009300022FA08F2B14099FAA9FCA668B7FA87F73B
:100940000843BA40BCFA8CF110438E403043CEF8D5
:1009500000002068010303D5E16BB1F5801F05D0CD
:10096000C00241D5206CB0F5800F3DD1DEF80010FB
:100970009BFAABF647F6C07CB6FA86F7DEF8006065
:1009800001F4403160689CFAACFCF9409AFAAAF78D
:10099000BCFA8CFCB7FA87F89BFAABF399FAA9F783
:1009A00000FA0CF0B7FA87F7B3FA83FC01E08DE0A8
:1009B00007E101FA0CF106F0E046E36899FAA9F2C2
:1009C000FE4003FA08F3B2FA82F7154A084384326C
:1009D000BE4018433043CEF800001068616A20F032
:1009E0001F00491E084310602068C00139D5DEF899
:1009F00000209AFAAAF1DEF8003047F6C07602F03D
:100A00007062B1FA81F199FAA9FC9BFAABF7CA407E
:100A100096FAA6F60092BCFA8CFCB7FA87F705E0C6
:100A20000838024000700040FFFCFF0F2269B6FA50
:100A300086F861689AFAAAF603F0E040BA4001FA33
:100A400008F11143009AB6FA86F699FAA9F720FA46
:100A50000CF0B240B7FA87F61143B0400143CEF82C
:100A600000102068800120D504F1080147F6C0700D
:100A70009BFAABFC90FAA0F260688AC9B2FA82F2E3
:100A8000BCFA8CF89AFAAAFC904099FAA9F6BCFA3A
:100A90008CFC07FA08F703FA0CF3B6FA86F638432B
:100AA000B14018430843CEF800007B4E306840F058
:100AB00080603060FFF7F2FC074604E0FFF7EEFCD1
:100AC000C01B64287DD830680001F7D5002D79D08F
:100AD000714D286820F080502860FFF7DFFC064643
:100AE00005E000BFFFF7DAFC801B642869D86A487C
:100AF0000068C0438000F5D56748216888300A0344
:100B000001D5E26B1AB1C9023CD5216CD1BB026898
:100B10009BFAABF647F6C071B6FA86F7066802F4A0
:100B2000403291FAA1FC6169FA409AFAAAF7BCFA3C
:100B30008CFC9BFAABF501FA0CF1B7FA87F899FA3D
:100B4000A9F7B5FA85FCA56906F0E04602FA0CF2B1
:100B5000B7FA87F799FAA9F3FE4011434E4A05FA0E
:100B600008F5B3FA83F38C329E4029433143016088
:100B70006FF0FF071168A36A21F4F85107EB032314
:100B8000194311602168890235D5E16FB1F1006F19
:100B900031D101689AFAAAF2056847F6C07601F0E9
:100BA000706196FAA6F7B2FA82F299FAA9F69BFA60
:100BB000ABFC21FA02F8216AB6FA86F6BCFA8CFC84
:100BC00001E060E066E06269B7FA87F701FA0CF1CC
:100BD0009AFAAAFCBA4005F0E04599FAA9F3BCFAE2
:100BE0008CF7F5400A4308FA07F1B3FA83F30A4396
:100BF0009D402A4302602178090736D503680268C0
:100C00009BFAABF79AFAAAFC47F6C07102F440329D
:100C1000214DB7FA87F891FAA1F7616922FA08F233
:100C2000BCFA8CF8B7FA87FC9BFAABF603F070635A
:100C300001FA0CF1B6FA86F623FA08F39AFAAAF743
:100C4000B24099FAA9FCE669B7FA87F78C351143E7
:100C5000BB40BCFA8CF219439640314301602868CE
:100C6000E16A20F44030084328600B4C206840F0D3
:100C700080502060FFF712FC054607E0FFF70EFCEE
:100C8000401B642802D90320BDE8F88F2068C043C8
:100C90008000F3D40020F7E7003802402DE9F04748
:100CA000DFF8BC910E4605466E4841F28838D9F807
:100CB00000106C4C01F00F010834B1425AD2D9F83F
:100CC000002022F00F023243C9F80020D9F80010AA
:100CD00001F00F01B14270D12978890705D5AA68C2
:100CE000216821F0F001114321602978C90729D03A
:100CF0006968012914D00068022914D080070028EF
:100D00005BDA206820F0030008432060FFF7C6FB91
:100D10000646686801280FD00228474619D024E00B
:100D200000688003EBE78001E9E700BFFFF7B6FB4F
:100D3000801BB84201D964E047462068C0F38100B7
:100D40000128F3D173E000BFFFF7A8FB801BB84276
:100D500057D82068C0F381000228F5D167E000BFB2
:100D6000FFF79CFB801BB8424BD8206810F00C0F9B
:100D7000F6D15CE02978890705D5AA68216821F0B9
:100D8000F001114321602978C90741D06968012920
:100D900014D00068022914D08007002845DA2068A2
:100DA00020F0030008432060FFF778FB07466868DF
:100DB00001280ED0022818D026E036E00068800313
:100DC000EBE78001E9E700BFFFF768FBC11B414586
:100DD00017D82068C0F381000128F5D118E000BFC2
:100DE000FFF75CFBC11B41450BD82068C0F38100B5
:100DF0000228F5D10CE000BFFFF750FBC11B4145B5
:100E000002D90320BDE8F087206810F00C0FF3D161
:100E1000D9F8001021F00F013143C9F80010D9F8BA
:100E2000000000F00F00B04201D00120EAE728786E
:100E3000400705D5E968206820F4E05008432060A9
:100E40002878000706D52869216821F4604141EA25
:100E5000C00020600F20FFF741FB0020D2E7000018
:100E6000003C02400038024000B500F043F8084959
:100E7000F0230A6893FAA3F3064902F0F002B3FAEA
:100E800083F3DA40044B9A5CD040086000BD000058
:100E90000838024004000220701D012000B5FFF751
:100EA000E3FF07494FF4E052096892FAA2F201F415
:100EB000E051B2FA82F2D140024A515CC84000BD12
:100EC00008380240701D012000B5FFF7CDFF07492B
:100ED0004FF46042096892FAA2F201F46041B2FA5A
:100EE00082F2D140024A515CC84000BD083802403D
:100EF000701D01201D4930B51D48096811F00C0115
:100F00001AD01C4B042916D0082915D1174947F6C9
:100F1000C072091F0C680D6804F03F046D020CD507
:100F20000D68B3FBF4F092FAA2F31540B3FA83F222
:100F3000D54068430BE0184630BD0B68B0FBF4F0B9
:100F400092FAA2F41340B4FA84F2D34058430968E9
:100F50004FF4403292FAA2F201F44031B2FA82F236
:100F6000D140491C4900B0FBF1F030BD08380240C7
:100F70000024F40040787D012DE9F84FE54E044649
:100F80000078A6F10409A9F10405C0076BD0306808
:100F9000C0F38100012808D03068C0F38100022826
:100FA0000AD1D9F80000400206D5286880035AD536
:100FB0006068002870D056E0286820F480302860EF
:100FC000286820F480202860286820F48030286079
:100FD000FFF764FA4FF4FA77804605E0FFF75EFA10
:100FE000A0EB0800B84277D828688003F6D42868B8
:100FF00020F4803028606068B0F5803F10D0B0F5F4
:10100000A02F286810D020F480202860286820F4C1
:10101000803028606068C8B1FFF740FA804611E070
:10102000286820F4802001E040F4802028602868AF
:1010300040F48030EDE700BFFFF730FAA0EB080086
:10104000B842D0D828688003F6D50CE0FFF726FA1E
:10105000804605E0FFF722FAA0EB0800B842C2D8AC
:1010600028688003F6D42078800745D530684FF093
:10107000F80810F00C0F08D03068C0F38100022887
:101080000BD1D9F80000400207D42868800717D593
:10109000E068012800D113E039E1E0680028286801
:1010A0001BD040F001002860FFF7F8F9074604E084
:1010B000FFF7F4F9C01B642895D828688007F7D596
:1010C00020692A6898FAA8F1B1FA81F1884022F0E3
:1010D000F801014329600FE096E020F0010028604C
:1010E000FFF7DCF9074604E0FFF7D8F9C01B6428D6
:1010F000A7D828688007F7D42078000729D5854825
:1011000061696C3000298046016811D041F001010D
:101110000160FFF7C3F9074605E000BFFFF7BEF91E
:10112000C01B642870D8D8F800008007F6D510E0FE
:1011300021F001010160FFF7B1F9074605E000BFAA
:10114000FFF7ACF9C01B64285ED8D8F80000800710
:10115000F6D42078400776D56E483830016841F0E3
:10116000805101600068DFF8B08100F0805000908D
:10117000D8F8001041F48071C8F80010FFF78EF91C
:10118000074604E0FFF78AF9C01B64283CD8D8F86A
:101190000000C005F6D55F4F6837386820F00100C1
:1011A0003860386820F004003860386820F00100AA
:1011B0003860FFF773F9824641F2883806E000BFD5
:1011C000FFF76CF9A0EB0A0141451DD8386880078C
:1011D000F6D4386820F001003860A06801280FD0EC
:1011E0000528386811D020F004003860386820F0F5
:1011F00001003860A068C8B1FFF750F9824611E0DD
:10120000386820F0040002E079E040F00400386023
:10121000386840F00100ECE7FFF740F9A0EB0A0165
:1012200041456CD838688007F6D50CE0FFF736F9F1
:10123000824605E0FFF732F9A0EB0A0141455ED88E
:1012400038688007F6D4A069E8B33168C1F381013A
:1012500002295CD00228286820F08070286003D022
:10126000FFF71CF904464DE0FFF718F9064604E0C5
:10127000FFF714F9801B642841D828688001F7D44F
:1012800047F6C0704FF0FF364FF4403790FAA0F2A7
:10129000D4E9090397FAA7F7B2FA82F24FF0706C1B
:1012A00006EB53039040D4E90761B7FA87F7E26A87
:1012B0009CFAACF4BB401843B4FA84F331439A402F
:1012C0000143114300E020E041F00051C9F8001053
:1012D000286840F080702860FFF7E0F8044604E0DA
:1012E000FFF7DCF8001B642809D828688001F7D5CF
:1012F0000BE000BFFFF7D2F8001B642802D90320DF
:10130000BDE8F88F28688001F4D40020F8E70120B8
:10131000F6E700000838024000700040401EB0F1BF
:10132000807F10B501D3012010BD4FF0E024606133
:101330000F21601700F070F90020A06107212161E2
:1013400010BD10B5040003D094F8690010B107E097
:10135000012010BD002084F86800204600F026F827
:10136000022084F869002068016821F00101016011
:10137000204600F06DFA0128EBD0606A10B12046DB
:1013800000F0C4F92068416821F490414160206870
:10139000816821F02A0181602068016841F0010123
:1013A00001602046BDE8104000F014BA234870B533
:1013B000A8B0016841F001010160016801F001017C
:1013C0002691016841F00101016000680125119535
:1013D00000F001002690402000906846FFF706F9D3
:1013E00016481430016841F01001016000680724BC
:1013F000239500F0100026900220114E0102CDE945
:101400002110CDE9240421A93046FEF751FFAD0299
:10141000304621A921952594FEF74AFF21A930469F
:1014200021952594FEF744FF012200212520FFF796
:1014300075F82520FFF767F828B070BD30380240F6
:10144000000002402DE9F05F044690F869009B46D9
:101450000D46012803D094F86900122876D105B30F
:10146000FAB194F86800012870D001264FF0000806
:10147000C4F86C8094F8690084F86860122813D06E
:101480005FF0220084F86900A068FF214FF48053C8
:10149000A4F858209842A4F85A200AD1206928B10B
:1014A00010E00120BDE8F09F3220EBE740F2FF1092
:1014B0000EE04FF07F0218B1B0F1805F05D009E077
:1014C0002069D8B9A4F85C1004E02069B0B13F20CD
:1014D000A4F85C00B4F85C709A4607F0FF0900BFFE
:1014E000B4F85A00002220215B46401EA4F85A009E
:1014F000204600F0D1FA20B10320D3E7A4F85C2005
:10150000E8E7A068504501D1206998B12068416A98
:1015100001EA090105F8011BB4F85A000028DFD1DF
:1015200094F8690032280DD084F86960002084F8AE
:101530006880B7E721682846AD1C496A39400180B8
:10154000EAE703E0122084F86900EFE70220A9E748
:101550002DE9F047044690F8690099460D460128A8
:1015600003D094F86900222854D125B31AB394F813
:10157000680001284ED00027E766012694F869002C
:1015800084F86860222819D05FF0120084F869009E
:10159000A4F850204FF48058A4F852200022B4F848
:1015A000520080214B46401EA4F85200204600F015
:1015B00073FAC8B904E00120BDE8F0873220E5E7FE
:1015C000A068404501D1206980B115F8010B216860
:1015D0008862B4F852000028E0D100224B46402136
:1015E000204600F059FA38B10320E5E735F8020B40
:1015F0002168C0F30800EBE794F86900322805D0B1
:1016000084F86960002084F86870D5E7222084F8A7
:101610006900F7E70220CFE7090700284FEA1161C8
:1016200006DA00F00F0000F1E02080F8141D70478A
:1016300000F1E02080F800147047FEF735BF10B5C8
:10164000FEF73AFF00F005F8BDE810400020FEF775
:10165000E9BD70B5022492B0600501250DF1200CA2
:10166000CDE906402E046846192109230B934FF457
:10167000D8728CE81600CDE90056FFF77DFC00B16A
:10168000FEE7FEF77DFF00B1FEE70EAD00214FF44F
:10169000A0524FF4805385E80E000F20CDE90C04D2
:1016A00007210CA8FFF7FAFA002800D0FEE712B0D5
:1016B00070BD0000104A30B51048146800210F4B6F
:1016C00044F470041460083305680D4A0D4C45F06D
:1016D0000105056019600368051D1340074A036092
:1016E0000C322C600568044C074B25F48025803CA7
:1016F00005601160236030BD88ED00E000380240D5
:10170000FFFFF6FE103000240000012090F82410A6
:10171000C90706D00168836A4A6822F400321A4376
:101720004A6090F82410890706D50168C36A4A68A0
:1017300022F480321A434A6090F82410490706D5F3
:101740000168036B4A6822F480221A434A6090F8C9
:101750002410090706D50168436B4A6822F4004249
:101760001A434A6090F82410C90606D50168836BB5
:101770008A6822F480521A438A6090F824108906FD
:1017800006D50168C36B8A6822F400521A438A6046
:1017900090F82410490611D50168036C4A6822F4B8
:1017A00080121A434A60016CB1F5801F06D10168AE
:1017B000436C4A6822F4C0021A434A6090F824102D
:1017C000090606D50168826C486820F400201043A1
:1017D0004860704770B5002504466FF07E46C566C8
:1017E00000680068000707D5002233464FF4001157
:1017F000204600F051F958B920680068400709D523
:10180000002233464FF48001204600F045F908B12C
:10181000032070BD012084F86900002084F868501E
:1018200070BD00000948002130B4074C4FF4E1338B
:101830000C220460C0E90131C1600161C0E90521E9
:1018400030BCFFF77EBD00000010014020000220E8
:101850002DE9F04704468068834B844F2668D4E91D
:101860000415E2690843D6F800C010211543002290
:10187000284315460CEA030C7D4B4CEA000CC6F8D5
:1018800000C04FF400492068D4F80CC0466826F424
:10189000405646EA0C0646602668D4F82080A069C7
:1018A000D6F808C040EA08002CF4306C4CEA000C72
:1018B000C6F808C02068B8420AD11B6813F00303B9
:1018C00052D0012B7AD0022B76D0032B79D177E03E
:1018D000684EB0420AD11B6813F00C036AD0042B87
:1018E0006CD0082B68D00C2B6BD169E0624EB042F3
:1018F0000AD11B6813F030035CD0102B5ED0202B74
:101900005AD0302B5DD15BE05C4EB0420AD11B68EF
:1019100013F0C0034ED0402B50D0802B4CD0C02BA6
:101920004FD14DE0564EB0420DD11B6813F44073B9
:1019300040D0B3F5807F41D0B3F5007F3CD0B3F504
:10194000407F3ED13CE04F4EB0420FD11B6813F4B4
:10195000406309D0B3F5806F30D0B3F5006F2BD062
:10196000B3F5406F2DD12BE001212AE0464EB04265
:101970000DD11B6813F440531CD0B3F5805F1DD00C
:10198000B3F5005F18D0B3F5405F1AD118E03F4EB1
:10199000B04216D11B6813F440430BD0B3F5804F0F
:1019A0000CD04B4508D0B3F5404F0AD108E005E014
:1019B00002E0FFE7002104E0022102E0042100E050
:1019C0000821E6694E4527D109291DD2DFE801F03B
:1019D0000508101C131C1C1C1600FFF75FFA01E021
:1019E000FFF772FA61684000B0FBF1F082B20CE0E0
:1019F0002749606805E0FFF77DFAF3E760684FF478
:101A00008031B1FBF0F0F1E70125216822F00F00F1
:101A1000C2F3420210431BE0092920D2DFE801F0A3
:101A200005080B1F111F1F1F1A00FFF737FA0AE0E6
:101A3000FFF74AFA07E0174A6168B2FBF1F189B291
:101A40000BE0FFF757FAD4E90012B0FBF2F080B2D6
:101A5000C86005E06168B9FBF1F1C16000E00125F3
:101A60002846BDE8F0870000F369FFEF0010014051
:101A7000903802400044004000480040004C0040C4
:101A8000005000400014014000780040007C0040FD
:101A90000048E8010024F4002DE9F0471D46904677
:101AA0000E460446FEF7FAFCB8F1000F07464FF069
:101AB00000094FF0010808D030E0681C05D095B14E
:101AC000FEF7ECFCC01BA8420DD22068C06936EAC4
:101AD0000000F2D127E0681C20D025B1FEF7DEFC23
:101AE000C01BA8421AD32068036823F08003036058
:101AF0002068036823F0200303602068036823F450
:101B0000807303602068836823F00103836084F896
:101B10006980032084F86890BDE8F0872068C06978
:101B200036EA0000D7D00020F6E700000FB4054BDE
:101B300010B503A9044A029800F017F810BC5DF82C
:101B400014FB0000411C01201C00022002E008C818
:101B5000121F08C1002AFAD170477047002001E027
:101B600001C1121F002AFBD170472DE9F84F994699
:101B7000924688460546002706E025280AD05146A9
:101B80004A4690476D1C7F1C28780028F5D13846BE
:101B9000BDE8F88F002315F8011F18462E2915D12E
:101BA00015F8011F04232A290DD06FF02F02297880
:101BB000A1F13004092C09D800EB800002EB4000B1
:101BC00008446D1CF3E758F8040B6D1C2A78002AB2
:101BD000DDD0632A07D0732A0FD0104651464A46FB
:101BE00090477F1C2AE018F8042B8DF80020002174
:101BF0008DF801106E46012103E058F8046B4FF098
:101C0000FF315A074FF0000401D409E0641C8442FC
:101C10000BDA8C42FADB325D002AF7D105E0641C56
:101C20008C42FCDB305D0028F9D1274404E016F833
:101C3000010B51464A469047641EF8D26D1CA3E73B
:101C400013B5044801224FF6FF736946FFF780FC85
:101C500000981CBD20000220FFF7F1FCFFF7E2FD19
:101C60001FA0FFF763FF47F230552548FFF75EFFDF
:101C700024A0FFF75BFF2749012227482B46FFF7E7
:101C8000E1FB18B1032826D024A025E00020FEF7B0
:101C9000FBFA204924A0FFF749FF012402E0641C5D
:101CA0000A2C16D01B4901221B482B46FFF7CAFB02
:101CB00018B1032809D019A008E00020FEF7E4FAC3
:101CC000144919A0FFF732FFE9E718A0FFF72EFF2C
:101CD000E5E718A000E015A0FFF728FFC5E7000022
:101CE0000A0D53797374656D20696E697469616C4E
:101CF000697A6520737563636573730A0D0000006C
:101D0000801D012054686520696E707574206973A8
:101D10003A20000018000220200002204572726F55
:101D200072210A0D000000002573000054696D65E2
:101D30006F7574210A0D00000002000407000700FF
:101D4000000100000001000000010000000100008F
:101D5000010000200020002040008000000400025C
:101D60000600280028002800170017002800170088
:101D70000000000001020304010203040607080931
:101D80000A0D2A2A2A2A20554152542D4879706575
:101D9000725465726D696E616C20636F6D6D756EE6
:101DA00069636174696F6E202A2A2A2A0A0D506CB1
:101DB0006561736520656E746572203130206368DB
:101DC0006172616374657273207573696E67206BED
:101DD0006579626F6172642E2E2E0A0D000000007C
:101DE000001E012000000220200000004C1B0120EA
:101DF000201E012020000220700400005C1B012036
:101E0000000000000024F4000000000000000000BA
:101E1000010203040607080900000000000000009A
:04000005200101C90C
:00000001FF
