:020000042001D9
:10000000E0040220DD010120E5010120E7010120DB
:10001000E9010120EB010120ED01012000000000B9
:10002000000000000000000000000000EF010120BF
:10003000F101012000000000F30101201F1E01203A
:10004000F7010120F7010120F7010120F70101204C
:10005000F7010120F7010120F7010120F70101203C
:10006000F7010120F7010120F7010120F70101202C
:10007000F7010120F7010120F7010120F70101201C
:10008000F7010120F7010120F7010120F70101200C
:10009000F7010120F7010120F7010120F7010120FC
:1000A000F7010120F7010120F7010120F7010120EC
:1000B000F7010120191F0120F7010120F70101209C
:1000C000F7010120F7010120F7010120F7010120CC
:1000D000F7010120F7010120F7010120F7010120BC
:1000E000F7010120F7010120F7010120F7010120AC
:1000F000F7010120F7010120F7010120F70101209C
:10010000F7010120F7010120F7010120F70101208B
:10011000F7010120F7010120F7010120F70101207B
:10012000F7010120F7010120F7010120F70101206B
:10013000F7010120F7010120F7010120F70101205B
:10014000F7010120F7010120F7010120F70101204B
:10015000F7010120F7010120F7010120F70101203B
:10016000F7010120F7010120F7010120F70101202B
:10017000F7010120F7010120F7010120F70101201B
:10018000F7010120F7010120F7010120F70101200B
:10019000F7010120F7010120F7010120F7010120FB
:1001A000F7010120F7010120F7010120F7010120EB
:1001B000F7010120F7010120F7010120F7010120DB
:1001C000F7010120F7010120DFF80CD000F0CCFA94
:1001D000004800475D2D0120E004022006488047CA
:1001E00006480047FEE7FEE7FEE7FEE7FEE7FEE71C
:1001F000FEE7FEE7FEE7FEE7851E0120C9010120BC
:100200002DE9FE4F804681EA0300C00F0C460090A6
:1002100021F0004123F00045B8EB0200A94105D2CE
:100220004046214690461C460B46024623F00040BD
:10023000104347D0270DC7F30A00C3F30A510290B9
:10024000401A019040286BDAC3F3130040F4801B7E
:100250000098924620B10023D2EB030A63EB0B0B0C
:1002600001985946C0F14002504600F0BEF90646DA
:100270000D4650465946019A00F0D6F910EB080099
:100280006141002487EA115284EAE7731A4340D09F
:10029000009A62B3019A012A4FEA075215DC001B4B
:1002A00061EB02014FF0004202EA0752CDE9004241
:1002B000001C41F5801132462B4600F0D6F903B000
:1002C000BDE8F08F40462146F9E7001B61EB0201D3
:1002D000001C41F5801300185B412018A2F500179F
:1002E00047EB030140EAD570B6196D4111E06D0886
:1002F0004FEA360645EAC0754FEA0752001B61EB2C
:100300000201001C41F5801149084FEA3000001934
:10031000514132462B4603B0BDE8F04F00F096B98C
:100320000098012240000023D0EB020263EBE0734F
:10033000009821464FEAE074B8EB000061EB04013D
:10034000E9E783F000435BE781F0004158E72DE9DE
:10035000FE4F81EA030404F0004421F000410094C0
:100360004FF0000B23F0004350EA01045ED052EA44
:1003700003045BD0C3F30A54C1F30A552C44A4F21E
:10038000F3340194A0FB0254C1F3130141F4801132
:10039000C3F3130343F4801301FB024400FB034E39
:1003A000840A970A44EA815447EA8357A4FB076802
:1003B00002958D0A05FB07854FEA932C04FB0C542C
:1003C0002705029D4FEA065847EA1637B5EB0805A0
:1003D0006EEB070C870E920E47EA811742EA8312F2
:1003E000A7FB0201B6EB0B0164EB00042B0D43EA03
:1003F0000C335E1844EB1C50DA465146E7FB020111
:10040000C5F313044FEA0B3343EA14534FEA0432A3
:10041000019C43EA0603A4F10C040294009CCDE97C
:1004200000B400F022F903B0BDE8F08F00200146CF
:10043000F9E72DE9F04D81EA030404F0004B21F0C7
:10044000004514464FF0000A23F0004150EA05022F
:1004500020D054EA01021DD0C5F30A570246C5F365
:100460001303C1F31300C1F30A5640F4801543F49B
:100470008013A7EB0608101BD64608F2FD3873EB75
:10048000050002D308F1010801E092185B41B8F1C0
:10049000000F03DA00200146BDE8F08D00204FF484
:1004A0008011064684460EE0171B73EB050705D343
:1004B000121B63EB050306434CEA010C49084FEAA3
:1004C000300092185B4150EA0107EDD152EA030077
:1004D00012D082EA040083EA0501084305D0101B0C
:1004E000AB4106D20122002306E000224FF0004378
:1004F00002E06FF0010253101AEB06004CEB0851BA
:1005000010EB0A0041EB0B01BDE8F04D00F09EB886
:100510000EB540F2334102910021CDE900110A46A7
:100520000B4600F0A2F803B000BDC1F30A5210B5AB
:10053000C1F3130140F2FF3341F480119A4201DA12
:10054000002010BD40F233439A42A2F2334203DC52
:10055000524200F059F810BD904010BD30B50B4626
:10056000014600202022012409E021FA02F59D42E3
:1005700005D303FA02F5491B04FA02F52844151EB7
:10058000A2F10102F1DC30BD2DE9F05F054600204B
:1005900092469B4688460646814640241BE02846F4
:1005A00041464746224600F02FF853465A46C01AA5
:1005B000914110D311461846224600F016F82D1A24
:1005C00067EB01084F4622460120002100F00DF89C
:1005D00017EB00094E41201EA4F10104DFDC484660
:1005E00031462A464346BDE8F09F202A04DB203AE4
:1005F00000FA02F1002070479140C2F1200320FA76
:1006000003F3194390407047202A04DB203A21FA73
:1006100002F00021704721FA02F3D040C2F120021B
:100620009140084319467047202A06DBCB17203A31
:1006300041FA02F043EAE07306E041FA02F3D040E7
:10064000C2F12002914008431946704710B5141EAC
:1006500073F1000408DA401C41F1000192185B417B
:100660001A4301D120F0010010BD2DE9F04D924652
:100670009B4611B1B1FA81F202E0B0FA80F2203269
:100680009046FFF7B2FF04460F4640EA0A0041EAEF
:100690000B0153465A46084313D0114653EA010052
:1006A00019D0C8F140025046FFF7AEFF05460E468E
:1006B000504659464246FFF798FF084305D00120AF
:1006C00004E020463946BDE8F08D0020054346EAA7
:1006D000E0762C4337430A986305E40AA0EB080050
:1006E0000022FD0A44EA47540A3002D500200146A0
:1006F000E9E7010510196941DDE90845001969417B
:10070000BDE8F04DA2E7C1F30A52C1F3130140F274
:10071000FF3341F480119A4202DA0020014670470B
:1007200040F233439A42A2F2334202DC5242FFF7D4
:100730006BBFFFF75ABF000030B5041E71F1000413
:1007400004DB4FF00044404264EB0101141E73F1DE
:10075000000405DB1C464FF00043524263EB0403E8
:10076000994208BF904230BD064C074D06E0E06854
:1007700040F0010394E8070098471034AC42F6D3E8
:10078000FFF726FD2C3001204C30012070B51549B3
:100790000500154886B005D0012D03D0022D01D0EB
:1007A000032D08D10A6842F001020A600968044674
:1007B00001F0010100910D4E0120032156F8252082
:1007C000CDE90120CDE9030101A9204600F05EF842
:1007D00036F82500012281B2204600F047F906B024
:1007E00070BD00003038024000000240782F012028
:1007F0000749020005D0012A03D0022A01D0032AAA
:1008000000D10846034931F8221089B200F02AB914
:1008100000000240782F0120F0B5BFF34F8FBFF3E7
:100820006F8F19490020174B0860196841F4003197
:100830001960BFF34F8FBFF36F8F1249703108609B
:10084000BFF34F8F081F104D43F6FF74103500683B
:10085000C0F34E31C0F3C90204EA4116104600BF8E
:1008600046EA80772F60401EFAD2491EF4D2BFF3C9
:100870004F8F186840F480301860BFF34F8FBFF37C
:100880006F8FF0BD14ED00E050EF00E02DE9F84F60
:10089000DFF89CE100224FF001084FF0030B4FF00E
:1008A0000F0A00BF0B6808FA02F42340A34271D17B
:1008B0004D68022D01D0122D0FD1D5080E695707B2
:1008C00000EB8505A9462D6AFF0E0AFA07FCBE401B
:1008D00025EA0C052E43C9F820600F7955000668FB
:1008E0000BFA05FC07F0030726EA0C06AF40374376
:1008F00007604E68012E05D0022E03D0112E01D0C4
:10090000122E0ED18668CF6826EA0C06AF40374318
:10091000876046680F79A643C7F3001797403743AF
:100920004760C4688E6824EA0C04AE402643C66063
:100930004C68E40075D53F4C256845F4804525603A
:10094000246822F00306950704F4804400943A4C8E
:100950002D0F2644D6F80848DFF8E0C00AFA05F75C
:10096000604524EA070401D100272EE0344FB84245
:1009700001D1012729E0334FB84201D1022724E0F9
:10098000314FB84201D103271FE0304FB84202D1A6
:1009900004271AE045E02E4FB84201D1052714E0A4
:1009A0002C4FB84201D106270FE02B4FB84201D19E
:1009B00007270AE0294FB84201D1082705E0284F50
:1009C000B84201D1092700E00A27AF402743754606
:1009D000C6F808784E68DEF80040F60324EA0304FF
:1009E00000D51C43124E2C60361D4D683468AD0393
:1009F00024EA030400D51C430D4F346008374D68CA
:100A00003C68ED0224EA030400D51C43084D3C6019
:100A10000C354E682C68B60224EA030400D51C434A
:100A20002C60521C102AFFF43DAFBDE8F88F000087
:100A3000003C0140443802400030014000000240C8
:100A40000004024000080240000C02400010024076
:100A50000014024000180240001C02400020024026
:100A60000024024042694A40426170470AB18161F4
:100A700070470904FBE70000014800687047000068
:100A80000000022002480168491C01607047000014
:100A900000000220074810B5016841F400710160B0
:100AA000032000F049F80F2000F006F800F015F8D8
:100AB000002010BD003C024010B5044600F0C2FC0E
:100AC0004FF47A71B0FBF1F000F016FF00222146DE
:100AD000501E00F011F8002010BD08B50020009055
:100AE00008BD410900F01F028900012001F1E02149
:100AF0009040C1F8000170470E4BF0B41B680D46E2
:100B0000C3F30223C3F10706042E00D90426191DDE
:100B1000072901D2002300E0DB1E012404FA06F1BC
:100B20009C40491E2940641E994014402143F0BC5A
:100B300001F064B90CED00E0064900F0070210B5C1
:100B40004FF6FF040868044B204040EA0220184397
:100B5000086010BD0CED00E00000FA051848F8B57B
:100B6000016841F0805101600068164C00F080502F
:100B70000090206840F480302060FFF77DFF4FF444
:100B80007A76054605E000BFFFF776FF401BB042CE
:100B90000FD86068C003F7D5206840F400302060AB
:100BA000FFF76AFF054606E0FFF766FF401BB0420D
:100BB00001D90320F8BD60688003F5D50020F8BD99
:100BC00040380240007000402DE9F84F044600789C
:100BD000DFF828844FF000063546C0070ED0D8F85D
:100BE000001021F40001C8F80010D8F80010626B62
:100BF0001143C8F80010606B00B90126206800039B
:100C000010D5FE48E26B8430016821F44011114395
:100C10000160E06BB0F5801F01D010B102E0012649
:100C200000E001252068C00210D5F448226C843011
:100C3000016821F4400111430160206CB0F5800F80
:100C400001D010B102E0012600E001252068C101B9
:100C500000D50126800657D5E8483830016841F0B4
:100C6000805101600068DFF8989300F08050009098
:100C7000D9F8001041F48071C9F80010FFF7FCFEAC
:100C8000074604E0FFF7F8FEC01B64287ED8D9F8B9
:100C90000000C005F6D5D94F218E6837386801F4B9
:100CA000407100F4407088422ED03868396820F4D2
:100CB000407041F4803139608207396821F4803115
:100CC000396038600FD5FFF7D7FE814641F2883A88
:100CD00006E000BFFFF7D0FEA0EB09015145D5D8D3
:100CE00038688007F6D5206BC0F3012103297CD03A
:100CF000D8F8001021F4F811C8F80010218E3868D7
:100D0000C1F30B01084338602078C00609D5BB4801
:100D10008430016821F0807101600168A26B114389
:100D200001602188B5488830490405D5626E0168A4
:100D300021F44031114301602188090405D5A26ED8
:100D4000016821F44021114301602168C90305D5E0
:100D5000E26E016821F440111143016021688903AA
:100D600005D5226F016821F440011143016021780B
:100D7000490605D5626C016821F003011143016049
:100D80002178090607D5A26C016800E0FEE021F099
:100D90000C01114301602188C90505D5E26C016889
:100DA00021F03001114301602188890505D5226DAC
:100DB000016821F0C001114301602188490505D572
:100DC000626D016821F440711143016021880905B9
:100DD00005D5A26D016821F44061114301602188AD
:100DE000C90407D5E26D016800E023E021F4405119
:100DF000114301602188890405D5226E016821F420
:100E00004041114301602168490205D5A26F016884
:100E100021F08061114301602168890215D5E26FDC
:100E2000016821F0006111430160E16FB1F1006FD1
:100E30000AD00AE0734AD8F80030104023F4F812C0
:100E40000243C8F8002059E7012521680A0700D5A8
:100E50000125490305D5626F016821F040711143F6
:100E600001602168090206D5D4F88020016821F0CC
:100E7000805111430160012E4FF4403B4FF0706AE6
:100E80004FF0E04903D02068B0F1007F7DD15B4E88
:100E9000083E306820F080603060FFF7EDFD0746C7
:100EA00005E000BFFFF7E8FDC01B64286ED853487B
:100EB000083800680001F5D42078DFF840E1C00769
:100EC0000EF17C0E33D0606B88BBDEF800C09BFA5D
:100ED000ABF7DEF8002047F6C076B7FA87F860680F
:100EE0000CF440319AFAAAFC21FA08F196FAA6F716
:100EF000BCFA8CF8B7FA87FC9BFAABF602F070628A
:100F000000FA0CF0B6FA86F69AFAAAF722FA08F274
:100F1000B14099FAA9FCA668B7FA87F70843BA4026
:100F2000BCFA8CF110438E403043CEF800002068AC
:100F3000010303D5E16BB1F5801F05D0C00241D597
:100F4000206CB0F5800F3DD1DEF800109BFAABF6B7
:100F500047F6C07CB6FA86F7DEF8006001F440314F
:100F600060689CFAACFCF9409AFAAAF7BCFA8CFCCF
:100F7000B7FA87F89BFAABF399FAA9F700FA0CF0E5
:100F8000B7FA87F7B3FA83FC01E08DE007E101FAD5
:100F90000CF106F0E046E36899FAA9F2FE4003FA84
:100FA00008F3B2FA82F7154A08438432BE40184368
:100FB0003043CEF800001068616A20F01F00491E1F
:100FC000084310602068C00139D5DEF800209AFA85
:100FD000AAF1DEF8003047F6C07602F07062B1FA8E
:100FE00081F199FAA9FC9BFAABF7CA4096FAA6F6EA
:100FF0000092BCFA8CFCB7FA87F705E0083802408B
:1010000000700040FFFCFF0F2269B6FA86F86168A5
:101010009AFAAAF603F0E040BA4001FA08F1114347
:10102000009AB6FA86F699FAA9F720FA0CF0B240BF
:10103000B7FA87F61143B0400143CEF8001020689C
:10104000800120D504F1080147F6C0709BFAABFC83
:1010500090FAA0F260688AC9B2FA82F2BCFA8CF8FF
:101060009AFAAAFC904099FAA9F6BCFA8CFC07FA05
:1010700008F703FA0CF3B6FA86F63843B140184382
:101080000843CEF800007B4E306840F0806030604E
:10109000FFF7F2FC074604E0FFF7EEFCC01B6428F4
:1010A0007DD830680001F7D5002D79D0714D2868C2
:1010B00020F080502860FFF7DFFC064605E000BF07
:1010C000FFF7DAFC801B642869D86A480068C043CF
:1010D0008000F5D56748216888300A0301D5E26BA6
:1010E0001AB1C9023CD5216CD1BB02689BFAABF6A0
:1010F00047F6C071B6FA86F7066802F4403291FAF4
:10110000A1FC6169FA409AFAAAF7BCFA8CFC9BFA36
:10111000ABF501FA0CF1B7FA87F899FAA9F7B5FA25
:1011200085FCA56906F0E04602FA0CF2B7FA87F7EB
:1011300099FAA9F3FE4011434E4A05FA08F5B3FAAD
:1011400083F38C329E402943314301606FF0FF07E7
:101150001168A36A21F4F85107EB032319431160C6
:101160002168890235D5E16FB1F1006F31D1016895
:101170009AFAAAF2056847F6C07601F0706196FA0D
:10118000A6F7B2FA82F299FAA9F69BFAABFC21FA19
:1011900002F8216AB6FA86F6BCFA8CFC01E060E03F
:1011A00066E06269B7FA87F701FA0CF19AFAAAFCCD
:1011B000BA4005F0E04599FAA9F3BCFA8CF7F5407E
:1011C0000A4308FA07F1B3FA83F30A439D402A431E
:1011D00002602178090736D5036802689BFAABF7ED
:1011E0009AFAAAFC47F6C07102F44032214DB7FAD0
:1011F00087F891FAA1F7616922FA08F2BCFA8CF833
:10120000B7FA87FC9BFAABF603F0706301FA0CF1B6
:10121000B6FA86F623FA08F39AFAAAF7B24099FAD0
:10122000A9FCE669B7FA87F78C351143BB40BCFAD5
:101230008CF219439640314301602868E16A20F43A
:101240004030084328600B4C206840F080502060FC
:10125000FFF712FC054607E0FFF70EFC401B642871
:1012600002D90320BDE8F88F2068C0438000F3D482
:101270000020F7E7003802402DE9F047DFF8BC9185
:101280000E4605466E4841F28838D9F800106C4C7D
:1012900001F00F010834B1425AD2D9F8002022F0EF
:1012A0000F023243C9F80020D9F8001001F00F01F5
:1012B000B14270D12978890705D5AA68216821F043
:1012C000F001114321602978C90729D069680129F3
:1012D00014D00068022914D0800700285BDA206847
:1012E00020F0030008432060FFF7C6FB064668684D
:1012F00001280FD00228474619D024E00068800357
:10130000EBE78001E9E700BFFFF7B6FB801BB842BF
:1013100001D964E047462068C0F381000128F3D179
:1013200073E000BFFFF7A8FB801BB84257D82068C6
:10133000C0F381000228F5D167E000BFFFF79CFBF6
:10134000801BB8424BD8206810F00C0FF6D15CE03F
:101350002978890705D5AA68216821F0F001114391
:1013600021602978C90741D06968012914D0006833
:10137000022914D08007002845DA206820F00300F5
:1013800008432060FFF778FB0746686801280ED005
:10139000022818D026E036E000688003EBE78001E1
:1013A000E9E700BFFFF768FBC11B414517D820687C
:1013B000C0F381000128F5D118E000BFFFF75CFB06
:1013C000C11B41450BD82068C0F381000228F5D12C
:1013D0000CE000BFFFF750FBC11B414502D90320C1
:1013E000BDE8F087206810F00C0FF3D1D9F8001099
:1013F00021F00F013143C9F80010D9F8000000F0C6
:101400000F00B04201D00120EAE72878400705D557
:10141000E968206820F4E05008432060287800073D
:1014200006D52869216821F4604141EAC0002060A6
:101430000F20FFF741FB0020D2E70000003C0240F4
:101440000038024000B500F043F80849F0230A686C
:1014500093FAA3F3064902F0F002B3FA83F3DA40F9
:10146000044B9A5CD040086000BD00000838024080
:1014700004000220A82F012000B5FFF7E3FF074971
:101480004FF4E052096892FAA2F201F4E051B2FA84
:1014900082F2D140024A515CC84000BD0838024087
:1014A000A82F012000B5FFF7CDFF07494FF4604298
:1014B000096892FAA2F201F46041B2FA82F2D140D4
:1014C000024A515CC84000BD08380240A82F0120E4
:1014D0001D4930B51D48096811F00C011AD01C4B8C
:1014E000042916D0082915D1174947F6C072091FDB
:1014F0000C680D6804F03F046D020CD50D68B3FB59
:10150000F4F092FAA2F31540B3FA83F2D54068439F
:101510000BE0184630BD0B68B0FBF4F092FAA2F471
:101520001340B4FA84F2D340584309684FF4403270
:1015300092FAA2F201F44031B2FA82F2D140491C8F
:101540004900B0FBF1F030BD083802400024F4003F
:1015500040787D012DE9F84FE54E04460078A6F16C
:101560000409A9F10405C0076BD03068C0F38100FD
:10157000012808D03068C0F3810002280AD1D9F8C8
:101580000000400206D5286880035AD5606800280C
:1015900070D056E0286820F480302860286820F455
:1015A00080202860286820F480302860FFF764FAE3
:1015B0004FF4FA77804605E0FFF75EFAA0EB0800EB
:1015C000B84277D828688003F6D4286820F48030A1
:1015D00028606068B0F5803F10D0B0F5A02F286873
:1015E00010D020F480202860286820F48030286003
:1015F0006068C8B1FFF740FA804611E0286820F41F
:10160000802001E040F480202860286840F4803089
:10161000EDE700BFFFF730FAA0EB0800B842D0D8E2
:1016200028688003F6D50CE0FFF726FA804605E02F
:10163000FFF722FAA0EB0800B842C2D8286880035E
:10164000F6D42078800745D530684FF0F80810F0C0
:101650000C0F08D03068C0F3810002280BD1D9F8F4
:101660000000400207D42868800717D5E0680128E9
:1016700000D113E039E1E068002828681BD040F071
:1016800001002860FFF7F8F9074604E0FFF7F4F9D6
:10169000C01B642895D828688007F7D520692A6878
:1016A00098FAA8F1B1FA81F1884022F0F8010143DB
:1016B00029600FE096E020F001002860FFF7DCF9D8
:1016C000074604E0FFF7D8F9C01B6428A7D82868AC
:1016D0008007F7D42078000729D5854861696C30E8
:1016E00000298046016811D041F001010160FFF737
:1016F000C3F9074605E000BFFFF7BEF9C01B642829
:1017000070D8D8F800008007F6D510E021F001016C
:101710000160FFF7B1F9074605E000BFFFF7ACF93C
:10172000C01B64285ED8D8F800008007F6D4207863
:10173000400776D56E483830016841F0805101602D
:101740000068DFF8B08100F080500090D8F80010F9
:1017500041F48071C8F80010FFF78EF9074604E0E5
:10176000FFF78AF9C01B64283CD8D8F80000C005F0
:10177000F6D55F4F6837386820F001003860386868
:1017800020F004003860386820F001003860FFF76E
:1017900073F9824641F2883806E000BFFFF76CF922
:1017A000A0EB0A0141451DD838688007F6D4386897
:1017B00020F001003860A06801280FD005283868A3
:1017C00011D020F004003860386820F00100386043
:1017D000A068C8B1FFF750F9824611E0386820F0E0
:1017E000040002E079E040F004003860386840F01E
:1017F0000100ECE7FFF740F9A0EB0A0141456CD886
:1018000038688007F6D50CE0FFF736F9824605E028
:10181000FFF732F9A0EB0A0141455ED8386880072E
:10182000F6D4A069E8B33168C1F3810102295CD024
:101830000228286820F08070286003D0FFF71CF988
:1018400004464DE0FFF718F9064604E0FFF714F9E7
:10185000801B642841D828688001F7D447F6C070FF
:101860004FF0FF364FF4403790FAA0F2D4E9090365
:1018700097FAA7F7B2FA82F24FF0706C06EB5303B7
:101880009040D4E90761B7FA87F7E26A9CFAACF4B2
:10189000BB401843B4FA84F331439A4001431143E7
:1018A00000E020E041F00051C9F80010286840F045
:1018B00080702860FFF7E0F8044604E0FFF7DCF8EA
:1018C000001B642809D828688001F7D50BE000BF09
:1018D000FFF7D2F8001B642802D90320BDE8F88F77
:1018E00028688001F4D40020F8E70120F6E7000022
:1018F0000838024000700040401EB0F1807F10B5F3
:1019000001D3012010BD4FF0E02460610F2160176A
:1019100000F074FA0020A0610721216110BD70471A
:10192000704710B5040003D094F8390010B104E0FA
:10193000012010BD204600F00DF8022084F8390087
:101940002068211D00F0EEFA012084F83900002003
:1019500010BD0000094808B5016841F002010160AE
:1019600000680022032100F0020000901D20FFF714
:10197000C3F8BDE808401D20FFF7B3B84038024067
:101980000168CA6842F00102CA600068016841F05B
:101990000101016000207047704770B5044600687F
:1019A00000250169C943890715D4C168C94389075E
:1019B00011D4EA1E02610121217620688069800726
:1019C000204602D0FFF7E8FF04E000F0A5F820462B
:1019D00000F0A3F8257620680169C943490717D4A8
:1019E000C168C943490713D402216FF004020261A0
:1019F00021762068806910F4407F204602D0FFF7EE
:101A0000CBFF04E000F088F8204600F086F8257649
:101A100020680169C943090716D4C168C943090789
:101A200012D404216FF00802026121762068C06997
:101A30008007204602D0FFF7AFFF04E000F06CF80B
:101A4000204600F06AF8257620680169C943C90676
:101A500017D4C168C943C90613D408216FF0100216
:101A6000026121762068C06910F4407F204602D0D0
:101A7000FFF792FF04E000F04FF8204600F04DF829
:101A8000257620680169C943C90708D1C168C943DF
:101A9000C90704D1891E0161204600F03FF8206883
:101AA0006FF080050169C943090607D4C168C943BD
:101AB000090603D405612046FFF731FF206801695C
:101AC000C943C90507D4C168C943090603D40561E0
:101AD0002046FFF724FF20680169C943490609D45D
:101AE000C168C943490605D46FF040010161204631
:101AF00000F017F820680169C94389060BD4C16852
:101B0000C943890607D46FF0200101612046BDE872
:101B10007040FFF705BF70BD704770470020FEF7AB
:101B200067BE704710B5040003D094F8690010B187
:101B300007E0012010BD002084F86800204600F076
:101B400027F8022084F869002068016821F001016B
:101B50000160204600F00EFB0128EBD0606A10B156
:101B6000204600F065FA2068416821F49041416008
:101B70002068816821F02A0181602068016841F0B5
:101B8000010101602046BDE8104000F0B5BA000038
:101B9000234870B5A8B0016841F0010101600168F7
:101BA00001F001012691016841F001010160006826
:101BB0000125119500F00100269040200090684614
:101BC000FFF702F816481430016841F01001016077
:101BD00000680724239500F0100026900220114E83
:101BE0000102CDE92110CDE9240421A93046FEF7F8
:101BF0004DFEAD02304621A921952594FEF746FE03
:101C000021A9304621952594FEF740FE01220021AE
:101C10002520FEF771FF2520FEF763FF28B070BD79
:101C200030380240000002402DE9F05F044690F891
:101C300069009B460D46012803D094F869001228DC
:101C400076D105B3FAB194F86800012870D0012666
:101C50004FF00008C4F86C8094F8690084F868605C
:101C6000122813D05FF0220084F86900A068FF21D9
:101C70004FF48053A4F858209842A4F85A200AD16F
:101C8000206928B110E00120BDE8F09F3220EBE789
:101C900040F2FF100EE04FF07F0218B1B0F1805F0C
:101CA00005D009E02069D8B9A4F85C1004E02069E7
:101CB000B0B13F20A4F85C00B4F85C709A4607F01D
:101CC000FF0900BFB4F85A00002220215B46401EE5
:101CD000A4F85A00204600F071FB20B10320D3E79E
:101CE000A4F85C20E8E7A068504501D1206998B1CC
:101CF0002068416A01EA090105F8011BB4F85A009D
:101D00000028DFD194F8690032280DD084F869608A
:101D1000002084F86880B7E721682846AD1C496A2E
:101D200039400180EAE703E0122084F86900EFE718
:101D30000220A9E72DE9F047044690F8690099468A
:101D40000D46012803D094F86900222854D125B308
:101D50001AB394F8680001284ED00027E7660126E0
:101D600094F8690084F86860222819D05FF01200A6
:101D700084F86900A4F850204FF48058A4F8522049
:101D80000022B4F8520080214B46401EA4F85200B5
:101D9000204600F013FBC8B904E00120BDE8F0873D
:101DA0003220E5E7A068404501D1206980B115F8EF
:101DB000010B21688862B4F852000028E0D10022AB
:101DC0004B464021204600F0F9FA38B10320E5E700
:101DD00035F8020B2168C0F30800EBE794F86900BE
:101DE000322805D084F86960002084F86870D5E74F
:101DF000222084F86900F7E70220CFE709070028CE
:101E00004FEA116106DA00F00F0000F1E02080F8DF
:101E1000141D704700F1E02080F800147047FEF7B1
:101E200031BE70B5022492B0600501250DF1200C81
:101E3000CDE906402E046846192109230B934FF47F
:101E4000D8728CE81600CDE90056FFF783FB00B18D
:101E5000FEE7FEF783FE00B1FEE70EAD00214FF472
:101E6000A0524FF4805385E80E000F20CDE90C04FA
:101E700007210CA8FFF700FA002800D0FEE712B0F7
:101E800070BD0000104A30B51048146800210F4B97
:101E900044F470041460083305680D4A0D4C45F095
:101EA0000105056019600368051D1340074A0360BA
:101EB0000C322C600568044C074B25F48025803CCF
:101EC00005601160236030BD88ED00E000380240FD
:101ED000FFFFF6FE103000240000012010B5FEF7D1
:101EE0009BFCFEF7D7FDFFF79CFF00F02DF9BDE846
:101EF000104001A000F0ACBA0A0D53797374656DFF
:101F000020696E697469616C697A652073756363B1
:101F10006573730A0D0000000148FFF73EBD000025
:101F2000A0000220F0B5254B4FF0804E244D0268F2
:101F30009842244E244F254C09D0704507D0A84222
:101F400005D0B04203D0B84201D0A04205D1D1F8AB
:101F500004C022F070024CEA020298421BD0704585
:101F600019D0A84217D0B04215D0B84213D0A04221
:101F700011D0174DA8420ED0164DA8420BD0164DC9
:101F8000A84208D0154DA84205D0154DA84202D050
:101F9000144DA84203D1CD6822F440722A43026056
:101FA0008A689842C2620A68826201D0A04201D166
:101FB0000969016301214161F0BD00000000014099
:101FC0000004004000080040000C004000040140F4
:101FD000004001400044014000480140001800401A
:101FE000001C0040002000400D49002370B544F65D
:101FF00020660C4C0A680D49B2FBF6F20A4D521EDF
:1020000022600D60C1E90303C1E9012308464B6169
:10201000FFF787FCBDE870400020FEF7B7BB00006B
:10202000040002202800022000040040A00002203A
:1020300090F82410C90706D00168836A4A6822F420
:1020400000321A434A6090F82410890706D50168C7
:10205000C36A4A6822F480321A434A6090F8241016
:10206000490706D50168036B4A6822F480221A43A7
:102070004A6090F82410090706D50168436B4A6846
:1020800022F400421A434A6090F82410C90606D58B
:102090000168836B8A6822F480521A438A6090F840
:1020A0002410890606D50168C36B8A6822F40052A1
:1020B0001A438A6090F82410490611D50168036C10
:1020C0004A6822F480121A434A60016CB1F5801FFD
:1020D00006D10168436C4A6822F4C0021A434A6080
:1020E00090F82410090606D50168826C486820F42F
:1020F000002010434860704770B5002504466FF01B
:102100007E46C56600680068000707D50022334692
:102110004FF40011204600F051F958B920680068CA
:10212000400709D5002233464FF48001204600F0D5
:1021300045F908B1032070BD012084F86900002032
:1021400084F8685070BD00000948002130B4074C85
:102150004FF4E1330C220460C0E90131C160016138
:10216000C0E9052130BCFFF7DDBC000000100140D4
:10217000300002202DE9F04704468068834B844FED
:102180002668D4E90415E2690843D6F800C0102196
:1021900015430022284315460CEA030C7D4B4CEAFC
:1021A000000CC6F800C04FF400492068D4F80CC0F9
:1021B000466826F4405646EA0C0646602668D4F87F
:1021C0002080A069D6F808C040EA08002CF4306CE2
:1021D0004CEA000CC6F808C02068B8420AD11B6857
:1021E00013F0030352D0012B7AD0022B76D0032BAD
:1021F00079D177E0684EB0420AD11B6813F00C0326
:102200006AD0042B6CD0082B68D00C2B6BD169E002
:10221000624EB0420AD11B6813F030035CD0102B21
:102220005ED0202B5AD0302B5DD15BE05C4EB042AB
:102230000AD11B6813F0C0034ED0402B50D0802B26
:102240004CD0C02B4FD14DE0564EB0420DD11B6843
:1022500013F4407340D0B3F5807F41D0B3F5007FD5
:102260003CD0B3F5407F3ED13CE04F4EB0420FD161
:102270001B6813F4406309D0B3F5806F30D0B3F519
:10228000006F2BD0B3F5406F2DD12BE001212AE058
:10229000464EB0420DD11B6813F440531CD0B3F529
:1022A000805F1DD0B3F5005F18D0B3F5405F1AD141
:1022B00018E03F4EB04216D11B6813F440430BD0D8
:1022C000B3F5804F0CD04B4508D0B3F5404F0AD141
:1022D00008E005E002E0FFE7002104E0022102E05F
:1022E000042100E00821E6694E4527D109291DD2C5
:1022F000DFE801F00508101C131C1C1C1600FFF77A
:10230000BBF801E0FFF7CEF861684000B0FBF1F0E8
:1023100082B20CE02749606805E0FFF7D9F8F3E7DF
:1023200060684FF48031B1FBF0F0F1E701252168DE
:1023300022F00F00C2F3420210431BE0092920D211
:10234000DFE801F005080B1F111F1F1F1A00FFF720
:1023500093F80AE0FFF7A6F807E0174A6168B2FBB6
:10236000F1F189B20BE0FFF7B3F8D4E90012B0FB4A
:10237000F2F080B2C86005E06168B9FBF1F1C160BC
:1023800000E001252846BDE8F0870000F369FFEF73
:1023900000100140903802400044004000480040D6
:1023A000004C004000500040001401400078004004
:1023B000007C00400048E8010024F4002DE9F047CB
:1023C0001D4690460E460446FEF756FBB8F1000F38
:1023D00007464FF000094FF0010808D030E0681CB4
:1023E00005D095B1FEF748FBC01BA8420DD220686E
:1023F000C06936EA0000F2D127E0681C20D025B180
:10240000FEF73AFBC01BA8421AD32068036823F0EA
:10241000800303602068036823F0200303602068C2
:10242000036823F4807303602068836823F001034A
:10243000836084F86980032084F86890BDE8F087A1
:102440002068C06936EA0000D7D00020F6E7000017
:102450000FB4054B10B503A9044A029800F0DAF84E
:1024600010BC5DF814FB0000452D01202C0002205B
:1024700002E008C8121F08C1002AFAD1704770474D
:10248000002001E001C1121F002AFBD170470000AB
:102490002DE9FF5F82B00021DDE90430020DDDF897
:1024A00040B0034318D044F61050A2F2FF3242432A
:1024B0001514119801281FD0A5EB0B00401C5FEAF2
:1024C000000A4FF000064E4FDFF83891B0465046F4
:1024D00015D5CAF1000413E0119801244AA301287C
:1024E00001D16FEA0B010298119AC0E90031C0E9ED
:1024F000024206B0BDE8F09FCBF10000DFE70446E2
:102500000021404A491842EB0450CDE9001012E086
:10251000E00707D032463B4640464946FDF717FFE5
:102520008046894632463B4610461946FDF70FFF66
:1025300006460F466410002CEAD1DDE90401DDE90E
:102540000023BAF1000F06DAFDF701FF42464B46C1
:10255000FDF7FDFE05E0FDF76CFF42464B46FDF73B
:1025600068FF04460E460022284BFEF7E5F803D824
:102570004FF0FF30014607E00022254B2046314650
:10258000FDF73EFEFEF7BFF8102409E0002C0ADB41
:102590000A220023FDF7F8FF039B30321A55641E10
:1025A00050EA0102F2D1641C039AC4F111031444ED
:1025B000119A012A03D0012208430DD10AE00843F1
:1025C00004D000204FF0110B119072E7A3EB0B0524
:1025D0006D1E0DE05B4504DD4FF0000205F10105C5
:1025E00004E003DA4FF00002A5F10105002AECD067
:1025F00002981199C0E90231C0E9004579E700006D
:10260000000014400000F03F300000000000F043E4
:102610000000E03F2DE9FF4F95B09B4689460646F6
:1026200000250FE2252877D100242746F84A01210A
:10263000059400E0044316F8013F203B01FA03F043
:102640001042F7D130782A2811D06FF02F0330785C
:10265000A0F13002092A16D8059A44F0020402EBD0
:10266000820203EB42021044761C0590EFE759F812
:10267000042B0592002A03DA504244F400540590DA
:1026800044F00204761C30782E2816D116F8010F7B
:1026900044F004042A280DD06FF02F023078A0F106
:1026A0003003092B09D807EB870302EB4303C71854
:1026B000761CF3E759F8047B761C30786C280FD031
:1026C00006DC4C2817D068280DD06A2814D104E005
:1026D000742810D07A280FD10DE044F400140AE0D9
:1026E00044F4801401E044F440147278824202D130
:1026F00004F58014761C761C307866280BD013DC29
:10270000582877D009DC002875D04528F6D046280F
:10271000F4D047281AD19DE118E0632835D0642809
:1027200079D0652812D195E1702873D008DC67282C
:10273000F1D069286FD06E280DD06F2806D1B5E092
:1027400073282CD0752875D0782874D05A461799DC
:1027500090476D1C75E1C4F30250022809D003288C
:102760000DD0D9F8001004280DD00D6009F104092E
:1027700067E1D9F80010EA17C1E90052F6E7D9F885
:1027800000100D80F2E70D70F0E719F8041B8DF8CA
:10279000001000208DF80100EA46012003E059F8FE
:1027A00004AB4FF0FF3061074FF0000102D40DE0A1
:1027B00008F101018846B9420FDA8045F8DB1AF8C2
:1027C00008100029F4D108E008F10101884681428F
:1027D000FADB1AF808100029F6D105985B46A0EB41
:1027E000080721463846179A00F094FA284400EB6F
:1027F000080507E04DE029E10DE01AF8010B5A4603
:1028000017999047B8F10108F7D25B462146384640
:10281000179A13E142E00A220092C4F302524FF0E9
:10282000000A022A08D059F804CB032A4FEAEC71B7
:102830000AD00DE029E02AE009F1070121F00702A2
:10284000F2E802C1914609E00FFA8CFC4FEAEC7104
:10285000042A03D14FFA8CFC4FEAEC71002907DA05
:102860000A460021DCF1000C61EB02012D2202E09E
:10287000220504D52B228DF80420012203E0E20773
:1028800001D02022F7E7904659E00A2102E0102209
:102890000DE010214FF0000A00910BE010224FF0E4
:1028A000000A44F004040827009203E008224FF0D5
:1028B000000A0092C4F30252022A05D059F804CB50
:1028C0000021032A08D009E009F1070121F00702DD
:1028D000F2E802C1914605E01FFA8CFC042A01D1FE
:1028E0000CF0FF0C4FF00008220728D5702806D006
:1028F000009B83F0100353EA0A0305D00EE0402248
:102900008DF80420012208E05CEA010206D03022A2
:102910008DF804208DF8050002229046009B83F07C
:10292000080353EA0A030AD15CEA010201D16207F3
:1029300005D530228DF804204FF001087F1E58285D
:1029400004D034A003900EA802900DE036A0F9E761
:1029500053466046009AFDF717FE84460398825C52
:102960000298401E029002705CEA0100F0D10298C9
:1029700006A9081A00F1200A600702D524F4803461
:1029800000E00127574502DDA7EB0A0000E0002028
:1029900000EB0A01009005984144401A0590E003BD
:1029A00006D45B462146179A059800F0B3F9054412
:1029B000002706E001A85A46C05D179990476D1C94
:1029C0007F1C4745F6DBE0030CD55B462146179A92
:1029D000059800F09FF9054404E030205A46179905
:1029E00090476D1C0099481E00900029F5DC08E016
:1029F000029802995A460078491C0291179990470B
:102A00006D1CBAF10001AAF1010AF1DC65E10000D8
:102A100009280100303132333435363738396162B4
:102A20006364656600000000303132333435363778
:102A300038394142434445460000000000F058F94F
:102A40000544761C307800287FF4ECAD19B0284698
:102A5000BDE8F08F620700D4062709F1070222F0D3
:102A6000070CFCE80223E14603F000485FEA080C8B
:102A700002D00FF2702C0DE05FEA045C02D50FF279
:102A8000682C07E05FEAC47C02D00FF2602C01E002
:102A9000AFF2700C4FF0FF3823F00043CDF850C078
:102AA00065280CD006DC452809D046281DD04728CB
:102AB0003DD13DE0662818D067287ED138E000215E
:102AC000112F01DB112000E0781CCDE9000106A9DF
:102AD0000EA8FFF7DDFCDDE90F010E9A039100213E
:102AE000009207F1010A04914DE04FF00040009779
:102AF000CDE9011006A90EA8FFF7CAFCDDE90F0217
:102B000003920E9B11990022DDF80CA00093049211
:102B100011B9791C00EB010AB7EB0A0004D4C0F12B
:102B2000FF3007F1010A0490AAEB0700019044E08E
:102B3000012F00DA01270021112F01DD112000E013
:102B40003846CDE9000106A90EA8FFF7A1FCDDE992
:102B50000F010E9A0391002104910092BA462107B9
:102B60000CD40399514500DA8A46BAF1010F05DD0C
:102B7000009AAAF10101515C302908D0B84202DA6A
:102B800010F1040F06DA0121CDE9011015E0AAF1D8
:102B90000101E9E7002805DC049901440491AAEB4E
:102BA000000102E0411C514500DD8A460499401AAB
:102BB000401C01904FF000400290200704D401987F
:102BC000504501DBCDF8048000208DF84F000298BD
:102BD0000DF14F07B0F1004F25D02B200E90029839
:102BE0004FF0020800280CDA404202902D200E908F
:102BF00007E00A210298FDF7B1FC3031029007F896
:102C0000011DB8F10001A8F10108F2DC02980028CA
:102C1000EFD1791E0E980870307800F0200040F057
:102C2000450007F8020D12A8C01B00F10708149810
:102C3000007800B1012000EB0A01019801EBE0717E
:102C400005984144401A401E0590E00306D45B46B7
:102C50002146179A059800F05DF80544149800780D
:102C600018B15A46179990476D1CE00324D55B466E
:102C70002146179A059800F04DF805441CE0049889
:102C8000002807DBDDE90301884203DD0098405C92
:102C9000179901E0179930205A469047049805F19A
:102CA0000105401C04900198401E019004D12E2083
:102CB0005A46179990476D1CBAF10001AAF1010A12
:102CC000DDDC05E017F8010B5A46179990476D1C9B
:102CD000B8F10001A8F10108F4DC5B462146179A1F
:102CE0000598ABE62D0000002B000000200000003E
:102CF0002DE9F041044600251E461746880404D4F9
:102D000005E039462020B0476D1C641EF9D52846E1
:102D1000BDE8F0812DE9F041044600251E469046AD
:102D2000C80301D5302700E02027880404D505E03A
:102D300041463846B0476D1C641EF9D52846BDE8AB
:102D4000F081000013B5044801224FF6FF73694675
:102D5000FEF7F0FF00981CBD300002202DED0C8B1B
:102D600086B0FFF7BBF8DFF868A1E9469FED59CBC5
:102D70005A4C0DF10C0B9FED5AAB5BA0FFF768FBB3
:102D80006448FFF765FB58A0FFF762FB62A0FFF7FE
:102D90005FFB00250127A8462E46504963480122C3
:102DA0005346FEF741FF217861A0FFF751FB2078E1
:102DB00001463038092802D92E2908D012E02E29E0
:102DC00005D037B16A1C09F80500D5B207E0002725
:102DD00005E008F101010BF8080001F0FF08761C7E
:102DE0000A2EDADB53A0FFF733FBB0EE4C8AF0EE8D
:102DF0006C8AB0EE489AF0EE689A4F469FED4EDB33
:102E0000002611E0B85DFDF783FB41EC1B0B53EC92
:102E10001D2B51EC190BFDF79AFA53EC1B2BFDF708
:102E2000EFF941EC190B761CAE42EBDBB8F1010572
:102E300017D45E46705DFDF76BFB41EC1B0BB0EEEB
:102E40004A0AF0EE6A0A53EC102B51EC180BFDF70E
:102E50007EFA53EC1B2BFDF7D3F941EC180B6D1EDA
:102E6000E8D553EC1A2B51EC180BFDF770FA41EC36
:102E7000100B51EC190B53EC102BFDF7C1F941EC81
:102E8000100B53EC102B9FED2E0B51EC100BFDF79C
:102E9000D0FA9FED2D1B53EC112BFDF758FA41ECA6
:102EA000100B2BA084ED020B53EC102BFFF7D0FA84
:102EB00094ED020B51EC100BFDF737FB80B2FFF7DE
:102EC00093F82448FEF75CFD23A0FFF7C1FA54E70E
:102ED00040420F0000000000000000001800022027
:102EE0009A9999999999B93F0A0D2A2A2A2A2A2A40
:102EF0002A2A2A2A2A2A2A2A2A2A2A2A2A2A2A2A32
:102F00002A2A2A2A2A2A2A2A2A2A2A2A2A2A0A0D5E
:102F100000000000B82F01200A0D20496E70757462
:102F20002064617461200A0D00000000300002205E
:102F3000256300000A0D000000000000000024408E
:102F4000000000000000F03F000000000088B340D7
:102F5000256C6600A00002200A0D4578616D706C3A
:102F6000652066696E69736865640A0D000000007B
:102F7000000200040700070000010000000100003B
:102F800000010000000100000100002000200020DE
:102F900040008000000400020600280028002800ED
:102FA00017001700280017000000000001020304AA
:102FB00001020304060708092A2054696D6572207E
:102FC000636F756E746572206672657175656E6388
:102FD000792069732031304B487A202A0A0D2A2043
:102FE0005570636F756E74696E67206D6F646520D0
:102FF00020202020202020202020202020202020D1
:10300000202A0A0D2A20496E697469616C20766154
:103010006C7565206973203020202020202020201E
:10302000202020202020202A000000004C300120F9
:103030000000022030000000702401207C300120BC
:1030400030000220B00400008024012000000000B5
:103050000024F4000000000000000000010203044E
:103060000607080931000000000000000000000011
:0C3070008087C34000000000000000004A
:04000005200101C90C
:00000001FF
