:020000042001D9
:100000007042022099020120011701208D16012063
:100010008F160120B5030120471C012000000000BD
:10002000000000000000000000000000DD010120D1
:100030002D040120000000003102012025170120BD
:10004000B3020120B3020120B3020120B302012058
:10005000B3020120B3020120B3020120B302012048
:10006000B3020120B3020120B3020120B302012038
:10007000B3020120B3020120B3020120B302012028
:10008000B3020120B3020120B3020120B302012018
:10009000B3020120B3020120B3020120B302012008
:1000A000B3020120B3020120B3020120B3020120F8
:1000B000B3020120B3020120B3020120B3020120E8
:1000C000B3020120B3020120B3020120B3020120D8
:1000D000B3020120B3020120B3020120B3020120C8
:1000E000B3020120B3020120B3020120B3020120B8
:1000F000B3020120B3020120B3020120B3020120A8
:10010000B3020120B3020120B3020120B302012097
:10011000B3020120B3020120B3020120B302012087
:10012000B3020120B3020120B3020120B302012077
:10013000B3020120B3020120B3020120B302012067
:10014000B3020120B3020120B3020120B302012057
:10015000B3020120B3020120B3020120B302012047
:10016000B3020120B3020120B3020120B302012037
:10017000B3020120B3020120B3020120B302012027
:10018000B3020120B3020120B3020120B302012017
:10019000B3020120B3020120B3020120B302012007
:1001A000B3020120B3020120B3020120B3020120F7
:1001B000B3020120B3020120B3020120B3020120E7
:1001C000B3020120B3020120DFF80CD000F09AF84E
:1001D00000480047BD1C0120704202202B4B1968CB
:1001E0000868B0E8F04F80F30988BFF36F8F4FF0D5
:1001F000000080F311887047000000000648006886
:10020000006880F3088862B661B6BFF34F8FBFF312
:100210006F8F00DF00BF00BF08ED00E0DFF80C00CB
:10022000016841F470010160704700BF88ED00E093
:10023000EFF30980BFF36F8F144B1A681EF0100F95
:1002400008BF20ED108A20E9F04F106008B44FF08D
:10025000500072B680F31188BFF34F8FBFF36F8FDA
:1002600062B602F09FFB4FF0000080F3118808BCDB
:1002700019680868B0E8F04F1EF0100F08BFB0EC26
:10028000108A80F30988BFF36F8F7047180002202F
:10029000EFF3058070470000064880470648004796
:1002A000FEE7FEE7FEE7FEE7FEE7FEE7FEE7FEE726
:1002B000FEE7FEE795170120C901012040EA01038E
:1002C0009B0703D009E008C9121F08C0042AFAD20C
:1002D00003E011F8013B00F8013B521EF9D27047D0
:1002E000D2B201E000F8012B491EFBD27047002278
:1002F000F6E710B513460A4604461946FFF7F0FF25
:10030000204610BD064C074D06E0E06840F00103B2
:1003100094E8070098471034AC42F6D3FFF758FF33
:10032000643601208436012070B515490500154852
:1003300086B005D0012D03D0022D01D0032D08D1A8
:100340000A6842F001020A600968044601F00101EE
:1003500000910D4E0120032156F82520CDE9012002
:10036000CDE9030101A9204600F062F836F8250026
:10037000012281B2204600F04BF906B070BD0000AA
:100380003038024000000240E435012007490200F5
:1003900005D0012A03D0022A01D0032A00D1084641
:1003A000034931F8221089B200F02EB90000024052
:1003B000E4350120FEE70000F0B5BFF34F8FBFF337
:1003C0006F8F19490020174B0860196841F40031FC
:1003D0001960BFF34F8FBFF36F8F12497031086000
:1003E000BFF34F8F081F104D43F6FF7410350068A0
:1003F000C0F34E31C0F3C90204EA4116104600BFF3
:1004000046EA80772F60401EFAD2491EF4D2BFF32D
:100410004F8F186840F480301860BFF34F8FBFF3E0
:100420006F8FF0BD14ED00E050EF00E0704700006A
:100430002DE9F84FDFF89CE100224FF001084FF062
:10044000030B4FF00F0A00BF0B6808FA02F42340B9
:10045000A34271D14D68022D01D0122D0FD1D508C4
:100460000E69570700EB8505A9462D6AFF0E0AFAAB
:1004700007FCBE4025EA0C052E43C9F820600F7921
:10048000550006680BFA05FC07F0030726EA0C0680
:10049000AF40374307604E68012E05D0022E03D0CF
:1004A000112E01D0122E0ED18668CF6826EA0C06D6
:1004B000AF403743876046680F79A643C7F30017FC
:1004C000974037434760C4688E6824EA0C04AE4006
:1004D0002643C6604C68E40075D53F4C256845F45A
:1004E00080452560246822F00306950704F48044C3
:1004F00000943A4C2D0F2644D6F80848DFF8E0C0A7
:100500000AFA05F7604524EA070401D100272EE026
:10051000344FB84201D1012729E0334FB84201D10D
:10052000022724E0314FB84201D103271FE0304FAA
:10053000B84202D104271AE045E02E4FB84201D15B
:10054000052714E02C4FB84201D106270FE02B4FAE
:10055000B84201D107270AE0294FB84201D1082744
:1005600005E0284FB84201D1092700E00A27AF4033
:1005700027437546C6F808784E68DEF80040F60353
:1005800024EA030400D51C43124E2C60361D4D682E
:100590003468AD0324EA030400D51C430D4F3460D6
:1005A00008374D683C68ED0224EA030400D51C437B
:1005B000084D3C600C354E682C68B60224EA0304F2
:1005C00000D51C432C60521C102AFFF43DAFBDE83F
:1005D000F88F0000003C01404438024000300140E8
:1005E000000002400004024000080240000C0240EB
:1005F000001002400014024000180240001C02409B
:10060000002002400024024042694A404261704793
:100610000AB1816170470904FBE7000001480068E6
:10062000704700000000022002480168491C016078
:100630007047000000000220074810B5016841F42F
:1006400000710160032000F049F8002000F006F876
:1006500000F015F8002010BD003C024010B5044623
:1006600000F0C2FC4FF47A71B0FBF1F000F016FF1D
:1006700000222146501E00F011F8002010BD08B5E0
:100680000020009008BD410900F01F0289000120F0
:1006900001F1E0219040C1F8000170470E4BF0B429
:1006A0001B680D46C3F30223C3F10706042E00D9CD
:1006B0000426191D072901D2002300E0DB1E0124B6
:1006C00004FA06F19C40491E2940641E99401440DA
:1006D0002143F0BC01F015B80CED00E0064900F034
:1006E000070210B54FF6FF040868044B204040EAAB
:1006F00002201843086010BD0CED00E00000FA0570
:100700001848F8B5016841F0805101600068164C46
:1007100000F080500090206840F480302060FFF7A7
:100720007DFF4FF47A76054605E000BFFFF776FFC0
:10073000401BB0420FD86068C003F7D5206840F472
:1007400000302060FFF76AFF054606E0FFF766FF0E
:10075000401BB04201D90320F8BD60688003F5D585
:100760000020F8BD40380240007000402DE9F84FED
:1007700004460078DFF828844FF000063546C007AD
:100780000ED0D8F8001021F40001C8F80010D8F8F5
:100790000010626B1143C8F80010606B00B90126AD
:1007A0002068000310D5FE48E26B8430016821F414
:1007B000401111430160E06BB0F5801F01D010B112
:1007C00002E0012600E001252068C00210D5F448AF
:1007D000226C8430016821F4400111430160206CD7
:1007E000B0F5800F01D010B102E0012600E0012534
:1007F0002068C10100D50126800657D5E848383069
:10080000016841F0805101600068DFF8989300F0C2
:1008100080500090D9F8001041F48071C9F80010A0
:10082000FFF7FCFE074604E0FFF7F8FEC01B642854
:100830007ED8D9F80000C005F6D5D94F218E68378B
:10084000386801F4407100F4407088422ED0386856
:10085000396820F4407041F480313960820739688A
:1008600021F48031396038600FD5FFF7D7FE81461B
:1008700041F2883A06E000BFFFF7D0FEA0EB090185
:100880005145D5D838688007F6D5206BC0F30121D3
:1008900003297CD0D8F8001021F4F811C8F8001012
:1008A000218E3868C1F30B01084338602078C006F8
:1008B00009D5BB488430016821F08071016001686E
:1008C000A26B114301602188B5488830490405D5E1
:1008D000626E016821F440311143016021880904EE
:1008E00005D5A26E016821F4402111430160216801
:1008F000C90305D5E26E016821F44011114301607E
:100900002168890305D5226F016821F44001114354
:1009100001602178490605D5626C016821F0030168
:10092000114301602178090607D5A26C016800E037
:10093000FEE021F00C01114301602188C90505D5B5
:10094000E26C016821F030011143016021888905C2
:1009500005D5226D016821F0C00111430160218895
:10096000490505D5626D016821F4407111430160AC
:100970002188090505D5A26D016821F44061114364
:1009800001602188C90407D5E26D016800E023E019
:1009900021F44051114301602188890405D5226E5C
:1009A000016821F44041114301602168490205D5E5
:1009B000A26F016821F08061114301602168890202
:1009C00015D5E26F016821F0006111430160E16F0C
:1009D000B1F1006F0AD00AE0734AD8F80030104035
:1009E00023F4F8120243C8F8002059E701252168D2
:1009F0000A0700D50125490305D5626F016821F07A
:100A00004071114301602168090206D5D4F88020A5
:100A1000016821F0805111430160012E4FF4403BE9
:100A20004FF0706A4FF0E04903D02068B0F1007FCA
:100A30007DD15B4E083E306820F080603060FFF76B
:100A4000EDFD074605E000BFFFF7E8FDC01B642889
:100A50006ED85348083800680001F5D42078DFF8D4
:100A600040E1C0070EF17C0E33D0606B88BBDEF82E
:100A700000C09BFAABF7DEF8002047F6C076B7FA65
:100A800087F860680CF440319AFAAAFC21FA08F160
:100A900096FAA6F7BCFA8CF8B7FA87FC9BFAABF685
:100AA00002F0706200FA0CF0B6FA86F69AFAAAF72B
:100AB00022FA08F2B14099FAA9FCA668B7FA87F7BA
:100AC0000843BA40BCFA8CF110438E403043CEF854
:100AD00000002068010303D5E16BB1F5801F05D04C
:100AE000C00241D5206CB0F5800F3DD1DEF800107A
:100AF0009BFAABF647F6C07CB6FA86F7DEF80060E4
:100B000001F4403160689CFAACFCF9409AFAAAF70B
:100B1000BCFA8CFCB7FA87F89BFAABF399FAA9F701
:100B200000FA0CF0B7FA87F7B3FA83FC01E08DE026
:100B300007E101FA0CF106F0E046E36899FAA9F240
:100B4000FE4003FA08F3B2FA82F7154A08438432EA
:100B5000BE4018433043CEF800001068616A20F0B0
:100B60001F00491E084310602068C00139D5DEF817
:100B700000209AFAAAF1DEF8003047F6C07602F0BB
:100B80007062B1FA81F199FAA9FC9BFAABF7CA40FD
:100B900096FAA6F60092BCFA8CFCB7FA87F705E045
:100BA0000838024000700040FFFCFF0F2269B6FACF
:100BB00086F861689AFAAAF603F0E040BA4001FAB2
:100BC00008F11143009AB6FA86F699FAA9F720FAC5
:100BD0000CF0B240B7FA87F61143B0400143CEF8AB
:100BE00000102068800120D504F1080147F6C0708C
:100BF0009BFAABFC90FAA0F260688AC9B2FA82F262
:100C0000BCFA8CF89AFAAAFC904099FAA9F6BCFAB8
:100C10008CFC07FA08F703FA0CF3B6FA86F63843A9
:100C2000B14018430843CEF800007B4E306840F0D6
:100C300080603060FFF7F2FC074604E0FFF7EEFC4F
:100C4000C01B64287DD830680001F7D5002D79D00D
:100C5000714D286820F080502860FFF7DFFC0646C1
:100C600005E000BFFFF7DAFC801B642869D86A48FA
:100C70000068C0438000F5D56748216888300A03C2
:100C800001D5E26B1AB1C9023CD5216CD1BB026817
:100C90009BFAABF647F6C071B6FA86F7066802F41F
:100CA000403291FAA1FC6169FA409AFAAAF7BCFABB
:100CB0008CFC9BFAABF501FA0CF1B7FA87F899FABC
:100CC000A9F7B5FA85FCA56906F0E04602FA0CF230
:100CD000B7FA87F799FAA9F3FE4011434E4A05FA8D
:100CE00008F5B3FA83F38C329E4029433143016007
:100CF0006FF0FF071168A36A21F4F85107EB032393
:100D0000194311602168890235D5E16FB1F1006F97
:100D100031D101689AFAAAF2056847F6C07601F067
:100D2000706196FAA6F7B2FA82F299FAA9F69BFADE
:100D3000ABFC21FA02F8216AB6FA86F6BCFA8CFC02
:100D400001E060E066E06269B7FA87F701FA0CF14A
:100D50009AFAAAFCBA4005F0E04599FAA9F3BCFA60
:100D60008CF7F5400A4308FA07F1B3FA83F30A4314
:100D70009D402A4302602178090736D5036802683E
:100D80009BFAABF79AFAAAFC47F6C07102F440321C
:100D9000214DB7FA87F891FAA1F7616922FA08F2B2
:100DA000BCFA8CF8B7FA87FC9BFAABF603F07063D9
:100DB00001FA0CF1B6FA86F623FA08F39AFAAAF7C2
:100DC000B24099FAA9FCE669B7FA87F78C35114366
:100DD000BB40BCFA8CF2194396403143016028684D
:100DE000E16A20F44030084328600B4C206840F052
:100DF00080502060FFF712FC054607E0FFF70EFC6D
:100E0000401B642802D90320BDE8F88F2068C04346
:100E10008000F3D40020F7E7003802402DE9F047C6
:100E2000DFF8BC910E4605466E4841F28838D9F885
:100E300000106C4C01F00F010834B1425AD2D9F8BD
:100E4000002022F00F023243C9F80020D9F8001028
:100E500001F00F01B14270D12978890705D5AA6840
:100E6000216821F0F001114321602978C90729D0B8
:100E70006968012914D00068022914D0800700286D
:100E80005BDA206820F0030008432060FFF7C6FB10
:100E90000646686801280FD00228474619D024E08A
:100EA00000688003EBE78001E9E700BFFFF7B6FBCE
:100EB000801BB84201D964E047462068C0F3810036
:100EC0000128F3D173E000BFFFF7A8FB801BB842F5
:100ED00057D82068C0F381000228F5D167E000BF31
:100EE000FFF79CFB801BB8424BD8206810F00C0F1A
:100EF000F6D15CE02978890705D5AA68216821F038
:100F0000F001114321602978C90741D0696801299E
:100F100014D00068022914D08007002845DA206820
:100F200020F0030008432060FFF778FB074668685D
:100F300001280ED0022818D026E036E00068800391
:100F4000EBE78001E9E700BFFFF768FBC11B414504
:100F500017D82068C0F381000128F5D118E000BF40
:100F6000FFF75CFBC11B41450BD82068C0F3810033
:100F70000228F5D10CE000BFFFF750FBC11B414533
:100F800002D90320BDE8F087206810F00C0FF3D1E0
:100F9000D9F8001021F00F013143C9F80010D9F839
:100FA000000000F00F00B04201D00120EAE72878ED
:100FB000400705D5E968206820F4E0500843206028
:100FC0002878000706D52869216821F4604141EAA4
:100FD000C00020600020FFF741FB0020D2E70000A6
:100FE000003C02400038024000B500F043F80849D8
:100FF000F0230A6893FAA3F3064902F0F002B3FA69
:1010000083F3DA40044B9A5CD040086000BD0000D6
:1010100008380240040002201436012000B5FFF712
:10102000E3FF07494FF4E052096892FAA2F201F493
:10103000E051B2FA82F2D140024A515CC84000BD90
:10104000083802401436012000B5FFF7CDFF0749EC
:101050004FF46042096892FAA2F201F46041B2FAD8
:1010600082F2D140024A515CC84000BD08380240BB
:10107000143601201D4930B51D48096811F00C01D6
:101080001AD01C4B042916D0082915D1174947F648
:10109000C072091F0C680D6804F03F046D020CD586
:1010A0000D68B3FBF4F092FAA2F31540B3FA83F2A1
:1010B000D54068430BE0184630BD0B68B0FBF4F038
:1010C00092FAA2F41340B4FA84F2D3405843096868
:1010D0004FF4403292FAA2F201F44031B2FA82F2B5
:1010E000D140491C4900B0FBF1F030BD0838024046
:1010F0000024F40040787D012DE9F84FE54E0446C8
:101100000078A6F10409A9F10405C0076BD0306886
:10111000C0F38100012808D03068C0F381000228A4
:101120000AD1D9F80000400206D5286880035AD5B4
:101130006068002870D056E0286820F4803028606D
:10114000286820F480202860286820F480302860F7
:10115000FFF764FA4FF4FA77804605E0FFF75EFA8E
:10116000A0EB0800B84277D828688003F6D4286836
:1011700020F4803028606068B0F5803F10D0B0F572
:10118000A02F286810D020F480202860286820F440
:10119000803028606068C8B1FFF740FA804611E0EF
:1011A000286820F4802001E040F48020286028682E
:1011B00040F48030EDE700BFFFF730FAA0EB080005
:1011C000B842D0D828688003F6D50CE0FFF726FA9D
:1011D000804605E0FFF722FAA0EB0800B842C2D82B
:1011E00028688003F6D42078800745D530684FF012
:1011F000F80810F00C0F08D03068C0F38100022806
:101200000BD1D9F80000400207D42868800717D511
:10121000E068012800D113E039E1E068002828687F
:101220001BD040F001002860FFF7F8F9074604E002
:10123000FFF7F4F9C01B642895D828688007F7D514
:1012400020692A6898FAA8F1B1FA81F1884022F061
:10125000F801014329600FE096E020F001002860CA
:10126000FFF7DCF9074604E0FFF7D8F9C01B642854
:10127000A7D828688007F7D42078000729D58548A3
:1012800061696C3000298046016811D041F001018C
:101290000160FFF7C3F9074605E000BFFFF7BEF99D
:1012A000C01B642870D8D8F800008007F6D510E07D
:1012B00021F001010160FFF7B1F9074605E000BF29
:1012C000FFF7ACF9C01B64285ED8D8F8000080078F
:1012D000F6D42078400776D56E483830016841F062
:1012E000805101600068DFF8B08100F0805000900C
:1012F000D8F8001041F48071C8F80010FFF78EF99B
:10130000074604E0FFF78AF9C01B64283CD8D8F8E8
:101310000000C005F6D55F4F6837386820F001003F
:101320003860386820F004003860386820F0010028
:101330003860FFF773F9824641F2883806E000BF53
:10134000FFF76CF9A0EB0A0141451DD8386880070A
:10135000F6D4386820F001003860A06801280FD06A
:101360000528386811D020F004003860386820F073
:1013700001003860A068C8B1FFF750F9824611E05B
:10138000386820F0040002E079E040F004003860A2
:10139000386840F00100ECE7FFF740F9A0EB0A01E4
:1013A00041456CD838688007F6D50CE0FFF736F970
:1013B000824605E0FFF732F9A0EB0A0141455ED80D
:1013C00038688007F6D4A069E8B33168C1F38101B9
:1013D00002295CD00228286820F08070286003D0A1
:1013E000FFF71CF904464DE0FFF718F9064604E044
:1013F000FFF714F9801B642841D828688001F7D4CE
:1014000047F6C0704FF0FF364FF4403790FAA0F225
:10141000D4E9090397FAA7F7B2FA82F24FF0706C99
:1014200006EB53039040D4E90761B7FA87F7E26A05
:101430009CFAACF4BB401843B4FA84F331439A40AD
:101440000143114300E020E041F00051C9F80010D1
:10145000286840F080702860FFF7E0F8044604E058
:10146000FFF7DCF8001B642809D828688001F7D54D
:101470000BE000BFFFF7D2F8001B642802D903205D
:10148000BDE8F88F28688001F4D40020F8E7012037
:10149000F6E700000838024000700040401EB0F13E
:1014A000807F10B501D3012010BD4FF0E0246061B2
:1014B0000F21601700F025F90020A06107212161AC
:1014C00010BD10B5040003D094F8690010B107E016
:1014D000012010BD002084F86800204600F026F8A6
:1014E000022084F869002068016821F00101016090
:1014F000204600F03BFA0128EBD0606A10B120468C
:1015000000F092F92068416821F490414160206820
:10151000816821F02A0181602068016841F00101A1
:1015200001602046BDE8104000F0E2B9234870B5E4
:10153000A8B0016841F001010160016801F00101FA
:101540002691016841F001010160006801251195B3
:1015500000F001002690402000906846FFF706F951
:1015600016481430016841F010010160006807243A
:10157000239500F0100026900220114E0102CDE9C3
:101580002110CDE9240421A93046FEF751FFAD0218
:10159000304621A921952594FEF74AFF21A930461E
:1015A00021952594FEF744FF012200212520FFF715
:1015B00075F82520FFF767F828B070BD3038024075
:1015C000000002402DE9F047044690F86900994672
:1015D0000D46012803D094F86900222854D125B380
:1015E0001AB394F8680001284ED00027E766012658
:1015F00094F8690084F86860222819D05FF012001E
:1016000084F86900A4F850204FF48058A4F85220C0
:101610000022B4F8520080214B46401EA4F852002C
:10162000204600F0C7FAC8B904E00120BDE8F08701
:101630003220E5E7A068404501D1206980B115F866
:10164000010B21688862B4F852000028E0D1002222
:101650004B464021204600F0ADFA38B10320E5E7C3
:1016600035F8020B2168C0F30800EBE794F8690035
:10167000322805D084F86960002084F86870D5E7C6
:10168000222084F86900F7E70220CFE7FEE7FEE7B3
:101690000A4C0EB564226846A16800F053FBDDE9F0
:1016A00000101029F6D161688842F3D10020FEF7BE
:1016B0006DFE6068401C6060ECE700008400022062
:1016C000084C4FF47A7564222168A06800F086FB0C
:1016D00005A000F0B9FA2068401C2060284600F000
:1016E00020FBF0E7840002200A0D4D6573736167EB
:1016F000652070726F64756365640A0D00000000F8
:101700007047090700284FEA116106DA00F00F0060
:1017100000F1E02080F8141D704700F1E02080F80F
:101720000014704710B500F087FBBDE81040FEF7CD
:101730007BBF70B5022492B0600501250DF1200C2D
:10174000CDE906402E046846192109230B934FF476
:10175000D8728CE81600CDE90056FFF7CDFC00B139
:10176000FEE7FEF7CDFF00B1FEE70EAD00214FF41E
:10177000A0524FF4805385E80E000F20CDE90C04F1
:1017800007210CA8FFF74AFB002800D0FEE712B0A3
:1017900070BD0000104A30B51048146800210F4B8E
:1017A00044F470041460083305680D4A0D4C45F08C
:1017B0000105056019600368051D1340074A0360B1
:1017C0000C322C600568044C074B25F48025803CC6
:1017D00005601160236030BD88ED00E000380240F4
:1017E000FFFFF6FE103000240000012010B5FEF7C8
:1017F000E3FDFEF721FFFFF79CFF00F0A1F8BDE835
:10180000104001A000F020BA0A0D53797374656D81
:1018100020696E697469616C697A652073756363A8
:101820006573730A0D00000090F82410C90706D0F4
:101830000168836A4A6822F400321A434A6090F8C9
:101840002410890706D50168C36A4A6822F48032E9
:101850001A434A6090F82410490706D50168036BC3
:101860004A6822F480221A434A6090F8241009073B
:1018700006D50168436B4A6822F400421A434A6065
:1018800090F82410C90606D50168836B8A6822F493
:1018900080521A438A6090F82410890606D50168A0
:1018A000C36B8A6822F400521A438A6090F82410AD
:1018B000490611D50168036C4A6822F480121A4364
:1018C0004A60016CB1F5801F06D10168436C4A681B
:1018D00022F4C0021A434A6090F82410090606D583
:1018E0000168826C486820F400201043486070470B
:1018F00070B5002504466FF07E46C5660068006836
:10190000000707D5002233464FF40011204600F0AF
:1019100051F958B920680068400709D500223346BC
:101920004FF48001204600F045F908B1032070BD56
:10193000012084F86900002084F8685070BD000020
:101940000948002130B4074C4FF4E1330C22046005
:10195000C0E90131C1600161C0E9052130BCFFF778
:10196000B0BD000000100140940002202DE9F047B6
:1019700004468068834B844F2668D4E90415E269E5
:101980000843D6F800C0102115430022284315460D
:101990000CEA030C7D4B4CEA000CC6F800C04FF477
:1019A00000492068D4F80CC0466826F4405646EA40
:1019B0000C0646602668D4F82080A069D6F808C0D6
:1019C00040EA08002CF4306C4CEA000CC6F808C061
:1019D0002068B8420AD11B6813F0030352D0012BD0
:1019E0007AD0022B76D0032B79D177E0684EB042C3
:1019F0000AD11B6813F00C036AD0042B6CD0082B9F
:101A000068D00C2B6BD169E0624EB0420AD11B68E2
:101A100013F030035CD0102B5ED0202B5AD0302B2B
:101A20005DD15BE05C4EB0420AD11B6813F0C0038D
:101A30004ED0402B50D0802B4CD0C02B4FD14DE0FE
:101A4000564EB0420DD11B6813F4407340D0B3F52D
:101A5000807F41D0B3F5007F3CD0B3F5407F3ED1CD
:101A60003CE04F4EB0420FD11B6813F4406309D0E5
:101A7000B3F5806F30D0B3F5006F2BD0B3F5406F66
:101A80002DD12BE001212AE0464EB0420DD11B683A
:101A900013F440531CD0B3F5805F1DD0B3F5005F45
:101AA00018D0B3F5405F1AD118E03F4EB04216D1BE
:101AB0001B6813F440430BD0B3F5804F0CD04B455B
:101AC00008D0B3F5404F0AD108E005E002E0FFE797
:101AD000002104E0022102E0042100E00821E6697F
:101AE0004E4527D109291DD2DFE801F00508101C59
:101AF000131C1C1C1600FFF791FA01E0FFF7A4FA73
:101B000061684000B0FBF1F082B20CE027496068E8
:101B100005E0FFF7AFFAF3E760684FF48031B1FBFF
:101B2000F0F0F1E70125216822F00F00C2F3420234
:101B300010431BE0092920D2DFE801F005080B1F44
:101B4000111F1F1F1A00FFF769FA0AE0FFF77CFA5E
:101B500007E0174A6168B2FBF1F189B20BE0FFF7C9
:101B600089FAD4E90012B0FBF2F080B2C86005E057
:101B70006168B9FBF1F1C16000E001252846BDE8CC
:101B8000F0870000F369FFEF001001409038024039
:101B90000044004000480040004C0040005000401D
:101BA0000014014000780040007C00400048E8013B
:101BB0000024F4002DE9F0471D4690460E460446E9
:101BC000FEF72CFDB8F1000F07464FF000094FF06B
:101BD000010808D030E0681C05D095B1FEF71EFD65
:101BE000C01BA8420DD22068C06936EA0000F2D1BD
:101BF00027E0681C20D025B1FEF710FDC01BA842CD
:101C00001AD32068036823F0800303602068036808
:101C100023F0200303602068036823F480730360CB
:101C20002068836823F00103836084F869800320BF
:101C300084F86890BDE8F0872068C06936EA000043
:101C4000D7D00020F6E7FEE7014A024900F013B8BA
:101C5000991C01209000022002E008C8121F08C150
:101C6000002AFAD170477047002001E001C1121F1D
:101C7000002AFBD170472DE9F04116460F46044675
:101C8000002503E03946B047641C6D1C207800280D
:101C9000F8D12846BDE8F08113B5044801224FF67B
:101CA000FF736946FFF78EFC00981CBD940002206C
:101CB000EFF30580002800D0012070478CB0FFF7BB
:101CC00095FD0020FEF730FB1049D1E90001CDE978
:101CD0000A0100210AA800F030F80D49142288609A
:101CE00068460A490831FEF7E9FA0021684600F023
:101CF000ADF80649142205A81C31FEF7DFFA0021D1
:101D000005A800F0A3F800F013F8FEE72436012040
:101D100084000220842801464FF0000000D0C81C37
:101D2000704710B500B9012000F00CFD002010BD77
:101D300010B500F0F7FD002010BD0022D0E9000131
:101D400000F0CCBE2DE9FF410D004FF00006074624
:101D5000CDE901651ED0501C344603961FD002B158
:101D60001446FFF7A5FF69464FF01008E8B1091DBA
:101D7000284603AA01F00BF9012813D00096039816
:101D8000F0B115494FF080500860BFF34F8FBFF39B
:101D90006F8F15E0802031462A46009012E04FF008
:101DA000FF34DEE7CDF80080E9E700232246091D75
:101DB000284600F0C9FE012808D054B14020009008
:101DC0009DE8070087E80700BDE8FF81CDF80080A7
:101DD000F6E70020F3E7000004ED00E037B582B03D
:101DE000054614004FF00000009000D10124FFF7D9
:101DF0005FFF4FF0000388B103A96A46284601F04F
:101E000063F8012811D1009890B10A494FF0805031
:101E10000860BFF34F8FBFF36F8F09E003A922461D
:101E2000284600F099FF012802D0FF2005B030BD00
:101E30000020FBE704ED00E010B501F013FA0128E3
:101E400003D0BDE8104000F031BE10BD30B585B004
:101E50000D460446B0F90800FFF75CFF0021009032
:101E600004AA2B46CDE901210391228AD4E900106E
:101E700092B201F013F9012802D0002005B030BD64
:101E80000498FBE770B50B4C054620684560E06898
:101E90002168854205D2606B091DBDE8704000F0E5
:101EA00053BB206B091D00F04FFBA06A854200D296
:101EB000A56270BD1800022010B500F069FB134C3C
:101EC0002068A0B9124800F031FB1148143000F02E
:101ED0002DFB0F480022A0600C211430E0600A2086
:101EE00000F0FCFD206030B10AA100F0FBFBBDE872
:101EF000104000F071BB72B6502080F31188BFF320
:101F00004F8FBFF36F8F62B6FEE7000050000220D4
:101F100048020220546D72510000000070B5124C4E
:101F2000124E1AE000F036FD3068D0B101F0A6FA8A
:101F300000F02EFBF068C568281D00F0E5FAA068E7
:101F4000401EA0606068401E606000F045FB286B8A
:101F500000F058FB284600F055FB60680028E1D1EE
:101F600070BD01F08BFAF8E7180002202002022071
:101F700030B4026C0B46002A0BD0C168446811448F
:101F8000C160A14201D30168C160184630BCFEF7B0
:101F900095B930BC704770B51646026C00250446F2
:101FA00082B1C6B1E068FEF789F9E168206C226869
:101FB000091AE160914202D26168081AE060022EBB
:101FC00016D01AE02068C0B9606801F0C7F905466C
:101FD0000020606011E0A068FEF770F9D4E90110FC
:101FE000226C1044A060884207D32068A06004E0FF
:101FF000A06B10B1A06B401EA063A06B401CA0633F
:10200000284670BD11484FF4705110B5420706D0F4
:102010000E49C01D20F00700411AC1F570510C4C4B
:10202000002301440839A4F1100221F00701C4E99A
:1020300000030C1A11604B600B60C0E9001494603F
:102040004FF000415460D16010BD000070020220CA
:102050007C000220074C4FF08056074DFFF75EFFD3
:1020600020680128FAD92E60BFF34F8FBFF36F8F1E
:10207000F4E700004401022004ED00E030B511490E
:1020800000E011460A688242FBD34B685C18844228
:1020900003D14468084623444B6043681D189542A9
:1020A00009D1084C103C2468A24209D052681A4455
:1020B00042600A6812680260814200D0086030BD48
:1020C0000460F9E77C00022070B50D4D914241603B
:1020D0004FF00004006106D88169D21A8A4206D204
:1020E000011DE86807E09A4203D2994201D3012416
:1020F00003E0011DA86800F027FA204670BD00002B
:102100005000022030B52F4D87B050E004980028D1
:102110004DDB069C606910B1201D00F0F5F902A8A6
:1021200000F0B8F8024604980A2840D2DFE800F030
:102130000505053F293C05053F290598A16903468A
:1021400001442046FFF7C0FF012830D1616A2046D4
:102150008847E06901282AD10020009005980023D3
:10216000A16942181946204601F014FAF8B972B66E
:10217000502080F31188BFF34F8FBFF36F8F62B68B
:10218000FEE70598A06128B1811813462046FFF7A5
:102190009BFF0CE072B6502080F31188BFF34F8F85
:1021A000BFF36F8F62B6FEE7204600F02BFA0023E4
:1021B000286804A91A4600F0C7FC0028A6D107B079
:1021C00030BD0000500002202DE9FC410E460546BE
:1021D00000F0E0FB01A800F05DF80446019818B19A
:1021E00001F04CF9BDE8FC81002E204E2DD1A54216
:1021F0002BD801F043F9B0682746C068C468201D99
:1022000000F082F9E069012811D1A0692B463A4615
:1022100041192046FFF758FF012808D100202A461F
:10222000034601460090204601F0B4F918B1616AF6
:1022300020468847D6E772B6502080F31188BFF356
:102240004F8FBFF36F8F62B6FEE73068291B00F037
:102250005DFA01F013F90028C4D105494FF0805010
:102260000860BFF34F8FBFF36F8FBBE750000220B2
:1022700004ED00E00648016B096829B1016BC968EB
:10228000C9684968816270474FF0FF31FAE7000082
:102290001800022070B5054600F0F2FF064E044615
:1022A0007068844203D200F009F8012000E00020A9
:1022B00028602046746070BD50000220F8B51A4DA9
:1022C0001FE0C068C4680668201D00F01DF9616A3F
:1022D00020468847E069012813D1A0693044B04204
:1022E00006D92461211D6060A86800F02DF908E07E
:1022F00000203246034601460090204601F04AF98C
:1023000038B1A86801680029DBD1E968C5E9021085
:10231000F8BD72B6502080F31188BFF34F8FBFF322
:102320006F8F62B6FEE70000500002200A48406846
:10233000401C72B64FF0500080F3118805D0BFF3F7
:102340004F8FBFF36F8F62B6FEE7BFF34F8FBFF3C0
:102350006F8F62B6FEE7000060000220074CA068A5
:10236000016841B1C0680021D0F80000FFF72CFFE0
:10237000FFF7C8FEF3E701210020F7E75000022035
:1023800070B5044600F004F904F124050AE0606A1F
:1023900058B1284601F036F808B100F009FAA06CEF
:1023A000401EA064A06C0028F1DC4FF0FF36A6644C
:1023B00000F012F900F0ECF804F110050AE02069D1
:1023C00058B1284601F01EF808B100F0F1F9606C30
:1023D000401E6064606C0028F1DC6664BDE87040FB
:1023E00000F0FAB82DE9F0410027044600F0D2FAD7
:1023F000344E306808B9FFF705FEF06804424FD14B
:10240000E4B30834600710D004F00700C0F10800FE
:102410000444600709D072B6502080F31188BFF3DE
:102420004F8FBFF36F8F62B6FEE73CB37068844294
:1024300036D82448103001460D6801E028460D4684
:102440006968A14202D229680029F7D131688D421A
:1024500026D007682968016008376868011B1029C1
:1024600011D9281942070AD072B6502080F311887A
:10247000BFF34F8FBFF36F8F62B6FEE710E041608E
:102480006C60FFF7FBFD69687068401A7060B268A5
:10249000904200D2B0600020F2681143C5E900010B
:1024A00000F0ECFF780709D072B6502080F3118855
:1024B000BFF34F8FBFF36F8F62B6FEE73846BDE8BC
:1024C000F08100006C0002200449086818B1086817
:1024D000026D521C02650868704700001800022057
:1024E00070B5031F1D1F2C1F4FF080761E601C3B14
:1024F0002960044D191F256044381A606FF00202EC
:102500000A6070BD2D230120D0E9013201699A6073
:10251000D0E901235A604A68824201D182684A6048
:10252000002202610868401E0860704700F108013F
:102530004FF0FF330022C0E90021C0E90231016100
:10254000704700210161704730B50B685A1C02D0FA
:1025500000F1080202E0026904E02246546825689E
:102560009D42FAD953684B6099608A605160086156
:102570000168491C016030BD42684A6093688B6005
:1025800093685960916008610168491C0160704757
:1025900072B6502080F31188BFF34F8FBFF36F8F57
:1025A0000B4962B64868401C486001280ED10948B2
:1025B000006810F0FF0F09D072B6502080F3118828
:1025C000BFF34F8FBFF36F8F62B6FEE77047000017
:1025D0006000022004ED00E00949486828B1401E6F
:1025E000486001D180F31188704772B6502080F3A3
:1025F0001188BFF34F8FBFF36F8F62B6FEE7000005
:102600006000022070B500282BD0164DA0F1080400
:102610006068E968084209D172B6502080F31188D9
:10262000BFF34F8FBFF36F8F62B6FEE722684AB1E8
:1026300072B6502080F31188BFF34F8FBFF36F8FB6
:1026400062B6FEE78843606000F0A4F960686968DC
:10265000084468602046FFF711FDBDE8704000F0B7
:102660000DBF70BD6C00022006484FF47A7307223C
:1026700001684FF0E020B1FBF3F1491E41610261B6
:10268000704700000400022010B5FDF701FE134959
:10269000102810D300F1E0200A7890F8F00390425F
:1026A00009D272B6502080F31188BFF34F8FBFF369
:1026B0006F8F62B6FEE70A488968006800F4E06040
:1026C000884209D972B6502080F31188BFF34F8F2A
:1026D000BFF36F8F62B6FEE710BD000060000220FE
:1026E0000CED00E0084B5FF0000210B553F83240EB
:1026F0001CB1521C082AF9D310BD03EBC20443F8E5
:102700003210606010BD00000401022070B50D465B
:102710000446FFF73DFF616C0020491C00D1606456
:10272000A16C491C00D1A064FFF756FFA06B20B933
:1027300004F12400294600F075F82046BDE87040F9
:10274000FFF71EBE70B5020024D0174CE06A48B1F6
:1027500072B6502080F31188BFF34F8FBFF36F8F95
:1027600062B6FEE700F016F9E16820688D18001DDA
:10277000FFF7CAFE38B922680121206992F82C209F
:102780009140884320612846FFF77CFB00F076FEED
:10279000002807D105494FF080500860BFF34F8FE4
:1027A000BFF36F8F70BD00001800022004ED00E041
:1027B00001490120C86170471800022070B50D461C
:1027C00050B1164C21681831FFF7BEFE2068001D7D
:1027D000FFF79AFE50B111E072B6502080F31188D5
:1027E000BFF34F8FBFF36F8F62B6FEE72268012100
:1027F000206992F82C20914088432061681C05D004
:10280000E0682844BDE87040FFF73CBB2168BDE8A4
:1028100070400348091DFFF7AFBE000018000220FA
:102820003402022070B50D4650B1114C21681831A8
:10283000FFF7A2FE2068001DFFF766FE50B111E011
:1028400072B6502080F31188BFF34F8FBFF36F8FA4
:1028500062B6FEE722680121206992F82C2091409F
:1028600088432061E0682844BDE87040FFF70ABB58
:102870001800022070B5002804463AD01D4DE06AC9
:102880002968C96A884234D2A069002804DB286814
:10289000C06AC0F10800A061E16A174E606901EBEF
:1028A000810106EB8101884220D1201DFFF72CFE1B
:1028B0004FF0010150B9E06A00EB800256F8222087
:1028C00022B92A6901FA00F082432A612868C06AA5
:1028D000E0622A6981401143296100EB8000211DDB
:1028E00006EB8000BDE87040FFF746BE2868C06A6E
:1028F000E06270BD180002204401022028B108499E
:102900000A6A0260C9684160704772B6502080F35D
:102910001188BFF34F8FBFF36F8F62B6FEE70000E1
:10292000180002201FB5002418488022234615A154
:10293000009401940294039400F0B0FB012803D1A9
:1029400000F000FE01280BD000281AD172B65020EA
:1029500080F31188BFF34F8FBFF36F8F62B6FEE72E
:1029600072B6502080F31188BFF34F8FBFF36F8F83
:1029700062B6074801214161C460BDE81F4000F014
:1029800041B81FBD49444C450000000055200120BE
:10299000180002200248C16A491CC1627047000049
:1029A000180002201548C16A11B10121C1617047A8
:1029B0000021C16112490269B2FA82F2C2F11F021A
:1029C00002EB820251F822306BB101EB820101F17E
:1029D00008034A6852684A609A4201D152684A60C4
:1029E000D1680160704772B6502080F31188BFF340
:1029F0004F8FBFF36F8F62B6FEE700001800022012
:102A0000440102202549FF201CB50A780192087074
:102A100008788DF800009DF800209DF8000002F075
:102A2000F002824209D072B6502080F31188BFF3C1
:102A30004F8FBFF36F8F62B6FEE79DF8002007202F
:102A4000174C02F050022270A06005E09DF80020B3
:102A500052008DF80020401E9DF800201206F5D48B
:102A6000000200F4E060A060019808700D48016861
:102A700041F470010160016841F070410160FFF7AD
:102A8000F3FD00206060FDF7C9FB0748016841F0D5
:102A900040410160FDF7B2FB00201CBD00E400E0F6
:102AA0006000022020ED00E034EF00E072B650201C
:102AB00010B580F31188BFF34F8FBFF36F8F62B6ED
:102AC00000F0E4FB18B104494FF08050086000208A
:102AD00080F3118810BD000004ED00E02DE9F04105
:102AE000050017460E4617D006B305FB06F0401C3E
:102AF0005430FFF777FCE8B10446CEB104F154003E
:102B0000206001212046C4E90F5600F0D9F8204684
:102B100084F85070BDE8F08172B6502080F31188BF
:102B2000BFF34F8FBFF36F8F62B6FEE70020DFE782
:102B30002460E6E772B6502080F31188BFF34F8F10
:102B4000BFF36F8F62B6FEE72DE9FF4704009A4698
:102B500082B089464FF0000703D0B9F1000F0AD0C8
:102B600015E072B6502080F31188BFF34F8FBFF38A
:102B70006F8F62B6FEE7206C48B172B6502080F3CA
:102B80001188BFF34F8FBFF36F8F62B6FEE700F07F
:102B900069FB4A4E4FF080554FF0000858B9049831
:102BA00048B172B6502080F31188BFF34F8FBFF346
:102BB0006F8F62B6FEE7FFF7EBFCA06B60B3E768D0
:102BC00049462046FFF7D4F9BAF1000F12D0606AE7
:102BD000E76048B104F1240000F014FC20B1356036
:102BE000BFF34F8FBFF36F8FFFF7F6FC012006B0E6
:102BF000BDE8F087A06B2168401EA06311B9FFF704
:102C000063FC606020690028EED004F1100000F041
:102C1000F9FB0128E3D0E7E7049808B11FB106E00B
:102C2000FFF7DAFC1FE06846FFF768FE0127FFF7B1
:102C3000D3FCFFF7AFFEFFF7ABFC606C401C01D18B
:102C4000C4F84480A06C401C01D1C4F84880FFF750
:102C5000C3FC04A9684600F0E7F930B12046FFF74D
:102C60008FFB00F00BFC0020C1E7FFF791FCA06B8D
:102C700038B1FFF7B1FC2046FFF782FB00F0FEFB06
:102C800099E7FFF7A9FC206830B9FFF781FC60687D
:102C9000FFF7F0FDFFF7A0FC049904F12400FFF713
:102CA0008DFD2046FFF76CFB00F0E8FB002882D189
:102CB0003560BFF34F8FBFF36F8F7CE704ED00E00B
:102CC0002DE9F04704008A4629D0FFF761FC21680E
:102CD0000025D4E90F23D4F840C004F110081046B1
:102CE0000E46401E4FF0FF3902FB031200FB0C1092
:102CF000BAF1000FA563C4F84490A660C4F84890E8
:102D00006260E06015D04046FFF710FC04F124003B
:102D1000FFF70CFCFFF760FC0120BDE8F08772B6FE
:102D2000502080F31188BFF34F8FBFF36F8F62B6CF
:102D3000FEE720690028EDD0404600F063FB012843
:102D4000E8D1044900070860BFF34F8FBFF36F8FCE
:102D5000E0E7000004ED00E02DE9FF4704001D4618
:102D600082B08A464FF0000803D0BAF1000F0AD0B3
:102D700015E072B6502080F31188BFF34F8FBFF378
:102D80006F8F62B6FEE7206C48B172B6502080F3B8
:102D90001188BFF34F8FBFF36F8F62B6FEE7022D2E
:102DA0000CD1E06B012809D072B6502080F3118855
:102DB000BFF34F8FBFF36F8F62B6FEE700F052FA9A
:102DC000404F4FF080564FF0000958B9049848B171
:102DD00072B6502080F31188BFF34F8FBFF36F8F0F
:102DE00062B6FEE7FFF7D4FBA06BE16B884207D326
:102DF000022D05D00498E8B1B8F1000F1DD021E0F4
:102E00002A4651462046FFF7C6F8616A31B104F1FF
:102E1000240000F0F7FA012801D005E020B13E605F
:102E2000BFF34F8FBFF36F8FFFF7D6FB012006B0C4
:102E3000BDE8F087FFF7D0FB20E06846FFF75EFDB6
:102E40004FF00108FFF7C8FBFFF7A4FDFFF7A0FB59
:102E5000606C401C01D1C4F84490A06C401C01D1AE
:102E6000C4F84890FFF7B8FB04A9684600F0DCF806
:102E700030B12046FFF784FA00F000FB0020D6E7CF
:102E8000FFF786FBA06BE16B884213D1FFF7A4FB31
:102E9000049904F11000FFF791FC2046FFF770FA47
:102EA00000F0ECFA00289DD13E60BFF34F8FBFF3D6
:102EB0006F8F97E7FFF790FB2046FFF761FA00F06E
:102EC000DDFA8FE704ED00E02DE9F04104001E4635
:102ED0001746884603D0B8F1000F0AD015E072B645
:102EE000502080F31188BFF34F8FBFF36F8F62B60E
:102EF000FEE7206C48B172B6502080F31188BFF312
:102F00004F8FBFF36F8F62B6FEE7022E0CD1E06BDE
:102F1000012809D072B6502080F31188BFF34F8F7B
:102F2000BFF36F8F62B6FEE7FFF7AEFB72B65020BD
:102F3000EFF3118580F31188BFF34F8FBFF36F8FCD
:102F400062B6A06BE16B884206D3022E04D000204B
:102F500085F31188BDE8F081324641462046FFF7EF
:102F60001AF8A06C401C04D0A06C401CA064012086
:102F7000EEE7606A0028FAD004F1240000F042FA7B
:102F80000028F4D0002FF2D001203860EFE72DE9BF
:102F9000F041040016460F4601D057B115E072B655
:102FA000502080F31188BFF34F8FBFF36F8F62B64D
:102FB000FEE7206C48B172B6502080F31188BFF351
:102FC0004F8FBFF36F8F62B6FEE7FFF75DFB72B600
:102FD0005020EFF3118580F31188BFF34F8FBFF3BB
:102FE0006F8F62B6A06B68B139462046FEF7C0FF0E
:102FF000A06B401EA063606C401C07D0606C401C3E
:103000006064012085F31188BDE8F0812069002803
:10301000F7D004F1100000F0F5F90028F1D0002EEF
:10302000EFD001203060ECE770B504000D4619D0F8
:1030300015B3FFF7ADFA184A2868D168431C0FD0C2
:103040002368126A934202D062688A421ED962687B
:10305000891A81421AD2401A28602046FFF74EFC96
:10306000002414E072B6502080F31188BFF34F8F14
:10307000BFF36F8F62B6FEE772B6502080F31188FF
:10308000BFF34F8FBFF36F8F62B6FEE70124FFF7E8
:10309000A3FA204670BD0000180002202DE9FF5F52
:1030A0005FEA000B15468A46DDE90F900E9E0BD0B5
:1030B000082E13D372B6502080F31188BFF34F8FC0
:1030C000BFF36F8F62B6FEE772B6502080F31188AF
:1030D000BFF34F8FBFF36F8F62B6FEE74FEA8501F4
:1030E000884610B90846FFF77DF9070020D05C201C
:1030F000FFF778F90400384618D0A522414620632E
:10310000FDF7EEF8206B6FF0030101EB8501084439
:1031100020F0070778070ED072B6502080F3118890
:10312000BFF34F8FBFF36F8F62B6FEE7FFF76AFA08
:103130004FF0FF348BE000205146354622180B5CDF
:1031400082F834300A5C12B1401C1028F6D30020FB
:1031500084F84300082D00D30725E562C4E9135025
:103160008046201DFFF7EDF904F11800FFF7E9F99B
:103170002461C5F108026462A261C4F8548084F835
:1031800058805946039A3846FFF7AAF9B9F1000F5B
:10319000206001D0C9F80040FFF7FAF92E4DDFF8A2
:1031A000BC80A868401CA860286810B1686940B35A
:1031B0002CE02C60A868012828D1002707EB8701A4
:1031C00008EB8100FFF7B2F97F1C082FF6D32348E4
:1031D000A030FFF7ABF92148B430FFF7A7F91F483B
:1031E000C830FFF7A3F91D48DC30FFF79FF91B48F3
:1031F000F030FFF79BF91948A0302863143068635A
:1032000004E02868C06AB04200D82C600121686AD6
:10321000401C68626064E06A2A6981401143296148
:1032200000EB800108EB8100211DFFF7A5F90124C7
:10323000FFF7D2F9686950B12868C06AB04206D277
:10324000074920070860BFF34F8FBFF36F8F04B0AB
:103250002046BDE8F09F0000180002204401022033
:1032600004ED00E00548416919B1C06A18B10020B9
:1032700070470120704702207047000018000220AC
:103280000148C06870470000180002202DE9F04195
:10329000304CE06A002640B1A069401CA061E069A2
:1032A00000B101263046BDE8F081E068401CE060D6
:1032B000E768AFB9206B006848B172B6502080F360
:1032C0001188BFF34F8FBFF36F8F62B6FEE7216B9C
:1032D000606B20636163206A401C2062FEF7CAFFB6
:1032E000DFF87480A06A874209D3206B006880B140
:1032F000206BC068C568686887420DD2A0622068EC
:10330000C06A00EB800158F821000128C7D90126C6
:10331000C5E74FF0FF30F1E7281DFFF7F5F8A86A81
:1033200018B105F11800FFF7EFF8E86A01212269EA
:1033300081401143216100EB800108EB8100291DD0
:10334000FFF71AF92068E96AC06A8142CDD30126E5
:10335000CBE70000180002204401022070B50446AB
:103360004FF00001F0B3254D2868844209D072B6B1
:10337000502080F31188BFF34F8FBFF36F8F62B679
:10338000FEE7206D38B1E36C401EE26A20659A4288
:1033900031D050B12FE072B6502080F31188BFF3C6
:1033A0004F8FBFF36F8F62B6FEE7201DFFF7ACF8BB
:1033B000134900284FF001000AD1E26A02EB8203B0
:1033C00051F8233023B92B6900FA02F293432B61A1
:1033D000E26CC2F10803A361E2622B6990401843DA
:1033E000286100E007E002EB820001EB8000211D74
:1033F000FFF7C2F80121084670BD00001800022046
:10340000440102202DE9F041C068C468ACB104F168
:1034100018000746FFF778F8164D0126E86AB0B1A4
:1034200015483946FFF7A8F8E06A2968C96A884252
:103430001ED90120EE61BDE8F08172B6502080F304
:103440001188BFF34F8FBFF36F8F62B6FEE7201D69
:10345000FFF75AF8E06A2A6906FA00F11143296178
:10346000054900EB8000C83901EB8000211DD9E738
:103470000020E0E7180002200C0202202DE9F047AE
:103480002D4CE06A002638B1FFF782F8E06A401E52
:10349000E062E06A50B149E072B6502080F31188D2
:1034A000BFF34F8FBFF36F8F62B6FEE7234D01204E
:1034B000A16879B3A5F1C80980462868E8B1E86831
:1034C000C76807F11800FFF71FF8381DFFF71CF851
:1034D000F96A226908FA01F01043206101EB8101C9
:1034E00009EB8100391DFFF747F82068F96AC06AC7
:1034F0008142E2D3C4F81C80DFE7A06958B1454699
:10350000A06940B1FFF7C2FE00B1E561A069401EAD
:10351000A061F5E70AE0E069012807D10849000742
:1035200001260860BFF34F8FBFF36F8FFFF754F88A
:103530003046BDE8F0870000180002200C0202208F
:1035400004ED00E01FB5FEF7B7FC0E48006868B157
:1035500000200290022103900346CA01CDE9001029
:103560000B4809A1FFF79AFD002809D172B6502037
:1035700080F31188BFF34F8FBFF36F8F62B6FEE702
:1035800004B010BD50000220546D722053766300C9
:103590005D230120FEB5104C1F460346089D002008
:1035A0002668002E0ED08DE80E0006290DDAFFF7F2
:1035B00059FE02284FF0000305D00022206869461A
:1035C000FFF7CAFBFEBD2A46F8E700233A466946E4
:1035D0003046FFF779FCFEBD5000022000020004D7
:1035E00007000700000100000001000000010000CA
:1035F00000010000010000200020002040008000A9
:103600000004000206002800280028001700170008
:103610002800170000000000010203040102030457
:103620000607080901000000020000005C360120C6
:1036300091160120FFFF0000000000008000000044
:1036400054360120C1160120FFFF000000000000D9
:10365000800000005150726F6400000051436F6E93
:103660007300000084360120000002209400000056
:10367000581C01201837012094000220DC41000072
:10368000681C0120000000000024F400000000007D
:103690000000000001020304060708090000000002
:1036A000000000000000000000000000000000001A
:1036B000000000000000000000000000000000000A
:1036C00000000000FFFFFFFF0000000000000000FE
:1036D00000000000000000000000000000000000EA
:1036E0000000000000000000AAAAAAAA0000000032
:1036F00000000000000000000000000000000000CA
:1037000000000000000000000000000000000000B9
:083710000000000000000000B1
:04000005200101C90C
:00000001FF
