:020000042001D9
:1000000018120220DD010120E5010120E701012095
:10001000E9010120EB010120ED01012000000000B9
:10002000000000000000000000000000EF010120BF
:10003000F101012000000000F3010120D13B01206B
:10004000F7010120F7010120F7010120F70101204C
:10005000F7010120F7010120F7010120F70101203C
:10006000F7010120F7010120F7010120F70101202C
:10007000F7010120F7010120F7010120F70101201C
:10008000F7010120F7010120F7010120F70101200C
:10009000F7010120F7010120F7010120F7010120FC
:1000A000F7010120F7010120F7010120F7010120EC
:1000B000F7010120F7010120F7010120F7010120DC
:1000C000F7010120F7010120F7010120F7010120CC
:1000D000F7010120F7010120F7010120F7010120BC
:1000E000F7010120F7010120F7010120F7010120AC
:1000F000F7010120F7010120F7010120F70101209C
:10010000F7010120F7010120F7010120F70101208B
:10011000F7010120F7010120F7010120F70101207B
:10012000F7010120F7010120F7010120C10D012095
:10013000F7010120F7010120F7010120F70101205B
:10014000F7010120F7010120F7010120F70101204B
:10015000F7010120F7010120F7010120F70101203B
:10016000F7010120F7010120F7010120F70101202B
:10017000F7010120F7010120F7010120F70101201B
:10018000F7010120F7010120F7010120F70101200B
:10019000F7010120F7010120F7010120F7010120FB
:1001A000F7010120F7010120F7010120F7010120EB
:1001B000F7010120F7010120F7010120F7010120DB
:1001C000F7010120F7010120DFF80CD000F040F822
:1001D00000480047D15001201812022006488047ED
:1001E00006480047FEE7FEE7FEE7FEE7FEE7FEE71C
:1001F000FEE7FEE7FEE7FEE7D53B0120C90101204F
:1002000040EA01039B0703D009E008C9121F08C098
:10021000042AFAD203E011F8013B00F8013B521E18
:10022000F9D2704730B50B46014600202022012448
:1002300009E021FA02F59D4205D303FA02F5491BB4
:1002400004FA02F52844151EA2F10102F1DC30BDCA
:10025000064C074D06E0E06840F0010394E8070013
:1002600098471034AC42F6D3FFF7B2FF4473012035
:10027000647301201CB5044600F044F9034600F005
:1002800031F902460020CDE900040648064C00681A
:1002900000EB800101EBC00104EB8101C96D02F0AC
:1002A00043FE1CBD34000220080102200648C02382
:1002B00030B408240522046061034361C261C16255
:1002C00030BC01F07FBB00008400022030B40A4C37
:1002D0000A4B246804EB440403EB84039B689C886A
:1002E0001D68E41DDB88E408203A14FB02F203FBDE
:1002F000025230BC00F07ABD34000220F00102202E
:1003000003480068816941F0010181617047000084
:10031000080102202DE9F0470027044615468946CA
:1003200010463A4600E0521C10F8011B0029FAD191
:1003300000F0D8F8DFF89CC0012B274EDCF8001045
:1003400001EB410106EB810189688988B0FBF1F07E
:1003500002D0022B09D104E0801A484304EB50007C
:1003600002E0801A4843001B84B247F6FF71601E0A
:10037000884200D30124E04600F0B4F80146D8F8E2
:10038000000000EB400006EB80008068808807FBDF
:10039000101189B2814213D3012012E04946204650
:1003A000FFF794FFD8F800007F1CBFB26D1C00EB74
:1003B000400006EB800080688088204484B2DBE740
:1003C00000202A780AB1012100E000210842E5D18D
:1003D000BDE8F08734000220F00102200A460346FF
:1003E00010B500F071F8C088BDE8104058430323F1
:1003F00081B20020FFF78EBF2DE9F047B2F814C09C
:100400000E46158B814654894FF000089789518A12
:10041000D08A44EA0747938B41EA0C4440EA0545F9
:1004200000F060F81A4900FB0696A3F12000096865
:10043000082801EB810C0CEBC100164901EB800090
:10044000C06D00EB860607D3A3F11000082801D287
:10045000022000E001208046691E4FEAD30A614372
:100460003A44002701FB0A2081460CE0434622461D
:10047000314602F025FD00F035F806EB800604FB5E
:100480001A907F1C8146AF42F0D3BDE8F087000090
:10049000340002200801022010B50B46044600F08B
:1004A00021F8074903FB0040096801EB810303EBD6
:1004B000C101044B03EB8101C96D41F8202010BD3F
:1004C000340002200801022004480549006800EBBE
:1004D000400001EB8000806870470000340002207B
:1004E000F00102200548006800EB800101EBC0002C
:1004F000034901EB8000006E7047000034000220C9
:10050000080102200548006800EB800101EBC000F3
:10051000034901EB8000406E704700003400022068
:10052000080102202DE9F0411D4C2820092140F24C
:10053000391604F1140840F27A252A2240F21D1CD3
:100540000B234FF4037788E8EF1000212046FFF7D4
:10055000ADFE4FF4F07222664FF4887161660020A0
:1005600084F8340084F8350084F836006060A060B8
:100570000C4AE06022602061204601F006F918B9BB
:100580000021204600F04EF8054801F001F900F086
:100590003DF9054800F0A4F80020BDE8F081000016
:1005A00008010220006801403800022030B58DB0FB
:1005B0000A46002304460093FFF794FFCDE90103A8
:1005C000FFF7A0FFFF21039007208DF8303009923C
:1005D0004FF4C0658DF83130CDE9043106938DF8C4
:1005E0003230CDE90750FFF77DFF0A90FFF78AFF11
:1005F0000B9022460948694601F09EF8074904EB32
:1006000044004FF0FF34E83101EB800223065460D0
:10061000034C946041F820300DB030BD0801022039
:1006200038000220274870B50025016886B041F0E7
:1006300080610160006800F08060059021481438F6
:10064000016841F400010160016801F400010591B5
:10065000016841F480710160016801F480710591C5
:10066000016841F400710160016801F400710591B5
:10067000016841F480610160006802240E26694629
:1006800000F4806005904FF470408DE831000E4812
:10069000CDE9034600F034FF4FF6FF7069468DE860
:1006A00031000A48CDE9034600F02AFFFF206946E1
:1006B0008DE831000648CDE9034600F021FF06B081
:1006C00070BD000044380240002002400024024077
:1006D00000280240014908607047000034000220F1
:1006E0000449054A096801EB410102EB8101886078
:1006F0007047000034000220F00102200349044A40
:10070000096801EB410142F82100704734000220E2
:10071000F00102200246014801F0BBB808010220A6
:100720000349044A31F8101052F8200000F0D4BFF9
:10073000A85701201400022030B52F4A040087B0CA
:100740004FF000000ED0012C14D0022C12D0032C3C
:1007500010D0042C16D0052C14D0062C12D0072C47
:1007600010D017E0136843F001031360126802F021
:1007700001020EE0136843F004031360126802F0F4
:10078000040206E0136843F040031360126802F0AD
:1007900040020592194D4FF00203194A49B101294F
:1007A00012D135F81410CDE90203009174B1154847
:1007B0000DE035F81410CDE90010CDE9020352F830
:1007C0002400694600F09CFE07B030BD0E48694623
:1007D000019052F8240000F093FE084D00220F21F2
:1007E000103515F8140040B201F084F815F8140023
:1007F00040B201F074F8E7E730380240A857012012
:100800001400022000002110000011102DE9F04119
:100810001E4804211C4B072200F134074FF0020C44
:100820000125036000F11C08C7F800C00024C7E9D7
:100830000121FA602022C7F810C04023C7F814C075
:100840004FF4C076C7F818C04F02C0E901454FF415
:10085000805C88E8901084620C3080E84E000021B3
:100860000C3800F05DF809490848343101F016FFF2
:10087000074E08B1357000E0347040F2036000F0BC
:1008800009F83078BDE8F081400100A0D0040220D2
:10089000400002202DE9F843204C102700254FF698
:1008A000FF780126009521468146C4E90067C4E926
:1008B0000265A1F15000424601F024FF012000F042
:1008C00013FE02202146C4E90007C4E90265A1F134
:1008D0005000424601F016FF03214246C4E90017CA
:1008E00008202146C4E90205A1F1500001F00AFFE9
:1008F0004FF40C70009004214246C4E90260C4E940
:1009000000172146A1F1500001F0FCFEA4F15000B7
:100910004946BDE8F84301F0E3BE0000200502208F
:10092000F0B505464F48002487B0016841F0010149
:10093000016000684B4900F0010005900839086823
:1009400040F480000860086800F4800005900868A2
:1009500040F008000860086800F00800059008688A
:1009600040F010000860086800F01000059008686A
:1009700040F020000860086800F02000059008683A
:1009800040F040000860086800F0400005900868EA
:1009900040F080000860086800F08000059008685A
:1009A00040F480700860086801210C224CF2037347
:1009B00000F4807005900220CDE9010100936946A2
:1009C000CDE90302284800F09BFD4FF683700090AC
:1009D0002648694600F094FD4FF63F0000902448F9
:1009E000694600F08DFD48F23310009021486946B9
:1009F00000F086FD4FF62C7000901F48694600F00D
:100A00007FFD40F2FF6000901C48694600F078FDD1
:100A10004FF400731A494FF0800CDE005F004C6009
:100A20005801C1E902C3C1E90476C200154EC1E90B
:100A3000060403230846C1E90824C1E90A340E600C
:100A40000C6329638D6300F012FC0D4800F006FD75
:100A500000220521382000F04DFF382000F03FFF34
:100A600007B0F0BD38380240000C024000100240D0
:100A70000014024000180240001C02400020024006
:100A800020040220106402400148806D00F01ABC6E
:100A9000680302200146014801F074BE6803022089
:100AA000014801F047BE00006803022015490022FA
:100AB00038B513481446C1E900028A600120CA60B3
:100AC0000A614A618A618DF800009DF800000128E2
:100AD00001D0022038BD0B48002100F01DF8094963
:100AE0000848603101F0ABFF08B1012406E0054879
:100AF0004FF4006102F0BFF80028F6D1204638BD5F
:100B0000002C01406803022008B501208DF8000088
:100B10009DF8000008BD00002DE9F04F04464B4849
:100B200087B0016841F4006101600068002500F4AD
:100B30000060059045481438016841F48001016067
:100B4000016801F480010591016841F00401016030
:100B5000016801F004010591016841F0080101609C
:100B600000680C21032600F00800059002220123F2
:100B7000CDE903614FF4F85069468DE80D00344823
:100B800000F0BEFC334804276946009700F0B8FC2B
:100B900000220521312000F0ADFE312000F09FFE43
:100BA0002D4839024FF000698A004FF4403BC0E9FC
:100BB0000195C5604FF40008C0E904120901816184
:100BC00020214762C0E9071B24494FF4001A40F86E
:100BD000281B80E840052838A06584631E4800F083
:100BE00046FB1D4800F03AFC1B48402120225830AB
:100BF000C0E902150901016189004161C0F820B016
:100C00008D0016494831C0E90019C0E90652C0E913
:100C10000976C0E90B8AE065846300F028FB0E4882
:100C2000583000F01BFC002206213B2000F062FE41
:100C30003B2000F054FE00220621452000F05AFE21
:100C4000452000F04CFE07B0BDE8F08F443802406C
:100C500000080240000C02400802022058640240D2
:100C60001CB5DDE90414CDE900140146034801F088
:100C700035FF002800D001201CBD000068030220C1
:100C80001CB5DDE90414CDE900140146034802F067
:100C900021F8002800D001201CBD000068030220BC
:100CA00010B507E003780C78A34201D0012010BDF5
:100CB000401C491C531E9AB2F4D2002010BD000003
:100CC000F0B5BFF34F8FBFF36F8F19490020174B5B
:100CD0000860196841F400311960BFF34F8FBFF30A
:100CE0006F8F124970310860BFF34F8F081F104D8E
:100CF00043F6FF7410350068C0F34E31C0F3C902EB
:100D000004EA4116104600BF46EA80772F60401E75
:100D1000FAD2491EF4D2BFF34F8F186840F48030E6
:100D20001860BFF34F8FBFF36F8FF0BD14ED00E07D
:100D300050EF00E0F0B50568059C44EA03446C649C
:100D40000368DA634268B2F5403F02D00068C160D0
:100D5000F0BD01F47F42856801F47F04224301F075
:100D60007F4301F47F0701F47F46CCB2BDB1012D72
:100D700016D001F47F02C1F3C401D20C022D11D0B0
:100D8000032D14D0310B3A0D0D01190F45EA022243
:100D900042EA013242EA141200688263F0BD1A434B
:100DA0002243F9E7B30A5B0143EAC22206E0F40AF0
:100DB000DB0F640144EA822242EAC3320A43EBE7D2
:100DC000FFF762BE01681823CAB2103AB2FBF3F211
:100DD000054B6FF30901032A9B5C436500D9091D8C
:100DE0000165084670470000785701202DE9F74F4C
:100DF00029480026DFF89CA0006800EB40000AEBC1
:100E0000800080688588C788E81D834620F0070039
:100E1000401B00F0FF0939E04FEADB01029801298D
:100E200001FB060009D0022909D0017842788378B5
:100E3000080440EA0220184303E0007801E000883B
:100E400040BA002480461AE02A1B02EB0901012067
:100E5000491E884010EA080F009800EB04020E4873
:100E6000016890B201EB410202D05AF8222002E060
:100E70000AEB82014A680199FFF70EFB641CAC4241
:100E8000E2D30198401C80B20190761CBE42C3D3CD
:100E9000BDE8FE8FF001022034000220002200F0A5
:100EA00001B800000E4B70B505469C7B0120022C5A
:100EB00015D89E7B002403F10C009C559E7B03EB10
:100EC000860675609D7B2A54987B421C9A733A2350
:100ED0002F22303008704B7020468A70CC7070BD65
:100EE00048050220F0B5D1E90125D1E90343D1E954
:100EF00005762A43D1F800C044EA0304D1E9073556
:100F000042EA0402496A42EA0702BCF1010F42EADE
:100F1000060208D004681A432A430A43E30BDB03A2
:100F20001A4302600BE0066844682B43F50B6FF32D
:100F30000E04ED0329430B4303602243426000206B
:100F4000F0BD426942EA4101416100207047F8B5B5
:100F500005461446D1E90003D1E902216FF01F06CE
:100F6000184306EB421242EA4121084300902861EF
:100F700000F0B8FB064609E0601C07D024B100F081
:100F8000B1FB801BA04201D90320F8BDA8698006EF
:100F9000F2D40020F8BD2DE9F043914691E81C0001
:100FA0006FF00F05521E2E0105EB03132F031A439A
:100FB0000B7E4FEA054C0D8A06EB04268C8AC96825
:100FC00032434FF07F48B9F1010F07EB05450CEBB9
:100FD000045408EB03630CD086683F1107EB013122
:100FE0000A432A4322431A4306F070410A438260AF
:100FF0000FE0C668090387682A431A43A1F58051A8
:10100000214306F070431A43C26007F07044214345
:1010100081600020BDE8F083F0B590F8383000EB37
:1010200001121832012B25D0012480F83840022308
:1010300080F8393000292F4D066851681CD0F369BB
:101040002B400A2941D009293FD015891943177B24
:101050002B0443EA07630B43F361036811681D69BE
:101060006FF30D052943196151680A2935D0092903
:1010700033D037E00220F0BD736A2B400A2916D026
:10108000092914D015891943177B2B0443EA0763F8
:101090000B437362036811689D696FF30D05294363
:1010A000996151680A290AD0092908D01AE01789DC
:1010B0001943D56805F07F4343EA0743E8E7D16861
:1010C000026821F07F4191620CE017891943D568CD
:1010D00005F07F4343EA0743BDE7D168026821F08A
:1010E0007F411162002180F8394080F838100846AD
:1010F000F0BD0000F0FFFC0070B5040004D094F8CF
:101100003900002510B106E0012070BD204684F8AA
:10111000385000F01EF8022084F83900D4E900109D
:1011200001230A6822F44032104308602168A06855
:101130004A6B22F00702104348632168E0680A6C9A
:101140006FF30D0210430864E56384F83930002022
:1011500070BD70472DE9F0470446006800260D4633
:1011600001274FF004084FF003090068C0072BD097
:1011700000F0B8FA824623E04168426801F020009E
:1011800002F00101084309D0216820228A60216809
:101190008F6084F8398084F8386025E0681C0FD0AF
:1011A0002DB100F09FFAA0EB0A00A84208D9E16B2C
:1011B00084F8386041F02001E16384F8399025E03B
:1011C000206841688907D7D52068C069800623D583
:1011D00000F088FA82461BE04068000707D52268C5
:1011E0000821916084F839800120BDE8F087681CEF
:1011F0000ED02DB100F076FAA0EB0A00A84207D974
:10120000E06B40F02000E06384F839900320ECE7C5
:1012100020684168C906DFD522680221102091604C
:101220002168886084F83970002084F83860DCE731
:10123000F8B5044690F83800069D012815D001261F
:1012400084F83860022084F839002068066826F0A7
:101250000106066020460095FFF76CFD20680168D6
:1012600041F0010101600020F8BD0220F8BD70B519
:10127000040025D094F83500022821D020680025EC
:101280002122016821F001010160206805602068C9
:101290004560206885602068C56020680561206819
:1012A00042612046FFF78EFD94F854203F21914083
:1012B0008160E56484F83550002084F8345070BDB6
:1012C000012070BD2DE9F041044690F8541008202B
:1012D0000427256D002600FA01F12A680A4217D07A
:1012E00021680A68520713D50A6822F004020A60CE
:1012F00094F854108840A860E06C40F00100E0646D
:1013000084F8357084F83460A16C09B120468847B0
:1013100094F854205048296800FA02F2114217D07C
:1013200021684A69120613D54A6922F080024A618F
:1013300094F854108840A860E06C40F00200E0642B
:1013400084F8357084F83460A16C09B12046884770
:10135000414894F854202968C01C00FA02F2114256
:1013600017D021680A68920713D50A6822F0020292
:101370000A6094F854108840A860E06C40F00400C3
:10138000E06484F8357084F83460A16C09B12046BB
:10139000884794F8542010212B6801FA02F2134276
:1013A00019D0206803681B0715D5076831237F0310
:1013B00027D5AA6020680168090302D484F8353073
:1013C00005E00068000302D5412084F83500216C57
:1013D00009B12046884794F8541020202B6800FA61
:1013E00001F2134236D021680B68DB0632D50B6858
:1013F0005B031CD5AA602068016809030DD4616CE9
:101400000FE00268D20503D4026822F008020260ED
:1014100094F854008140A960D0E70068000319D512
:10142000E16B002916D02046BDE8F04108470A6864
:10143000D20503D40A6822F010020A6094F85420FE
:1014400011219040A860E06CE06484F8351084F8C5
:101450003460E5E7BDE8F081010080002DE9F0414E
:10146000040020D01F4D0220626A84F83500201D40
:1014700090E80B10084354F8141B43EA0C0318437C
:1014800094E8C0500B68143C40EA060040EA0700AC
:1014900040EA0C0003EA050340EA0E00042A40EA91
:1014A000030003D006E00120BDE8F081D4E90B235E
:1014B0001A43104308602168606A4A69042822F0D0
:1014C000070240EA020001D1A26A104348612046A7
:1014D000FFF778FC0021E164012084F8350008461C
:1014E000E2E700003F8010F031B500F0FBF8044661
:1014F00000F0F8F80099001B8842F9D338BD0000CD
:101500002DE9F84FDFF89CE100224FF001084FF081
:10151000030B4FF00F0A00BF0B6808FA02F42340D8
:10152000A34271D14D68022D01D0122D0FD1D508E3
:101530000E69570700EB8505A9462D6AFF0E0AFACA
:1015400007FCBE4025EA0C052E43C9F820600F7940
:10155000550006680BFA05FC07F0030726EA0C069F
:10156000AF40374307604E68012E05D0022E03D0EE
:10157000112E01D0122E0ED18668CF6826EA0C06F5
:10158000AF403743876046680F79A643C7F300171B
:10159000974037434760C4688E6824EA0C04AE4025
:1015A0002643C6604C68E40075D53F4C256845F479
:1015B00080452560246822F00306950704F48044E2
:1015C00000943A4C2D0F2644D6F80848DFF8E0C0C6
:1015D0000AFA05F7604524EA070401D100272EE046
:1015E000344FB84201D1012729E0334FB84201D12D
:1015F000022724E0314FB84201D103271FE0304FCA
:10160000B84202D104271AE045E02E4FB84201D17A
:10161000052714E02C4FB84201D106270FE02B4FCD
:10162000B84201D107270AE0294FB84201D1082763
:1016300005E0284FB84201D1092700E00A27AF4052
:1016400027437546C6F808784E68DEF80040F60372
:1016500024EA030400D51C43124E2C60361D4D684D
:101660003468AD0324EA030400D51C430D4F3460F5
:1016700008374D683C68ED0224EA030400D51C439A
:10168000084D3C600C354E682C68B60224EA030411
:1016900000D51C432C60521C102AFFF43DAFBDE85E
:1016A000F88F0000003C0140443802400030014007
:1016B000000002400004024000080240000C02400A
:1016C000001002400014024000180240001C0240BA
:1016D00000200240002402400069084000D00120A0
:1016E00070470000014800687047000000000220B9
:1016F00002480168491C0160704700000000022098
:10170000032010B500F016F90F2000F004F800F0E7
:10171000E2F8002010BD10B5044600F091FD4FF432
:101720007A71B0FBF1F001F0B8FB00222146501EA7
:1017300000F0E0F8002010BD2DE9F041044690F8DB
:10174000A00016460F4601281DD0012584F8A050A0
:10175000022084F8A10006EB860000EBC6003422CC
:1017600004EB80003830FEF74BFD32463946204608
:1017700001F008FC216800204D6284F8A15084F833
:10178000A000BDE8F0810220FBE790F8A1007047BF
:101790002DE9F041040004D094F8A100002518B10F
:1017A00007E00120BDE8F081204684F8A05000F059
:1017B0006FF83648022184F8A110012202CC8B690F
:1017C00023F070438B6194E84A001943E3681E4399
:1017D00054F8043D31439E693143996121688B6817
:1017E00003408B602168A68AA7698B683B4343EA64
:1017F00006438B602168CB680340CB602168A38BD4
:10180000276ACE683E4346EA0346CE6021680B69EC
:1018100003400B612168A68CA76A0B693B4343EA2E
:1018200006430B6121684B6903404B612168A38D1E
:10183000266B4869304340EA03404861236894F8C6
:10184000351094F83600DE6A000406F07F46DE624A
:10185000236840EA012094F83460D96A3143014397
:10186000D9622068416B41F0040141632068416BFB
:1018700041F0020141632068816941F00101816109
:10188000C4F8A45084F8A12000208BE700F800F0F1
:10189000704770B5044690F8A0000B46012818D098
:1018A00002EB820000EBC201012584F8A050022067
:1018B00084F8A10004EB81012046CB64383101F0AB
:1018C00061FB216800204D6284F8A15084F8A000DB
:1018D00070BD022070BD08B50020009008BD410910
:1018E00000F01F028900012001F1E0219040C1F8C1
:1018F000000170470E4BF0B41B680D46C3F3022382
:10190000C3F10706042E00D90426191D072901D2A8
:10191000002300E0DB1E012404FA06F19C40491E6E
:101920002940641E994014402143F0BC01F012BCD0
:101930000CED00E0064900F0070210B54FF6FF0479
:101940000868044B204040EA02201843086010BD9C
:101950000CED00E00000FA051848F8B5016841F008
:10196000805101600068164C00F0805000902068A3
:1019700040F480302060FFF7B5FE4FF47A760546DC
:1019800005E000BFFFF7AEFE401BB0420FD8606815
:10199000C003F7D5206840F400302060FFF7A2FEB6
:1019A000054606E0FFF79EFE401BB04201D903202A
:1019B000F8BD60688003F5D50020F8BD40380240CE
:1019C000007000402DE9F84F04460078DFF82884C5
:1019D0004FF000063546C0070ED0D8F8001021F4AD
:1019E0000001C8F80010D8F80010626B1143C8F865
:1019F0000010606B00B901262068000310D5FE4876
:101A0000E26B8430016821F4401111430160E06B06
:101A1000B0F5801F01D010B102E0012600E00125E1
:101A20002068C00210D5F448226C8430016821F48B
:101A3000400111430160206CB0F5800F01D010B15E
:101A400002E0012600E001252068C10100D5012641
:101A5000800657D5E8483830016841F08051016070
:101A60000068DFF8989300F080500090D9F80010DB
:101A700041F48071C9F80010FFF734FE074604E016
:101A8000FFF730FEC01B64287ED8D9F80000C005DF
:101A9000F6D5D94F218E6837386801F4407100F4CB
:101AA000407088422ED03868396820F4407041F484
:101AB000803139608207396821F4803139603860BB
:101AC0000FD5FFF70FFE814641F2883A06E000BFCE
:101AD000FFF708FEA0EB09015145D5D8386880070B
:101AE000F6D5206BC0F3012103297CD0D8F8001073
:101AF00021F4F811C8F80010218E3868C1F30B01E9
:101B0000084338602078C00609D5BB488430016896
:101B100021F0807101600168A26B1143016021888E
:101B2000B5488830490405D5626E016821F440311A
:101B3000114301602188090405D5A26E016821F4D2
:101B40004021114301602168C90305D5E26E016897
:101B500021F44011114301602168890305D5226FEA
:101B6000016821F44001114301602178490605D53F
:101B7000626C016821F003011143016021780906BC
:101B800007D5A26C016800E0FEE021F00C011143D2
:101B900001602188C90505D5E26C016821F030019A
:101BA000114301602188890505D5226D016821F066
:101BB000C001114301602188490505D5626D0168A6
:101BC00021F44071114301602188090505D5A26DFA
:101BD000016821F44061114301602188C90407D5DF
:101BE000E26D016800E023E021F4405111430160FF
:101BF0002188890405D5226E016821F440411143F2
:101C000001602168490205D5A26F016821F0806159
:101C1000114301602168890215D5E26F016821F046
:101C2000006111430160E16FB1F1006F0AD00AE079
:101C3000734AD8F80030104023F4F8120243C8F871
:101C4000002059E7012521680A0700D5012549032D
:101C500005D5626F016821F0407111430160216870
:101C6000090206D5D4F88020016821F08051114383
:101C70000160012E4FF4403B4FF0706A4FF0E04995
:101C800003D02068B0F1007F7DD15B4E083E306804
:101C900020F080603060FFF725FD074605E000BFBB
:101CA000FFF720FDC01B64286ED853480838006831
:101CB0000001F5D42078DFF840E1C0070EF17C0E7A
:101CC00033D0606B88BBDEF800C09BFAABF7DEF860
:101CD000002047F6C076B7FA87F860680CF4403108
:101CE0009AFAAAFC21FA08F196FAA6F7BCFA8CF83F
:101CF000B7FA87FC9BFAABF602F0706200FA0CF0C0
:101D0000B6FA86F69AFAAAF722FA08F2B14099FAD8
:101D1000A9FCA668B7FA87F70843BA40BCFA8CF169
:101D200010438E403043CEF800002068010303D5F5
:101D3000E16BB1F5801F05D0C00241D5206CB0F534
:101D4000800F3DD1DEF800109BFAABF647F6C07C61
:101D5000B6FA86F7DEF8006001F4403160689CFA5C
:101D6000ACFCF9409AFAAAF7BCFA8CFCB7FA87F8EF
:101D70009BFAABF399FAA9F700FA0CF0B7FA87F7D8
:101D8000B3FA83FC01E08DE007E101FA0CF106F003
:101D9000E046E36899FAA9F2FE4003FA08F3B2FAC2
:101DA00082F7154A08438432BE4018433043CEF8C8
:101DB00000001068616A20F01F00491E084310608F
:101DC0002068C00139D5DEF800209AFAAAF1DEF8C1
:101DD000003047F6C07602F07062B1FA81F199FAEC
:101DE000A9FC9BFAABF7CA4096FAA6F60092BCFA99
:101DF0008CFCB7FA87F705E0083802400070004015
:101E0000FFFCFF0F2269B6FA86F861689AFAAAF613
:101E100003F0E040BA4001FA08F11143009AB6FA23
:101E200086F699FAA9F720FA0CF0B240B7FA87F6CD
:101E30001143B0400143CEF800102068800120D546
:101E400004F1080147F6C0709BFAABFC90FAA0F2CF
:101E500060688AC9B2FA82F2BCFA8CF89AFAAAFCD3
:101E6000904099FAA9F6BCFA8CFC07FA08F703FA35
:101E70000CF3B6FA86F63843B14018430843CEF85F
:101E800000007B4E306840F080603060FFF72AFC35
:101E9000074604E0FFF726FCC01B64287DD83068A5
:101EA0000001F7D5002D79D0714D286820F08050C1
:101EB0002860FFF717FC064605E000BFFFF712FC9D
:101EC000801B642869D86A480068C0438000F5D543
:101ED0006748216888300A0301D5E26B1AB1C9024C
:101EE0003CD5216CD1BB02689BFAABF647F6C071BA
:101EF000B6FA86F7066802F4403291FAA1FC6169ED
:101F0000FA409AFAAAF7BCFA8CFC9BFAABF501FAF4
:101F10000CF1B7FA87F899FAA9F7B5FA85FCA56923
:101F200006F0E04602FA0CF2B7FA87F799FAA9F33D
:101F3000FE4011434E4A05FA08F5B3FA83F38C329A
:101F40009E402943314301606FF0FF071168A36A87
:101F500021F4F85107EB032319431160216889022A
:101F600035D5E16FB1F1006F31D101689AFAAAF26B
:101F7000056847F6C07601F0706196FAA6F7B2FAE6
:101F800082F299FAA9F69BFAABFC21FA02F8216ACF
:101F9000B6FA86F6BCFA8CFC01E060E066E06269A5
:101FA000B7FA87F701FA0CF19AFAAAFCBA4005F0E1
:101FB000E04599FAA9F3BCFA8CF7F5400A4308FA10
:101FC00007F1B3FA83F30A439D402A430260217864
:101FD000090736D5036802689BFAABF79AFAAAFCA0
:101FE00047F6C07102F44032214DB7FA87F891FAF2
:101FF000A1F7616922FA08F2BCFA8CF8B7FA87FCFB
:102000009BFAABF603F0706301FA0CF1B6FA86F6B0
:1020100023FA08F39AFAAAF7B24099FAA9FCE669FA
:10202000B7FA87F78C351143BB40BCFA8CF21943E1
:102030009640314301602868E16A20F4403008434B
:1020400028600B4C206840F080502060FFF74AFB6E
:10205000054607E0FFF746FB401B642802D9032032
:10206000BDE8F88F2068C0438000F3D40020F7E774
:10207000003802402DE9F047DFF8BC910E460546D6
:102080006E4841F28838D9F800106C4C01F00F010D
:102090000834B1425AD2D9F8002022F00F0232435C
:1020A000C9F80020D9F8001001F00F01B14270D139
:1020B0002978890705D5AA68216821F0F001114324
:1020C00021602978C90729D06968012914D00068DE
:1020D000022914D0800700285BDA206820F0030072
:1020E00008432060FFF7FEFA0646686801280FD013
:1020F0000228474619D024E000688003EBE78001FE
:10210000E9E700BFFFF7EEFA801BB84201D964E0AF
:1021100047462068C0F381000128F3D173E000BF77
:10212000FFF7E0FA801BB84257D82068C0F381005F
:102130000228F5D167E000BFFFF7D4FA801BB84250
:102140004BD8206810F00C0FF6D15CE02978890795
:1021500005D5AA68216821F0F00111432160297892
:10216000C90741D06968012914D00068022914D038
:102170008007002845DA206820F00300084320602B
:10218000FFF7B0FA0746686801280ED0022818D079
:1021900026E036E000688003EBE78001E9E700BF56
:1021A000FFF7A0FAC11B414517D82068C0F3810092
:1021B0000128F5D118E000BFFFF794FAC11B414593
:1021C0000BD82068C0F381000228F5D10CE000BFD5
:1021D000FFF788FAC11B414502D90320BDE8F0870B
:1021E000206810F00C0FF3D1D9F8001021F00F0186
:1021F0003143C9F80010D9F8000000F00F00B042D8
:1022000001D00120EAE72878400705D5E968206871
:1022100020F4E050084320602878000706D528699C
:10222000216821F4604141EAC00020600F20FFF7DF
:1022300072FA0020D2E70000003C02400038024061
:1022400000B500F017F80849F0230A6893FAA3F3E1
:10225000064902F0F002B3FA83F3DA40044B9A5CC9
:10226000D040086000BD0000083802404400022051
:10227000805701201D4930B51D48096811F00C0137
:102280001AD01C4B042916D0082915D1174947F636
:10229000C072091F0C680D6804F03F046D020CD574
:1022A0000D68B3FBF4F092FAA2F31540B3FA83F28F
:1022B000D54068430BE0184630BD0B68B0FBF4F026
:1022C00092FAA2F41340B4FA84F2D3405843096856
:1022D0004FF4403292FAA2F201F44031B2FA82F2A3
:1022E000D140491C4900B0FBF1F030BD0838024034
:1022F0000024F40040787D012DE9F84FE54E0446B6
:102300000078A6F10409A9F10405C0076BD0306874
:10231000C0F38100012808D03068C0F38100022892
:102320000AD1D9F80000400206D5286880035AD5A2
:102330006068002870D056E0286820F4803028605B
:10234000286820F480202860286820F480302860E5
:10235000FFF7C8F94FF4FA77804605E0FFF7C2F9B6
:10236000A0EB0800B84277D828688003F6D4286824
:1023700020F4803028606068B0F5803F10D0B0F560
:10238000A02F286810D020F480202860286820F42E
:10239000803028606068C8B1FFF7A4F9804611E07A
:1023A000286820F4802001E040F48020286028681C
:1023B00040F48030EDE700BFFFF794F9A0EB080090
:1023C000B842D0D828688003F6D50CE0FFF78AF928
:1023D000804605E0FFF786F9A0EB0800B842C2D8B6
:1023E00028688003F6D42078800745D530684FF000
:1023F000F80810F00C0F08D03068C0F381000228F4
:102400000BD1D9F80000400207D42868800717D5FF
:10241000E068012800D113E039E1E068002828686D
:102420001BD040F001002860FFF75CF9074604E08C
:10243000FFF758F9C01B642895D828688007F7D59E
:1024400020692A6898FAA8F1B1FA81F1884022F04F
:10245000F801014329600FE096E020F001002860B8
:10246000FFF740F9074604E0FFF73CF9C01B64287A
:10247000A7D828688007F7D42078000729D5854891
:1024800061696C3000298046016811D041F001017A
:102490000160FFF727F9074605E000BFFFF722F9C3
:1024A000C01B642870D8D8F800008007F6D510E06B
:1024B00021F001010160FFF715F9074605E000BFB3
:1024C000FFF710F9C01B64285ED8D8F80000800719
:1024D000F6D42078400776D56E483830016841F050
:1024E000805101600068DFF8B08100F080500090FA
:1024F000D8F8001041F48071C8F80010FFF7F2F826
:10250000074604E0FFF7EEF8C01B64283CD8D8F873
:102510000000C005F6D55F4F6837386820F001002D
:102520003860386820F004003860386820F0010016
:102530003860FFF7D7F8824641F2883806E000BFDE
:10254000FFF7D0F8A0EB0A0141451DD83868800795
:10255000F6D4386820F001003860A06801280FD058
:102560000528386811D020F004003860386820F061
:1025700001003860A068C8B1FFF7B4F8824611E0E6
:10258000386820F0040002E079E040F00400386090
:10259000386840F00100ECE7FFF7A4F8A0EB0A016F
:1025A00041456CD838688007F6D50CE0FFF79AF8FB
:1025B000824605E0FFF796F8A0EB0A0141455ED898
:1025C00038688007F6D4A069E8B33168C1F38101A7
:1025D00002295CD00228286820F08070286003D08F
:1025E000FFF780F804464DE0FFF77CF8064604E06C
:1025F000FFF778F8801B642841D828688001F7D459
:1026000047F6C0704FF0FF364FF4403790FAA0F213
:10261000D4E9090397FAA7F7B2FA82F24FF0706C87
:1026200006EB53039040D4E90761B7FA87F7E26AF3
:102630009CFAACF4BB401843B4FA84F331439A409B
:102640000143114300E020E041F00051C9F80010BF
:10265000286840F080702860FFF744F8044604E0E2
:10266000FFF740F8001B642809D828688001F7D5D7
:102670000BE000BFFFF736F8001B642802D90320E7
:10268000BDE8F88F28688001F4D40020F8E7012025
:10269000F6E70000083802400070004070B5040002
:1026A0000D4603D094F82C0010B107E0012070BD56
:1026B000002084F82D00204600F011F8022084F854
:1026C0002C002068211DFEF70DFCD4E900022946EC
:1026D000FEF761FC012084F82C00002070BD7047DB
:1026E00010B5044690F82C00022809D0022084F886
:1026F0002C002068FEF725FC012084F82C00002027
:1027000010BD000070B5044690F82C000D4602285C
:102710000DD0022084F82C002068FEF718FC2868F1
:10272000022805D05FF0010084F82C00002070BD65
:102730000520F9E730B50446808C402385B00D2292
:102740001D0100048DE80D000021CDE9031520686E
:10275000694600F048FD0D21204600F05BFD70B990
:102760002068002100F021FDC0F34320042804D09C
:10277000FF2804D0012005B030BD0020FBE7022077
:10278000F9E700002DE9F04F90F8202081F856205D
:10279000828CA1F85420826A120E94090C70C2F344
:1027A000830302F003024B708A70826A120CCA70B3
:1027B000028D120A0A7190F828204A714FF6FF7BA9
:1027C000C26A120E0BEA0212CA80CB88C26AC2F336
:1027D000074214092343CB8002F00F020A72828D54
:1027E0000023C2F30722D4094C72C2F38015C2F34E
:1027F0004016C2F300178D72CE720F734B734FF0F9
:10280000010A046A9946002C7ED0012CFCD0022CCF
:102810007BD04FF0290900BFC2F380144C7692069A
:10282000520E8A7610F8302F11F81A4FD5092C4322
:102830000C7002F07F024A7050F8042F120ED40977
:102840008C70C2F34115C2F382069207CD700E71EF
:10285000120F4A7104C84C79C2F3074244EA921439
:102860004C71C2F3401502F001028D71CB710A72F6
:1028700030F8042CC2F30722D3094B72C2F3801440
:10288000C2F34015C2F30016C2F3810702F003023F
:102890008C72CD720E734F738A73534610F8042CEA
:1028A0005208CA7381F810A00268120E8A7450F898
:1028B000082B120C0BEA02228A828A8A30F8084C12
:1028C000C4F3072422438A8210F8082C1206C1F8A8
:1028D000162051F8164F50F8042C120E44EA02420A
:1028E0000A6051F8144950F8042CC2F3074244EA34
:1028F00002224A614C6930F8042CC2F307221443C7
:102900004C6110F8042C01E034E076E00A760268AD
:10291000120E4A760268120C1206CA61CC6902884D
:10292000C2F3072244EA0242CA61CC6910F8042BC0
:1029300044EA0222CA61CC69026844EA1264CC61AA
:1029400091F820400268C2F30742150912072C4390
:1029500081F82040120D4A8431F8224F0288C2F3D8
:10296000072214430C80007840088870CB704846DA
:10297000BDE8F08F92075446120D0A610D6990F878
:102980002C2045EA82020A610D69026B120E45EAAB
:1029900092150D61C2F3C20702F007020F754A7566
:1029A000026BC2F30742960755098D75C2F3820286
:1029B000CA75750F0D760D7E028EC2F3072245EAA9
:1029C000D2150D760E690F7E0D7A04FA05F5BF1C3F
:1029D0000D650AFA07F4761C4FEAE47CA6FB04783E
:1029E00003FB048406FB0C44A7FB056C04FB05C435
:1029F00007FB0344C1E912640EE790F82C204FF462
:102A000000759206920A0A610C69026B120E44EA82
:102A100002220A610C69026BC2F3074214430C6183
:102A20000C69028E641C0D6543F10006670B47EAD2
:102A3000C646E404C2F30722C1E91246ECE670B5CB
:102A400086B00E46002405468DF80C40047700F051
:102A500044F876200094234622462146CDE90140E1
:102A6000286800F0A8FB284600F050FE8DF80C0006
:102A70009DF80C0038B9284600F02EFD8DF80C00AA
:102A80009DF80C0018B19DF80C0006B070BD3146E1
:102A90002846FFF777FE8DF80C009DF80C0090B9E2
:102AA000B6F85400402207211301049300048DE876
:102AB00017002868694600F096FB0721284600F0B9
:102AC000A9FB8DF80C0005F1100007C88DE8070080
:102AD00095E80F0000F06FFBD5E770472DE9F04F48
:102AE00004460D468BB0164600202168DDE91478B7
:102AF000C862216A022903D10F02560A46EAC35668
:102B00008146102100970DF1040A40228B010493A5
:102B10008AE806022068694600F065FB102120461D
:102B200000F078FB002875D108FB07F006A94FF0EC
:102B3000FF3B90274FF0020A4FF0010CCDF814B084
:102B400081E88104CDE9099C206805A900F013FB08
:102B5000B8F1010F01D9122000E011206946CDE93A
:102B60000060206800F03FFBB8F1010F19D9122175
:102B7000204600F04FFB06004CD10CE0406B0004F7
:102B800009D50027206800F02BFB45F827007F1CA3
:102B9000082FF7D320352068416B11F4957FEDD0D5
:102BA0001AE01121204600F035FB060032D140F238
:102BB0002A492068426B12EA090F0DD1406B0004CC
:102BC000F7D50027206800F00BFB45F827007F1C95
:102BD000082FF7D32035ECE7406BC0050CD5B8F1D2
:102BE000010F09D9206A18B1012801D0022803D1A8
:102BF000204600F02BF806462168486B000703D5F5
:102C0000082204200EE005E0486B800705D55046F9
:102C1000C1F838A00BB0BDE8F08F486B800603D533
:102C2000202206208A63F5E75F4603E000F0D8FA29
:102C30007F1E01C52068416B890201D5002FF5D1A7
:102C4000014640F2FF5088633046E3E710B540226A
:102C5000044686B000200C2113018DE80700CDE961
:102C600003032068694600F0BEFA0C21204600F0FC
:102C7000D1FA06B010BDFEB50446006A00250E4626
:102C8000032805D030B1012804D0022802D01FE06B
:102C90002720FEBDB6F5805F05D0B6F5006F04D0E5
:102CA0003EB1262514E0272512E0204600F029FE3B
:102CB00002E0204600F0EAFD050009D1211DD4E91B
:102CC00005070EC9CDE900600297206800F073FA8D
:102CD0002846FEBD2DE9F04F93B0044600200D4676
:102CE000174606468DF844002168DDE91C98C86245
:102CF000216A022904D1570A4FF4007947EAC357E1
:102D00004FF0100B0EA9824640234FF4806C81E8EF
:102D10000814CDE90C9B20680CA900F064FA10217E
:102D2000204600F077FA00286FD1B8F1010F01D9E1
:102D3000192000E018200CA9CDE90C70206800F0E3
:102D400052FAB8F1010F01D9192100E018212046EB
:102D500000F060FA002858D108FB09F051464FF006
:102D6000FF37012382469022CDE90721CDE90913DF
:102D7000CDE90570206805A900F0FDF9B8F1010F53
:102D800024D84FE0406B400420D5AAEB0600202851
:102D900011D281074FEA900000D0401C00278146E5
:102DA00006E02068294600F02FFA2D1D361D7F1CF5
:102DB0004F450BD2F5E70027206805EB870100F0AF
:102DC00023FA7F1C082FF7D3203520362068416B6B
:102DD00011F48D7FD6D02BE0406B400422D5AAEBB6
:102DE0000600202812D281074FEA900000D0401C34
:102DF0000027814606E02068294600F005FA2D1DCF
:102E0000361D7F1C4F450DD2F5E72CE05FF0000723
:102E1000206805EB870100F0F7F97F1C082FF7D336
:102E200020352036206840F21A41426B0A42D3D046
:102E3000406BC0050BD5B8F1010F08D9206A18B155
:102E4000012801D0022802D12046FFF7FFFE2168A9
:102E5000486B000702D5082204200CE0486B80076D
:102E600004D50220886313B0BDE8F08F486BC0061C
:102E700003D505205A468A63F5E740F2FF50886380
:102E800011A9204600F0A2FB0028ECD19DF84410C7
:102E90000729F5D00629F3D0E5E7401EB0F1807F81
:102EA00010B501D3012010BD4FF0E02460610F2167
:102EB000601700F04FF90020A0610721216110BDCB
:102EC0002DE9F8438046164814460D460022154F5A
:102ED0004FF48031FF26C0E901124663C260C0E9A9
:102EE0000B3207608262FEF707F9002815D10C4803
:102EF0000121FEF791F800280FD101200090084829
:102F000023462A464146FEF793F9002805D1BDE83D
:102F1000F84303480A21FEF71DB9BDE8F883000015
:102F2000B001022000B002402DE9F84307461348E3
:102F30000E461349DDE908C81C46154600234FF428
:102F4000403280E80E10FEF7D7F8002814D10B4865
:102F50003946FEF761F800280ED108482B46324664
:102F600041460094FEF764F9002805D1BDE8F84316
:102F700002480A21FEF7EEB8BDE8F883B00102204E
:102F800000B002402DE9FE4F814600688824934638
:102F90008D888C2204EBCB178A46C3689421BE46E9
:102FA000C459C3F30B432B4404F470441F0401972A
:102FB00002EBCB1240F80E4001EBCB13DAF80070B5
:102FC0009C214FF0AC0C01EBCB1440F20771029145
:102FD0000CEBCB11D9F800C098250020CDF800C02B
:102FE000A02605EBCB15DCF80CC006EBCB16CCF31A
:102FF0000B4C0CF1010C07EB0C08DDF800C0019F35
:1030000048EA07084CF80E80D9F80070BAF80CC0EE
:10301000B846FF68C7F30A0767444FEA074E58F8F7
:10302000027007F4704C48F802C0D9F800C0DAF812
:103030000870DCF80C80C8F30A0808F10108B844ED
:1030400048EA0E084CF80280D9F80020D75827F03B
:103050000707D750D9F80070DAF81020FA509AF81C
:1030600031209AF818304FEA022C9AF832201204D4
:1030700042EA0362D9F800301F5918519AF83030EB
:1030800043EA0C031343D9F800201351D9F8002068
:10309000535923F0FF035351D9F80020DAF81430C4
:1030A0005351D9F800209359029CA3439351D9F866
:1030B0000030DAE9072422439A51D9F80020535806
:1030C0005050D9F80020DAF824005050DAF81000F7
:1030D000C8B301283AD004283AD0022838D00328AF
:1030E00036D0072834D00120D9F80030B02505EBC0
:1030F000CB11B42284245D5802EBCB1205F0E025FD
:103100005D50DAE9003504EBCB14EB1ABAF828501D
:1031100043434543D9F80000DB1C43EA05434350D1
:10312000D9F8000081586FF30A018150D9F80000E6
:10313000DAF82C108150D9F80000015941F0010152
:103140000151BDE8FE8FFFE70420CDE70320CBE768
:103150000220C9E7090700284FEA116106DA00F0EA
:103160000F0000F1E02080F8141D704700F1E0200E
:1031700080F80014704770B50A6842624A6882623B
:10318000C46AD1E90225D1E9043624F0F7012A43C3
:1031900033431A431143C162002070BD0069C0B2BD
:1031A0007047006800F003007047084408B5143009
:1031B0000090006808BD70B511434268049EDDE9C7
:1031C0000554334347F6FF6619432943B24321436D
:1031D0000A434260002070BD032101600020704757
:1031E000D0F88000704770B50A688260C468D1E981
:1031F0000125D1E90336210B2A43334309031A433E
:103200001143C160002070BD0968C0F88010002023
:103210007047000070B50446006800250E46416BFB
:1032200011F0450FFBD0416B490703D50321042260
:10323000826304E0416BC90703D001218163084622
:1032400070BDFFF7ABFFB0422CD1216840F2FF50B8
:10325000886300212068FFF7A8FF284908424BD067
:10326000002801DA1C2070BD410001D5092070BD85
:10327000810001D50A2070BDC10001D50B2070BDB1
:10328000010101D50C2070BD410101D50D2070BD9B
:10329000C10101D50E2070BD010201D50F2070BD06
:1032A000410201D5102070BD810201D5112070BDF1
:1032B000C10201D5122070BD010301D5132070BDDC
:1032C000410301D5142070BD810301D5152070BDC7
:1032D000C10301D5162070BD010401D5172070BDB2
:1032E000410401D5182070BD810401D5192070BD9D
:1032F000000701D51A2070BD284670BD08E0FFFD0B
:10330000016800204A6B12F0450FFBD04A6B520750
:1033100002D50320042207E04A6BD20702D0012025
:103320008863704740F2FF528A6370472DE9F0418D
:1033300004460068002715460E46416B11F0450F04
:10334000FBD0416B490703D503210422826304E0CB
:10335000416BC90704D0012181630846BDE8F081B3
:10336000FFF71CFFB04213D1216840F2FF50886381
:1033700000212068FFF719FF10F4604F03D081048B
:1033800004D51320EAE7000C288007E0410401D5AA
:103390001020E3E7000401D50F20DFE73846DDE722
:1033A000016829204FF480324B6B13F0450F07D191
:1033B0004B6BA2F1010213F0450F01D1002AF7D1A6
:1033C0004B6B002AC3F3800200D012B10320042209
:1033D00004E04A6B520602D5002040228A637047FF
:1033E0002DE9F04F8DB04FF0080900260F4610214F
:1033F000044603A80096CDE90169402235468B01B9
:10340000069380E84600206802A9FFF7ECFE102131
:103410002046FFF7FFFE002850D1A18C3720090479
:10342000CDE90210206802A9FFF7DDFE3721204612
:10343000FFF7F0FE002841D14FF002084FF0010CD9
:10344000421E3023CDE90729CDE90938CDE90B6CBF
:10345000206807A9FFF78FFE332002A9CDE902609B
:103460002068FFF7C0FE33212046FFF7D3FE060099
:1034700024D1EB4640F22A4A2068426B12EA0A0F36
:1034800008D1416B8902F7D5FFF7AAFE4BF825005A
:103490006D1CF1E7416B090702D504214A460BE098
:1034A000416B890703D54146C0F8388005E0416B80
:1034B000890606D520220621826308460DB0BDE8A4
:1034C000F08F40F2FF518163009800BA7860019854
:1034D00000BA38603046F1E770B586B00446012086
:1034E0000025ADF814002068FFF75BFE88B3206A62
:1034F000042869D002210020C0264A028DE843003A
:10350000CDE9030220686946FFF76DFE2046FFF70C
:10351000F7FE05001FD120680021FFF746FEA063DB
:1035200004212068FFF741FEE06308212068FFF7CF
:103530003CFE20640C212068FFF737FE0146206A1C
:10354000616450B1012808D0062806D0022804D0B2
:1035500012E0FFE7252006B070BD40210320CDE931
:10356000010120686946FFF73EFE0321204605AAB7
:10357000FFF7DCFE0500EED1206A042824D0BDF858
:1035800014000921606202960204CDE9002120683E
:103590006946FFF728FE2046FFF7B2FE0500DAD1A4
:1035A00020680021FFF701FEA06204212068FFF7D8
:1035B000FCFDE06208212068FFF7F7FD20630C2185
:1035C0002068FFF7F2FD60632846C4E7F0B587B0D6
:1035D000044600200D464022064600900D21A78C8F
:1035E00013010593CDE903203F04CDE90171206863
:1035F00001A9FFF7F8FD2068416B11F0450FFBD0E2
:10360000416B490703D503210422826304E0416B27
:10361000C90704D001218163084607B0F0BDFFF758
:10362000BDFD0D2839D1216840F2FF50886300218B
:103630002068FFF7BAFD0090C0F34320287032499C
:10364000009808425DD00098002801DA1C20E4E7C9
:10365000400001D50920E0E70098800001D50A204C
:10366000DBE70098C00001D50B20D6E700980001E9
:1036700001D50C20D1E70098400101D50D20CCE701
:103680000098C00101D50E20C7E70098000201D5BF
:103690000F20C2E70098400201D51020BDE7009836
:1036A000800201D51120B8E70098C00201D5122090
:1036B000B3E70098000301D51320AEE7009840035C
:1036C00001D51420A9E70098800301D51520A4E7AF
:1036D0000098C00301D516209FE70098000401D58B
:1036E00017209AE70098400401D5182095E7009824
:1036F000800401D5192090E70098000701D51A2011
:103700008BE7304689E7000008E0FFFD2DE9F04F28
:1037100087B004460025A846A9468DF800500068E9
:10372000416821F4807141602068FFF755FD012058
:10373000FDF7DAFE20684FF48066416841F480713D
:103740004160CDE90456019501A9029503952068D1
:10375000FFF749FD2268B0010021536BC3F3C0138A
:1037600004E0536B401EC3F3C0130CD0002BF8D001
:1037700048B140F2FF5090638DF800109DF80000B2
:1037800000287CD101E00321F6E701A84FF0400AB0
:1037900008224FF4D57180E80604206801A9FFF7DC
:1037A00022FD2046FFF7FCFD8DF800009DF800008B
:1037B00018B9012121624FF08049372701A9CDE9CD
:1037C00001572068FFF70FFD37212046FFF722FD44
:1037D0008DF800009DF80000E0B350E0039701A9C8
:1037E000CDE9015BCDE904562068FFF7FCFC3721E9
:1037F0002046FFF70FFD8DF800009DF8000050BB3C
:10380000214A292149EA020001AA82E88300CDE980
:103810000456206801A9FFF7E6FC20680021426BEE
:1038200012F0450FFBD0426B520702D50321042250
:1038300001E040F2FF5282638DF800109DF8000015
:1038400048B920680021FFF7B0FCC10F08F101085A
:1038500005D008E000E012E0BB465746BEE74FF651
:10386000FF718845BAD34FF6FF72904503D31B20F2
:103870008DF8000003E0400001D5022020629DF891
:10388000000007B0BDE8F08F0000108030B589B0AF
:10389000044600252946019502950068FFF785FC3E
:1038A000800102D50E2009B030BD01A92046FFF7E6
:1038B00097FD0028F7D10298C00320D5A28C4021A3
:1038C0000DF1100C3720120403920B0107938CE8C2
:1038D0002300206803A9FFF786FC37212046FFF765
:1038E00099FC0028DFD1062003A9CDE90350206808
:1038F000FFF779FC06212046FFF78CFCD3E7252053
:10390000D1E730B589B004460025294601950295D6
:103910000068FFF74AFC800102D50E2009B030BDD7
:1039200001A92046FFF75CFD0028F7D1029840036B
:1039300021D5A28C40210DF1100C37200B010793EB
:10394000120403928CE82300206803A9FFF74BFCC4
:1039500037212046FFF75EFC0028DFD10621022038
:10396000CDE90301206803A9FFF73DFC06212046AD
:10397000FFF750FCD2E72520D0E7000010B5064C39
:1039800001202070FDF792F818B9207820F001008E
:103990002070207810BD000064000220134810B58C
:1039A000144696B002780120D20702D0032016B048
:1039B00010BD49B1012909D002294FF4007210D07D
:1039C000032911D00420F2E70020F0E76846FDF754
:1039D00061F8DDE912120020490A41EAC251216072
:1039E000E5E700202280E2E72260E0E764000220B1
:1039F0001CB508464FF400710024CDE900135202B3
:103A00002346FDF72DF900B1012420461CBD00001E
:103A100010B5064C01202070FDF742F818B9207847
:103A200020F001002070207810BD0000640002200A
:103A30001CB508464FF400710024CDE90013520272
:103A40002346FDF71DF900B1012420461CBD0000EE
:103A500010B50022044610480EA100F0E9FD08B19F
:103A6000012010BD0D480122214600F00FFE08B1D3
:103A7000022010BD0A4B06220A49084800F024FF24
:103A8000084902220848FDF70BF90028F1D003206D
:103A900010BD000000000000580702208809022025
:103AA000680002205805022040730120F0B5002470
:103AB0000F46ADF2744D064620A125468EA822463B
:103AC00000F0B6FD18B100200DF2744DF0BD314686
:103AD000684600F0AFFE48BB88AE684688A900F093
:103AE000B9FF18BB9DF8290200B32E28F5D09DF828
:103AF0002802C006F1D4641C3019407A2E28FAD16D
:103B0000192D11D23019817A42290DD1C17A4D294E
:103B10000AD1007B502807D157F825000DF2292241
:103B200007A100F083F86D1C0024D6E7002203A152
:103B3000104600F07DFD2846C6E7000000000000AA
:103B4000257300002DE9F041ADF50C7D07460122FB
:103B50000C46684600F09AFD00B1FEE71A4B1E22A3
:103B60001A49684600F0B0FE00B1FEE7174EB18872
:103B7000708840EA0145684600F044FD0122214674
:103B8000684600F083FD4FF400784446A54200D219
:103B90002C460D4B0D492D1B2246684600F094FE25
:103BA000002004E016F8011B07F8011B401CA0428E
:103BB000F8D3064E002DE8D1684600F023FD0DF540
:103BC0000C7D0120BDE8F08168000220580502202C
:103BD000FDF78EBD104A30B51048146800210F4B18
:103BE00044F470041460083305680D4A0D4C45F028
:103BF0000105056019600368051D1340074A03604D
:103C00000C322C600568044C074B25F48025803C61
:103C100005601160236030BD88ED00E0003802408F
:103C2000FFFFF6FE10300024000001200FB4084B07
:103C300010B504A902AA039800F01CF8044602A9D2
:103C4000002000F0B8F9204610BC5DF814FB00001D
:103C5000B73F012002E008C8121F08C1002AFAD1AC
:103C600070477047002001E001C1121F002AFBD1FC
:103C7000704700002DE9FF4F8BB0884605460026AF
:103C800006E025280BD0DDE90D1290476D1C761C4F
:103C900028780028F5D10FB03046BDE8F08F002419
:103CA000A146A2460122AE4900E0044315F8013FB7
:103CB000203B02FA03F00842F7D128782A2810D0D6
:103CC0006FF02F022878A0F13001092915D809EBEF
:103CD000890102EB410144F0020400EB01096D1C73
:103CE000F0E758F8041B5FEA010903D544F40054D7
:103CF000C9F1000944F002046D1C28782E2817D160
:103D000015F8010F44F004042A280ED06FF02F029A
:103D10002878A0F1300109290AD80AEB8A0102EBC0
:103D2000410100EB010A6D1CF2E758F804AB6D1C71
:103D300028786C280FD006DC4C2817D068280DD0C6
:103D40006A2814D104E0742810D07A280FD10DE02D
:103D500044F400140AE044F4801401E044F44014F4
:103D60006978814202D104F580146D1C6D1C28789D
:103D7000692865D006DC00288DD0632827D0642808
:103D800006D15DE06E2808D073282AD0752877D038
:103D9000DDE90D129047761CE0E0C4F302500228E2
:103DA00009D003280DD0D8F8001004280DD00E60DB
:103DB00008F10408D2E0D8F80010F217C1E9006257
:103DC000F6E7D8F800100E80F2E70E70F0E718F86A
:103DD000041B8DF8001000208DF80100EB46012037
:103DE00003E058F804BB4FF0FF3061074FF00007C5
:103DF00001D40AE07F1C57450DDA8742FADB1BF835
:103E000007100029F6D106E07F1C8742FCDB1BF877
:103E100007100029F8D1DDE90D23A9EB0700814641
:103E2000214600F0B1F83044C61904E0DDE90D1276
:103E30001BF8010B90477F1EF8D22146484688E0C8
:103E400058F8040BC4F302514FF00A0B032900D1B8
:103E500000B2042900D140B2002802DA40422D21EC
:103E600002E0210505D52B218DF82410012104E065
:103E700006E0E10710D02021F6E708AF089113E033
:103E800058F8040BC4F302514FF00A0B032900D178
:103E900080B2042900D1C0B20021EEE75946FCF7F8
:103EA000C1F9303107F8011D0028F7D1ADEB07004B
:103EB00000F1200B600702D524F4803401E04FF0BC
:103EC000010ADA4502DDAAEB0B0000E00020824681
:103ED00000EB0B0108980144A9EB01000A90E003F4
:103EE00006D4DDE90D2321460A9800F04DF806447A
:103EF0004FF0000908E009A911F80900DDE90D12E9
:103F0000904709F10109761C08998945F3DBE00324
:103F10000CD5DDE90D2321460A9800F035F806445A
:103F200004E0DDE90D1230209047761CBAF1000163
:103F3000AAF1010AF5DC05E0DDE90D1217F8010B25
:103F40009047761CBBF10001ABF1010BF4DC0A9841
:103F50002146DDE90D2300F005F806446D1C97E6C7
:103F6000092801002DE9F041044600251E461746A8
:103F7000880404D405E039462020B0476D1C641E37
:103F8000F9D52846BDE8F0812DE9F0410446002529
:103F90001E469046C80301D5302700E0202788043C
:103FA00004D505E041463846B0476D1C641EF9D57E
:103FB0002846BDE8F0810A68531C0B6010707047FA
:103FC00010B504460022501E84F80422C4F82C02C6
:103FD000204601F053FA08B1032010BDB4F8FE01E9
:103FE000A0F52A41553901D0022010BDB4F8372080
:103FF00094F83610094841EA0221B0EB012F08D0AD
:10400000B4F8532094F8521041EA0221B0EB012F8A
:1040100001D1002010BD012010BD00000046415418
:10402000F0B5194B0022144602EB420653F8265015
:1040300085B1D0F80072BD420DD103EB8605D0F8F2
:1040400008726E68BE4206D12D89B0F80662B5428C
:1040500004D000E00124521C022AE5D3022A01D038
:1040600079B904E05CB9022909D01220F0BD02EB55
:10407000420003EB80004089B0F5807F01D0002032
:10408000F0BD1020F0BD00003005022030B5074A19
:104090000024214601EB410352F82350854201D10F
:1040A00042F82340491C0229F4D330BD30050220D8
:1040B000D0F80022490AD0F8240292F80222B1FB7B
:1040C000F2F1001D04C81AB1914203D3891AF8E72E
:1040D00000207047006808447047D0F81422891EF9
:1040E000921E8A4201D800207047D0F8282290F80A
:1040F000020201FB002070472DE9F0410F00054648
:1041000006D000F0E1FE02280BD20120BDE8F081CC
:10411000D5F80C621EB1D5F81402B04208D80126B9
:1041200006E0411CF2D0D5F814128142EED83E468A
:104130003446D5F81402641CA04203D8022E4FF076
:1041400002040AD32146284600F0BEFE38B1411CC5
:10415000DCD00128DAD0B442EBD10020D6E76FF0F2
:1041600070422146284601F0A4F930B957B12246E1
:104170003946284601F09DF920B1012812D00124CA
:104180002046C3E7D5F81002C5F80C42411CF7D011
:1041900095F80512401EC5F8100241F0010185F89E
:1041A0000512EDE74FF0FF34EAE700002DE9F04794
:1041B0000C68894600E0641C21782F29FBD05C291B
:1041C000F9D0D0F818520B222021284601F04FF9DF
:1041D0000020014608260B46E25C5B1C202A35D9EC
:1041E0002F2A33D05C2A31D02E2A01D0B04208D3F6
:1041F000082E38D12E2A36D189060820090E0B2622
:10420000EAE7802A05D3244F41F003013A4412F82B
:10421000802C22A700E07F1C97F800C0BCF1000FA3
:1042200002D09445F7D11EE0A2F14107192F02D820
:1042300041F0020107E0A2F16107192F03D8203AEB
:1042400041F00101D2B22A54401CC5E7202A234480
:10425000C9F8003001D8042200E0002218B1287803
:10426000E52803D004E00620BDE8F087052028708B
:10427000082E01D18806010E01F00300012801D1AA
:1042800042F01002C1F38100012801D142F008027E
:10429000EA720020E8E7000080720120222A2B2C1D
:1042A0003A3B3C3D3E3F5B5D7C7F0000401E022868
:1042B00015D20C4900EB400201EB82035889B0F59E
:1042C000807F05D008B1401E80B2588110B104E053
:1042D0000020FAE7002041F8220000207047022069
:1042E00070470000300502202DE9F041B0F8066269
:1042F00004460F46761C3004000C37D0D4F8100268
:1043000098B3310773D1D4F80C12401CC4F81002D2
:10431000D4F8000231B190F80222521E12EA161FA0
:1043200005D064E0B0F80802B0421FD95FE000F0A9
:10433000CBFD012805461ED9681C3AD0D4F80002EE
:10434000D0F81412A94249D87FB1D4F80C12FFF763
:10435000D3FE05000DD0012D0DD0681C29D0D4F856
:10436000000201F0C3F920BB07E0FFE70420BDE82D
:10437000F0810720FBE70220F9E7D4F800020021D2
:104380004FF4007201F073F8D4F800022946FFF7E9
:10439000A4FED4F8001200274FF00108C1F82C0247
:1043A00011E000BF80F80482D4F8000201F09EF909
:1043B00008B10120DBE7D4F80002D0F82C12491C28
:1043C000C0F82C127F1CD4F8000290F80212B942F7
:1043D000E8D8D0F82C12C91BC0F82C12C4F80C5223
:1043E0002946D4F80002FFF778FEC4F8100206F060
:1043F0000F01D4F80002A4F8066200EB4110C4F8E3
:1044000014020020B3E7000070B50D4604460420F6
:1044100023E000BFD4F8000201F030F818BBD4F854
:1044200014120A78AAB1C97AE52A01F03F010AD02C
:104430002E2A08D00F2906D021F0200108290AD001
:104440000021A94212D000212046FFF74DFF20B1E4
:1044500009E0042007E00121F3E7D4F81012002955
:10446000D8D1002802D00021C4F8101270BD70B558
:104470000021044600F036F810E0D4F81012D4F809
:10448000000200F0FBFF58B9D4F814020078E528C8
:1044900009D040B101212046FFF726FF0028ECD0CB
:1044A000042809D009E0D4F81012D4F8000200F072
:1044B000E5FF050003D013E00720054610E0D4F81F
:1044C00014022022002104F5007400F0D0FF0B221A
:1044D000D4E9050100F0C2FF2168012081F804023F
:1044E000284670BD70B5D0F808320D460446A0F8D5
:1044F0000612012B3ED0D4F80002D0F814129942D3
:1045000038D933B990F80012032906D1D0F82432F3
:104510001BB190F80202060114E0B0F80812A9429B
:1045200028D9D0F8240214E000F0CEFC0346401C49
:104530001ED0022B1ED3D4F80002D0F814029842E9
:1045400018D9AD1BD4F80002B5421946ECD2FFF7DA
:10455000C4FDC4F80C3268B1D4F8001205F00F02A3
:1045600000EB151001EB4211C4E98401002070BD7D
:10457000012070BD022070BD0849002210B50B5CFF
:104580004BB901220A5401EB800208445168007BB8
:10459000096888470246104610BD00004805022001
:1045A000044B30B403EB800418446368007B1B6940
:1045B00030BC18474805022030B4054C04EB800598
:1045C00020446C68007BA468A44630BC60470000AF
:1045D00048050220034901EB800208445168007B32
:1045E000496808474805022030B4054C04EB8005B3
:1045F00020446C68007BE468A44630BC604700003F
:104600004805022010B5044600F04EFA00280DD1EE
:10461000204601F09BF8002808D1D4F82802FFF7C3
:1046200045FE002802D10021C4F8001210BD000090
:104630002DE9F74181B0904602980090684600F05D
:10464000CEFC040003D50B2004B0BDE8F0810E4E73
:10465000002756F8245025B12846FFF717FD85F8A6
:1046600000720198002801D080F8007246F82400FA
:1046700002D0B8F1010F01D00020E5E7002202A925
:1046800001A800F06DFADFE75C0002202DE9F74792
:104690000600ADF50B7D0ED002F01F074FF00008AD
:1046A00027F00102C6F800828CA980A800F058FA11
:1046B000040005D0B7E009200DF50E7DBDE8F087B8
:1046C00088A88C998690684600F076FB859D04004A
:1046D0000BD11DB1780803D0012102E0062404E0CB
:1046E00000216846FFF79CFC044617F01C0F61D0C0
:1046F0004FF0010AD4B1042C13D14D49002002E03F
:10470000401C022805D200EB400251F82220002A6A
:10471000F6D1022804D06846FFF7A9FE044600E05F
:104720001224859D47F0080754B17CE0E87A10F028
:10473000110F01D0072476E0780701D5082472E034
:10474000380745D500F021FCA873020AEA73030C70
:104750002B744FEA106C85F811C0294685F80B8040
:1047600085F81C8085F81D8085F81E8085F81F80DF
:10477000809800F0A3FC00218146284600F04CFF01
:10478000809AB9F1000F82F804A21FD080984946A0
:10479000D0F82CA200F009FF040044D18099A9F1BF
:1047A0000100C1F80C025146809800F067FE040039
:1047B0000AD038E0BCBBE87AC10601D5042432E057
:1047C000B90701D5C007B5D1380701D547F0200793
:1047D0008098D0F82C02C6E98705780801D001211D
:1047E00000E00021684600F019FCC6F82802E0B19C
:1047F00086F80672294686F8078206F500768098C4
:1048000000F05CFC3061D5F81D20297F41EA0221CF
:10481000C6E90281C6F81880C6F824808098306006
:10482000B0F80602B080204646E70224FBE700000D
:104830003005022073B5050084B009D00022684617
:1048400005A900F08DF904004FF0000603D037E011
:10485000092006B070BD0098C5F8000201A8C5F88F
:1048600018022846059900F0A7FA040015D1D5F8DA
:10487000141239B1C87AC00621D5009800F01EFC88
:10488000C5F8080200210098B0F80602A5F8040255
:104890002846FFF727FE040002D0042C0FD00FE0BB
:1048A000D5F8080240B10021284600F0B7FBC5F852
:1048B0001C0238B9122403E0C5F81C6202E005248A
:1048C000C5F800622046C4E72DE9F84F1546994621
:1048D0000022044688461A6000F038FF002812D1F2
:1048E00094F8070200280ED194F80602C00709D0F8
:1048F000D4E9821001274FF0020A401A854200D9FC
:104900000546A2E00720BDE8F88F00BFD4F80812E2
:10491000C8057CD1D4F8002292F80202401E00EAB9
:10492000512010F0FF0615D131B1D4F8240230B176
:104930002046FFF7BDFB07E0D4F8100204E0D4F8EE
:104940001412104600F0C0FA022823D3411C5AD09A
:10495000C4F81402D4F81412D4F80002FFF7BDFB17
:10496000C0B1690A5FEA010B304400902AD0D4F844
:10497000001206EB0B0291F80202824201D9A0EB71
:10498000060B91F80102009A5B464146FFF714FEC0
:10499000C8BB03E0022084F807A2B4E794F806023B
:1049A00040060CD5D4F818120098081A584506D2BB
:1049B00008EB402021464FF4007200F04FFD4FEA13
:1049C0004B2636E0D4F81822824221D094F8060211
:1049D00040060ED5D4F800020123214690F80102CA
:1049E000FFF702FE78B994F8060220F0400084F840
:1049F0000602D4F800020123009A214690F8010231
:104A0000FFF7DAFD20B1012084F807727BE702E0AE
:104A10000098C4F81802B4F80802C0F30800C0F502
:104A20000076AE4200D92E4601193246404600F0CB
:104A300015FDD4F80812AD1BB0448819C4F808025B
:104A4000D9F800008119C9F80010002D7FF45EAF7D
:104A5000002058E7FEB50E46044600F077FE002819
:104A600019D1CEB100212046C4F818D2FFF7CCFCF2
:104A700004284FF0000514D000280CD13146204600
:104A800000F085FA00212046FFF72EFC042802D111
:104A90000020C4F81052FEBD00212046FFF722FD81
:104AA000FEBDC4F81052E9E770B5044600F04EFEB2
:104AB000002811D194F806128A060DD5480612D5A1
:104AC000D4F800020123D4F81822214690F80102FC
:104AD000FFF78AFD08B1012070BD94F8060220F0AE
:104AE000400084F80602D4F81C12D4F8000200F04A
:104AF000C5FC0028F0D1D4F82052E87A40F020001C
:104B0000E87294F80C022877B4F80C02000A68776F
:104B1000D4F80C02000CA877D4F80C02000EE87749
:104B2000D4F8101204F50074284600F075FD00F06A
:104B30002CFAA875020AEA75030C2B76060E6E761F
:104B40000021A974E974A07920F02000A0712168E7
:104B5000012081F804022068BDE8704000F065BDC6
:104B60002DE9FF474FF0000916460746C0F80090B0
:104B7000084600F034FA050003D50B2004B0BDE868
:104B8000F0878A4850F82540A4B13C6094F80002B0
:104B900028B194F80102FFF71DFDC1070CD084F87D
:104BA0000092E8B284F80102FFF7E6FCC10708D0E2
:104BB0000320E3E70C20E1E70EB1400704D4002016
:104BC000DCE71EB1400701D50A20D7E700252046C3
:104BD0002946FFF7F5F9012823D100204FEA0D07F8
:104BE00004EB001191F8C22101F5DF712AB10A7AB4
:104BF000D1F8091042EA012100E0002147F8201015
:104C0000401C0428ECD3002657F826502DB1294625
:104C10002046FFF7D5F908B909E00220761C042EDA
:104C2000F2D3032801D0E0BB01E00120A6E7B4F8ED
:104C30000B00B0F5007F60D1B4F816C0BCF1000FD6
:104C400005D1D4F8251094F8240040EA012C217CE9
:104C5000C4F818C2012984F8031201D002294CD1EA
:104C600001FB0CF1607B84F80202D0B1421E1042BD
:104C700043D1B4F81120A4F8082213073DD1B4F8A9
:104C800013602EB9D4F8216094F8203043EA062648
:104C9000E78937B17B1803EB12139E422DD3F61A26
:104CA00000E02AE0B6FBF0F038B3012640F6F678D3
:104CB000404500D302264FF6F678404500D3032640
:104CC0002F44801C2B44C4F82832C4F81402032E4D
:104CD000C4E9875713D082B1022E3944C4F8241294
:104CE00019D000F0010100EB400001EB500000BFC3
:104CF00000F2FF10BCEB502F0FD20D203EE7002A30
:104D0000FBD1D4F82D20800094F82C1041EA022128
:104D1000C4F82412ECE74000EAE74FF0FF31C4F892
:104D200010128020C4F80C12032E84F8050230D132
:104D3000208E01282DD1691C204600F09FFB40BB2E
:104D4000B4F8FE1184F80592A1F52A42553A20D113
:104D5000D4F801202078164940EA0220884218D170
:104D6000D4F8E52194F8E401124940EA022088428F
:104D70000FD1D4F8E92194F8E80194F8EC1140EA55
:104D80000220C4F81002D4F8ED0141EA0020C4F872
:104D90000C02064984F80062091F0888401C08803C
:104DA000A4F806022046FFF771F908E75C0002202C
:104DB000525261417272416173B5044601980178A3
:104DC0002F2901D05C2901D1401C01900025C4F895
:104DD000085201980078202806D200212046FFF7CB
:104DE00081FBC4F814527CBD01A92046FFF7DEF90F
:104DF0000028F8D100212046FFF774FB20BB00BF3C
:104E0000D4F81012D4F8000200F038FBE0B9D4F85E
:104E100014120A7832B1CA7A12070FD4D4F81822C1
:104E20000A2503E004200FE06D1E06D311F8013BB4
:104E300012F8016B9B1BF7D000E02BB1002120463C
:104E4000FFF752FA0028DBD0D4F81812C97A28B13B
:104E50000428C8D14907C6D405207CBD4907FCD425
:104E6000D4F81412C87AC006F6D5D4F8000200F0BF
:104E700025F9C4F80802B7E710B5002821D0114B76
:104E80000022001F196803E0814203D80A464968DE
:104E90000029F9D152B11368841A9C4204D10068E8
:104EA00018441060104602E0506000E0186039B10C
:104EB00002680B1A934203D10B681A4402604968D6
:104EC000416010BD7C0002202DE9F04102290D4611
:104ED00004460DD3D4F81402A84209D994F800026C
:104EE0004FF0FF36012807D002282AD0032836D0F9
:104EF00001263046BDE8F081D4F8200205EB5507C5
:104F000000EB5721204600F0B9FA0028F1D1C7F391
:104F100008007F1C14F80080D4F8200200EB572111
:104F2000204600F0ABFA0028E3D1C7F30800E907F8
:104F3000225C48EA022001D00609DAE7C0F30B063A
:104F4000D7E7D4F8200200EB1521204600F096FAAE
:104F50000028CED1E8B204EB40000688C9E7D4F8B7
:104F6000200200EBD511204600F088FA0028C0D1BD
:104F700040F2FF1000EA850020440178D0F80100DB
:104F800041EA002020F07046B3E70020704730B5BA
:104F9000D0F8103201F10902F3B1D0F81402002365
:104FA0002E25C45C5B1C202C08D0052C00D1E524E8
:104FB000092B01D102F8015B02F8014B0B2BF0D356
:104FC000C37A0B72D0F81D40037F43EA04230B60C1
:104FD000038B8B80C08AC8800020107030BD10B554
:104FE000026804464FF0FF30002A13D0114600E05B
:104FF000491C0B78212B0ED33A2BF9D112F8013B27
:10500000303B0A2B06D28A4204D1022B02D2491C21
:105010001846216010BD002010BD0000F0B5264AE2
:105020000346D0F80042002000EB400552F825600E
:10503000A6420BD102EB8505D3F808626F68B74230
:1050400004D12D89B3F80662B54202D0401C022873
:10505000EAD302281AD1002002E0401C022805D21F
:1050600000EB400552F82550002DF6D1022815D04E
:1050700000EB4005002642F8254002EB8504D3F8FA
:1050800008526560B3F8063223816681002900EB7F
:10509000400102EB8101498902D019B10020F0BD25
:1050A000491C01E04FF4807100EB4003401C02EB0F
:1050B00083025181F0BD00003005022090F80022EB
:1050C000488B032A02D1898A40EA014070470000D8
:1050D0009AB09D4E9B48F060FBF7F2FDFCF710FB89
:1050E000012019238205010402241D010827CDE9AE
:1050F0000E42CDE90801CDE91035CDE9124708A8E7
:10510000FDF7FAF800B1FEE7FCF726FC00B1FEE778
:105110000DF1580C00214FF4A0524FF480538CE84D
:105120000E000F20CDE91404062114A8FCF7A2FFFD
:1051300000B1FEE7FBF7F6F94FF0404500202946A5
:10514000FBF734FAFBF7CEF90446FBF7DBF94443EF
:10515000012005EB8401FBF729FAFBF7D1F80020C9
:10516000FBF7B8FAAC112046FBF784F80120FBF7F7
:10517000B1FA2046FBF77EF800210846FBF7CAFA91
:1051800064210120FBF7C6FA00210120FBF7D4FAC5
:10519000FBF78CFC4FEA242906E04846FBF7AEFA01
:1051A00008206AA1FBF71AF9FBF7AEFC0128F4D13D
:1051B000A0462046FBF75EF863496F480831FBF7CD
:1051C0006DFE00B1FEE76D4F00240B2000F010F9DA
:1051D00047F8240058B1641C192CF6D3674968A01D
:1051E000FEF764FC10F0FF00307008D014E0484671
:1051F000FBF784FA082064A1FBF7F0F8FEE700242F
:1052000057F82400FFF738FE641C192CF8D3082047
:1052100064A1FBF7E3F8FEE7002481E057F82420BF
:1052200067A16846FEF702FD47496846091DFEF77B
:105230000FFC002874D157F8242061A16846FEF7BE
:10524000F5FC0120FBF746FAF0686946FEF77AFCA8
:105250000021F2680846FBF7CFF800250120E9B2EB
:10526000FBF758FA0220FCF73FF96D1CFF2DF5D330
:105270000120FBF755FA0128FAD0FF250120E9B2F9
:10528000FBF748FA0220FCF72FF96D1EF6D14046D5
:10529000FAF7F0FF641C684649A157F82420FEF78E
:1052A000C5FC29496846091DFEF7D2FB10B13078CC
:1052B00084422FD20020FBF70DFA57F8242040A19A
:1052C0006846FEF7B3FCF0686946FEF73BFC002138
:1052D000F2680846FBF790F80020E9B2FBF71AFAEB
:1052E0000220FCF701F96D1CFF2DF5D30120FBF71F
:1052F00017FA0128FAD0FF250020E9B2FBF70AFAD5
:105300000220FCF7F1F86D1EF6D14046FAF7B2FF25
:10531000641C05E00C496846091DFEF799FB20B1A5
:1053200030788442BFF462AF78E74846FBF7E6F98D
:1053300007206946FBF752F8082025A1FBF74EF835
:10534000FEE70000001080C06C0002202020506C9E
:105350006561736520696E736572742053442043E0
:105360006172642020202020202020202020202066
:1053700020202020200000002C730120B40B0220EC
:105380002F4D656469610000202043616E6E6F746B
:1053900020616C6C6F63617465206D656D6F7279EF
:1053A0002000000020204E6F204269746D61702043
:1053B00066696C65732E2E2E202020202020000090
:1053C0004D656469612F252D31312E313173000017
:1053D0002020202046696C652074797065206E6FEE
:1053E0007420737570706F727465642E20000000F5
:1053F000F0B50B30154D20F007010024144A0FE0E2
:1054000003688B420BD38B4205D95E1A4318476859
:10541000C3E9006700E04368136002C004E0021DB6
:1054200010680028ECD12046002802D1286808B175
:105430000020F0BD064A07481060074A121A22F001
:105440000702C0E9002401202860D7E7800002207D
:105450007C0002201C0C0220180E022004E000BF79
:1054600011F8013B00F8013B521EF9D27047C9B256
:1054700001E000F8011B521EFBD2704770B50546D3
:10548000D0F82C0200260C46A04210D0284600F08E
:105490002DF906000BD195F8010201232246294679
:1054A000FFF78AF808B1741E0126C5F82C42304671
:1054B00070BD2DE9F047022917460D46044603D377
:1054C000D4F81402A84202D80220BDE8F08794F86C
:1054D000001207F0FF084FF0010901291FD002292F
:1054E00050D00329F0D1D4F8200200EBD51120468A
:1054F000FFF7C4FF0028E8D140F2FF12110702EACB
:1055000085022244D2F8015001EA05213943117085
:105510000D0A55700E0C96700F0ED77042E0D4F83D
:10552000200205EB550600EB56212046FFF7A6FFAB
:105530000028CAD1C6F30800E90706F10106204495
:1055400003D0017868F31F1100E03946017084F838
:105550000492D4F8200200EB56212046FFF78EFF7C
:105560000028B2D1C6F30801EA07214402D0C7F3EC
:10557000071205E00A78C7F3032302F0F0021A438A
:105580000A700FE0D4F8200200EB15212046FFF747
:1055900075FF002899D1E9B23D0A04EB410181F879
:1055A00000804D7084F804928FE72DE9F0410229C4
:1055B0000F46064617D3D6F81402B84213D9002571
:1055C00023E039463046FFF77FFC040021D0012C50
:1055D00009D0601C09D0002239463046FFF769FF28
:1055E000050016D103E0022513E0012511E0D6F8ED
:1055F0001002411C08D096F80512401CC6F8100293
:1056000041F0010186F805122746D6F81402B84287
:10561000D7D82846BDE8F08110B581760A0AC2764F
:105620000B0C03750C0E447510BD2DE9F0470446B4
:1056300000F05CF85FEA000955D194F800020328F5
:1056400048D194F80502012844D1420220460021A5
:10565000FFF70DFFD4E98301D4F81C224FF0550C5D
:1056600084F8EC01522784F8FEC14FF0AA0C84F8AC
:10567000E811612384F8FFC1412527707226677005
:105680000F0AA3704FEA114CE570090E84F8E4612B
:105690004FEA102884F8E561060C84F8E651000E04
:1056A00084F8E731521C84F8E971012384F8EAC1D7
:1056B00084F8EB11214684F8ED8184F8EE6184F8DA
:1056C000EF01C4F82C2294F80102FEF78DFF0020B0
:1056D00084F80502002294F801021146FEF760FFEB
:1056E00008B14FF001094846BDE8F0872DE9F041C7
:1056F000044690F80402002728B3D4F82C52012362
:1057000094F8010221462A46FEF76EFF08B10127F0
:1057100019E0D4F820220020D4F81812AA1A84F82C
:1057200004028A420FD294F803620AE0D4F8180205
:1057300001232146054494F801022A46FEF754FF4E
:10574000761E022EF2D23846BDE8F08110B588B13F
:10575000D0F8001271B191F800225AB1B1F80622C6
:10576000B0F80402824205D191F80102FEF732FF3F
:10577000C00700D0092010BD000610160006101644
:1057800000000000010203040102030406070809E7
:1057900000020004070007000001000000010000F3
:1057A0000001000000010000010000200020002096
:1057B00040008000000400020600280028002800A5
:1057C000170017002800170000000000000000006C
:1057D00000000000000000000000000000000000C9
:1057E00000000000000000000000000000000000B9
:1057F00000000000000000000000000000000000A9
:105800000000000000000000000000000000000098
:1058100000000000000003800003800003800003FC
:105820008000038000038000038000038000038069
:1058300000010000010000000000000000038000E3
:1058400003800000000000000000000000000000D5
:105850000000000000000000000000000000000048
:10586000000E70000E70000E700004200004200076
:1058700004200004200000000000000000000000E0
:105880000000000000000000000000000000000018
:105890000000000000000000000000000000000008
:1058A00000000000000006600006600006600006C0
:1058B00060000660003FF8003FF8000660000CC082
:1058C000003FF8003FF8000CC0000CC0000CC00006
:1058D0000CC0000CC0000000000000000000000030
:1058E00000000000000000000000000180000180B6
:1058F0000007B0000FF0001870001870001C0000C6
:105900000F800007E00000F0001830001C30001C81
:1059100070001FE0001BC0000180000180000180BA
:1059200000018000000000000000000000000000F6
:105930000000000000000780000FC0001CE00018FD
:1059400060001860001CE0000FF80007E0001FF086
:105950000007380006180006180007380003F0009A
:1059600001E0000000000000000000000000000056
:105970000000000000000000000000000000000027
:105980000000000003F00007F0000C60000C0000B5
:105990000C00000600000700000F9C001DFC001812
:1059A000F0001870000FFC0007DC00000000000091
:1059B00000000000000000000000000000000000E7
:1059C00000000000000000000003800003800003CE
:1059D0008000010000010000010000010000000043
:1059E00000000000000000000000000000000000B7
:1059F00000000000000000000000000000000000A7
:105A0000000000000000000000000000000000187E
:105A10000000380000700000F00000E00000E0002E
:105A200001C00001C00001C00001C00001C00001B0
:105A3000C00000E00000E0000070000070000038CE
:105A4000000018000000000000000000000000003E
:105A50000000000000001800001C00000E00000EF6
:105A6000000007000007000003800003800003809F
:105A7000000380000380000380000700000700008F
:105A80000F00000E00001C000018000000000000C5
:105A90000000000000000000000000000000018085
:105AA000000180000180001DB8001FF80007E00021
:105AB00003C00003C0000660000660000000000094
:105AC00000000000000000000000000000000000D6
:105AD00000000000000000000000000000000000C6
