:020000042001D9
:10000000B8C90320DD010120E5010120E70101203D
:10001000E9010120EB010120ED01012000000000B9
:10002000000000000000000000000000EF010120BF
:10003000F101012000000000F3010120313D012009
:10004000F7010120F7010120F7010120F70101204C
:10005000F7010120F7010120F7010120F70101203C
:10006000F7010120F7010120F7010120F70101202C
:10007000F7010120F7010120F7010120F70101201C
:10008000F7010120F7010120F7010120F70101200C
:10009000F7010120F7010120F701012009150120D6
:1000A000F7010120F7010120F7010120F7010120EC
:1000B000F7010120F7010120F7010120F7010120DC
:1000C000F7010120F7010120F7010120F7010120CC
:1000D000F7010120F7010120F7010120F7010120BC
:1000E000F7010120F7010120F7010120F7010120AC
:1000F000F7010120F7010120F7010120F70101209C
:10010000F7010120F7010120F7010120F70101208B
:10011000F7010120F7010120F7010120F70101207B
:10012000F7010120F7010120F7010120F70101206B
:10013000F7010120F7010120F7010120F70101205B
:10014000F7010120F7010120F7010120F70101204B
:10015000F7010120F7010120F7010120F70101203B
:10016000F7010120F7010120F7010120F70101202B
:10017000F7010120F7010120F7010120F70101201B
:10018000F7010120F7010120F7010120F70101200B
:10019000F7010120F7010120F7010120F7010120FB
:1001A000F7010120F7010120F7010120F7010120EB
:1001B000F7010120F7010120F7010120F7010120DB
:1001C000F7010120F7010120DFF80CD000F0A4F9BD
:1001D00000480047B96E0120B8C90320064880478F
:1001E00006480047FEE7FEE7FEE7FEE7FEE7FEE71C
:1001F000FEE7FEE7FEE7FEE7353D0120C9010120ED
:1002000040EA01039B0703D009E008C9121F08C098
:10021000042AFAD203E011F8013B00F8013B521E18
:10022000F9D27047D2B201E000F8012B491EFBD28F
:1002300070470022F6E710B513460A4604461946F1
:10024000FFF7F0FF204610BD30B505462A460B46A5
:1002500012F8010B13F8014B08B1A042F8D01CB101
:10026000002802D06D1CF1E7284630BDCAB2401EFE
:1002700010F8011F8A4202D00029F9D100207047EE
:10028000421C10F8011B0029FBD1801A704710B5E1
:10029000002200E0521C835C8C5CA34201D1002B45
:1002A000F8D1D8B2E1B2401A10BD30B504460020F2
:1002B000034600E05B1C934203D2E05CCD5C401B34
:1002C000F8D030BD30B505460020034600E05B1C89
:1002D000934205D2EC5CC85C201A01D1002CF6D107
:1002E00030BD2DE9FE4F81EA030404F0004421F003
:1002F000004100944FF0000B23F0004350EA01044A
:100300005ED052EA03045BD0C3F30A54C1F30A552A
:100310002C44A4F2F3340194A0FB0254C1F3130162
:1003200041F48011C3F3130343F4801301FB02442F
:1003300000FB034E840A970A44EA815447EA835734
:10034000A4FB076802958D0A05FB07854FEA932CED
:1003500004FB0C542705029D4FEA065847EA16375E
:10036000B5EB08056EEB070C870E920E47EA811776
:1003700042EA8312A7FB0201B6EB0B0164EB000417
:100380002B0D43EA0C335E1844EB1C50DA46514601
:10039000E7FB0201C5F313044FEA0B3343EA14539E
:1003A0004FEA0432019C43EA0603A4F10C040294D0
:1003B000009CCDE900B400F061F803B0BDE8F08F17
:1003C00000200146F9E70EB540F2334102910021C9
:1003D000CDE900110A460B4600F050F803B000BD0D
:1003E000C1F30A5210B5C1F3130140F2FF3341F4D7
:1003F00080119A4201DA002010BD40F233439A4244
:10040000A2F2334203DC524200F019F810BD9040D2
:1004100010BD30B50B46014600202022012409E022
:1004200021FA02F59D4205D303FA02F5491B04FAAD
:1004300002F52844151EA2F10102F1DC30BD202A8C
:1004400004DB203A21FA02F00021704721FA02F37E
:10045000D040C2F12002914008431946704710B5C0
:10046000141E73F1000408DA401C41F100019218D7
:100470005B411A4301D120F0010010BD2DE9F04D80
:1004800092469B4611B1B1FA81F202E0B0FA80F2D5
:100490002032904600F052F804460F4640EA0A0027
:1004A00041EA0B0153465A46084313D0114653EA1A
:1004B000010019D0C8F140025046FFF7C0FF0546C1
:1004C0000E4650465946424600F038F8084305D0DB
:1004D000012004E020463946BDE8F08D00200543A8
:1004E00046EAE0762C4337430A986305E40AA0EB1A
:1004F00008000022FD0A44EA47540A3002D50020D1
:100500000146E9E7010510196941DDE908450019CF
:100510006941BDE8F04DA2E7064C074D06E0E068F2
:1005200040F0010394E8070098471034AC42F6D33A
:10053000FFF74EFE0079022020790220202A04DBFA
:10054000203A00FA02F1002070479140C2F12003E6
:1005500020FA03F319439040704700007FB50F481D
:1005600000240D490125C0E9001484600461C462BF
:1005700084628561C561C46001F019F90820032116
:10058000CDE90214CDE900050448694601F05AF8A6
:10059000024801F0ADF97FBD0022014034C00320C4
:1005A00070B50C4608B1002070BD224D28680128A6
:1005B00003D1FFF7D3FF002028601F480A2101F074
:1005C00047F91D4801F0F0F8FFF7FDFE9FED1B1BFA
:1005D00053EC112BFFF785FEFFF702FF4FF47A7102
:1005E000B0FBF1F26FF07C01D2B212FB01F3642197
:1005F00000EBC305B5FBF1F14FF47A7312FB03F383
:1006000030322270C9B201EBC10505EB0115303162
:10061000617003EB85050A23461BB6FBF3F303EB7E
:1006200083063033A37005EB4602801A3030E07049
:10063000042070BDE000032034C003209A999999EA
:100640009999E93F4B496FF0706210B5D1F80433C6
:1006500023F44033C1F80433D1F80433446823430E
:10066000C1F8043301684B6823F480734B60016860
:1006700003694C6844EA03234B6001684B6823F02C
:1006800040734B60016884684B6823434B6001688A
:100690008B6823F400638B600168C4688B68234314
:1006A0008B60816AD14201688A6822F070628A6038
:1006B00001680DD0836A8A681A438A6001688A6873
:1006C00022F040528A600168C36A8A681A4302E0D5
:1006D0008A6822F040528A6001688A6822F0020229
:1006E0008A60016882698B6843EA42028A60016A13
:1006F000002901684A6815D042F400624A60016826
:100700004A684FF4604322F460424A60016893FAF9
:10071000A3F3426AB3FA83F44B68521EA240134318
:100720004B6002E022F400624A600168124BCA6A20
:1007300022F47002CA620168848BCA6A03EB045314
:100740001A43CA6201688A6822F400728A600168EA
:10075000026B8B6843EA42228A6001688A6822F44D
:1007600080628A60016840698A6842EA8020886005
:1007700010BD0000002001400000F0FF002010B577
:1007800000F0C4FA0022501E114602F013F900F0E6
:1007900051F800F0B5F901204FF0404100F0F4F9B4
:1007A000012000F085FA094800F096FA03F04AF8B3
:1007B00007A003F08DF80EA003F04EF8124911487F
:1007C000086012A0BDE8104003F00ABB0800032037
:1007D000576562736572766572204170706C6963EB
:1007E0006174696F6E2052617720415049000000AA
:1007F00053544D3332463734364E4720626F617260
:1008000064000000800000FF3400032020205374A7
:100810006174653A2045746865726E657420496E2E
:10082000697469616C697A6174696F6E202E2E2E0D
:100830000A0000001548002100B587B0026842F4A4
:1008400080720260006800F4807005900F481430D8
:10085000026842F48042026000680D4A00F4804061
:1008600005904FF48070029103916946CDE9000232
:10087000084801F0BFFE00220F21172002F09AF86D
:10088000172002F08CF807B000BD0000303802409D
:1008900000002110002002401CB5044600F020F9A1
:1008A000034600F00DF902460020CDE90004064899
:1008B000064C006800EB800101EBC00104EB8101F4
:1008C000C96D03F0DBF81CBD04000320A801032060
:1008D0000648C02330B40824052204606103436144
:1008E000C261C16230BC02F0CDB800002401032017
:1008F00030B40A4C0A4B246804EB440403EB840331
:100900009B689C881D68E41DDB88E408203A14FB82
:1009100002F203FB025230BC00F0F4BC04000320DE
:10092000900203202DE9F04700270446154689462A
:1009300010463A4600E0521C10F8011B0029FAD17B
:1009400000F0BEF8DFF89CC0012B274EDCF8001049
:1009500001EB410106EB810189688988B0FBF1F068
:1009600002D0022B09D104E0801A484304EB500066
:1009700002E0801A4843001B84B247F6FF71601EF4
:10098000884200D30124E04600F09AF80146D8F8E6
:10099000000000EB400006EB80008068808807FBC9
:1009A000101189B2814213D3012012E0494620463A
:1009B000FFF79EFFD8F800007F1CBFB26D1C00EB54
:1009C000400006EB800080688088204484B2DBE72A
:1009D00000202A780AB1012100E000210842E5D177
:1009E000BDE8F08704000320900203200A46034676
:1009F00010B500F057F8C088BDE8104058430323F5
:100A000081B20020FFF78EBF10B50B46044600F000
:100A100057F8074903FB0040096801EB810303EB2A
:100A2000C101044B03EB8101C96D41F8202010BDC9
:100A300004000320A80103202DE9FC419846174B30
:100A40000746174E15460C46186800EB400056F84E
:100A5000200000F04FF900F033F8196800FB047033
:100A600001EB810202EBC101A6F1E80202EB810178
:100A7000C96D01EB800400F023F801461868491B9A
:100A8000434600EB400256F82220CDE900122A46E8
:100A9000214602F0F3FFBDE8FC81000004000320C2
:100AA0009002032004480549006800EB400001EB78
:100AB000800080687047000004000320900203203B
:100AC0000548006800EB800101EBC000034901EB21
:100AD0008000006E7047000004000320A80103207E
:100AE0000548006800EB800101EBC000034901EB01
:100AF0008000406E7047000004000320A80103201E
:100B00002DE9F0411D4C2820092140F2391604F14D
:100B1000140840F27A252A2240F21D1C0B234FF4C0
:100B2000037788E8EF1000212046FFF7D1FE4FF44D
:100B3000F07222664FF488716166002084F83400F8
:100B400084F8350084F836006060A0600C4AE060EC
:100B500022602061204601F099FE18B9002120464C
:100B600000F04EF8054801F095FE00F02DF905481B
:100B700000F0B2F80020BDE8F0810000A8010320D9
:100B8000006801400800032030B58DB00A460023FC
:100B900004460093FFF794FFCDE90103FFF7A0FFA0
:100BA000FF21039007208DF8303009924FF4C06583
:100BB0008DF83130CDE9043106938DF83230CDE92E
:100BC0000750FFF77DFF0A90FFF78AFF0B90224640
:100BD0000948694601F031FE074904EB44004FF033
:100BE000FF34E83101EB800223065460034C94602B
:100BF00041F820300DB030BDA801032008000320CB
:100C0000274870B50025016886B041F08061016019
:100C1000006800F08060059021481438016841F4B4
:100C200000010160016801F400010591016841F4CF
:100C300080710160016801F480710591016841F4DF
:100C400000710160016801F400710591016841F4CF
:100C500080610160006802240E26694600F480600D
:100C600005904FF470408DE831000E48CDE9034601
:100C700001F0C0FC4FF6FF7069468DE831000A486C
:100C8000CDE9034601F0B6FCFF2069468DE831004E
:100C90000648CDE9034601F0ADFC06B070BD00008A
:100CA0004438024000200240002402400028024054
:100CB0000149086070470000040003200449054A08
:100CC000096801EB410102EB8101486070470000B7
:100CD00004000320900203200449054A096801EB3F
:100CE000410102EB8101886070470000040003208D
:100CF000900203200349044A096801EB410142F8CC
:100D000021007047040003209002032070B51549AC
:100D10000500154886B005D0012D03D0022D01D065
:100D2000032D08D10A6842F001020A6009680446EE
:100D300001F0010100910D4E0120032156F82520FC
:100D4000CDE90120CDE9030101A9204601F052FCC3
:100D500036F82500012281B2204601F037FD06B0A9
:100D600070BD00003038024000000240689C012045
:100D70000849020005D0012A03D0022A01D0032A23
:100D800000D10846044931F82210012289B201F04D
:100D90001DBD000000000240689C012008490200BF
:100DA00005D0012A03D0022A01D0032A00D1084627
:100DB000044931F82210002289B201F007BD000079
:100DC00000000240689C01202DE9F0411E480421EA
:100DD0001C4B072200F134074FF0020C0125036081
:100DE00000F11C08C7F800C00024C7E90121FA601F
:100DF0002022C7F810C04023C7F814C04FF4C076B3
:100E0000C7F818C04F02C0E901454FF4805C88E87C
:100E1000901084620C3080E84E0000210C3800F005
:100E20005DF809490848343102F098FC074E08B1D2
:100E3000357000E0347040F2036000F009F830785B
:100E4000BDE8F081400100A05803032020000320EA
:100E50002DE9F843204C102700254FF6FF78012696
:100E6000009521468146C4E90067C4E90265A1F105
:100E70005000424602F0A6FC012000F031FF0220A3
:100E80002146C4E90007C4E90265A1F150004246C9
:100E900002F098FC03214246C4E9001708202146CD
:100EA000C4E90205A1F1500002F08CFC4FF40C7073
:100EB000009004214246C4E90260C4E900172146BB
:100EC000A1F1500002F07EFCA4F150004946BDE8BB
:100ED000F84302F065BC0000A8030320F0B5054606
:100EE0004F48002487B0016841F0010101600068AB
:100EF0004B4900F0010005900839086840F4800073
:100F00000860086800F480000590086840F0080058
:100F10000860086800F008000590086840F01000BC
:100F20000860086800F010000590086840F0200094
:100F30000860086800F020000590086840F0400054
:100F40000860086800F040000590086840F08000E4
:100F50000860086800F080000590086840F4807020
:100F60000860086801210C224CF2037300F48070C1
:100F700005900220CDE9010100936946CDE9030205
:100F8000284801F037FB4FF68370009026486946E9
:100F900001F030FB4FF63F0000902448694601F015
:100FA00029FB48F2331000902148694601F022FBEA
:100FB0004FF62C7000901F48694601F01BFB40F271
:100FC000FF6000901C48694601F014FB4FF4007369
:100FD0001A494FF0800CDE005F004C605801C1E9F7
:100FE00002C3C1E90476C200154EC1E90604032319
:100FF0000846C1E90824C1E90A340E600C6329637C
:101000008D6300F0FCFD0D4800F024FE0022052158
:10101000382001F0CFFC382001F0C1FC07B0F0BD52
:1010200038380240000C0240001002400014024018
:1010300000180240001C024000200240A8020320C9
:1010400010640240F0B5BFF34F8FBFF36F8F1949A3
:101050000020174B0860196841F400311960BFF394
:101060004F8FBFF36F8F124970310860BFF34F8FFE
:10107000081F104D43F6FF7410350068C0F34E3161
:10108000C0F3C90204EA4116104600BF46EA807761
:101090002F60401EFAD2491EF4D2BFF34F8F18685A
:1010A00040F480301860BFF34F8FBFF36F8FF0BDF7
:1010B00014ED00E050EF00E070B5054601F08CFB48
:1010C0000B4C6168401AB0F5FA7F10D301F084FB35
:1010D0006060207803280AD02078042807D0207880
:1010E000052804D02846BDE8704000F003B870BD64
:1010F00018010320F0B504462C482D4E8BB02D4F1F
:101100000178012919D0022924D16568002D23D046
:1011100003210170204603F0C1FD290EC5F30740ED
:10112000C5F30723CDE9000123A105A8EAB202F027
:1011300067FE05A93E6023A035E000216160A16043
:101140000222E1600270204603F056FD28A03E60B6
:1011500002F046FE0BB0F0BD616A497B0429F9D963
:1011600004210170204603F099FD02AD2A482B4A64
:101170006FF07F4104AB85E8070003AA204602A96F
:1011800006F043F86C210120A823CDE90001C0221C
:1011900009A105A802F034FE21A03E6002F020FE65
:1011A00005A93E6023A002F01BFED3E7180103202F
:1011B000800000FF3400032025642E25642E256462
:1011C0002E25640049502061646472657373206148
:1011D000737369676E6564206279206120444843B7
:1011E00050207365727665723A2025730A000000FC
:1011F000202053746174653A204C6F6F6B696E6781
:1012000020666F72204448435020736576657220D3
:101210002E2E2E0A00000000C0A8016CC0A80101FB
:10122000444843502074696D656F75742021210A0C
:1012300000000000537461746963204950206164A8
:10124000647265737320203A2025730A0000000041
:10125000F0B50568059C44EA03446C640368DA63EE
:101260004268B2F5403F02D00068C160F0BD01F4B1
:101270007F42856801F47F04224301F07F4301F43B
:101280007F0701F47F46CCB2BDB1012D16D001F429
:101290007F02C1F3C401D20C022D11D0032D14D052
:1012A000310B3A0D0D01190F45EA022242EA0132D3
:1012B00042EA141200688263F0BD1A432243F9E740
:1012C000B30A5B0143EAC22206E0F40ADB0F6401C1
:1012D00044EA822242EAC3320A43EBE70168182358
:1012E000CAB2103AB2FBF3F2054B6FF30901032ABD
:1012F0009B5C436500D9091D0165084670470000E5
:10130000469C01202DE9F74F29480026DFF89CA0D4
:10131000006800EB40000AEB800080688588C78881
:10132000E81D834620F00700401B00F0FF0939E06C
:101330004FEADB010298012901FB060009D00229CE
:1013400009D0017842788378080440EA02201843E3
:1013500003E0007801E0008840BA002480461AE0EB
:101360002A1B02EB09010120491E884010EA080FE0
:10137000009800EB04020E48016890B201EB4102B4
:1013800002D05AF8222002E00AEB82014A68019951
:10139000FFF73AFB641CAC42E2D30198401C80B2D8
:1013A0000190761CBE42C3D3BDE8FE8F900203209D
:1013B0000400032038B50446006800F580508169B8
:1013C00041F480118161206800F5805080690090AF
:1013D000012000F085FC2068009900F580508161B3
:1013E00038BD00002DE9F041044621B14FF4006101
:1013F000C800C4E90201E0690025002862D028463F
:101400002368D4E9021C3A4F40261A6841EA0C01CD
:1014100001433A4041F400701043186020680768A7
:10142000012000F05DFC20680760206846602068AD
:101430004668012000F054FC20684FF64172466077
:10144000206885602068C56021688869104040F088
:101450008000886120688669012000F041FC2068D6
:1014600086612068C5612068C569012000F038FCEC
:101470002068204B2049C561206800F580508269B2
:101480001A4011438161206800F580508569012070
:1014900000F026FC2068194900F58050856120681D
:1014A00000F580500160206800F58050056801203B
:1014B00000F016FC206800F580500560A069012846
:1014C00003D009E04FF480609AE720680C4A00F5E9
:1014D0008050C1691143C16160690A4982880A6408
:1014E0000278D0F8010042EA00204864BDE8F081AB
:1014F0000F8120FF233FDEF8040020028020C1027C
:1015000040000100008002404FF4807001F066B896
:10151000F0B5D1E90125D1E90343D1E905762A43A4
:10152000D1F800C044EA0304D1E9073542EA0402D5
:10153000496A42EA0702BCF1010F42EA060208D0FA
:1015400004681A432A430A43E30BDB031A4302608D
:101550000BE0066844682B43F50B6FF30E04ED03B4
:1015600029430B430360224342600020F0BD4269DF
:1015700042EA4101416100207047F8B50546144632
:10158000D1E90003D1E902216FF01F06184306EBF1
:10159000421242EA412108430090286101F01CF9FF
:1015A000064609E0601C07D024B101F015F9801B44
:1015B000A04201D90320F8BDA8698006F2D400201A
:1015C000F8BD2DE9F043914691E81C006FF00F053E
:1015D000521E2E0105EB03132F031A430B7E4FEA15
:1015E000054C0D8A06EB04268C8AC96832434FF0FD
:1015F0007F48B9F1010F07EB05450CEB045408EBEC
:1016000003630CD086683F1107EB01310A432A437C
:1016100022431A4306F070410A4382600FE0C66815
:10162000090387682A431A43A1F58051214306F034
:1016300070431A43C26007F0704421438160002068
:10164000BDE8F083F8B50025009590F83C20012A0C
:1016500018D0012280F83C200A6807234E4C066807
:10166000092A1AD90A3A02EB4207F268BB409A43A8
:10167000F2600E680268A64206D10B7AD66846EA86
:10168000036308E00220F8BD0A3E8B68D76806EBCA
:101690004606B3403B43D3600EE002EB420732699B
:1016A000BB409A43326103680E788A681F6906EB73
:1016B0004606B2403A431A614A681F23072A13D2EA
:1016C0000668521E02EB8207726BBB409A4372633C
:1016D00003680E790A88761E5F6B92B206EB860667
:1016E000B2403A435A6327E006680D2A12D2D21F4D
:1016F00002EB8207326BBB409A43326302680E7979
:101700000B88F61F176B9BB206EB8606B3403B4374
:10171000136311E00D3A02EB8207F26ABB409A4371
:10172000F26202680E790B880D3ED76A9BB206EB17
:101730008606B3403B43D362184A0368934208D1FC
:101740000B68122B05D1D2F8043343F48003C2F89E
:101750000433036893421AD10B68A34201D0112BC2
:1017600015D1D2F8043343F40003C2F804330968F6
:10177000A1420CD10A490B4A0968B1FBF2F101EB15
:101780008101490000E0491E00910029FBD180F849
:101790003C500020F8BD0000120000100020014065
:1017A0003800032040420F000068C06C704770B5DD
:1017B00004004FF0000503D0206C002610B107E0B4
:1017C000012070BD6664204684F83C6000F01AF881
:1017D000206CC00610D4206C20F4885040F0020029
:1017E00020642046FEF72EFF6664206C20F0020085
:1017F00040F00100206400E0012584F83C602846A8
:1018000070BD00001048002100B587B0026842F0AA
:10181000200202600068032200F0200005904FF4CF
:1018200080600090CDE901210848694600F0E2FEA1
:1018300005481430016841F480610160006800F4DB
:101840008060059007B000BD3038024000140240AF
:101850002DE9F041044600680D46002781684905DE
:101860000BD58068C00508D5206C84F83C7040F02A
:10187000200020640120BDE8F08100F0ADFF0646A5
:101880000FE0681C0DD025B100F0A6FF801BA84218
:1018900007D9206C84F83C7040F0040020640320D9
:1018A000E9E7206800688007EBD521686FF0120037
:1018B0000860206C40F4007020642068816811F09A
:1018C000405F13D1A16989B9C16A11F4700F02D0C8
:1018D000806840050AD4206C20F480702064206C5D
:1018E000C00403D4206C40F0010020640020C2E753
:1018F00018B50022009290F83C10012907D0012170
:1019000080F83C1001688B68DB0702D011E00220F0
:1019100018BD8C68214B44F001048C602049096893
:10192000B1FBF3F101EB410100E0491E00910029F8
:10193000FBD101688B68DB072DD0036C40F201649A
:10194000A34343F4807303644B685B0505D5036CC4
:1019500023F4005343F480530364036CDB0404D585
:10196000436C23F00603436400E042646FF002041A
:101970000C4B80F83C200C60D3F804130068C906B7
:1019800001D0984207D1816811F0405F03D181688E
:1019900041F080418160002018BD000040420F00EE
:1019A0003800032000200140F0B590F8383000EBFB
:1019B00001121832012B25D0012480F8384002236F
:1019C00080F8393000292F4D066851681CD0F36922
:1019D0002B400A2941D009293FD015891943177B8B
:1019E0002B0443EA07630B43F361036811681D6925
:1019F0006FF30D052943196151680A2935D009296A
:101A000033D037E00220F0BD736A2B400A2916D08C
:101A1000092914D015891943177B2B0443EA07635E
:101A20000B437362036811689D696FF30D052943C9
:101A3000996151680A290AD0092908D01AE0178942
:101A40001943D56805F07F4343EA0743E8E7D168C7
:101A5000026821F07F4191620CE017891943D56833
:101A600005F07F4343EA0743BDE7D168026821F0F0
:101A70007F411162002180F8394080F83810084613
:101A8000F0BD0000F0FFFC0070B5040004D094F835
:101A90003900002510B106E0012070BD204684F811
:101AA000385000F01EF8022084F83900D4E9001004
:101AB00001230A6822F44032104308602168A068BC
:101AC0004A6B22F00702104348632168E0680A6C01
:101AD0006FF30D0210430864E56384F83930002089
:101AE00070BD70472DE9F0470446006800260D469A
:101AF00001274FF004084FF003090068C0072BD0FE
:101B000000F06AFE824623E04168426801F020004E
:101B100002F00101084309D0216820228A6021686F
:101B20008F6084F8398084F8386025E0681C0FD015
:101B30002DB100F051FEA0EB0A00A84208D9E16BDC
:101B400084F8386041F02001E16384F8399025E0A1
:101B5000206841688907D7D52068C069800623D5E9
:101B600000F03AFE82461BE04068000707D5226875
:101B70000821916084F839800120BDE8F087681C55
:101B80000ED02DB100F028FEA0EB0A00A84207D924
:101B9000E06B40F02000E06384F839900320ECE72C
:101BA00020684168C906DFD52268022110209160B3
:101BB0002168886084F83970002084F83860DCE798
:101BC000F8B5044690F83800069D012815D0012686
:101BD00084F83860022084F839002068066826F00E
:101BE0000106066020460095FFF732FB2068016879
:101BF00041F0010101600020F8BD0220F8BD70B580
:101C0000040025D094F83500022821D02068002552
:101C10002122016821F0010101602068056020682F
:101C20004560206885602068C5602068056120687F
:101C300042612046FFF752FB94F854203F21914027
:101C40008160E56484F83550002084F8345070BD1C
:101C5000012070BD2DE9F041040020D01F4D02206D
:101C6000626A84F83500201D90E80B10084354F890
:101C7000141B43EA0C03184394E8C0500B68143C4F
:101C800040EA060040EA070040EA0C0003EA0503C8
:101C900040EA0E00042A40EA030003D006E00120D7
:101CA000BDE8F081D4E90B231A4310430860216892
:101CB000606A4A69042822F0070240EA020001D162
:101CC000A26A104348612046FFF708FB0021E16447
:101CD000012084F835000846E2E700003F8010F05C
:101CE00031B500F079FD044600F076FD0099001B47
:101CF0008842F9D338BD00002DE9F047054690F839
:101D000045000C4601287DD002214FF0010985F8DD
:101D10004590002C85F8441077D094E80901E768D5
:101D20001843D4E90423D5E9021648EA070840EA33
:101D30000800D4F82080084329681043626AD4E977
:101D4000067C18430B68304338433B4E40EA0C0096
:101D5000A76A40EA0800104333403843184308603C
:101D6000286806680120FFF7BBFF2868066004F1B9
:101D70003401D4E90B03276C91E8061018432B6853
:101D800011430843D4E9116240EA0C003843304360
:101D900010435860286846680120FFF7A1FF2868B3
:101DA0004FF6417346602968E06C88602968206DB1
:101DB000C860B4F85460D4E91607216E2A68384325
:101DC00041EA064CD4E91976916940EA0C0038439F
:101DD0001940304308439061286886690120FFF765
:101DE0007FFF28688661D4E91B012A680843D06117
:101DF0002868C4690120FFF773FF2868C46114E0F4
:101E000000E002E00220BDE8F0872968D5E902037E
:101E10000A68184322F49042104308602868046856
:101E20000120FFF75DFF28680460002185F84490D9
:101E3000084685F84510E6E70F8120FF2DE9F043BD
:101E400090F845400025012C0DD04FF0010980F895
:101E50004590022644F2F45780F844605E1E4FF02D
:101E6000004C816217E00220BDE8F083C5EBC51885
:101E700001EB451408EB480802EB8808C4F800C0E1
:101E8000B542C4E9017804D204F12008C4F80C80FA
:101E900000E0E1606D1C9D42E8D30368002403F577
:101EA0008053D96080F8449080F845402046DBE7B5
:101EB0002DE9F04390F8454091460022012C09D0CD
:101EC000C1620126022480F845605D1E80F844400E
:101ED000E70422E00220BDE8F08300BFC2EBC21499
:101EE00004EB440801EB421409EB880C2760C4F8AA
:101EF00008C0D0F81CC0BCF1000F05D1D4F800C058
:101F00004CF4400CC4F800C0AA4204D204F1200CE6
:101F1000C4F80CC000E0E160521C9A42DED30268B3
:101F2000002302F58052116180F8446080F845304A
:101F30001846D0E710B590F84510012913D00122BA
:101F400080F84520022180F844100023816A0C6843
:101F5000002C28DB0C68E40519D5846B641C8463B1
:101F6000012C02D002E0022010BD016341630C6825
:101F7000C4F30D44241FC463046BA4680464C968DB
:101F8000816280F8442080F84530002010BD0C6844
:101F9000A40503D58263C0E90C1302E0846B641CC2
:101FA0008463C968816280F8442080F8453001204C
:101FB00010BD00002DE9FC474FF000060400B146BB
:101FC000009603D094F8440018B107E00120BDE862
:101FD000FC87204684F8456000F0D2F85E4801682E
:101FE00041F480410160006800F4804001905B484A
:101FF000016821F4000101600168226A1143016057
:10200000206800F58050016841F0010101602168FD
:1020100001F580500268D207FCD1086920F01C0548
:1020200001F06EF94E4A4F4902448A4202D245F00D
:10203000080516E04C494D4A0144914202D245F050
:102040000C050EE04A4A4B4902448A4209D34A4AE7
:102050004A491044884202D245F0040501E045F0A7
:1020600010052068056100214FF40042204600F071
:1020700071FA4FF00105B0BBFF20FFF731FE606839
:1020800090B300F0A9FB4FF4FA68074601216A46B5
:10209000204600F00FF900F09FFBC01B404518D808
:1020A00000984007F2D5002120464FF4805200F0FE
:1020B00051FAC0B900F090FB4FF47A78074601213D
:1020C0006A46204600F0F6F800F086FBC01B40454B
:1020D0000BD901212046FFF785F984F844500320ED
:1020E00084F8456073E724E018E000988006E6D5A0
:1020F00010216A46204600F0DDF8D0B9009841076B
:1021000003D54FF40061E16000E0E660800701D58F
:10211000A66019E04FF48040A06015E0D4E90210F9
:10212000C00840EA510082B22046002100F012FAB5
:1021300030B101212046FFF755F984F8445045E7B6
:1021400040F6FF70FFF7CCFD49462046FFF74AF9FD
:1021500084F8445000203AE74438024004380140F3
:1021600000D3CEFEC0E1E40040F1E9FD40787D01FE
:1021700000796CFC005A6202001F0AFA80F0FA0231
:1021800030B5454C002087B0216841F00101216045
:10219000216801F001010591216841F002012160EF
:1021A000216801F002010591216841F004012160DC
:1021B000216801F004010591216841F010012160BE
:1021C000216801F010010591216841F02001216092
:1021D000216801F020010591216841F04001216052
:1021E000216801F040010591216841F080012160E2
:1021F000216801F080010591216841F4807121601E
:1022000021680DF1080C0B2301F480710591032165
:1022100002258CE80B0086222048CDE9002569467E
:1022200000F0E8F9202000901D48694600F0E2F92E
:10223000042000901B48694600F0DCF93E20009025
:102240001948694600F0D6F94FF4D040009017487D
:10225000694600F0CFF9C02000901548694600F0AB
:10226000C9F9206840F000702060206800F000701C
:102270000590206840F080602060206800F0806059
:102280000590206840F000602060206800F0006049
:10229000059007B030BD0000303802400000024019
:1022A00000040240001002400008024000180240F2
:1022B000001C02402DE9F047044690F84400914686
:1022C00082281DD082224FF6FF7084F844204FF4FC
:1022D000F863226803EA8111258A136900EAC520A0
:1022E00003F01C031843014321F0020040F00105F4
:1022F000156100F071FA012706464FF4803811E0AD
:102300000220BDE8F08700BF00F066FA801B404560
:1023100006D3002084F8447084F845000320F0E7D9
:1023200020680569E807EFD12068406981B2C9F8E3
:10233000001084F844700020E3E7F8B5044690F8F4
:102340004500012839D0012584F84550022084F841
:10235000440020680026016841F0080101602068FF
:10236000006800902846FFF7BBFC216800980860D1
:102370002068016841F00401016020680068009055
:102380000120FFF7ADFC2168009808602046FFF7A8
:1023900011F8206800F58050816941F40051816195
:1023A000206800F58050816941F00201816184F864
:1023B0004450002084F84560F8BD0220F8BDF8B50F
:1023C000044690F84500012839D0012584F845508D
:1023D000022084F84400206800F58050816921F4CF
:1023E00000518161206800F58050816921F002016F
:1023F000816120680026016821F0040101602068E5
:10240000006800900120FFF76BFC216800980860CD
:102410002046FEF7CFFF2068016821F00801016027
:102420002068006800900120FFF75AFC216800989E
:10243000086084F84450002084F84560F8BD02200C
:10244000F8BDF0B590F845200023012A13D00126ED
:1024500080F84560022280F844204FF0000561B109
:10246000C76A3A68002A0BDA122180F8441080F813
:1024700045500120F0BD0220F0BD80F84460F6E731
:1024800040F2F454A1420BD9B1FBF4F204FB121C4C
:10249000B1FBF4F2BCF1000F00D0521C012A45D16F
:1024A0003A68C1F30C0142F040523A60C26A51608E
:1024B000C16A0A6842F000420A60C16AC968C16222
:1024C00036E0D7F800C02CF0405CC7F800C033B944
:1024D000C76AD7F800C04CF0805CC7F800C0D0F8DD
:1024E0002CC0571EBB42CCF8044014D1C76AC2F1BD
:1024F000010ED7F800C0CEEBCE1E4CF0005CC7F842
:1025000000C00EEB4E0ED0F82CC001EB8E07C7F3C7
:102510000C07CCF80470C76AD7F800C04CF0004C28
:10252000C7F800C0C76A5B1CFF68C7629342C8D384
:10253000016801F580514A69520705D504224A61B4
:10254000016801F580514D6080F8446080F8455085
:102550000020F0BD2DE9F041044690F844004228E7
:102560001ED042204FF6FF7384F8440096B22068D4
:102570004FF4F867258A07EA81110269466103EA88
:10258000C520236802F01C021043014341F00305FB
:102590001D6100F021F9012706464FF4803811E053
:1025A0000220BDE8F08100BF00F016F9801B404515
:1025B00006D3002084F8447084F845000320F0E737
:1025C00020680569E807EFD184F84470E9E7000066
:1025D000014802F099BF0000FCBF0320044910B578
:1025E0000A68024202D00860FFF7F2FF10BD000047
:1025F000143C01402DE9F84FDFF89CE100224FF038
:1026000001084FF0030B4FF00F0A00BF0B6808FAE8
:1026100002F42340A34271D14D68022D01D0122D46
:102620000FD1D5080E69570700EB8505A9462D6A1D
:10263000FF0E0AFA07FCBE4025EA0C052E43C9F836
:1026400020600F79550006680BFA05FC07F00307B8
:1026500026EA0C06AF40374307604E68012E05D0CE
:10266000022E03D0112E01D0122E0ED18668CF6813
:1026700026EA0C06AF403743876046680F79A643C9
:10268000C7F30017974037434760C4688E6824EA51
:102690000C04AE402643C6604C68E40075D53F4C40
:1026A000256845F480452560246822F003069507D7
:1026B00004F4804400943A4C2D0F2644D6F8084880
:1026C000DFF8E0C00AFA05F7604524EA070401D103
:1026D00000272EE0344FB84201D1012729E0334FC3
:1026E000B84201D1022724E0314FB84201D103277B
:1026F0001FE0304FB84202D104271AE045E02E4FC8
:10270000B84201D1052714E02C4FB84201D1062769
:102710000FE02B4FB84201D107270AE0294FB842FA
:1027200001D1082705E0284FB84201D1092700E070
:102730000A27AF4027437546C6F808784E68DEF88A
:102740000040F60324EA030400D51C43124E2C601B
:10275000361D4D683468AD0324EA030400D51C43DC
:102760000D4F346008374D683C68ED0224EA0304DD
:1027700000D51C43084D3C600C354E682C68B602F1
:1027800024EA030400D51C432C60521C102AFFF4D9
:102790003DAFBDE8F88F0000003C014044380240E6
:1027A00000300140000002400004024000080240E6
:1027B000000C0240001002400014024000180240C9
:1027C000001C024000200240002402400AB1816146
:1027D00070470904FBE700000148006870470000EB
:1027E0000000032002480168491C01607047000096
:1027F00000000320074810B5016841F40071016032
:10280000032000F0F7F80F2000F006F800F0C3F8FE
:10281000002010BD003C024010B5044600F070FDE1
:102820004FF47A71B0FBF1F000F0E4FF0022214692
:10283000501E00F0BFF8002010BD2DE9F041044605
:1028400090F8A00016460F4601281DD0012584F8F7
:10285000A050022084F8A10006EB860000EBC60021
:10286000342204EB80003830FDF7CAFC324639468A
:10287000204601F031F9216800204D6284F8A15012
:1028800084F8A000BDE8F0810220FBE790F8A100E9
:10289000704700002DE9F041040004D094F8A10035
:1028A000002518B107E00120BDE8F081204684F83A
:1028B000A05000F06FF83648022184F8A1100122E0
:1028C00002CC8B6923F070438B6194E84A00194372
:1028D000E3681E4354F8043D31439E6931439961D6
:1028E00021688B6803408B602168A68AA7698B6882
:1028F0003B4343EA06438B602168CB680340CB60CF
:102900002168A38B276ACE683E4346EA0346CE6021
:1029100021680B6903400B612168A68CA76A0B69CB
:102920003B4343EA06430B6121684B6903404B611B
:102930002168A38D266B4869304340EA0340486113
:10294000236894F8351094F83600DE6A000406F027
:102950007F46DE62236840EA012094F83460D96A39
:1029600031430143D9622068416B41F00401416366
:102970002068416B41F0020141632068816941F0A8
:1029800001018161C4F8A45084F8A12000208BE7E4
:1029900000F800F0704708B50020009008BD41091C
:1029A00000F01F028900012001F1E0219040C1F8F0
:1029B000000170470E4BF0B41B680D46C3F30223B1
:1029C000C3F10706042E00D90426191D072901D2D8
:1029D000002300E0DB1E012404FA06F19C40491E9E
:1029E0002940641E994014402143F0BC01F05CB9B9
:1029F0000CED00E0064900F0070210B54FF6FF04A9
:102A00000868044B204040EA02201843086010BDCB
:102A10000CED00E00000FA051848F8B5016841F037
:102A2000805101600068164C00F0805000902068D2
:102A300040F480302060FFF7CFFE4FF47A760546F1
:102A400005E000BFFFF7C8FE401BB0420FD860682A
:102A5000C003F7D5206840F400302060FFF7BCFECB
:102A6000054606E0FFF7B8FE401BB04201D903203F
:102A7000F8BD60688003F5D50020F8BD40380240FD
:102A8000007000402DE9F84F04460078DFF82884F4
:102A90004FF000063546C0070ED0D8F8001021F4DC
:102AA0000001C8F80010D8F80010626B1143C8F894
:102AB0000010606B00B901262068000310D5FE48A5
:102AC000E26B8430016821F4401111430160E06B36
:102AD000B0F5801F01D010B102E0012600E0012511
:102AE0002068C00210D5F448226C8430016821F4BB
:102AF000400111430160206CB0F5800F01D010B18E
:102B000002E0012600E001252068C10100D5012670
:102B1000800657D5E8483830016841F0805101609F
:102B20000068DFF8989300F080500090D9F800100A
:102B300041F48071C9F80010FFF74EFE074604E02B
:102B4000FFF74AFEC01B64287ED8D9F80000C005F4
:102B5000F6D5D94F218E6837386801F4407100F4FA
:102B6000407088422ED03868396820F4407041F4B3
:102B7000803139608207396821F4803139603860EA
:102B80000FD5FFF729FE814641F2883A06E000BFE3
:102B9000FFF722FEA0EB09015145D5D83868800720
:102BA000F6D5206BC0F3012103297CD0D8F80010A2
:102BB00021F4F811C8F80010218E3868C1F30B0118
:102BC000084338602078C00609D5BB4884300168C6
:102BD00021F0807101600168A26B114301602188BE
:102BE000B5488830490405D5626E016821F440314A
:102BF000114301602188090405D5A26E016821F402
:102C00004021114301602168C90305D5E26E0168C6
:102C100021F44011114301602168890305D5226F19
:102C2000016821F44001114301602178490605D56E
:102C3000626C016821F003011143016021780906EB
:102C400007D5A26C016800E0FEE021F00C01114301
:102C500001602188C90505D5E26C016821F03001C9
:102C6000114301602188890505D5226D016821F095
:102C7000C001114301602188490505D5626D0168D5
:102C800021F44071114301602188090505D5A26D29
:102C9000016821F44061114301602188C90407D50E
:102CA000E26D016800E023E021F44051114301602E
:102CB0002188890405D5226E016821F44041114321
:102CC00001602168490205D5A26F016821F0806189
:102CD000114301602168890215D5E26F016821F076
:102CE000006111430160E16FB1F1006F0AD00AE0A9
:102CF000734AD8F80030104023F4F8120243C8F8A1
:102D0000002059E7012521680A0700D5012549035C
:102D100005D5626F016821F040711143016021689F
:102D2000090206D5D4F88020016821F080511143B2
:102D30000160012E4FF4403B4FF0706A4FF0E049C4
:102D400003D02068B0F1007F7DD15B4E083E306833
:102D500020F080603060FFF73FFD074605E000BFD0
:102D6000FFF73AFDC01B64286ED853480838006846
:102D70000001F5D42078DFF840E1C0070EF17C0EA9
:102D800033D0606B88BBDEF800C09BFAABF7DEF88F
:102D9000002047F6C076B7FA87F860680CF4403137
:102DA0009AFAAAFC21FA08F196FAA6F7BCFA8CF86E
:102DB000B7FA87FC9BFAABF602F0706200FA0CF0EF
:102DC000B6FA86F69AFAAAF722FA08F2B14099FA08
:102DD000A9FCA668B7FA87F70843BA40BCFA8CF199
:102DE00010438E403043CEF800002068010303D525
:102DF000E16BB1F5801F05D0C00241D5206CB0F564
:102E0000800F3DD1DEF800109BFAABF647F6C07C90
:102E1000B6FA86F7DEF8006001F4403160689CFA8B
:102E2000ACFCF9409AFAAAF7BCFA8CFCB7FA87F81E
:102E30009BFAABF399FAA9F700FA0CF0B7FA87F707
:102E4000B3FA83FC01E08DE007E101FA0CF106F032
:102E5000E046E36899FAA9F2FE4003FA08F3B2FAF1
:102E600082F7154A08438432BE4018433043CEF8F7
:102E700000001068616A20F01F00491E08431060BE
:102E80002068C00139D5DEF800209AFAAAF1DEF8F0
:102E9000003047F6C07602F07062B1FA81F199FA1B
:102EA000A9FC9BFAABF7CA4096FAA6F60092BCFAC8
:102EB0008CFCB7FA87F705E0083802400070004044
:102EC000FFFCFF0F2269B6FA86F861689AFAAAF643
:102ED00003F0E040BA4001FA08F11143009AB6FA53
:102EE00086F699FAA9F720FA0CF0B240B7FA87F6FD
:102EF0001143B0400143CEF800102068800120D576
:102F000004F1080147F6C0709BFAABFC90FAA0F2FE
:102F100060688AC9B2FA82F2BCFA8CF89AFAAAFC02
:102F2000904099FAA9F6BCFA8CFC07FA08F703FA64
:102F30000CF3B6FA86F63843B14018430843CEF88E
:102F400000007B4E306840F080603060FFF744FC4A
:102F5000074604E0FFF740FCC01B64287DD83068BA
:102F60000001F7D5002D79D0714D286820F08050F0
:102F70002860FFF731FC064605E000BFFFF72CFC98
:102F8000801B642869D86A480068C0438000F5D572
:102F90006748216888300A0301D5E26B1AB1C9027B
:102FA0003CD5216CD1BB02689BFAABF647F6C071E9
:102FB000B6FA86F7066802F4403291FAA1FC61691C
:102FC000FA409AFAAAF7BCFA8CFC9BFAABF501FA24
:102FD0000CF1B7FA87F899FAA9F7B5FA85FCA56953
:102FE00006F0E04602FA0CF2B7FA87F799FAA9F36D
:102FF000FE4011434E4A05FA08F5B3FA83F38C32CA
:103000009E402943314301606FF0FF071168A36AB6
:1030100021F4F85107EB0323194311602168890259
:1030200035D5E16FB1F1006F31D101689AFAAAF29A
:10303000056847F6C07601F0706196FAA6F7B2FA15
:1030400082F299FAA9F69BFAABFC21FA02F8216AFE
:10305000B6FA86F6BCFA8CFC01E060E066E06269D4
:10306000B7FA87F701FA0CF19AFAAAFCBA4005F010
:10307000E04599FAA9F3BCFA8CF7F5400A4308FA3F
:1030800007F1B3FA83F30A439D402A430260217893
:10309000090736D5036802689BFAABF79AFAAAFCCF
:1030A00047F6C07102F44032214DB7FA87F891FA21
:1030B000A1F7616922FA08F2BCFA8CF8B7FA87FC2A
:1030C0009BFAABF603F0706301FA0CF1B6FA86F6E0
:1030D00023FA08F39AFAAAF7B24099FAA9FCE6692A
:1030E000B7FA87F78C351143BB40BCFA8CF2194311
:1030F0009640314301602868E16A20F4403008437B
:1031000028600B4C206840F080502060FFF764FB83
:10311000054607E0FFF760FB401B642802D9032047
:10312000BDE8F88F2068C0438000F3D40020F7E7A3
:10313000003802402DE9F047DFF8BC910E46054605
:103140006E4841F28838D9F800106C4C01F00F013C
:103150000834B1425AD2D9F8002022F00F0232438B
:10316000C9F80020D9F8001001F00F01B14270D168
:103170002978890705D5AA68216821F0F001114353
:1031800021602978C90729D06968012914D000680D
:10319000022914D0800700285BDA206820F00300A1
:1031A00008432060FFF718FB0646686801280FD027
:1031B0000228474619D024E000688003EBE780012D
:1031C000E9E700BFFFF708FB801BB84201D964E0C4
:1031D00047462068C0F381000128F3D173E000BFA7
:1031E000FFF7FAFA801BB84257D82068C0F3810075
:1031F0000228F5D167E000BFFFF7EEFA801BB84266
:103200004BD8206810F00C0FF6D15CE029788907C4
:1032100005D5AA68216821F0F001114321602978C1
:10322000C90741D06968012914D00068022914D067
:103230008007002845DA206820F00300084320605A
:10324000FFF7CAFA0746686801280ED0022818D08E
:1032500026E036E000688003EBE78001E9E700BF85
:10326000FFF7BAFAC11B414517D82068C0F38100A7
:103270000128F5D118E000BFFFF7AEFAC11B4145A8
:103280000BD82068C0F381000228F5D10CE000BF04
:10329000FFF7A2FAC11B414502D90320BDE8F08720
:1032A000206810F00C0FF3D1D9F8001021F00F01B5
:1032B0003143C9F80010D9F8000000F00F00B04207
:1032C00001D00120EAE72878400705D5E9682068A1
:1032D00020F4E050084320602878000706D52869CC
:1032E000216821F4604141EAC00020600F20FFF70F
:1032F00093FA0020D2E70000003C02400038024070
:1033000000B500F017F80849F0230A6893FAA3F310
:10331000064902F0F002B3FA83F3DA40044B9A5CF8
:10332000D040086000BD000008380240380003208B
:103330004E9C01201D4930B51D48096811F00C0153
:103340001AD01C4B042916D0082915D1174947F665
:10335000C072091F0C680D6804F03F046D020CD5A3
:103360000D68B3FBF4F092FAA2F31540B3FA83F2BE
:10337000D54068430BE0184630BD0B68B0FBF4F055
:1033800092FAA2F41340B4FA84F2D3405843096885
:103390004FF4403292FAA2F201F44031B2FA82F2D2
:1033A000D140491C4900B0FBF1F030BD0838024063
:1033B0000024F40040787D012DE9F84FE54E0446E5
:1033C0000078A6F10409A9F10405C0076BD03068A4
:1033D000C0F38100012808D03068C0F381000228C2
:1033E0000AD1D9F80000400206D5286880035AD5D2
:1033F0006068002870D056E0286820F4803028608B
:10340000286820F480202860286820F48030286014
:10341000FFF7E2F94FF4FA77804605E0FFF7DCF9B1
:10342000A0EB0800B84277D828688003F6D4286853
:1034300020F4803028606068B0F5803F10D0B0F58F
:10344000A02F286810D020F480202860286820F45D
:10345000803028606068C8B1FFF7BEF9804611E08F
:10346000286820F4802001E040F48020286028684B
:1034700040F48030EDE700BFFFF7AEF9A0EB0800A5
:10348000B842D0D828688003F6D50CE0FFF7A4F93D
:10349000804605E0FFF7A0F9A0EB0800B842C2D8CB
:1034A00028688003F6D42078800745D530684FF02F
:1034B000F80810F00C0F08D03068C0F38100022823
:1034C0000BD1D9F80000400207D42868800717D52F
:1034D000E068012800D113E039E1E068002828689D
:1034E0001BD040F001002860FFF776F9074604E0A2
:1034F000FFF772F9C01B642895D828688007F7D5B4
:1035000020692A6898FAA8F1B1FA81F1884022F07E
:10351000F801014329600FE096E020F001002860E7
:10352000FFF75AF9074604E0FFF756F9C01B642875
:10353000A7D828688007F7D42078000729D58548C0
:1035400061696C3000298046016811D041F00101A9
:103550000160FFF741F9074605E000BFFFF73CF9BE
:10356000C01B642870D8D8F800008007F6D510E09A
:1035700021F001010160FFF72FF9074605E000BFC8
:10358000FFF72AF9C01B64285ED8D8F8000080072E
:10359000F6D42078400776D56E483830016841F07F
:1035A000805101600068DFF8B08100F08050009029
:1035B000D8F8001041F48071C8F80010FFF70CF93A
:1035C000074604E0FFF708F9C01B64283CD8D8F888
:1035D0000000C005F6D55F4F6837386820F001005D
:1035E0003860386820F004003860386820F0010046
:1035F0003860FFF7F1F8824641F2883806E000BFF4
:10360000FFF7EAF8A0EB0A0141451DD838688007AA
:10361000F6D4386820F001003860A06801280FD087
:103620000528386811D020F004003860386820F090
:1036300001003860A068C8B1FFF7CEF8824611E0FB
:10364000386820F0040002E079E040F004003860BF
:10365000386840F00100ECE7FFF7BEF8A0EB0A0184
:1036600041456CD838688007F6D50CE0FFF7B4F810
:10367000824605E0FFF7B0F8A0EB0A0141455ED8AD
:1036800038688007F6D4A069E8B33168C1F38101D6
:1036900002295CD00228286820F08070286003D0BE
:1036A000FFF79AF804464DE0FFF796F8064604E067
:1036B000FFF792F8801B642841D828688001F7D46E
:1036C00047F6C0704FF0FF364FF4403790FAA0F243
:1036D000D4E9090397FAA7F7B2FA82F24FF0706CB7
:1036E00006EB53039040D4E90761B7FA87F7E26A23
:1036F0009CFAACF4BB401843B4FA84F331439A40CB
:103700000143114300E020E041F00051C9F80010EE
:10371000286840F080702860FFF75EF8044604E0F7
:10372000FFF75AF8001B642809D828688001F7D5EC
:103730000BE000BFFFF750F8001B642802D90320FC
:10374000BDE8F88F28688001F4D40020F8E7012054
:10375000F6E70000083802400070004070B5040031
:103760000D4603D094F82C0010B107E0012070BD85
:10377000002084F82D00204600F011F8022084F883
:103780002C002068211DFDF7C3FED4E90002294664
:10379000FDF717FF012084F82C00002070BD704752
:1037A00010B5044690F82C00022809D0022084F8B5
:1037B0002C002068FDF7DBFE012084F82C0000209F
:1037C00010BD000070B5044690F82C000D4602288C
:1037D0000DD0022084F82C002068FDF7CEFE28686A
:1037E000022805D05FF0010084F82C00002070BD95
:1037F0000520F9E7401EB0F1807F10B501D301200C
:1038000010BD4FF0E02460610F21601700F04CFA0A
:103810000020A0610721216110BD0000084800219F
:10382000064B012203618180C18001814181818138
:10383000027041708170C170C1817047800000FFCB
:103840002400032010B5FFF7E9FFBDE810404FF05A
:10385000FF30FDF721B800002DE9F04106461A4877
:10386000FDF73AFA194F3846FDF744FAFDF728F903
:1038700084B2FDF735F9144D01462246E888091A4D
:10388000001D83B2091F89B20020FDF7D5F83C1650
:103890002046FDF72FFA3846FDF710FAFDF720F91C
:1038A000E98801233246401A81B20020FDF73AF838
:1038B0002046FDF703FA05487F38FDF71BFA284636
:1038C000BDE8F041FDF708BA18000320FF0000FF33
:1038D0002DE9F04105461648FDF7FEF9154E304634
:1038E000FDF708FAFDF7ECF8114C82B20021E088F0
:1038F00000EB400083B20846FDF79EF837163846C5
:10390000FDF7F8F93046FDF7D9F9E18801230020E9
:103910002A46FDF707F83846FDF7D0F905487F3805
:10392000FDF7E8F9BDE8F0410348FDF7D5B900001F
:1039300010000320FF0000FF180003202DE9F041D4
:10394000204E0024204D30463189C088102918D2DD
:10395000814216D301EBC10000EB411005EB800062
:10396000D0F8A000FDF7C6F93189081D01EBC102AE
:1039700002EB411180B205EB8101BDE8F041FDF79A
:1039800035B8814201D2753189B24FF075081039CE
:103990008EB2A119B1FBF8F208FB121000EBC001C6
:1039A00001EB401005EB8007D7F8A000FDF7A2F966
:1039B000201D3946FDF71AF8641CE4B2112CE8D337
:1039C000BDE8F08124000320B80303202DE9F04175
:1039D0001D4617460E464FF0000470BB0020FDF751
:1039E000C7F90120FDF7C4F90220FDF7C1F9032052
:1039F000FDF7BEF928E000BF57F8240015A1FCF739
:103A000046FC00BB55F8240013A1FCF740FCC0B1F4
:103A100055F8240011A1FCF73AFC60B155F82400D8
:103A20000FA1FCF734FC48B155F824000DA1FCF7B8
:103A30002EFC28B107E0012003E007E0022000E0AF
:103A40000320FDF7ABF9641CB442D5D306A0BDE852
:103A5000F08100006C65640031000000320000005D
:103A600033000000340000002F53544D33324637EA
:103A700078784C45442E68746D6C00002DE9F8434D
:103A8000074613480E461349DDE908C81C4615468B
:103A900000234FF4403280E80E10FDF7F5FF0028B8
:103AA00014D10B483946FDF77FFF00280ED1084896
:103AB0002B46324641460094FEF782F8002805D195
:103AC000BDE8F84302480A21FEF70CB8BDE8F883C8
:103AD0005002032000B002402DE9FE4F81460068ED
:103AE000882493468D888C2204EBCB178A46C368C2
:103AF0009421BE46C459C3F30B432B4404F47044D1
:103B00001F04019702EBCB1240F80E4001EBCB13E0
:103B1000DAF800709C214FF0AC0C01EBCB1440F2B2
:103B2000077102910CEBCB11D9F800C09825002049
:103B3000CDF800C0A02605EBCB15DCF80CC006EBD9
:103B4000CB16CCF30B4C0CF1010C07EB0C08DDF899
:103B500000C0019F48EA07084CF80E80D9F80070B1
:103B6000BAF80CC0B846FF68C7F30A0767444FEAC3
:103B7000074E58F8027007F4704C48F802C0D9F8A4
:103B800000C0DAF80870DCF80C80C8F30A0808F105
:103B90000108B84448EA0E084CF80280D9F8002021
:103BA000D75827F00707D750D9F80070DAF8102057
:103BB000FA509AF831209AF818304FEA022C9AF805
:103BC0003220120442EA0362D9F800301F5918511A
:103BD0009AF8303043EA0C031343D9F8002013510C
:103BE000D9F80020535923F0FF035351D9F800208E
:103BF000DAF814305351D9F800209359029CA343AA
:103C00009351D9F80030DAE9072422439A51D9F8C0
:103C1000002053585050D9F80020DAF824005050B2
:103C2000DAF81000C8B301283AD004283AD00228A4
:103C300038D0032836D0072834D00120D9F80030F6
:103C4000B02505EBCB11B42284245D5802EBCB12D6
:103C500005F0E0255D50DAE9003504EBCB14EB1AF2
:103C6000BAF8285043434543D9F80000DB1C43EA27
:103C700005434350D9F8000081586FF30A01815081
:103C8000D9F80000DAF82C108150D9F80000015959
:103C900041F001010151BDE8FE8FFFE70420CDE7AF
:103CA0000320CBE70220C9E7090700284FEA11618A
:103CB00006DA00F00F0000F1E02080F8141D7047D4
:103CC00000F1E02080F800147047000030B587B0A4
:103CD000114B124D0020124A6FF07F4411498DE8BC
:103CE0003F00114805AB04AA03A903F065FA0E488A
:103CF00003F09CFA0C4890F83100C0060A4802D53F
:103D000003F016FB01E003F097FA0849064803F0B8
:103D1000D9FA07B030BD0000C0A8016CC0A80101ED
:103D20008953012019540120FCBF0320455501206F
:103D3000FEF758BD104A30B51048146800210F4BEB
:103D400044F470041460083305680D4A0D4C45F0C6
:103D50000105056019600368051D1340074A0360EB
:103D60000C322C600568044C074B25F48025803C00
:103D700005601160236030BD88ED00E0003802402E
:103D8000FFFFF6FE103000240000012090F83110F3
:103D90000648C90702D0012101707047044A052175
:103DA00001700448026004A000F01AB81801032052
:103DB000800000FF34000320546865206E6574772E
:103DC0006F726B206361626C65206973206E6F7423
:103DD00020636F6E6E6563746564200A00000000E6
:103DE0000FB4054B10B503A9044A029800F02CF853
:103DF00010BC5DF814FB0000615601202001032077
:103E00000FB4084B10B504A902AA039800F01CF8DF
:103E1000044602A9002000F0F3F8204610BC5DF82B
:103E200014FB00000140012002E008C8121F08C175
:103E3000002AFAD170477047002001E001C1121F2B
:103E4000002AFBD1704700002DE9FF4F8BB09A4646
:103E50000F460546002606E025280BD052460D9950
:103E600090476D1C761C28780028F5D10FB030469D
:103E7000BDE8F08F0024A0460122604900E0044321
:103E800015F8013F203B02FA03F00842F7D12878E9
:103E90002E2817D115F8010F44F004042A280ED05B
:103EA0006FF02F022878A0F1300109290AD808EB19
:103EB000880102EB410100EB01086D1CF2E757F8A5
:103EC000048B6D1C287869283ED006DC0028CDD0F4
:103ED00063280BD0642804D136E0732810D07528ED
:103EE0004BD052460D999047761C85E017F8040B8D
:103EF0008DF8000000208DF80100E946012003E064
:103F000057F8049B4FF0FF3061074FF0000401D4D5
:103F10000AE0641C44450DDA8442FADB19F8041007
:103F20000029F6D106E0641C8442FCDB19F8041079
:103F30000029F8D1264404E019F8010B52460D99E6
:103F40009047641EF8D257E001CF4FF00A0B0028CB
:103F500002DA40422D2102E0210504D52B218DF803
:103F60002410012103E0E10705D02021F7E70DF13E
:103F7000200908910CE00021F9E701CF4FF00A0B6E
:103F8000F9E75946FCF745FA01F1300209F8012D2D
:103F90000028F6D1ADEB090000F1200B600701D439
:103FA0004FF00108D84502DDA8EB0B0000E000202F
:103FB0008046002406E009A85246005D0D9990470E
:103FC000641C761C08988442F5DB04E030205246DD
:103FD0000D999047761CB8F10001A8F10108F5DCB5
:103FE00005E019F8010B52460D999047761CBBF17C
:103FF0000001ABF1010BF4DC6D1C34E70928010072
:104000000A68531C0B6010707047000010B501F077
:1040100059F9BDE810400349002241F2883003F00D
:1040200023BC00000D40012000280BD0426A002A6A
:1040300008D0137B082B05D10968526A914201D13F
:1040400000F038B970472DE9FC41050056D06C6A84
:10405000002C53D0616B4FF480363C230122701E3C
:104060004F1C0AD01E31B1FBF3F1B14200D301461F
:104070000904090CA18300D1A283A16B4F1C0AD0B3
:104080001E31B1FBF3F1B14200D301460904090C22
:10409000E18300D1E283A28BE18B8A4202D309B192
:1040A0000021A183A17B09B1A06A09E094F8241042
:1040B0007F2901D8FF2003E0C02901D36FF07F40A2
:1040C0000090E06A019028B9606A0099084040F0C9
:1040D0008070019004F12401284603F0BFF869467E
:1040E000284603F021F901A9284603F0B2F8284632
:1040F00003F01EF90A21204600F076FDBDE8FC81A0
:1041000070B5446A08210546204600F06DFD002286
:10411000284604F1240100F0E9FF4FF4FA7240F25E
:10412000E731B1FBF2F1607B401C6073618370BDCD
:10413000164810B5046825E0616A11B3C88B421EA9
:10414000CA83012806D0626A918B481E9083012998
:104150000CD016E0616A2046097B012903D00A29A8
:1041600001D005290DD100F019FB0AE0616A204653
:10417000097B012903D00A2901D0052901D100F0CA
:104180007DFC2468002CD7D110BD0000B0000320B6
:104190002DE9F041060017460C460ED08CB10022E6
:1041A0004FF49A71104603F0D3F8206160B13F4993
:1041B000627B002A0A680AD00BE06FF00D00BDE8B0
:1041C000F0816FF00500FAE74FF0FF30F7E7521C7F
:1041D0000A60226001214068002560610170606909
:1041E0004170616996F82A0088706069C57020681E
:1041F00002F01CFE6169082F4860606905816069F2
:1042000045816069C56008D0042F06D0032F07D10F
:10421000207B052801D0042802D161697068C8603C
:10422000002061690D6161694D616169C1F81850D3
:1042300096F82A10814203D9311891F82B1000E02A
:104240000021636900F11C0C421C90B2102803F895
:104250000C10EDD30020636900F12C02411C88B2E0
:1042600040289D54F7D30020636900F16C02411C83
:1042700088B280289D54F7D3626900200C49C2F8A7
:10428000EC10258300F1F00365690146421C90B2F1
:104290004428E954F6D301222046352100F01BF9C9
:1042A0003946204600F027F9002088E79C000320CB
:1042B00063825363F8B5446A0C210646204600F039
:1042C00093FC042221463046FFF762FF05001ED111
:1042D00004222046322100F0FEF8606A02F0B9FDA7
:1042E0000146204600F010F9204600F03FF9218BEE
:1042F0002069F03189B203F0DEF9009643230A4ABF
:104300002169606805F044FC204600F00FF84FF486
:10431000FA7242F60311B1FBF2F1607B401C60734C
:1043200028466183F8BD000024C8012010B50400B0
:1043300006D0206908B103F065F9002020616061B2
:1043400010BD0000F8B50546002006216C6A6062C9
:10435000204600F049FC012221462846FFF718FFBD
:10436000060030D102222046392100F0B4F8298D10
:10437000204600F0EAF804222046372100F0ABF88E
:104380000121204600F0B7F80321204600F0B3F8E1
:104390001C21204600F0AFF80621204600F0ABF8C3
:1043A000204600F0E3F8218B2069F03189B203F058
:1043B00082F900954323114A2169606805F0E8FB02
:1043C0002046FFF7B3FF607B401CC0B26073062835
:1043D00002D20121814000E03C214FF6FF7001EB49
:1043E0004102C2EBC1124FF4FA7100EAC20000F2BE
:1043F000F310B0FBF1F060833046F8BD24C8012013
:104400000B4870B5002504680EE0606A58B1418B16
:10441000012903D9A1F10101418304E003D14583BE
:10442000204600F054FC2468002CEED170BD000042
:10443000B000032070B5446A0021144DA5F1280690
:10444000A162E162E87808B1F0682063287908B1D8
:10445000306901E0206B40086063687908B17069D9
:1044600000E0206BA063A06800696062A87920B1B9
:10447000B06902F0DBFC0121A062A173E879002899
:1044800003D0F06902F0D2FCE06270BDE84E032078
:1044900070B5446A0546002C1CD0207B00260428F9
:1044A0000FD004DC002815D0032804D109E005282A
:1044B00007D00A2805D028466673BDE87040FFF78C
:1044C00041BF284602F0B8FE28466673BDE870403A
:1044D00000F0A8B970BD30B5038B45695C1C04833E
:1044E0002B4483F8F010018B44694B1C0383214457
:1044F00081F8F02030BD10B5028B4469531C038352
:10450000224482F8F01010BDF0B5028B0D0E466902
:104510000C0C571C078332440B0A82F8F050028BB4
:104520004669551C0583324482F8F040028B456988
:10453000541C04832A4482F8F030028B4469531CD3
:104540000383224482F8F010F0BD30B5028B0D0ACF
:104550004469531C0383224482F8F050028B44695F
:10456000531C0383224482F8F01030BD30B500287C
:1045700013D0028BFF244569002311462A44491CAD
:10458000018382F8F04005E044694A1C028321441B
:1045900081F8F030018B4429F6D330BD2DE9FF5F5F
:1045A00004468A46002003900A217B48FBF741FE1F
:1045B000BAF80A002C2818D3DAF80400F025A06015
:1045C0006FF00509DFF8D081BAF80800574604E01B
:1045D0006A1A3F68401A95B280B237B17989A94208
:1045E000F6D9D7F804B00190B2E06FF0010004B042
:1045F000BDE8F09F7A89A81C6B1C4FF0FF3680B293
:1046000002909A4203D90BEB0500407803E038682A
:1046100008B140680078342904463DD00BDC0329FA
:1046200027D003DCE1B101290DD11EE0062926D0F7
:10463000332908D12CE0352932D0362934D03A2913
:1046400036D03B293AD00024284400F1020085B23C
:1046500094B30020CDF8000018F8060068B367E0B6
:1046600000206D1E0446ADB2EEE704284FD10626A9
:10467000EAE704284FF0040449D30726E4E781075A
:1046800045D1082800D30824A04240D30826DBE700
:1046900004283CD10326D7E7012838D10026D3E7E8
:1046A000012834D10126CFE7042830D10226CBE7F8
:1046B00004282CD10426C7E73AE003E0042826D1D9
:1046C0000526C1E7042C01D2224600E00422029B09
:1046D0006946384602F063FF042C14D9A00716D1AE
:1046E000012108F80610009802F0A0FB02462A48B3
:1046F0000299241F2838091DE4B240F8262088B208
:104700000290761CA8E7042C03D0012C05D0484663
:104710006DE7009802F09DFB01E09DF8000000901D
:10472000012008F806001C480099283840F8261097
:104730007889A8420BD801992A1A95B2081A80B232
:10474000019085420CD258B13F68D7F804B03FB110
:104750001BF80510FF2903D001988542FFF44AAFEA
:1047600098F8000058B10C4800222838006888F8F2
:10477000002001280DD0022804D0032807D0039878
:104780000028C5D0002003902C256C201EE70120B6
:1047900003906C25EC2019E7E84E0320F8B5446A35
:1047A00004210546204600F01FFA03222146284630
:1047B000FFF7EEFC06001BD1022220463921FFF74D
:1047C0008AFE298D2046FFF7C0FE2046FFF7CEFE69
:1047D000218B2069F03189B202F06DFF00954323EF
:1047E0000F4A2169606805F0D3F92046FFF79EFD66
:1047F000607B401CC0B260730A2804D24FF47A7107
:1048000010FB01F001E042F2107080B24FF4FA7137
:1048100000F2F310B0FBF1F060833046F8BD000009
:1048200024C80120F8B5446A03210646204600F05A
:10483000DBF9032221463046FFF7AAFC050028D108
:10484000022220463921FFF746FE4FF41071204620
:10485000FFF77BFE042220463221FFF73CFE606A10
:1048600002F0F7FA01462046FFF74EFE2046FFF71A
:104870007DFE218B2069F03189B202F01CFF009689
:1048800043230F4A2169606805F082F92046FFF74B
:104890004DFD607B401CC0B260730A2804D24FF407
:1048A0007A7110FB01F001E042F2107080B24FF417
:1048B000FA7100F2F310B0FBF1F060832846F8BD06
:1048C00024C801202DE9F04116465289456A044664
:1048D0002C2A4FF00008716872D3087802286FD133
:1048E00094F82A20002008E023180F1893F82B30A2
:1048F0003F7FBB4264D1401CC0B28242F4D84868BA
:1049000002F0A7FA296888425AD131462846FFF7B3
:1049100045FE00BB2E4A5078E8B1A2F12801087983
:10492000052804D0062817D0022836D048E0287B76
:10493000012806D003280BD0042809D0052807D069
:104940003EE02046FFF776FD2046FFF7D9FB37E033
:104950002046FFF778FB33E0287B032805D00128A9
:1049600003D0042801D005282AD1676A204602F026
:1049700063FC1849204602F071FC1649204602F0FB
:1049800068FC1449204602F0CFFC0C21384600F0A8
:104990002BF92046FFF7D6FC12E0287B06280FD122
:1049A000A5F81A8027469078646A48B1886802F0B2
:1049B0003DFA2062A06800696062384600F0A0F805
:1049C0003046C5F80880BDE8F04102F01BBE00008B
:1049D000E84E032020C80120F8B5446A00210546AE
:1049E000204600F001F90020206260620722A062E8
:1049F0002146E062A063606320632846FFF7C8FB9E
:104A0000060013D12046FFF7B1FD218B2069F0315C
:104A100089B202F050FE00954323216904F120027F
:104A2000606805F0B5F82046FFF780FC607B401C0D
:104A3000C0B260730A2804D24FF47A7110FB01F0FF
:104A400001E042F2107080B24FF4FA7100F2F310FC
:104A5000B0FBF1F06083284602F0EEFB06492846E1
:104A600002F0FCFB0449284602F0F3FB0249284609
:104A700002F05AFC3046F8BD20C80120F8B5446A5F
:104A800005210546204600F0AFF8032221462846BE
:104A9000FFF77EFB06001CD1022220463921FFF7DA
:104AA0001AFD298D2046FFF750FD2046FFF75EFDD9
:104AB000218B2069F03189B202F0FDFD009543237E
:104AC000216904F12002606805F062F82046FFF7D2
:104AD0002DFC607B401CC0B260730A2804D24FF4E6
:104AE000FA6110FB01F001E044F6206080B24FF45F
:104AF000FA7100F2F310B0FBF1F060833046F8BDBC
:104B0000F8B5446A01210546204600F06DF80322FD
:104B100021462846FFF73CFB060048D102222046EA
:104B20003921FFF7D8FC298D2046FFF70EFD04221E
:104B300020463221FFF7CFFC606A02F08AF9014675
:104B40002046FFF7E1FC042220463621FFF7C3FC94
:104B5000206A02F07EF901462046FFF7D5FC0422C8
:104B600020463721FFF7B7FC01212046FFF7C3FCA1
:104B700003212046FFF7BFFC1C212046FFF7BBFCAA
:104B800006212046FFF7B7FC2046FFF7EFFC218BFC
:104B90002069F03189B202F08EFD00954323114A5D
:104BA0002169606804F0F4FF2046FFF7BFFB607BDB
:104BB000401CC0B26073062802D20121814000E08F
:104BC0003C214FF6FF7001EB4102C2EBC1124FF4E2
:104BD000FA7100EAC20000F2F310B0FBF1F060835A
:104BE0003046F8BD24C80120027B8A4203D00173FD
:104BF000002242734283704770B505006FF00D01CB
:104C000008D095F831006C6A20F0080085F8310072
:104C1000820601D4084670BD288D4FF0FF36B0F5EE
:104C2000107F2ED334B3606808B104F09BFF3C21A1
:104C30002046FBF7FEFA04F085FF606008B3017AB6
:104C4000442241F0200101721249606804F048FEDC
:104C500010494322606804F08FFE0F492A466068BD
:104C600004F07DFF2846FFF76DFB60B1284600F099
:104C700015F806E03C2002F099F9040001D06C62BE
:104C8000D5E7304670BD95F8311041F0080185F840
:104C9000311070BD20C80120C5480120002810B582
:104CA00014D090F83110446A21F0080180F83110D6
:104CB000002C0BD0606818B104F054FF0020606035
:104CC0002046BDE810400021FFF78EBF10BD10B593
:104CD000426A0446117B0C2913D0062911D0012900
:104CE00013D008291ED0052928D004292AD0032949
:104CF00030D1507B022813D22046BDE81040FFF788
:104D000091BDBDE81040FFF71DBB507B052804D8BE
:104D10002046BDE81040FFF7F3BE2046FFF75CFEDB
:104D20002046EEE7507B0128204603D8BDE810401E
:104D3000FFF7E6B9BDE81040FFF785B9BDE81040C0
:104D4000FFF79CBE507B0828E7D82046BDE81040FE
:104D5000FFF724BD10BD000010B5FFF7E9F9BDE86D
:104D60001040034900224EF6602002F07DBD000095
:104D7000594D012010B5FFF743FBBDE81040034932
:104D800000224FF4FA7002F06FBD0000754D012053
:104D90002DE9F84F0500904689465ED0B8F80A0024
:104DA0002A2857D3D8F804604FF4807A344634F870
:104DB0000E0F50454ED1207906284BD1607904283A
:104DC00048D16088082845D1D4F80E10281D0091DC
:104DD000A16906D0686820B1814202D101273B4613
:104DE00001E000270223694604F10802284600F08A
:104DF0008DFAE088504503D0B0F5007F2AD125E038
:104E00001FB3022002F014F8E080D4F80E00A06175
:104E10006868C4F80E00A068C4F81200A089E08297
:104E2000A0683060A089B080D9F80010A160B9F8FE
:104E30000400A081D9F80010C6F806104146B9F860
:104E4000040070812846AA69904703E06946284615
:104E5000FFF7EAF8404602F0D5FBBDE8F88F000006
:104E600070B50A4D0024064604EB840005EB800073
:104E7000817C29B18068B04202D1204600F076F8EA
:104E8000641CE4B20A2CEFD370BD000034BF0320D1
:104E90002DE9FC5F0A270546DFF8CC9000208B4601
:104EA0003E4639463C4686460190009000EB800A1B
:104EB0000A2909EB8A039A7C0AD0BAB165B1D5F800
:104EC00000C0D3F80480C44506D140B2BDE8FC9FC1
:104ED000002AF3D141B209E0012A15D0022A05D3F4
:104EE000DA7C009B9A4201D346B20092401CC0B2C9
:104EF0000A28DBD35FEA8B724FF0FF30E6D40A2931
:104F000012D014DACCB220E059F82A20002ADA7C38
:104F100004D07245EAD3964644B2E7E7019B9A4231
:104F2000E4D347B20192E1E75FEACB71CED00A2E1B
:104F300001DAF4B206E00A2F01DAFCB202E00A2C30
:104F4000C4DAE4B2204600F011F82DB104EB84027B
:104F5000296809EB8200416004EB8402002109EB1F
:104F6000820260B2D174B1E734BF032070B50C4D3A
:104F700000EB8006002455F8260018B102F042FB31
:104F800045F8264005EB860006498474C4748460A5
:104F90004460D1F80620C2604989018270BD0000DA
:104FA00034BF032028C801202DE9FC410E461546D8
:104FB0000E210446304602F04EFB18B16FF001009E
:104FC000BDE8FC812868214601F0F5F908B1334BB2
:104FD0003BE02868C0F303110E2921D0D4E9012158
:104FE0000A40014091420BD080B2A0F57E41A93920
:104FF00006D014F10C0F2FD0E06868B304F10C0553
:10500000274A2849137803EB830001EB8000877C53
:10501000022F24D32F684068874220D11A462DE002
:1050200001228DF8002000208DF801005E218DF80E
:10503000021068786B4600F07F008DF80300A878B6
:105040008DF80400E8788DF8050004F12B02314654
:10505000204600F027F9B3E76FF00300B0E7002027
:1050600000EB800301EB83039F7C022F0BD32F689F
:105070005B689F4207D1C0B210700246314620469D
:1050800000F012F89CE7401C40B20A28E8DB3246E8
:105090002946204600F02AF892E7000028C801209F
:1050A000D400032034BF032070B50E4605460E48D9
:1050B00002EB820100EB8104A07C022809D1E07C94
:1050C000E42806D3211D284600F0DAF808B90320A9
:1050D000A07404F10C03314605F12B022846BDE80B
:1050E000704000F0DFB8000034BF03202DE9F74F17
:1050F00082B04FF0FF3B144688465E4602982B3044
:1051000000900868029901F056F9D8B9D8F8000063
:10511000C0F303110E2915D0B8F1000F12D088B1D9
:1051200001214046FFF7B4FE07000DD4DFF8A0A030
:1051300007EB87090AEB8905A87C40B1012808D054
:105140003CB10DE06FF00D0005B0BDE8F08F01201F
:10515000A8740298414600F093F8002C0646F3D05C
:10516000A87CD04602280AD31A4805F10C03214630
:105170000770009A029800F095F8064626E001288C
:1051800024D12046017B01290ED001890022032071
:1051900002F0DEF8050018D0214602F0B3F958B14C
:1051A000284602F02FFA10E000680028EAD12546D0
:1051B000204602F0A7FA45B158F8290008B102F0DC
:1051C00021FA002648F8295000E05E463046BBE749
:1051D00034BF0320D40003202DE9F05F1F46904622
:1051E00000228946DDF82CB02A218246032002F0F5
:1051F000AFF8060040D075680D9805F10E0401F077
:1052000017FEE0803868A060B888A0814FF48070F5
:10521000DBF80020C4F81220BBF80410E18208215A
:10522000D8F800302B60B8F80420AA800622D9F8FC
:105230000070C5F806700427B9F804306B810A9B2A
:105240001B68C4F80E304FF4C163DDF830C0DCF8E1
:1052500000C0C4F818C020805046618031462271D9
:105260006771AB81DAF8182090470446304602F0A7
:10527000C9F92046BDE8F09F4FF0FF30FAE7000083
:105280001FB5074C0123021DCDE90213CDE900240F
:1052900000F12B03A21F1946FFF79EFF04B010BDBB
:1052A0002EC80120F0B44C6808251E6826609B8833
:1052B000A3801368C4F8063092886281A581826950
:1052C000F0BC104770B5104D5FF0000404EB840093
:1052D00005EB8001887C90B1CA7C521CD2B2CA74A2
:1052E000F02A06D2012802D0032806D007E0022ABD
:1052F00005D32046FFF73AFE01E002208874641CC3
:10530000E4B20A2CE2D370BD34BF03202DE9F04192
:105310000E001F461546044630D0306870B3214653
:1053200001F049F850BB3078C0F303100E2825D0A7
:1053300039463046FFF7ACFD00281DDB114A00EB73
:105340008001022302EB81008374002384602E68B5
:10535000C660AE880682C37452F821605EB142F81E
:10536000213004F12B022B4631462046FFF79AFFED
:10537000304602F047F90020BDE8F0816FF00D00E3
:10538000FAE7000034BF032070B5044640890D469B
:105390000E283AD9606801788689CA0714D0012995
:1053A00005D01C490622FAF780FF48B10CE041788D
:1053B00051B980785E2807D1607B40F0100002E090
:1053C000607B40F008006073082E03D0B6F5C16F13
:1053D0001BD10EE095F83100800616D56FF00D0157
:1053E000204602F038F980B92946204601F0B6F887
:1053F00009E095F83100800607D505F12B0122461A
:105400002846FFF7C5FC002070BD204602F0FAF8E0
:10541000F9E7000028C80120074A732110B542614E
:10542000064A8261742280F8321080F8332001F03D
:10543000CFFB002010BD0000A94F01207D6D012091
:1054400070B5054601F038FC040009D02A692946E8
:105450009047002804D02046BDE8704002F0D2B842
:1054600070BD0000FEB5044690F831000F4D104E9F
:10547000104FC0060FD510A03560FEF7B1FC01201B
:10548000387002AB694601AA204601F0BEFE2046F4
:1054900001F04EFFFEBD05203870204601F0CCFE25
:1054A0000FA03560FEF79CFCFEBD0000800000FFF1
:1054B0003400032018010320546865206E6574775A
:1054C0006F726B206361626C65206973206E6F7709
:1054D00020636F6E6E6563746564200A00000000CF
:1054E000546865206E6574776F726B206361626CBF
:1054F00065206973206E6F7420636F6E6E656374D0
:105500006564200A0000000038B5002104460C48FC
:105510006A4600911221FCF7CDFE009989040AD554
:10552000074810216A46FCF7C5FE0098C0072046D0
:1055300002D001F0D8FE38BD01F0C8FE38BD000031
:105540007CC003202DE9FC4100250646019500950D
:1055500090F83100C00642D5254C606868B3002140
:1055600020464FF48052FCF7F5FFFDF735F94FF474
:105570007A7701901E4801216A46FCF79BFEFDF7F1
:105580002BF90199401AB84217D800988006F1D536
:10559000174810216A46FCF78DFE0098410703D595
:1055A0004FF40061E16000E0E560800701D5A5608F
:1055B0000DE04FF48040A06009E0D4E90210C0087B
:1055C00040EA510082B20A480021FCF7C3FF0848B4
:1055D0000021FCF791FB0648FCF7AFFE02E004480F
:1055E000FCF7EDFE3046FFF73DFFBDE8FC81000013
:1055F0007CC003202DE9F047814699B1087888B135
:1056000000250C464FEA0506A04609EB8507204613
:105610002621C7F8F440FAF729FE30B100F8016BF3
:10562000044609E00020BDE8F08720214046FAF753
:105630001DFE00B1067000243D214046FAF716FE1B
:1056400020B10670411CC7F8341101E0C7F834617D
:105650006D1C102D01DA002CD6D12846E3E700009E
:105660002DE9F05F0646FBF71DFA424C0546A0788F
:1056700000287BD181466078012809D1A189218148
:105680006189E18084F8019084F80390A4F80E9079
:10569000FBF716FAAA880146B4F80480F7B2B1FB0A
:1056A000F2F1354841450DD90A2E0BD0228908F177
:1056B000010102EBC20303EB421200EB820000F88F
:1056C000087052E0E1882289914203D3227822B106
:1056D00084F800908346A24618E0491C89B2E18014
:1056E0007529F7D1A4F80690F4E7BAF8084020230A
:1056F000BAF8042008F1010804EBC40C0CEB4414C4
:10570000511C0BEB8404A354AAF80410FBF7D8F93E
:10571000A988B0FBF1F04045E7D8BAF80800544634
:10572000DAF810104D4600EBC00202EB40120BEB12
:105730008200C0F8A010AAF80490FEF7FFF82089B4
:10574000401C80B22081752803D125810120E08092
:1057500020700A2E0AD02189A08801EBC10202EB39
:105760004113411C0BEB83021754A1803046BDE866
:10577000F09F000024000320B8030320D0E90110AB
:10578000081A7047AFF30080094A002101EB41037A
:1057900002EBC303834206D101EB4101002002EB7F
:1057A000C10108757047491C0A29EFDB70470000EA
:1057B000C4C403202DE9F0411749002607463046AE
:1057C00000EB400201EBC202127D2AB1401C0A2804
:1057D000F6DB0020BDE8F08100EB4002012011EB78
:1057E000C2042075F5D00D4D05E069683846FAF71A
:1057F0004EFD30B12D68002DF7D12046FFF7C4FFD4
:10580000E7E7A8682060E8686060E868C4E9020625
:10581000287C20742046DDE7C4C40320F8770220EA
:1058200070B505460B46D5E90110884202D14FF00C
:10583000FF3070BD0C1A944200DD144629682246E0
:1058400001441846FAF7DCFCA8682044A86020460A
:1058500070BD00002DE9F041244D00F12E0700F14C
:1058600030080446296881B1A86870B1686860B1E1
:10587000002607E0A86850F826103846FAF707FD1A
:1058800060B1761C68688642F4DB3846FAF7F8FCAB
:10589000A72809D23846FAF7F3FC06E02B68C022A5
:1058A0004146304698471DE0A7201222054610A128
:1058B0004046FAF7A5FC04F142002A463946FAF7B9
:1058C0009FFC10A160193E230D680022C0F84250D1
:1058D0008988A0F8461080F8483080F84920404672
:1058E000FAF7CEFC6085BDE8F0810000F4000320EB
:1058F0003C623E2A2A2A554E4B4E4F574E20544169
:10590000472000002A2A2A3C2F623E0070B50E462E
:105910000121304603F054FC4FF4BA75284601F0DB
:1059200045FB040019D02946FAF783FC214630468E
:1059300002F0BAF80A49304603F00CFB0949304638
:1059400002F04CFA08490422304602F01BFF0749D6
:10595000304603F033FC002070BD4FF0FF3070BDC7
:10596000A75C0120C5590120755C0120E160012080
:1059700070B50D460446002102F096F8002120463D
:1059800003F0E8FA0021204602F028FA002220461F
:10599000114602F0F7FE0021204603F00FFC2846D6
:1059A00000F0B8FB204602F0C3F8002806D02046DD
:1059B0000349BDE87040042202F0E4BE70BD00005F
:1059C000755C0120002801D000F0A4BB70470000E6
:1059D0002DE9F7434FF0000880F82C8005469146EA
:1059E000019801782F2901D1417869B13F21FAF757
:1059F0003DFC040001D004F8018B354E306970B3D2
:105A0000F06860B3002720E0324F002657F83600D8
:105A1000FFF7D0FE040057F83600019003D007EBE3
:105A2000C600007945E0761C052EEFD301A800F0F2
:105A300053F8044685F82C8041E0F06850F83710A0
:105A40000198FAF724FC80B17F1C30698742F4DBAF
:105A50003069874203D114B13F2004F8010C01984A
:105A6000FFF7A8FE040012D016E021462846FFF7F3
:105A7000C1FD0146F06805F59A7300EBC70005F11A
:105A8000F402D0F804C03846E0470190E0E701A8EE
:105A900000F022F8040012D00D4F002685F82C806B
:105AA00017F11407019857F82610FAF7CDFB18B133
:105AB000012085F82C0002E0761C042EF2D3019B15
:105AC0004A462146284600F031F8BDE8FE83000032
:105AD000F400032044C8012010B504460AA0206049
