:020000042001D9
:10000000B8C50420DD010120E5010120E701012040
:10001000E9010120EB010120ED01012000000000B9
:10002000000000000000000000000000EF010120BF
:10003000F101012000000000F30101208B1A0120D2
:10004000F7010120F7010120F7010120F70101204C
:10005000F7010120F7010120F7010120F70101203C
:10006000F7010120F7010120F7010120F70101202C
:10007000F7010120F7010120F7010120F70101201C
:10008000F7010120F7010120F7010120F70101200C
:10009000F7010120F7010120F7010120F7010120FC
:1000A000F7010120F7010120F7010120F7010120EC
:1000B000F7010120F7010120F7010120F7010120DC
:1000C000F7010120F7010120F7010120F7010120CC
:1000D000F7010120F7010120F7010120F7010120BC
:1000E000F7010120F7010120F7010120F7010120AC
:1000F000F7010120F7010120F7010120F70101209C
:10010000F7010120F7010120F7010120F70101208B
:10011000F7010120F7010120F7010120F70101207B
:10012000F7010120F7010120F7010120F70101206B
:10013000F7010120F7010120F7010120F70101205B
:10014000F7010120F7010120F7010120F70101204B
:10015000F7010120F7010120F7010120F70101203B
:10016000F7010120F7010120F7010120F70101202B
:10017000F7010120F7010120F7010120F70101201B
:10018000F7010120F7010120F7010120F70101200B
:10019000F7010120F7010120F7010120F7010120FB
:1001A000F7010120F7010120F7010120F7010120EB
:1001B000F7010120F7010120F7010120F7010120DB
:1001C000F7010120F7010120DFF80CD000F02AF838
:1001D000004800470D200120B8C50420064880478C
:1001E00006480047FEE7FEE7FEE7FEE7FEE7FEE71C
:1001F000FEE7FEE7FEE7FEE7F11A0120C901012054
:1002000040EA01039B0703D009E008C9121F08C098
:10021000042AFAD203E011F8013B00F8013B521E18
:10022000F9D27047064C074D06E0E06840F0010344
:1002300094E8070098471034AC42F6D3FFF7C8FFA4
:10024000C0A80420E0A80420F0B5BFF34F8FBFF38F
:100250006F8F19490020174B0860196841F400316D
:100260001960BFF34F8FBFF36F8F12497031086071
:10027000BFF34F8F081F104D43F6FF741035006811
:10028000C0F34E31C0F3C90204EA4116104600BF64
:1002900046EA80772F60401EFAD2491EF4D2BFF39F
:1002A0004F8F186840F480301860BFF34F8FBFF352
:1002B0006F8FF0BD14ED00E050EF00E031B500F0BD
:1002C000F5F8044600F0F2F80099001B8842F9D3D3
:1002D00038BD00002DE9F84FDFF89CE100224FF017
:1002E00001084FF0030B4FF00F0A00BF0B6808FA2C
:1002F00002F42340A34271D14D68022D01D0122D8A
:100300000FD1D5080E69570700EB8505A9462D6A60
:10031000FF0E0AFA07FCBE4025EA0C052E43C9F879
:1003200020600F79550006680BFA05FC07F00307FB
:1003300026EA0C06AF40374307604E68012E05D011
:10034000022E03D0112E01D0122E0ED18668CF6856
:1003500026EA0C06AF403743876046680F79A6430C
:10036000C7F30017974037434760C4688E6824EA94
:100370000C04AE402643C6604C68E40075D53F4C83
:10038000256845F480452560246822F0030695071A
:1003900004F4804400943A4C2D0F2644D6F80848C3
:1003A000DFF8E0C00AFA05F7604524EA070401D146
:1003B00000272EE0344FB84201D1012729E0334F06
:1003C000B84201D1022724E0314FB84201D10327BE
:1003D0001FE0304FB84202D104271AE045E02E4F0B
:1003E000B84201D1052714E02C4FB84201D10627AD
:1003F0000FE02B4FB84201D107270AE0294FB8423E
:1004000001D1082705E0284FB84201D1092700E0B3
:100410000A27AF4027437546C6F808784E68DEF8CD
:100420000040F60324EA030400D51C43124E2C605E
:10043000361D4D683468AD0324EA030400D51C431F
:100440000D4F346008374D683C68ED0224EA030420
:1004500000D51C43084D3C600C354E682C68B60234
:1004600024EA030400D51C432C60521C102AFFF41C
:100470003DAFBDE8F88F0000003C01404438024029
:100480000030014000000240000402400008024029
:10049000000C02400010024000140240001802400C
:1004A000001C024000200240002402400148006875
:1004B0007047000000C0042002480168491C016028
:1004C0007047000000C00420074810B5016841F4DF
:1004D00000710160032000F0C7F90F2000F006F85A
:1004E00000F09EF9002010BD003C024010B504460B
:1004F00000F040FE4FF47A71B0FBF1F001F08EF89D
:1005000000222146501E00F08FF9002010BD00008F
:10051000F0B590F8A0400025012C06D00126022459
:1005200080F8A14080F8A0601FE00220F0BD00BF6D
:1005300003EB830404EBC30400EB8404A46C062CDB
:100540001CD00F68FCB207F47F4C44EA056407F442
:100550007F0744EA0C043C4307684FF0C40C0CEBE3
:10056000C31C47F80C40091D6D1C9542E0D30021C7
:1005700080F8A16080F8A0100846F0BDD1F800C056
:1005800005EB051E0CF0FF040CF47F4744EA0E64F3
:100590003C430CF47F0C44EA0C04DDE72DE9F04108
:1005A000044690F8A00016460F4601281DD00125EC
:1005B00084F8A050022084F8A10006EB860000EB2E
:1005C000C600342204EB80003830FFF719FE3246B3
:1005D0003946204601F060F9216800204D6284F818
:1005E000A15084F8A000BDE8F0810220FBE710B51F
:1005F00090F8A020012A16D0012280F8A020022421
:1006000080F8A140842303EBC11350F8A01BCC5801
:1006100044F01004CC5050F8A03C00215A624270C3
:100620000170084610BD022010BD00002DE9F04108
:10063000040004D094F8A100002518B107E00120BF
:10064000BDE8F081204684F8A05000F06FF83648ED
:10065000022184F8A110012202CC8B6923F070439F
:100660008B6194E84A001943E3681E4354F8043D43
:1006700031439E693143996121688B6803408B60E7
:100680002168A68AA7698B683B4343EA06438B60CF
:100690002168CB680340CB602168A38B276ACE68B2
:1006A0003E4346EA0346CE6021680B6903400B6176
:1006B0002168A68CA76A0B693B4343EA06430B619A
:1006C00021684B6903404B612168A38D266B486903
:1006D000304340EA03404861236894F8351094F8A9
:1006E0003600DE6A000406F07F46DE62236840EAD8
:1006F000012094F83460D96A31430143D9622068FB
:10070000416B41F0040141632068416B41F00201FB
:1007100041632068816941F001018161C4F8A450FE
:1007200084F8A12000208BE700F800F0234870B582
:100730000025016886B041F080610160006800F02A
:10074000806005901D481438016841F48071016093
:10075000016801F480710591016841F40071016044
:10076000016801F400710591016841F48061016044
:10077000006802240E26694600F4806005904FF45C
:1007800070408DE831000E48CDE90346FFF7A2FD29
:100790004FF6FF7069468DE831000A48CDE90346FF
:1007A000FFF798FDFF2069468DE831000648CDE946
:1007B0000346FFF78FFD06B070BD000044380240CD
:1007C00000200240002402400028024070B5044688
:1007D00090F8A0000E46012820D003EB830000EB28
:1007E000C301012584F8A050022084F8A10004EB85
:1007F00081018E63086E3044C1E90F02486E1044D7
:10080000486438311A46204601F046F82168002035
:100810004D6284F8A15084F8A00070BD022070BD24
:1008200008B50020009008BD0E4BF0B41B680D46C3
:10083000C3F30223C3F10706042E00D90426191DB1
:10084000072901D2002300E0DB1E012404FA06F18F
:100850009C40491E2940641E994014402143F0BC2D
:1008600001F002B90CED00E0064900F0070210B5F6
:100870004FF6FF040868044B204040EA022018436A
:10088000086010BD0CED00E00000FA051848F8B54E
:10089000016841F0805101600068164C00F0805002
:1008A0000090206840F480302060FFF7FFFD4FF497
:1008B0007A76054605E000BFFFF7F8FD401BB04221
:1008C0000FD86068C003F7D5206840F4003020607E
:1008D000FFF7ECFD054606E0FFF7E8FD401BB042E0
:1008E00001D90320F8BD60688003F5D50020F8BD6C
:1008F00040380240007000402DE9F84F044600786F
:10090000DFF828844FF000063546C0070ED0D8F82F
:10091000001021F40001C8F80010D8F80010626B34
:100920001143C8F80010606B00B90126206800036D
:1009300010D5FE48E26B8430016821F44011114368
:100940000160E06BB0F5801F01D010B102E001261C
:1009500000E001252068C00210D5F448226C8430E4
:10096000016821F4400111430160206CB0F5800F53
:1009700001D010B102E0012600E001252068C1018C
:1009800000D50126800657D5E8483830016841F087
:10099000805101600068DFF8989300F0805000906B
:1009A000D9F8001041F48071C9F80010FFF77EFDFE
:1009B000074604E0FFF77AFDC01B64287ED8D9F80B
:1009C0000000C005F6D5D94F218E6837386801F48C
:1009D000407100F4407088422ED03868396820F4A5
:1009E000407041F4803139608207396821F48031E8
:1009F000396038600FD5FFF759FD814641F2883ADA
:100A000006E000BFFFF752FDA0EB09015145D5D824
:100A100038688007F6D5206BC0F3012103297CD00C
:100A2000D8F8001021F4F811C8F80010218E3868A9
:100A3000C1F30B01084338602078C00609D5BB48D4
:100A40008430016821F0807101600168A26B11435C
:100A500001602188B5488830490405D5626E016877
:100A600021F44031114301602188090405D5A26EAB
:100A7000016821F44021114301602168C90305D5B3
:100A8000E26E016821F4401111430160216889037D
:100A900005D5226F016821F44001114301602178DE
:100AA000490605D5626C016821F00301114301601C
:100AB0002178090607D5A26C016800E0FEE021F06C
:100AC0000C01114301602188C90505D5E26C01685C
:100AD00021F03001114301602188890505D5226D7F
:100AE000016821F0C001114301602188490505D545
:100AF000626D016821F4407111430160218809058C
:100B000005D5A26D016821F440611143016021887F
:100B1000C90407D5E26D016800E023E021F44051EB
:100B2000114301602188890405D5226E016821F4F2
:100B30004041114301602168490205D5A26F016857
:100B400021F08061114301602168890215D5E26FAF
:100B5000016821F0006111430160E16FB1F1006FA4
:100B60000AD00AE0734AD8F80030104023F4F81293
:100B70000243C8F8002059E7012521680A0700D57B
:100B80000125490305D5626F016821F040711143C9
:100B900001602168090206D5D4F88020016821F09F
:100BA000805111430160012E4FF4403B4FF0706AB9
:100BB0004FF0E04903D02068B0F1007F7DD15B4E5B
:100BC000083E306820F080603060FFF76FFC074619
:100BD00005E000BFFFF76AFCC01B64286ED85348CD
:100BE000083800680001F5D42078DFF840E1C0073C
:100BF0000EF17C0E33D0606B88BBDEF800C09BFA30
:100C0000ABF7DEF8002047F6C076B7FA87F86068E1
:100C10000CF440319AFAAAFC21FA08F196FAA6F7E8
:100C2000BCFA8CF8B7FA87FC9BFAABF602F070625C
:100C300000FA0CF0B6FA86F69AFAAAF722FA08F247
:100C4000B14099FAA9FCA668B7FA87F70843BA40F9
:100C5000BCFA8CF110438E403043CEF8000020687F
:100C6000010303D5E16BB1F5801F05D0C00241D56A
:100C7000206CB0F5800F3DD1DEF800109BFAABF68A
:100C800047F6C07CB6FA86F7DEF8006001F4403122
:100C900060689CFAACFCF9409AFAAAF7BCFA8CFCA2
:100CA000B7FA87F89BFAABF399FAA9F700FA0CF0B8
:100CB000B7FA87F7B3FA83FC01E08DE007E101FAA8
:100CC0000CF106F0E046E36899FAA9F2FE4003FA57
:100CD00008F3B2FA82F7154A08438432BE4018433B
:100CE0003043CEF800001068616A20F01F00491EF2
:100CF000084310602068C00139D5DEF800209AFA58
:100D0000AAF1DEF8003047F6C07602F07062B1FA60
:100D100081F199FAA9FC9BFAABF7CA4096FAA6F6BC
:100D20000092BCFA8CFCB7FA87F705E0083802405D
:100D300000700040FFFCFF0F2269B6FA86F8616878
:100D40009AFAAAF603F0E040BA4001FA08F111431A
:100D5000009AB6FA86F699FAA9F720FA0CF0B24092
:100D6000B7FA87F61143B0400143CEF8001020686F
:100D7000800120D504F1080147F6C0709BFAABFC56
:100D800090FAA0F260688AC9B2FA82F2BCFA8CF8D2
:100D90009AFAAAFC904099FAA9F6BCFA8CFC07FAD8
:100DA00008F703FA0CF3B6FA86F63843B140184355
:100DB0000843CEF800007B4E306840F08060306021
:100DC000FFF774FB074604E0FFF770FBC01B6428C5
:100DD0007DD830680001F7D5002D79D0714D286895
:100DE00020F080502860FFF761FB064605E000BF59
:100DF000FFF75CFB801B642869D86A480068C04321
:100E00008000F5D56748216888300A0301D5E26B78
:100E10001AB1C9023CD5216CD1BB02689BFAABF672
:100E200047F6C071B6FA86F7066802F4403291FAC6
:100E3000A1FC6169FA409AFAAAF7BCFA8CFC9BFA09
:100E4000ABF501FA0CF1B7FA87F899FAA9F7B5FAF8
:100E500085FCA56906F0E04602FA0CF2B7FA87F7BE
:100E600099FAA9F3FE4011434E4A05FA08F5B3FA80
:100E700083F38C329E402943314301606FF0FF07BA
:100E80001168A36A21F4F85107EB03231943116099
:100E90002168890235D5E16FB1F1006F31D1016868
:100EA0009AFAAAF2056847F6C07601F0706196FAE0
:100EB000A6F7B2FA82F299FAA9F69BFAABFC21FAEC
:100EC00002F8216AB6FA86F6BCFA8CFC01E060E012
:100ED00066E06269B7FA87F701FA0CF19AFAAAFCA0
:100EE000BA4005F0E04599FAA9F3BCFA8CF7F54051
:100EF0000A4308FA07F1B3FA83F30A439D402A43F1
:100F000002602178090736D5036802689BFAABF7BF
:100F10009AFAAAFC47F6C07102F44032214DB7FAA2
:100F200087F891FAA1F7616922FA08F2BCFA8CF805
:100F3000B7FA87FC9BFAABF603F0706301FA0CF189
:100F4000B6FA86F623FA08F39AFAAAF7B24099FAA3
:100F5000A9FCE669B7FA87F78C351143BB40BCFAA8
:100F60008CF219439640314301602868E16A20F40D
:100F70004030084328600B4C206840F080502060CF
:100F8000FFF794FA054607E0FFF790FA401B642844
:100F900002D90320BDE8F88F2068C0438000F3D455
:100FA0000020F7E7003802402DE9F047DFF8BC9158
:100FB0000E4605466E4841F28838D9F800106C4C50
:100FC00001F00F010834B1425AD2D9F8002022F0C2
:100FD0000F023243C9F80020D9F8001001F00F01C8
:100FE000B14270D12978890705D5AA68216821F016
:100FF000F001114321602978C90729D069680129C6
:1010000014D00068022914D0800700285BDA206819
:1010100020F0030008432060FFF748FA064668689E
:1010200001280FD00228474619D024E00068800329
:10103000EBE78001E9E700BFFFF738FA801BB84211
:1010400001D964E047462068C0F381000128F3D14C
:1010500073E000BFFFF72AFA801BB84257D8206818
:10106000C0F381000228F5D167E000BFFFF71EFA48
:10107000801BB8424BD8206810F00C0FF6D15CE012
:101080002978890705D5AA68216821F0F001114364
:1010900021602978C90741D06968012914D0006806
:1010A000022914D08007002845DA206820F00300C8
:1010B00008432060FFF7FAF90746686801280ED058
:1010C000022818D026E036E000688003EBE78001B4
:1010D000E9E700BFFFF7EAF9C11B414517D82068CF
:1010E000C0F381000128F5D118E000BFFFF7DEF959
:1010F000C11B41450BD82068C0F381000228F5D1FF
:101100000CE000BFFFF7D2F9C11B414502D9032013
:10111000BDE8F087206810F00C0FF3D1D9F800106B
:1011200021F00F013143C9F80010D9F8000000F098
:101130000F00B04201D00120EAE72878400705D52A
:10114000E968206820F4E050084320602878000710
:1011500006D52869216821F4604141EAC000206079
:101160000F20FFF7C3F90020D2E70000003C024047
:101170000038024000B500F043F80849F0230A683F
:1011800093FAA3F3064902F0F002B3FA83F3DA40CC
:10119000044B9A5CD040086000BD00000838024053
:1011A00004C00420B020012000B5FFF7E3FF074989
:1011B0004FF4E052096892FAA2F201F4E051B2FA57
:1011C00082F2D140024A515CC84000BD083802405A
:1011D000B020012000B5FFF7CDFF07494FF4604272
:1011E000096892FAA2F201F46041B2FA82F2D140A7
:1011F000024A515CC84000BD08380240B0200120BE
:101200001D4930B51D48096811F00C011AD01C4B5E
:10121000042916D0082915D1174947F6C072091FAD
:101220000C680D6804F03F046D020CD50D68B3FB2B
:10123000F4F092FAA2F31540B3FA83F2D540684372
:101240000BE0184630BD0B68B0FBF4F092FAA2F444
:101250001340B4FA84F2D340584309684FF4403243
:1012600092FAA2F201F44031B2FA82F2D140491C62
:101270004900B0FBF1F030BD083802400024F40012
:1012800040787D012DE9F84FDFF888830446007827
:1012900041F2883BA8F10409A9F10405C00769D00F
:1012A000D8F800104046C1F38101012908D0006838
:1012B000C0F3810002280AD1D9F80000400206D507
:1012C0002868800356D56068002878D052E02868E6
:1012D00020F480302860286820F480202860286866
:1012E00020F480302860FFF7E1F807465E4604E00E
:1012F000FFF7DCF8C01BB04276D828688003F7D42B
:10130000286820F4803028606068B0F5803F10D0F5
:10131000B0F5A02F286810D020F48020286028681D
:1013200020F4803028606068B8B1FFF7BFF8074646
:101330000FE0286820F4802001E040F4802028603D
:10134000286840F48030EDE7FFF7B0F8C01BB042EA
:10135000D2D828688003F7D50CE0FFF7A7F8074636
:1013600005E000BFFFF7A2F8C01BB042C4D8286850
:101370008003F7D42078800746D5D8F80010F827E6
:10138000404611F00C0F08D00068C0F3810002281D
:101390000AD1D9F80000400206D42868800717D582
:1013A000E06801280BD113E0E068002828681CD011
:1013B00040F001002860FFF779F8064605E026E1D5
:1013C000FFF774F8801B642896D828688007F7D543
:1013D0002069296897FAA7F2B2FA82F221F0F8019F
:1013E0009040014329600FE093E020F00100286065
:1013F000FFF75CF8064604E0FFF758F8801B642806
:10140000A6D828688007F7D42078000724D5814E15
:1014100060696C36002830680FD040F00100306001
:10142000FFF744F8074604E0FFF740F8C01B6428C4
:101430006FD830688007F7D50EE020F001003060EB
:10144000FFF734F8074604E0FFF730F8C01B6428C4
:101450005FD830688007F7D42078400771D56D4891
:101460003830016841F08051016000686A4E00F038
:1014700080500090306840F480703060FFF716F8BC
:10148000074604E0FFF712F8C01B642841D8306813
:10149000C005F7D55F4E6836306820F00100306037
:1014A000306820F004003060306820F001003060C7
:1014B000FEF7FCFF82465F4606E000BFFEF7F6FF40
:1014C000A0EB0A00B84224D830688007F6D4306810
:1014D00020F001003060A06801280FD00528306896
:1014E00010D020F004003060306820F0010030603F
:1014F000A068C8B1FEF7DAFF824611E0306820F03C
:10150000040001E040F004003060306840F0010069
:10151000EDE774E0FEF7CAFFA0EB0A00B8426ED810
:1015200030688007F6D50CE0FEF7C0FF824605E084
:10153000FEF7BCFFA0EB0A00B84260D83068800715
:10154000F6D4A069F0B3D8F80010C1F381010229E4
:101550005DD00228286820F08070286003D0FEF754
:10156000A5FF04464EE0FEF7A1FF064605E000BFDA
:10157000FEF79CFF801B642841D828688001F7D4BF
:1015800047F6C0704FF0FF364FF4403790FAA0F2A4
:1015900004F1200097FAA7F7B2FA82F20BC84FF0D5
:1015A000706CB7FA87F706EB5303E6699140E26A7D
:1015B0009CFAACF4BB4019433043B4FA84F30843BB
:1015C0009A4000E021E0104340F00050C9F80000CC
:1015D000286840F080702860FEF768FF044604E049
:1015E000FEF764FF001B642809D828688001F7D53E
:1015F0000BE000BFFEF75AFF001B642802D903204E
:10160000BDE8F88F28688001F4D40020F8E70120B5
:10161000F6E700000838024000700040401EB0F1BC
:10162000807F10B501D3012010BD4FF0E024606130
:101630000F21601700F018FA0020A0610721216136
:1016400010BD10B5040003D094F8690010B107E094
:10165000012010BD002084F86800204600F026F824
:10166000022084F869002068016821F0010101600E
:10167000204600F029FB0128EBD0606A10B120461B
:1016800000F080FA2068416821F4904141602068B0
:10169000816821F02A0181602068016841F0010120
:1016A00001602046BDE8104000F0D0BA704700004D
:1016B0002DE9F047044690F8690099460D46012847
:1016C00003D094F86900222854D125B31AB394F8B2
:1016D000680001284ED00027E766012694F86900CB
:1016E00084F86860222819D05FF0120084F869003D
:1016F000A4F850204FF48058A4F852200022B4F8E7
:10170000520080214B46401EA4F85200204600F0B3
:10171000FFFBC8B904E00120BDE8F0873220E5E70F
:10172000A068404501D1206980B115F8010B2168FE
:101730008862B4F852000028E0D100224B464021D4
:10174000204600F0E5FB38B10320E5E735F8020B51
:101750002168C0F30800EBE794F86900322805D04F
:1017600084F86960002084F86870D5E7222084F846
:101770006900F7E70220CFE72DE9F04781464448AA
:1017800005248A469AB00823C461C0220360590325
:101790004261C162FFF7B0F83D4800214FF02808D0
:1017A000A8384FF488774FF4F07C4160A201816043
:1017B000F023C1600726C0E904184FF00908C0F8FB
:1017C00018804FF02A08C0F81C804FF00B08C0F8B2
:1017D000208040F23918C0F8288040F27A28C0F8FA
:1017E000248040F21D18C0F830804FF40378C0F810
:1017F0002C80C0E918C780F834104FF4C06580F819
:101800003510DFF8908080F83610C0F8008002A80C
:10181000CDE900124FF0200880E81A00FF24CDF82F
:101820002490CDE905418DF83010A0208DF83110BD
:1018300002248DF83210CDE90D0CC820CDF83C8083
:10184000CDE91201CDE90A23CDF858A0CDE91074F5
:10185000CDE907568DF864108DF865100C488DF8A9
:101860006610CDE91723A838CDE91456FEF7DEFE41
:10187000074800226946A838FEF790FE0448012276
:101880000DA9A838FEF78AFE1AB0BDE8F08700005F
:1018900034C10420006801402DE9FE4F81460068F4
:1018A000882493468D888C2204EBCB178A46C36824
:1018B0009421BE46C459C3F30B432B4404F4704433
:1018C0001F04019702EBCB1240F80E4001EBCB1343
:1018D000DAF800709C214FF0AC0C01EBCB1440F215
:1018E000077102910CEBCB11D9F800C098250020AC
:1018F000CDF800C0A02605EBCB15DCF80CC006EB3C
:10190000CB16CCF30B4C0CF1010C07EB0C08DDF8FB
:1019100000C0019F48EA07084CF80E80D9F8007013
:10192000BAF80CC0B846FF68C7F30A0767444FEA25
:10193000074E58F8027007F4704C48F802C0D9F806
:1019400000C0DAF80870DCF80C80C8F30A0808F167
:101950000108B84448EA0E084CF80280D9F8002083
:10196000D75827F00707D750D9F80070DAF81020B9
:10197000FA509AF831209AF818304FEA022C9AF867
:101980003220120442EA0362D9F800301F5918517C
:101990009AF8303043EA0C031343D9F8002013516E
:1019A000D9F80020535923F0FF035351D9F80020F0
:1019B000DAF814305351D9F800209359029CA3430C
:1019C0009351D9F80030DAE9072422439A51D9F823
:1019D000002053585050D9F80020DAF82400505015
:1019E000DAF81000C8B301283AD004283AD0022807
:1019F00038D0032836D0072834D00120D9F8003059
:101A0000B02505EBCB11B42284245D5802EBCB1238
:101A100005F0E0255D50DAE9003504EBCB14EB1A54
:101A2000BAF8285043434543D9F80000DB1C43EA89
:101A300005434350D9F8000081586FF30A018150E3
:101A4000D9F80000DAF82C108150D9F800000159BB
:101A500041F001010151BDE8FE8FFFE70420CDE711
:101A60000320CBE70220C9E7090700284FEA1161EC
:101A700006DA00F00F0000F1E02080F8141D704736
:101A800000F1E02080F800147047FEF715BD70B536
:101A9000022492B0600501250DF1200CCDE906402D
:101AA0002E046846192109230B934FF4D8728CE851
:101AB0001600CDE90056FFF7E5FB00B1FEE7FEF7A3
:101AC000E5FE00B1FEE70EAD00214FF4A0524FF449
:101AD000805385E80E000F20CDE90C0407210CA8E7
:101AE000FFF762FA002800D0FEE712B070BD0000D8
:101AF000104A30B51048146800210F4B44F47004AC
:101B00001460083305680D4A0D4C45F00105056069
:101B100019600368051D1340074A03600C322C60EE
:101B20000568044C074B25F48025803C0560116056
:101B3000236030BD88ED00E000380240FFFFF6FE74
:101B4000103000240000012010B5FEF77DFBFEF7E9
:101B5000BBFCFFF79CFF00F0A1F8BDE8104001A01E
:101B600000F020BA0A0D53797374656D20696E69AF
:101B70007469616C697A6520737563636573730A50
:101B80000D00000090F82410C90706D00168836A90
:101B90004A6822F400321A434A6090F824108907F8
:101BA00006D50168C36A4A6822F480321A434A6043
:101BB00090F82410490706D50168036B4A6822F49F
:101BC00080221A434A6090F82410090706D501685C
:101BD000436B4A6822F400421A434A6090F824108A
:101BE000C90606D50168836B8A6822F480521A43BD
:101BF0008A6090F82410890606D50168C36B8A684C
:101C000022F400521A438A6090F82410490611D534
:101C10000168036C4A6822F480121A434A60016C1E
:101C2000B1F5801F06D10168436C4A6822F4C002F6
:101C30001A434A6090F82410090606D50168826CA0
:101C4000486820F4002010434860704770B50025B4
:101C500004466FF07E46C56600680068000707D539
:101C6000002233464FF40011204600F051F958B9D4
:101C700020680068400709D5002233464FF48001F0
:101C8000204600F045F908B1032070BD012084F81A
:101C90006900002084F8685070BD000009480021E8
:101CA00030B4074C4FF4E1330C220460C0E9013139
:101CB000C1600161C0E9052130BCFFF7C2BC000072
:101CC000001001401CC004202DE9F0470446806844
:101CD000834B844F2668D4E90415E2690843D6F89B
:101CE00000C0102115430022284315460CEA030CBE
:101CF0007D4B4CEA000CC6F800C04FF40049206848
:101D0000D4F80CC0466826F4405646EA0C064660F5
:101D10002668D4F82080A069D6F808C040EA0800F8
:101D20002CF4306C4CEA000CC6F808C02068B842AD
:101D30000AD11B6813F0030352D0012B7AD0022B77
:101D400076D0032B79D177E0684EB0420AD11B6878
:101D500013F00C036AD0042B6CD0082B68D00C2B2A
:101D60006BD169E0624EB0420AD11B6813F03003B8
:101D70005CD0102B5ED0202B5AD0302B5DD15BE095
:101D80005C4EB0420AD11B6813F0C0034ED0402B0A
:101D900050D0802B4CD0C02B4FD14DE0564EB0428E
:101DA0000DD11B6813F4407340D0B3F5807F41D050
:101DB000B3F5007F3CD0B3F5407F3ED13CE04F4EC1
:101DC000B0420FD11B6813F4406309D0B3F5806FA4
:101DD00030D0B3F5006F2BD0B3F5406F2DD12BE091
:101DE00001212AE0464EB0420DD11B6813F4405346
:101DF0001CD0B3F5805F1DD0B3F5005F18D0B3F5EC
:101E0000405F1AD118E03F4EB04216D11B6813F460
:101E100040430BD0B3F5804F0CD04B4508D0B3F501
:101E2000404F0AD108E005E002E0FFE7002104E0AE
:101E3000022102E0042100E00821E6694E4527D195
:101E400009291DD2DFE801F00508101C131C1C1C19
:101E50001600FFF7A9F901E0FFF7BCF9616840003F
:101E6000B0FBF1F082B20CE02749606805E0FFF7B3
:101E7000C7F9F3E760684FF48031B1FBF0F0F1E7A8
:101E80000125216822F00F00C2F3420210431BE03B
:101E9000092920D2DFE801F005080B1F111F1F1FC1
:101EA0001A00FFF781F90AE0FFF794F907E0174AF3
:101EB0006168B2FBF1F189B20BE0FFF7A1F9D4E957
:101EC0000012B0FBF2F080B2C86005E06168B9FBB7
:101ED000F1F1C16000E001252846BDE8F08700006F
:101EE000F369FFEF001001409038024000440040C9
:101EF00000480040004C00400050004000140140E9
:101F000000780040007C00400048E8010024F40014
:101F10002DE9F0471D4690460E460446FEF7C6FAE8
:101F2000B8F1000F07464FF000094FF0010808D044
:101F300030E0681C05D095B1FEF7B8FAC01BA84286
:101F40000DD22068C06936EA0000F2D127E0681C93
:101F500020D025B1FEF7AAFAC01BA8421AD32068E8
:101F6000036823F0800303602068036823F02003E4
:101F700003602068036823F480730360206883682B
:101F800023F00103836084F86980032084F868905B
:101F9000BDE8F0872068C06936EA0000D7D000208D
:101FA000F6E70000014A024900F013B8F51F0120CE
:101FB00018C0042002E008C8121F08C1002AFAD184
:101FC00070477047002001E001C1121F002AFBD1B9
:101FD00070472DE9F04116460F460446002503E000
:101FE0003946B047641C6D1C20780028F8D128467B
:101FF000BDE8F08113B5044801224FF6FF7369462E
:10200000FFF756FB00981CBD1CC00420FFF79CFD89
:102010002449A1F59630FFF7AFFB2349002323485D
:102020004FF48072FEF774FA20480021FEF7DFFAC1
:102030004FF4FA755FF000041C480023224604EBBD
:102040008401FEF7C3FB6042012300EB80011748C7
:10205000A031C4F12002FEF7B9FB3220FEF72EF9C1
:10206000641C202CE8D32846FEF728F9002460429F
:10207000002300EB80010D48A031C4F12002FEF7DF
:10208000A5FB0A48012304EB84012246FEF79EFBD0
:102090003220FEF713F9641C202CE8D32846FEF703
:1020A0000DF9C7E7C0500220C02001208CC00420D9
:1020B00000000000010203040102030406070809EE
:1020C0000000000000008000008000000080800010
:1020D000800000008000800080800000C0C0C00040
:1020E000C0DCC000F0CAA600002040000020600054
:1020F000002080000020A0000020C0000020E000A0
:10210000004000000040200000404000004060000F
:10211000004080000040A0000040C0000040E000FF
:10212000006000000060200000604000006060006F
:10213000006080000060A0000060C0000060E0005F
:1021400000800000008020000080400000806000CF
:10215000008080000080A0000080C0000080E000BF
:1021600000A0000000A0200000A0400000A060002F
:1021700000A0800000A0A00000A0C00000A0E0001F
:1021800000C0000000C0200000C0400000C060008F
:1021900000C0800000C0A00000C0C00000C0E0007F
:1021A00000E0000000E0200000E0400000E06000EF
:1021B00000E0800000E0A00000E0C00000E0E000DF
:1021C000400000004000200040004000400060004F
:1021D000400080004000A0004000C0004000E0003F
:1021E00040200000402020004020400040206000AF
:1021F000402080004020A0004020C0004020E0009F
:10220000404000004040200040404000404060000E
:10221000404080004040A0004040C0004040E000FE
:10222000406000004060200040604000406060006E
:10223000406080004060A0004060C0004060E0005E
:1022400040800000408020004080400040806000CE
:10225000408080004080A0004080C0004080E000BE
:1022600040A0000040A0200040A0400040A060002E
:1022700040A0800040A0A00040A0C00040A0E0001E
:1022800040C0000040C0200040C0400040C060008E
:1022900040C0800040C0A00040C0C00040C0E0007E
:1022A00040E0000040E0200040E0400040E06000EE
:1022B00040E0800040E0A00040E0C00040E0E000DE
:1022C000800000008000200080004000800060004E
:1022D000800080008000A0008000C0008000E0003E
:1022E00080200000802020008020400080206000AE
:1022F000802080008020A0008020C0008020E0009E
:10230000804000008040200080404000804060000D
:10231000804080008040A0008040C0008040E000FD
:10232000806000008060200080604000806060006D
:10233000806080008060A0008060C0008060E0005D
:1023400080800000808020008080400080806000CD
:10235000808080008080A0008080C0008080E000BD
:1023600080A0000080A0200080A0400080A060002D
:1023700080A0800080A0A00080A0C00080A0E0001D
:1023800080C0000080C0200080C0400080C060008D
:1023900080C0800080C0A00080C0C00080C0E0007D
:1023A00080E0000080E0200080E0400080E06000ED
:1023B00080E0800080E0A00080E0C00080E0E000DD
:1023C000C0000000C0002000C0004000C00060004D
:1023D000C0008000C000A000C000C000C000E0003D
:1023E000C0200000C0202000C0204000C0206000AD
:1023F000C0208000C020A000C020C000C020E0009D
:10240000C0400000C0402000C0404000C04060000C
:10241000C0408000C040A000C040C000C040E000FC
:10242000C0600000C0602000C0604000C06060006C
:10243000C0608000C060A000C060C000C060E0005C
:10244000C0800000C0802000C0804000C0806000CC
:10245000C0808000C080A000C080C000C080E000BC
:10246000C0A00000C0A02000C0A04000C0A060002C
:10247000C0A08000C0A0A000C0A0C000C0A0E0001C
:10248000C0C00000C0C02000C0C04000C0C060008C
:10249000C0C08000C0C0A000F0FBFF00A4A0A0004E
:1024A000808080000000FF0000FF000000FFFF00B0
:1024B000FF000000FF00FF00FFFF0000FFFFFF0024
:1024C000F9F9F9F9F9F9F9F9F9F9F9F9FFFFFFF96A
:1024D000FFFFFFFFFFFFFFFFFFFFFFFFFFFFFFFF0C
:1024E000FFFFFFFFFFFFFFFFFFFFFFFFFFFFFFFFFC
:1024F000FFFFFFFFF9F9A7FFF9F9F9F9F9F9F9F980
:10250000F9F9F9F9CFCFF9F9CFCFCFCFCFCFCFCFDF
:10251000CFCFCFCFCFCFCFCFCFCFCFCFCFCFCFCFCB
:10252000CFCFCFCFCFCFCFCFCFCFCFCFCFCFCFCFBB
:10253000CFCFCFCFCFCFCFCFCFCFCFCFCFCFCFCFAB
:10254000CFCFCFCFCFCFCFCFCFCFCFCFCFCFCFCF9B
:10255000CFCFCFCFCFCFCFCFCFCFCFCFCFCFCFCF8B
:10256000CFCFCFCFCFCFCFCFCFCFCFCFCFCFCFCF7B
:10257000CFCFCFCFCFCFCFCFCFCFCFCFCFCFCFCF6B
:10258000CFCFCFCFCFCFCFCFCFCFCFCFCFCFCFCF5B
:10259000CFCFCFCFCFCFCFCFCFCFCFCFCFCFCFCF4B
:1025A000CFCFCFCFCFCFCFCFCFCFCFCFCFCFCFCF3B
:1025B000CFCFCFCFCFCFCFCFCFCFCFCF8FCFCFCF6B
:1025C000F9F9F9F9F9F9F9F9F9F9F9F9FBF9F9F979
:1025D000FBFBFBFBFBFBFBFBFFBFFBFBFFFFFFFF73
:1025E000FFFFFFFFFFFFFFFFFFFFFFFFFBFBFFFF03
:1025F000FBFBFBFB1FFBFBFBF9F9F9F9F9F9F9F917
:10260000F9F9F9F9F9F9F9F9F9F9F9F9FFFFFFF928
:10261000FFFFFFFFFFFFFFFFFFFFFFFFFFFFFFFFCA
:10262000FFFFFFFFFFFFFFFFFFFFFFFFFFFFFFFFBA
:10263000FFFFFFFFF9F9A7FFF9F9F9F9F9F9F9F93E
:10264000F9F9F9F9CFCFF9F9CFCFCFCFCFCFCFCF9E
:10265000CFCFCFCFCFCFCFCFCFCFCFCFCFCFCFCF8A
:10266000CFCFCFCFCFCFCFCFCFCFCFCFCFCFCFCF7A
:10267000CFCFCFCFCFCFCFCFCFCFCFCFCFCFCFCF6A
:10268000CFCFCFCFCFCFCFCFCFCFCFCFCFCFCFCF5A
:10269000CFCFCFCFCFCFCFCFCFCFCFCFCFCFCFCF4A
:1026A000CFCFCFCFCFCFCFCFCFCFCFCFCFCFCFCF3A
:1026B000CFCFCFCFCFCFCFCFCFCFCFCFCFCFCFCF2A
:1026C000CFCFCFCFCFCFCFCFCFCFCFCFCFCFCFCF1A
:1026D000CFCFCFCFCFCFCFCFCFCFCFCFCFCFCFCF0A
:1026E000CFCFCFCFCFCFCFCFCFCFCFCFCFCFCFCFFA
:1026F000CFCFCFCFCFCFCFCFCFCFCFCF8FCFCFCF2A
:10270000F9F9F9F9F9F9F9F9F9F9F9F9FBF9F9F937
:10271000FBFBFBFBFBFBFBFBFFBFFBFBFFFFFFFF31
:10272000FFFFFFFFFFFFFFFFFFFFFFFFFBFBFFFFC1
:10273000FBFBFBFB1FFBFBFBF9F9F9F9F9F9F9F9D5
:10274000F9F9F9F9F9F9F9F9F9F9F9F9FFFFFFF9E7
:10275000FFFFFFFFFFFFFFFFFFFFFFFFFFFFFFFF89
:10276000FFFFFFFFFFFFFFFFFFFFFFFFFFFFFFFF79
:10277000FFFFFFFFF9F9A7FFF9F9F9F9F9F9F9F9FD
:10278000F9F9F9F9CFCFF9F9CFCFCFCFCFCFCFCF5D
:10279000CFCFCFCFCFCFCFCFCFCFCFCFCFCFCFCF49
:1027A000CFCFCFCFCFCFCFCFCFCFCFCFCFCFCFCF39
:1027B000CFCFCFCFCFCFCFCFCFCFCFCFCFCFCFCF29
:1027C000CFCFCFCFCFCFCFCFCFCFCFCFCFCFCFCF19
:1027D000CFCFCFCFCFCFCFCFCFCFCFCFCFCFCFCF09
:1027E000CFCFCFCFCFCFCFCFCFCFCFCFCFCFCFCFF9
:1027F000CFCFCFCFCFCFCFCFCFCFCFCFCFCFCFCFE9
:10280000CFCFCFCFCFCFCFCFCFCFCFCFCFCFCFCFD8
:10281000CFCFCFCFCFCFCFCFCFCFCFCFCFCFCFCFC8
:10282000CFCFCFCFCFCFCFCFCFCFCFCFCFCFCFCFB8
:10283000CFCFCFCFCFCFCFCFCFCFCFCF8FCFCFCFE8
:10284000F9F9F9F9F9F9F9F9F9F9F9F9FBF9F9F9F6
:10285000FBFBFBFBFBFBFBFBFFBFFBFBFFFFFFFFF0
:10286000FFFFFFFFFFFFFFFFFFFFFFFFFBFBFFFF80
:10287000FBFBFBFB1FFBFBFBF9F9F9F9F9F9F9F994
:10288000F9F9F9F9F9F9F9F9F9F9F9F9FFFFFFF9A6
:10289000FFFFFFFFFFFFFFFFFFFFFFFFFFFFFFFF48
:1028A000FFFFFFFFFFFFFFFFFFFFFFFFFFFFFFFF38
:1028B000FFFFFFFFF9F9A7FFF9F9F9F9F9F9F9F9BC
:1028C000F9F9F9F9CFCFF9F9CFCFCFCFCFCFCFCF1C
:1028D000CFCFCFCFCFCFCFCFCFCFCFCFCFCFCFCF08
:1028E000CFCFCFCFCFCFCFCFCFCFCFCFCFCFCFCFF8
:1028F000CFCFCFCFCFCFCFCFCFCFCFCFCFCFCFCFE8
:10290000CFCFCFCFCFCFCFCFCFCFCFCFCFCFCFCFD7
:10291000CFCFCFCFCFCFCFCFCFCFCFCFCFCFCFCFC7
:10292000CFCFCFCFCFCFCFCFCFCFCFCFCFCFCFCFB7
:10293000CFCFCFCFCFCFCFCFCFCFCFCFCFCFCFCFA7
:10294000CFCFCFCFCFCFCFCFCFCFCFCFCFCFCFCF97
:10295000CFCFCFCFCFCFCFCFCFCFCFCFCFCFCFCF87
:10296000CFCFCFCFCFCFCFCFCFCFCFCFCFCFCFCF77
:10297000CFCFCFCFCFCFCFCFCFCFCFCF8FCFCFCFA7
:10298000F9F9F9F9F9F9F9F9F9F9F9F9FBF9F9F9B5
:10299000FBFBFBFBFBFBFBFBFFBFFBFBFFFFFFFFAF
:1029A000FFFFFFFFFFFFFFFFFFFFFFFFFBFBFFFF3F
:1029B000FBFBFBFB1FFBFBFBF9F9F9F9F9F9F9F953
:1029C000F9F9F9F9F9F9F9F9F9F9F9F9FFFFFFF965
:1029D000FFFFFFFFFFFFFFFFFFFFFFFFFFFFFFFF07
:1029E000FFFFFFFFFFFFFFFFFFFFFFFFFFFFFFFFF7
:1029F000FFFFFFFFF9F9A7FFF9F9F9F9F9F9F9F97B
:102A0000F9F9F9F9CFCFF9F9CFCFCFCFCFCFCFCFDA
:102A1000CFCFCFCFCFCFCFCFCFCFCFCFCFCFCFCFC6
:102A2000CFCFCFCFCFCFCFCFCFCFCFCFCFCFCFCFB6
:102A3000CFCFCFCFCFCFCFCFCFCFCFCFCFCFCFCFA6
:102A4000CFCFCFCFCFCFCFCFCFCFCFCFCFCFCFCF96
:102A5000CFCFCFCFCFCFCFCFCFCFCFCFCFCFCFCF86
:102A6000CFCFCFCFCFCFCFCFCFCFCFCFCFCFCFCF76
:102A7000CFCFCFCFCFCFCFCFCFCFCFCFCFCFCFCF66
:102A8000CFCFCFCFCFCFCFCFCFCFCFCFCFCFCFCF56
:102A9000CFCFCFCFCFCFCFCFCFCFCFCFCFCFCFCF46
:102AA000CFCFCFCFCFCFCFCFCFCFCFCFCFCFCFCF36
:102AB000CFCFCFCFCFCFCFCFCFCFCFCF8FCFCFCF66
:102AC000F9F9F9F9F9F9F9F9F9F9F9F9FBF9F9F974
:102AD000FBFBFBFBFBFBFBFBFFBFFBFBFFFFFFFF6E
:102AE000FFFFFFFFFFFFFFFFFFFFFFFFFBFBFFFFFE
:102AF000FBFBFBFB1FFBFBFBF9F9F9F9F9F9F9F912
:102B0000F9F9F9F9F9F9F9F9F9F9F9F9FFFFFFF923
:102B1000FFFFFFFFFFFFFFFFFFFFFFFFFFFFFFFFC5
:102B2000FFFFFFFFFFFFFFFFFFFFFFFFFFFFFFFFB5
:102B3000FFFFFFFFF9F9A7FFF9F9F9F9F9F9F9F939
:102B4000F9F9F9F9CFCFF9F9CFCFCFCFCFCFCFCF99
:102B5000CFCFCFCFCFCFCFCFCFCFCFCFCFCFCFCF85
:102B6000CFCFCFCFCFCFCFCFCFCFCFCFCFCFCFCF75
:102B7000CFCFCFCFCFCFCFCFCFCFCFCFCFCFCFCF65
:102B8000CFCFCFCFCFCFCFCFCFCFCFCFCFCFCFCF55
:102B9000CFCFCFCFCFCFCFCFCFCFCFCFCFCFCFCF45
:102BA000CFCFCFCFCFCFCFCFCFCFCFCFCFCFCFCF35
:102BB000CFCFCFCFCFCFCFCFCFCFCFCFCFCFCFCF25
:102BC000CFCFCFCFCFCFCFCFCFCFCFCFCFCFCFCF15
:102BD000CFCFCFCFCFCFCFCFCFCFCFCFCFCFCFCF05
:102BE000CFCFCFCFCFCFCFCFCFCFCFCFCFCFCFCFF5
:102BF000CFCFCFCFCFCFCFCFCFCFCFCF8FCFCFCF25
:102C0000F9F9F9F9F9F9F9F9F9F9F9F9FBF9F9F932
:102C1000FBFBFBFBFBFBFBFBFFBFFBFBFFFFFFFF2C
:102C2000FFFFFFFFFFFFFFFFFFFFFFFFFBFBFFFFBC
:102C3000FBFBFBFB1FFBFBFBF9F9F9F9F9F9F9F9D0
:102C4000F9F9F9F9F9F9F9F9F9F9F9F9FFFFFFF9E2
:102C5000FFFFFFFFFFFFFFFFFFFFFFFFFFFFFFFF84
:102C6000FFFFFFFFFFFFFFFFFFFFFFFFFFFFFFFF74
:102C7000FFFFFFFFF9F9A7FFF9F9F9F9F9F9F9F9F8
:102C8000F9F9F9F9CFCFF9F9CFCFCFCFCFCFCFCF58
:102C9000CFCFCFCFCFCFCFCFCFCFCFCFCFCFCFCF44
:102CA000CFCFCFCFCFCFCFCFCFCFCFCFCFCFCFCF34
:102CB000CFCFCFCFCFCFCFCFCFCFCFCFCFCFCFCF24
:102CC000CFCFCFCFCFCFCFCFCFCFCFCFCFCFCFCF14
:102CD000CFCFCFCFCFCFCFCFCFCFCFCFCFCFCFCF04
:102CE000CFCFCFCFCFCFCFCFCFCFCFCFCFCFCFCFF4
:102CF000CFCFCFCFCFCFCFCFCFCFCFCFCFCFCFCFE4
:102D0000CFCFCFCFCFCFCFCFCFCFCFCFCFCFCFCFD3
:102D1000CFCFCFCFCFCFCFCFCFCFCFCFCFCFCFCFC3
:102D2000CFCFCFCFCFCFCFCFCFCFCFCFCFCFCFCFB3
:102D3000CFCFCFCFCFCFCFCFCFCFCFCF8FCFCFCFE3
:102D4000F9F9F9F9F9F9F9F9F9F9F9F9FBF9F9F9F1
:102D5000FBFBFBFBFBFBFBFBFFBFFBFBFFFFFFFFEB
:102D6000FFFFFFFFFFFFFFFFFFFFFFFFFBFBFFFF7B
:102D7000FBFBFBFB1FFBFBFBF9F9F9F9F9F9F9F98F
:102D8000F9F9F9F9F9F9F9F9F9F9F9F9FFFFFFF9A1
:102D9000FFFFFFFFFFFFFFFFFFFFFFFFFFFFFFFF43
:102DA000FFFFFFFFFFFFFFFFFFFFFFFFFFFFFFFF33
:102DB000FFFFFFFFF9F9A7FFF9F9F9F9F9F9F9F9B7
:102DC000F9F9F9F9CFCFF9F9CFCFCFCFCFCFCFCF17
:102DD000CFCFCFCFCFCFCFCFCFCFCFCFCFCFCFCF03
:102DE000CFCFCFCFCFCFCFCFCFCFCFCFCFCFCFCFF3
:102DF000CFCFCFCFCFCFCFCFCFCFCFCFCFCFCFCFE3
:102E0000CFCFCFCFCFCFCFCFCFCFCFCFCFCFCFCFD2
:102E1000CFCFCFCFCFCFCFCFCFCFCFCFCFCFCFCFC2
:102E2000CFCFCFCFCFCFCFCFCFCFCFCFCFCFCFCFB2
:102E3000CFCFCFCFCFCFCFCFCFCFCFCFCFCFCFCFA2
:102E4000CFCFCFCFCFCFCFCFCFCFCFCFCFCFCFCF92
:102E5000CFCFCFCFCFCFCFCFCFCFCFCFCFCFCFCF82
:102E6000CFCFCFCFCFCFCFCFCFCFCFCFCFCFCFCF72
:102E7000CFCFCFCFCFCFCFCFCFCFCFCF8FCFCFCFA2
:102E8000F9F9F9F9F9F9F9F9F9F9F9F9FBF9F9F9B0
:102E9000FBFBFBFBFBFBFBFBFFBFFBFBFFFFFFFFAA
:102EA000FFFFFFFFFFFFFFFFFFFFFFFFFBFBFFFF3A
:102EB000FBFBFBFB1FFBFBFBF9F9F9F9F9F9F9F94E
:102EC000F9F9F9F9F9F9F9F9F9F9F9F9FFFFFFF960
:102ED000FFFFFFFFFFFFFFFFFFFFFFFFFFFFFFFF02
:102EE000FFFFFFFFFFFFFFFFFFFFFFFFFFFFFFFFF2
:102EF000FFFFFFFFF9F9A7FFF9F9F9F9F9F9F9F976
:102F0000F9F9F9F9CFCFF9F9CFCFCFCFCFCFCFCFD5
:102F1000CFCFCFCFCFCFCFCFCFCFCFCFCFCFCFCFC1
:102F2000CFCFCFCFCFCFCFCFCFCFCFCFCFCFCFCFB1
:102F3000CFCFCFCFCFCFCFCFCFCFCFCFCFCFCFCFA1
:102F4000CFCFCFCFCFCFCFCFCFCFCFCFCFCFCFCF91
:102F5000CFCFCFCFCFCFCFCFCFCFCFCFCFCFCFCF81
:102F6000CFCFCFCFCFCFCFCFCFCFCFCFCFCFCFCF71
:102F7000CFCFCFCFCFCFCFCFCFCFCFCFCFCFCFCF61
:102F8000CFCFCFCFCFCFCFCFCFCFCFCFCFCFCFCF51
:102F9000CFCFCFCFCFCFCFCFCFCFCFCFCFCFCFCF41
:102FA000CFCFCFCFCFCFCFCFCFCFCFCFCFCFCFCF31
:102FB000CFCFCFCFCFCFCFCFCFCFCFCF8FCFCFCF61
:102FC000F9F9F9F9F9F9F9F9F9F9F9F9FBF9F9F96F
:102FD000FBFBFBFBFBFBFBFBFFBFFBFBFFFFFFFF69
:102FE000FFFFFFFFFFFFFFFFFFFFFFFFFBFBFFFFF9
:102FF000FBFBFBFB1FFBFBFBF9F9F9F9F9F9F9F90D
:10300000F9F9F9F9F9F9F9F9F9F9F9F9FFFFFFF91E
:10301000FFFFFFFFFFFFFFFFFFFFFFFFFFFFFFFFC0
:10302000FFFFFFFFFFFFFFFFFFFFFFFFFFFFFFFFB0
:10303000FFFFFFFFF9F9A7FFF9F9F9F9F9F9F9F934
:10304000F9F9F9F9CFCFF9F9CFCFCFCFCFCFCFCF94
:10305000CFCFCFCFCFCFCFCFCFCFCFCFCFCFCFCF80
:10306000CFCFCFCFCFCFCFCFCFCFCFCFCFCFCFCF70
:10307000CFCFCFCFCFCFCFCFCFCFCFCFCFCFCFCF60
:10308000CFCFCFCFCFCFCFCFCFCFCFCFCFCFCFCF50
:10309000CFCFCFCFCFCFCFCFCFCFCFCFCFCFCFCF40
:1030A000CFCFCFCFCFCFCFCFCFCFCFCFCFCFCFCF30
:1030B000CFCFCFCFCFCFCFCFCFCFCFCFCFCFCFCF20
:1030C000CFCFCFCFCFCFCFCFCFCFCFCFCFCFCFCF10
:1030D000CFCFCFCFCFCFCFCFCFCFCFCFCFCFCFCF00
:1030E000CFCFCFCFCFCFCFCFCFCFCFCFCFCFCFCFF0
:1030F000CFCFCFCFCFCFCFCFCFCFCFCF8FCFCFCF20
:10310000F9F9F9F9F9F9F9F9F9F9F9F9FBF9F9F92D
:10311000FBFBFBFBFBFBFBFBFFBFFBFBFFFFFFFF27
:10312000FFFFFFFFFFFFFFFFFFFFFFFFFBFBFFFFB7
:10313000FBFBFBFB1FFBFBFBF9F9F9F9F9F9F9F9CB
:10314000F9F9F9F9F9F9F9F9F9F9F9F9FFFFFFF9DD
:10315000FFFFFFFFFFFFFFFFFFFFFFFFFFFFFFFF7F
:10316000FFFFFFFFFFFFFFFFFFFFFFFFFFFFFFFF6F
:10317000FFFFFFFFF9F9A7FFF9F9F9F9F9F9F9F9F3
:10318000F9F9F9F9CFCFF9F9CFCFCFCFCFCFCFCF53
:10319000CFCFCFCFCFCFCFCFCFCFCFCFCFCFCFCF3F
:1031A000CFCFCFCFCFCFCFCFCFCFCFCFCFCFCFCF2F
:1031B000CFCFCFCFCFCFCFCFCFCFCFCFCFCFCFCF1F
:1031C000CFCFCFCFCFCFCFCFCFCFCFCFCFCFCFCF0F
:1031D000CFCFCFCFCFCFCFCFCFCFCFCFCFCFCFCFFF
:1031E000CFCFCFCFCFCFCFCFCFCFCFCFCFCFCFCFEF
:1031F000CFCFCFCFCFCFCFCFCFCFCFCFCFCFCFCFDF
:10320000CFCFCFCFCFCFCFCFCFCFCFCFCFCFCFCFCE
:10321000CFCFCFCFCFCFCFCFCFCFCFCFCFCFCFCFBE
:10322000CFCFCFCFCFCFCFCFCFCFCFCFCFCFCFCFAE
:10323000CFCFCFCFCFCFCFCFCFCFCFCF8FCFCFCFDE
:10324000F9F9F9F9F9F9F9F9F9F9F9F9FBF9F9F9EC
:10325000FBFBFBFBFBFBFBFBFFBFFBFBFFFFFFFFE6
:10326000FFFFFFFFFFFFFFFFFFFFFFFFFBFBFFFF76
:10327000FBFBFBFB1FFBFBFBF9F9F9F9F9F9F9F98A
:10328000F9F9F9F9F9F9F9F9F9F9F9F9FFFFFFF99C
:10329000FFFFFFFFFFFFFFFFFFFFFFFFFFFFFFFF3E
:1032A000FFFFFFFFFFFFFFFFFFFFFFFFFFFFFFFF2E
:1032B000FFFFFFFFF9F9A7FFF9F9F9F9F9F9F9F9B2
:1032C000F9F9F9F9CFCFF9F9CFCFCFCFCFCFCFCF12
:1032D000CFCFCFCFCFCFCFCFCFCFCFCFCFCFCFCFFE
:1032E000CFCFCFCFCFCFCFCFCFCFCFCF87CFCFCF36
:1032F000878787878787878787878787878787875E
:10330000878787878787878787878787878787874D
:10331000878787878787878787878787878787873D
:10332000878787878787878787878787878787872D
:10333000878787878787878787878787878787871D
:10334000878787878787878787878787878787870D
:1033500087878787CF878787CFCFCFCFCFCFCFCF75
:10336000CFCFCFCFCFCFCFCFCFCFCFCFCFCFCFCF6D
:10337000CFCFCFCFCFCFCFCFCFCFCFCF8FCFCFCF9D
:10338000F9F9F9F9F9F9F9F9F9F9F9F9FBF9F9F9AB
:10339000FBFBFBFBFBFBFBFBFFBFFBFBFFFFFFFFA5
:1033A000FFFFFFFFFFFFFFFFFFFFFFFFFBFBFFFF35
:1033B000FBFBFBFB1FFBFBFBF9F9F9F9F9F9F9F949
:1033C000F9F9F9F9F9F9F9F9F9F9F9F9FFFFFFF95B
:1033D000FFFFFFFFFFFFFFFFFFFFFFFFFFFFFFFFFD
:1033E000FFFFFFFFFFFFFFFFFFFFFFFFFFFFFFFFED
:1033F000FFFFFFFFF9F9A7FFF9F9F9F9F9F9F9F971
:10340000F9F9F9F9CFCFF9F9CFCFCFCFCFCFCFCFD0
:10341000CFCFCFCFCFCFCFCFCFCFCFCFCFCFCFCFBC
:10342000CFCFCFCFCFCFCFCFCFCFCFCFF98FCFCFC2
:10343000F9F9F9F9F9F9F9F9F9F9F9F9F9F9F9F9FC
:10344000F9F9F9F9F9F9F9F9F9F9F9F9F9F9F9F9EC
:10345000F9F9F9F9F9F9F9F9F9F9F9F9F9F9F9F9DC
:10346000F9F9F9F9F9F9F9F9F9F9F9F9F9F9F9F9CC
:10347000F9F9F9F9F9F9F9F9F9F9F9F9F9F9F9F9BC
:10348000F9F9F9F9F9F9F9F9F9F9F9F9F9F9F9F9AC
:10349000F9F9F9F9CF47F9F9CFCFCFCFCFCFCFCFC8
:1034A000CFCFCFCFCFCFCFCFCFCFCFCFCFCFCFCF2C
:1034B000CFCFCFCFCFCFCFCFCFCFCFCF8FCFCFCF5C
:1034C000F9F9F9F9F9F9F9F9F9F9F9F9FBF9F9F96A
:1034D000FBFBFBFBFBFBFBFBBF7FFBFBBFBFBFBFE4
:1034E000BFBFBFBFBFBFBFBFBFBFBFBFFBFBBFBF74
:1034F000FBFBFBFB1FFBFBFBF9F9F9F9F9F9F9F908
:10350000F9F9F9F9F9F9F9F9F9F9F9F9FFFFFFF919
:10351000FFFFFFFFFFFFFFFFFFFFFFFFFFFFFFFFBB
:10352000FFFFFFFFFFFFFFFFFFFFFFFFFFFFFFFFAB
:10353000FFFFFFFFF9F9A7FFF9F9F9F9F9F9F9F92F
:10354000F9F9F9F9CFCFF9F9CFCFCFCFCFCFCFCF8F
:10355000CFCFCFCFCFCFCFCFCFCFCFCFCFCFCFCF7B
:10356000CFCFCFCFCFCFCFCFCFCFCFCFF9CFCFCF41
:10357000F9F9F9F9F9F9F9F9F9F9F9F9F9F9F9F9BB
:10358000F9F9F9F9F9F9F9F9F9F9F9F9F9F9F9F9AB
:10359000F9F9F9F9F9F9F9F9F9F9F9F9F9F9F9F99B
:1035A000F9F9F9F9F9F9F9F9F9F9F9F9F9F9F9F98B
:1035B000F9F9F9F9F9F9F9F9F9F9F9F9F9F9F9F97B
:1035C000F9F9F9F9F9F9F9F9F9F9F9F9F9F9F9F96B
:1035D000F9F9F9F9CF47F9F9CFCFCFCFCFCFCFCF87
:1035E000CFCFCFCFCFCFCFCFCFCFCFCFCFCFCFCFEB
:1035F000CFCFCFCFCFCFCFCFCFCFCFCF8FCFCFCF1B
:10360000F9F9F9F9F9F9F9F9F9F9F9F9FBF9F9F928
:10361000FBFBFBFBFBFBFBFBFBFBFBFBFBFBFBFBFA
:10362000FBFBFBFBFBFBFBFBFBFBFBFBFBFBFBFBEA
:10363000FBFBFBFB1FFBFBFBF9F9F9F9F9F9F9F9C6
:10364000F9F9F9F9F9F9F9F9F9F9F9F9FFFFFFF9D8
:10365000FFFFFFFFFFFFFFFFFFFFFFFFFFFFFFFF7A
:10366000FFFFFFFFFFFFFFFFFFFFFFFFFFFFFFFF6A
:10367000FFFFFFFFF9F9A7FFF9F9F9F9F9F9F9F9EE
:10368000F9F9F9F9CFCFF9F9CFCFCFCFCFCFCFCF4E
:10369000CFCFCFCFCFCFCFCFCFCFCFCFCFCFCFCF3A
:1036A000CFCFCFCFCFCFCFCFCFCFCFCFF9CFCFCF00
:1036B000F9F9F9F9F9F9F9F9F9F9F9F9F9F9F9F97A
:1036C000F9F9F9F9F9F9F9F9F9F9F9F9F9F9F9F96A
:1036D000F9F9F9F9F9F9F9F9F9F9F9F9F9F9F9F95A
:1036E000F9F9F9F9F9F9F9F9F9F9F9F9F9F9F9F94A
:1036F000F9F9F9F9F9F9F9F9F9F9F9F9F9F9F9F93A
:10370000F9F9F9F9F9F9F9F9F9F9F9F9F9F9F9F929
:10371000F9F9F9F9CF47F9F9CFCFCFCFCFCFCFCF45
:10372000CFCFCFCFCFCFCFCFCFCFCFCFCFCFCFCFA9
:10373000CFCFCFCFCFCFCFCFCFCFCFCF8FCFCFCFD9
:10374000F9F9F9F9F9F9F9F9F9F9F9F9FBF9F9F9E7
:10375000FBFBFBFBFBFBFBFBFBFBFBFBFBFBFBFBB9
:10376000FBFBFBFBFBFBFBFBFBFBFBFBFBFBFBFBA9
:10377000FBFBFBFB1FFBFBFBF9F9F9F9F9F9F9F985
:10378000F9F9F9F9F9F9F9F9F9F9F9F9FFFFFFF997
:10379000FFFFFFFFFFFFFFFFFFFFFFFFFFFFFFFF39
:1037A000FFFFFFFFFFFFFFFFFFFFFFFFFFFFFFFF29
:1037B000FFFFFFFFF9F9A7FFF9F9F9F9F9F9F9F9AD
:1037C000F9F9F9F9CFCFF9F9CFCFCFCFCFCFCFCF0D
:1037D000CFCFCFCFCFCFCFCFCFCFCFCFCFCFCFCFF9
:1037E000CFCFCFCFCFCFCFCFCFCFCFCFF9CFCFCFBF
:1037F000F9F9F9F9F9F9F9F9F9F9F9F9F9F9F9F939
:10380000F9F9F9F9F9F9F9F9F9F9F9F9F9F9F9F928
:10381000F9F9F9F9F9F9F9F9F9F9F9F9F9F9F9F918
:10382000F9F9F9F9F9F9F9F9F9F9F9F9F9F9F9F908
:10383000F9F9F9F9F9F9F9F9F9F9F9F9F9F9F9F9F8
:10384000F9F9F9F9F9F9F9F9F9F9F9F9F9F9F9F9E8
:10385000F9F9F9F9CF47F9F9CFCFCFCFCFCFCFCF04
:10386000CFCFCFCFCFCFCFCFCFCFCFCFCFCFCFCF68
:10387000CFCFCFCFCFCFCFCFCFCFCFCF8FCFCFCF98
:10388000F9F9F9F9F9F9F9F9F9F9F9F9FBF9F9F9A6
:10389000FBFBFBFBFBFBFBFBFBFBFBFBFBFBFBFB78
:1038A000FBFBFBFBFBFBFBFBFBFBFBFBFBFBFBFB68
:1038B000FBFBFBFB1FFBFBFBF9F9F9F9F9F9F9F944
:1038C000F9F9F9F9F9F9F9F9F9F9F9F9FFFFFFF956
:1038D000FFFFFFFFFFFFFFFFFFFFFFFFFFFFFFFFF8
:1038E000FFFFFFFFFFFFFFFFFFFFFFFFFFFFFFFFE8
:1038F000FFFFFFFFF9F9A7FFF9F9F9F9F9F9F9F96C
:10390000F9F9F9F9CFCFF9F9CFCFCFCFCFCFCFCFCB
:10391000CFCFCFCFCFCFCFCFCFCFCFCFCFCFCFCFB7
:10392000CFCFCFCFCFCFCFCFCFCFCFCFF9CFCFCF7D
:10393000F9F9F9F9F9F9F9F9F9F9F9F9F9F9F9F9F7
:10394000F9F9F9F9F9F9F9F9F9F9F9F9F9F9F9F9E7
:10395000F9F9F9F9F9F9F9F9F9F9F9F9F9F9F9F9D7
:10396000F9F9F9F9F9F9F9F9F9F9F9F9F9F9F9F9C7
:10397000F9F9F9F9F9F9F9F9F9F9F9F9F9F9F9F9B7
:10398000F9F9F9F9F9F9F9F9F9F9F9F9F9F9F9F9A7
:10399000F9F9F9F9CF47F9F9CFCFCFCFCFCFCFCFC3
:1039A000CFCFCFCFCFCFCFCFCFCFCFCFCFCFCFCF27
:1039B000CFCFCFCFCFCFCFCFCFCFCFCF8FCFCFCF57
:1039C000F9F9F9F9F9F9F9F9F9F9F9F9FBF9F9F965
:1039D000FBFBFBFBFBFBFBFBFBFBFBFBFBFBFBFB37
:1039E000FBFBFBFBFBFBFBFBFBFBFBFBFBFBFBFB27
:1039F000FBFBFBFB1FFBFBFBF9F9F9F9F9F9F9F903
:103A0000F9F9F9F9F9F9F9F9F9F9F9F9FFFFFFF914
:103A1000FFFFFFFFFFFFFFFFFFFFFFFFFFFFFFFFB6
:103A2000FFFFFFFFFFFFFFFFFFFFFFFFFFFFFFFFA6
:103A3000FFFFFFFFF9F9A7FFF9F9F9F9F9F9F9F92A
:103A4000F9F9F9F9CFCFF9F9CFCFCFCFCFCFCFCF8A
:103A5000CFCFCFCFCFCFCFCFCFCFCFCFCFCFCFCF76
:103A6000CFCFCFCFCFCFCFCFCFCFCFCFF9CFCFCF3C
:103A7000F9F9F9F9F9F9F9F9F9F9F9F9F9F9F9F9B6
:103A8000F9F9F9F9F9F9F9F9F9F9F9F9F9F9F9F9A6
:103A9000F9F9F9F9F9F9F9F9F9F9F9F9F9F9F9F996
:103AA000F9F9F9F9F9F9F9F9F9F9F9F9F9F9F9F986
:103AB000F9F9F9F9F9F9F9F9F9F9F9F9F9F9F9F976
:103AC000F9F9F9F9F9F9F9F9F9F9F9F9F9F9F9F966
:103AD000F9F9F9F9CF47F9F9CFCFCFCFCFCFCFCF82
:103AE000CFCFCFCFCFCFCFCFCFCFCFCFCFCFCFCFE6
:103AF000CFCFCFCFCFCFCFCFCFCFCFCF8FCFCFCF16
:103B0000F9F9F9F9F9F9F9F9F9F9F9F9FBF9F9F923
:103B1000FBFBFBFBFBFBFBFBFBFBFBFBFBFBFBFBF5
:103B2000FBFBFBFBFBFBFBFBFBFBFBFBFBFBFBFBE5
:103B3000FBFBFBFB1FFBFBFBF9F9F9F9F9F9F9F9C1
:103B4000F9F9F9F9F9F9F9F9F9F9F9F9FFFFFFF9D3
:103B5000FFFFFFFFFFFFFFFFFFFFFFFFFFFFFFFF75
:103B6000FFFFFFFFFFFFFFFFFFFFFFFFFFFFFFFF65
:103B7000FFFFFFFFF9F9A7FFF9F9F9F9F9F9F9F9E9
:103B8000F9F9F9F9CFCFF9F9CFCFCFCFCFCFCFCF49
:103B9000CFCFCFCFCFCFCFCFCFCFCFCFCFCFCFCF35
:103BA000CFCFCFCFCFCFCFCFCFCFCFCFF9CFCFCFFB
:103BB000F9F9F9F9F9F9F9F9F9F9F9F9F9F9F9F975
:103BC000F9F9F9F9F9F9F9F9F9F9F9F9F9F9F9F965
:103BD000F9F9F9F9F9F9F9F9F9F9F9F9F9F9F9F955
:103BE000F9F9F9F9F9F9F9F9F9F9F9F9F9F9F9F945
:103BF000F9F9F9F9F9F9F9F9F9F9F9F9F9F9F9F935
:103C0000F9F9F9F9F9F9F9F9F9F9F9F9F9F9F9F924
:103C1000F9F9F9F9CF47F9F9CFCFCFCFCFCFCFCF40
:103C2000CFCFCFCFCFCFCFCFCFCFCFCFCFCFCFCFA4
:103C3000CFCFCFCFCFCFCFCFCFCFCFCF8FCFCFCFD4
:103C4000F9F9F9F9F9F9F9F9F9F9F9F9FBF9F9F9E2
:103C5000FBFBFBFBFBFBFBFBFBFBFBFBFBFBFBFBB4
:103C6000FBFBFBFBFBFBFBFBFBFBFBFBFBFBFBFBA4
:103C7000FBFBFBFB1FFBFBFBF9F9F9F9F9F9F9F980
:103C8000F9F9F9F9F9F9F9F9F9F9F9F9FFFFFFF992
:103C9000FFFFFFFFFFFFFFFFFFFFFFFFFFFFFFFF34
:103CA000FFFFFFFFFFFFFFFFFFFFFFFFFFFFFFFF24
:103CB000FFFFFFFFF9F9A7FFF9F9F9F9F9F9F9F9A8
:103CC000F9F9F9F9CFCFF9F9CFCFCFCFCFCFCFCF08
:103CD000CFCFCFCFCFCFCFCFCFCFCFCFCFCFCFCFF4
:103CE000CFCFCFCFCFCFCFCFCFCFCFCFF9CFCFCFBA
:103CF000F9F9F9F9F9F9F9F9F9F9F9F9F9F9F9F934
:103D0000F9F9F9F9F9F9F9F9F9F9F9F9F9F9F9F923
:103D1000F9F9F9F9F9F9F9F9F9F9F9F9F9F9F9F913
:103D2000F9F9F9F9F9F9F9F9F9F9F9F9F9F9F9F903
:103D3000F9F9F9F9F9F9F9F9F9F9F9F9F9F9F9F9F3
:103D4000F9F9F9F9F9F9F9F9F9F9F9F9F9F9F9F9E3
:103D5000F9F9F9F9CF47F9F9CFCFCFCFCFCFCFCFFF
:103D6000CFCFCFCFCFCFCFCFCFCFCFCFCFCFCFCF63
:103D7000CFCFCFCFCFCFCFCFCFCFCFCF8FCFCFCF93
:103D8000F9F9F9F9F9F9F9F9F9F9F9F9FBF9F9F9A1
:103D9000FBFBFBFBFBFBFBFBFBFBFBFBFBFBFBFB73
:103DA000FBFBFBFBFBFBFBFBFBFBFBFBFBFBFBFB63
:103DB000FBFBFBFB1FFBFBFBF9F9F9F9F9F9F9F93F
:103DC000F9F9F9F9F9F9F9F9F9F9F9F9FFFFFFF951
:103DD000FFFFFFFFFFFFFFFFFFFFFFFFFFFFFFFFF3
:103DE000FFFFFFFFFFFFFFFFFFFFFFFFFFFFFFFFE3
:103DF000FFFFFFFFF9F9A7FFF9F9F9F9F9F9F9F967
:103E0000F9F9F9F9CFCFF9F9CFCFCFCFCFCFCFCFC6
:103E1000CFCFCFCFCFCFCFCFCFCFCFCFCFCFCFCFB2
:103E2000CFCFCFCFCFCFCFCFCFCFCFCFF9CFCFCF78
:103E3000F9F9F9F9F9F9F9F9F9F9F9F9F9F9F9F9F2
:103E4000F9F9F9F9F9F9F9F9F9F9F9F9F9F9F9F9E2
:103E5000F9F9F9F9F9F9F9F9F9F9F9F9F9F9F9F9D2
:103E6000F9F9F9F9F9F9F9F9F9F9F9F9F9F9F9F9C2
:103E7000F9F9F9F9F9F9F9F9F9F9F9F9F9F9F9F9B2
:103E8000F9F9F9F9F9F9F9F9F9F9F9F9F9F9F9F9A2
:103E9000F9F9F9F9FD47F9F9CFCFCFCFCFCFCFCF90
:103EA000CFCFCFCFCFCFCFCFCFCFCFCFCFCFCFCF22
:103EB000CFCFCFCFCFCFCFCFCFCFCFCF8FCFCFCF52
:103EC000F9F9F9F9F9F9F9F9F9F9F9F9FBF9F9F960
:103ED000FBFBFBFBFBFBFBFBFBFBFBFBFBFBFBFB32
:103EE000FBFBFBFBFBFBFBFBFBFBFBFBFBFBFBFB22
:103EF000FBFBFBFB1FFBFBFBF9F9F9F9F9F9F9F9FE
:103F0000F9F9F9F9F9F9F9F9F9F9F9F9FFFFFFF90F
:103F1000FFFFFFFFFFFFFFFFFFFFFFFFFFFFFFFFB1
:103F2000FFFFFFFFFFFFFFFFFFFFFFFFFFFFFFFFA1
:103F3000FFFFFFFFF9F9A7FFF9F9F9F9F9F9F9F925
:103F4000F9F9F9F9CFCFF9F9CFCFCFCFCFCFCFCF85
:103F5000CFCFCFCFCFCFCFCFCFCFCFCFCFCFCFCF71
:103F6000CFCFCFCFCFCFCFCFCFCFCFCFF9CFCFCF37
:103F7000F9F9F9F9F9F9F9F9F9F9F9F9F9F9F9F9B1
:103F8000F9F9F9F9F9F9F9F9F9F9F9F9F9F9F9F9A1
:103F9000F9F9F9F9F9F9F9F9F9F9F9F9F9F9F9F991
:103FA000F9F9F9F9F9F9F9F9F9F9F9F9F9F9F9F981
:103FB000F9F9F9F9F9F9F9F9F9F9F9F9F9F9F9F971
:103FC000F9F9F9F9F9F9F9F9F9F9F9F9F9F9F9F961
:103FD000F9F9F9F987F9F9F9878787878787878753
:103FE0008787878787878787878787878787878761
:103FF0008787878787878787878787874787878791
:10400000F9F9F9F9F9F9F9F9F9F9F9F9FBF9F9F91E
:10401000FBFBFBFBFBFBFBFBFBFBFBFBFBFBFBFBF0
:10402000FBFBFBFBFBFBFBFBFBFBFBFBFBFBFBFBE0
:10403000FBFBFBFB1FFBFBFBF9F9F9F9F9F9F9F9BC
:10404000F9F9F9F9F9F9F9F9F9F9F9F9FFFFFFF9CE
:10405000FFFFFFFFFFFFFFFFFFFFFFFFFFFFFFFF70
:10406000FFFFFFFFFFFFFFFFFFFFFFFFFFFFFFFF60
:10407000FFFFFFFFF9F9AFFFF9F9F9F9F9F9F9F9DC
:10408000F9F9F9F9CFCFF9F9CFCFCFCFCFCFCFCF44
:10409000CFCFCFCFCFCFCFCFCFCFCFCFCFCFCFCF30
:1040A000CFCFCFCFCFCFCFCFCFCFCFCFF9CFCFCFF6
:1040B000F9F9F9F9F9F9F9F9F9F9F9F9F9F9F9F970
:1040C000F9F9F9F9F9F9F9F9F9F9F9F9F9F9F9F960
:1040D000F9F9F9F9F9F9F9F9F9F9F9F9F9F9F9F950
:1040E000F9F9F9F9F9F9F9F9F9F9F9F9F9F9F9F940
:1040F000F9F9F9F9F9F9F9F9F9F9F9F9F9F9F9F930
:10410000F9F9F9F9F9F9F9F9F9F9F9F9F9F9F9F91F
:10411000F9F9F9F9F9F9F9F9F9F9F9F9F9F9F9F90F
:10412000F9F9F9F9F9F9F9F9F9F9F9F9F9F9F9F9FF
:10413000F9F9F9F9F9F9F9F9F9F9F9F9F9F9F9F9EF
:10414000F9F9F9F9F9F9F9F9F9F9F9F9F9F9F9F9DF
:10415000F9F9F9F9F9F9F9F9F9F9F9F9F9F9F9F9CF
:10416000F9F9F9F9F9F9F9F9F9F9F9F9F9F9F9F9BF
:10417000F9F9F9F9F9F9F9F9F9F9F9F9F9F9F9F9AF
:10418000F9F9F9F9F9F9F9F9F9F9F9F9A7A7A7F995
:10419000A7A7A7A7A7A7A7A7A7A7A7A7A7A7A7A7AF
:1041A000A7A7A7A7A7A7A7A7A7A7A7A7A7A7A7A79F
:1041B000A7A7A7A7F9F957A7F9F9F9F9F9F9F9F9AB
:1041C000F9F9F9F98747F9F9878787878787878713
:1041D000878787878787878787878787878787876F
:1041E000878787878787878787878787F94787872D
:1041F000F9F9F9F9F9F9F9F9F9F9F9F9F9F9F9F92F
:10420000F9F9F9F9F9F9F9F9F9F9F9F9F9F9F9F91E
:10421000F9F9F9F9F9F9F9F9F9F9F9F9F9F9F9F90E
:10422000F9F9F9F9F9F9F9F9F9F9F9F9F9F9F9F9FE
:10517000FCFCFCFCFCFCFCFCFCFCFCFCD8FCFCFC93
:10518000FEFEFEFEFEFEFEFEFEFEFEFEFEFEFEFE3F
:10519000FEFEFEFEFEFEFEFEFEFEFEFEFEFEFEFE2F
:1051A000FEFEFEFEFEFEFEFEFEFEFEFEFEFEFEFE1F
:1051B000FEFEFEFEFEFEFEFEFEFEFEFEFEFEFEFE0F
:1051C000FBFBFBFBFBFBFBFBFBFBFBFBFBFBFBFB2F
:1051D000FBFBFBFBFBFBFBFBFBFBFBFBFBFBFBFB1F
:1051E000FBFBFBFBFBFBFBFBFBFBFBFBFBFBFBFB0F
:1051F000FBFBFBFBFBFBFBFBFBFBFBFBFBFBFBFBFF
:10520000FCFCFCFCFCFCFCFCFCFCFCFCFCFCFCFCDE
:10521000C3C4C2FCC3C3C3C3C3C3C3C3C3C3C3C325
:10522000C3C3C3C3C3C3C3C3C3C3C3C3C3C3C3C34E
:10523000C3C3C3C3C3C3C3C3C3C3C3C3C3C3C3C33E
:10524000C3C3C3C3C3C3C3C3C3C3C3C3C3C3C3C32E
:10525000C3C3C3C3C3C3C3C3C3C3C3C3C3C3C3C31E
:10526000C3C3C3C3C3C3C3C3C3C3C3C3C3C3C3C30E
:10527000C3C3C3C3C3C3C3C3C3C3C3C3C3C3C3C3FE
:10528000C3C3C3C3C3C3C3C3C3C3C3C3C3C3C3C3EE
:10529000C3C3C3C3C3C3C3C3C3C3C3C3C3C3C3C3DE
:1052A000C3C3C3C3C3C3C3C3C3C4C3C3FCFCFCFCE9
:1052B000FCFCFCFCFCFCFCFCFCFCFCFCD8FCFCFC52
:1052C000FEFEFEFEFEFEFEFEFEFEFEFEFEFEFEFEFE
:1052D000FEFEFEFEFEFEFEFEFEFEFEFEFEFEFEFEEE
:1052E000FEFEFEFEFEFEFEFEFEFEFEFEFEFEFEFEDE
:1052F000FEFEFEFEFEFEFEFEFEFEFEFEFEFEFEFECE
:10530000FBFBFBFBFBFBFBFBFBFBFBFBFBFBFBFBED
:10531000FBFBFBFBFBFBFBFBFBFBFBFBFBFBFBFBDD
:10532000FBFBFBFBFBFBFBFBFBFBFBFBFBFBFBFBCD
:10533000FBFBFBFBFBFBFBFBFBFBFBFBFBFBFBFBBD
:10534000FCFCFCFCFCFCFCFCFCFCFCFCFCFCFCFC9D
:10535000CFCFC4FCCFCFCFCFCFCFCFCFCFCFCFCF3B
:10536000CFCFCFCFCFCFCFCFCFCFCFCFCFCFCFCF4D
:10537000CFCFCFCFCFCFCFCFCFCFCFCFCFCFCFCF3D
:10538000CFCFCFCFCFCFCFCFCFCFCFCFCFCFCFCF2D
:10539000CFCFCFCFCFCFCFCFCFCFCFCFCFCFCFCF1D
:1053A000CFCFCFCFCFCFCFCFCFCFCFCFCFCFCFCF0D
:1053B000CFCFCFCFCFCFCFCFCFCFCFCFCFCFCFCFFD
:1053C000CFCFCFCFCFCFCFCFCFCFCFCFCFCFCFCFED
:1053D000CFCFCFCFCFCFCFCFCFCFCFCFCFCFCFCFDD
:1053E000CFCFCFCFCFCFCFCFCECFCFCFFCFCFCFC1A
:1053F000FCFCFCFCFCFCFCFCFCFCFCFCD8FCFCFC11
:10540000FEFEFEFEFEFEFEFEFEFEFEFEFEFEFEFEBC
:10541000FEFEFEFEFEFEFEFEFEFEFEFEFEFEFEFEAC
:10542000FEFEFEFEFEFEFEFEFEFEFEFEFEFEFEFE9C
:10543000FEFEFEFEFEFEFEFEFEFEFEFEFEFEFEFE8C
:10544000FBFBFBFBFBFBFBFBFBFBFBFBFBFBFBFBAC
:10545000FBFBFBFBFBFBFBFBFBFBFBFBFBFBFBFB9C
:10546000FBFBFBFBFBFBFBFBFBFBFBFBFBFBFBFB8C
:10547000FBFBFBFBFBFBFBFBFBFBFBFBFBFBFBFB7C
:10548000FCFCFCFCFCFCFCFCFCFCFCFCFCFCFCFC5C
:10549000CFCFC4FCCFCFCFCFCFCFCFCFCFCFCFCFFA
:1054A000CFCFCFCFCFCFCFCFCFCFCFCFCFCFCFCF0C
:1054B000CFCFCFCFCFCFCFCFCFCFCFCFCFCFCFCFFC
:1054C000CFCFCFCFCFCFCFCFCFCFCFCFCFCFCFCFEC
:1054D000CFCFCFCFCFCFCFCFCFCFCFCFCFCFCFCFDC
:1054E000CFCFCFCFCFCFCFCFCFCFCFCFCFCFCFCFCC
:1054F000CFCFCFCFCFCFCFCFCFCFCFCFCFCFCFCFBC
:10550000CFCFCFCFCFCFCFCFCFCFCFCFCFCFCFCFAB
:10551000CFCFCFCFCFCFCFCFCFCFCFCFCFCFCFCF9B
:10552000CFCFCFCFCFCFCFCFCECFCFCFFCFCFCFCD8
:10553000FCFCFCFCFCFCFCFCFCFCFCFCD8FCFCFCCF
:10554000FEFEFEFEFEFEFEFEFEFEFEFEFEFEFEFE7B
:10555000FEFEFEFEFEFEFEFEFEFEFEFEFEFEFEFE6B
:10556000FEFEFEFEFEFEFEFEFEFEFEFEFEFEFEFE5B
:10557000FEFEFEFEFEFEFEFEFEFEFEFEFEFEFEFE4B
:10558000FBFBFBFBFBFBFBFBFBFBFBFBFBFBFBFB6B
:10559000FBFBFBFBFBFBFBFBFBFBFBFBFBFBFBFB5B
:1055A000FBFBFBFBFBFBFBFBFBFBFBFBFBFBFBFB4B
:1055B000FBFBFBFBFBFBFBFBFBFBFBFBFBFBFBFB3B
:1055C000FCFCFCFCFCFCFCFCFCFCFCFCFCFCFCFC1B
:1055D000C7C7C4FCC7C7C7C7CFCFCFCFCFCFCFCFE9
:1055E000CFCFCFCFCFCFCFCFCFCFCFCFCFCFCFCFCB
:1055F000CFCFCFCFCFCFCFCFCFCFCFCFCFCFCFCFBB
:10560000CFCFCFCFCFCFCFCFCFCFCFCFCFCFCFCFAA
:10561000CFCFCFCFCFCFCFCFCFCFCFCFCFCFCFCF9A
:10562000CFCFCFCFCFCFCFCFCFCFCFCFCFCFCFCF8A
:10563000CFCFCFCFCFCFCFCFCFCFCFCFCFCFCFCF7A
:10564000CFCFCFCFCFCFCFCFCFCFCFCFCFCFCFCF6A
:10565000CFCFCFCFCFCFCFCFCFCFCFCFCFCFCFCF5A
:10566000CFCFCFCFC7C7C7CFC6C7C7C7FCFCFCFCCF
:10567000FCFCFCFCFCFCFCFCFCFCFCFCD8FCFCFC8E
:10568000FEFEFEFEFEFEFEFEFEFEFEFEFEFEFEFE3A
:10569000FEFEFEFEFEFEFEFEFEFEFEFEFEFEFEFE2A
:1056A000FEFEFEFEFEFEFEFEFEFEFEFEFEFEFEFE1A
:1056B000FEFEFEFEFEFEFEFEFEFEFEFEFEFEFEFE0A
:1056C000FBFBFBFBFBFBFBFBFBFBFBFBFBFBFBFB2A
:1056D000FBFBFBFBFBFBFBFBFBFBFBFBFBFBFBFB1A
:1056E000FBFBFBFBFBFBFBFBFBFBFBFBFBFBFBFB0A
:1056F000FBFBFBFBFBFBFBFBFBFBFBFBFBFBFBFBFA
:10570000FCFCFCFCFCFCFCFCFCFCFCFCFCFCFCFCD9
:10571000FFFF09FC09FFFFFFFCFCFCFCFCFCFCFCA0
:10572000FCFCFCFCFCFCFCFCFCFCFCFCFCFCFCFCB9
:10573000FCFCFCFCFCFCFCFCFCFCFCFCFCFCFCFCA9
:10574000FCFCFCFCFCFCFCFCFCFCFCFCFCFCFCFC99
:10575000FCFCFCFCFCFCFCFCFCFCFCFCFCFCFCFC89
:10576000FCFCFCFCFCFCFCFCFCFCFCFCFCFCFCFC79
:10577000FCFCFCFCFCFCFCFCFCFCFCFCFCFCFCFC69
:10578000FCFCFCFCFCFCFCFCFCFCFCFCFCFCFCFC59
:10579000FCFCFCFCFCFCFCFCFCFCFCFCFCFCFCFC49
:1057A000FCFCFCFCFFFFE4FCFFFFFFFFFCFCFCFC3F
:1057B000FCFCFCFCFCFCFCFCFCFCFCFCD8FCFCFC4D
:1057C000FEFEFEFEFEFEFEFEFEFEFEFEFEFEFEFEF9
:1057D000FEFEFEFEFEFEFEFEFEFEFEFEFEFEFEFEE9
:1057E000FEFEFEFEFEFEFEFEFEFEFEFEFEFEFEFED9
:1057F000FEFEFEFEFEFEFEFEFEFEFEFEFEFEFEFEC9
:10580000FBFBFBFBFBFBFBFBFBFBFBFBFBFBFBFBE8
:10581000FBFBFBFBFBFBFBFBFBFBFBFBFBFBFBFBD8
:10582000FBFBFBFBFBFBFBFBFBFBFBFBFBFBFBFBC8
:10583000FBFBFBFBFBFBFBFBFBFBFBFBFBFBFBFBB8
:10584000FCFCFCFCFCFCFCFCFCFCFCFCFCFCFCFC98
:10585000FFFFE4FC09FFFFFFFCFCFCFCFCFCFCFC84
:10586000FCFCFCFCFCFCFCFCFCFCFCFCFCFCFCFC78
:10587000FCFCFCFCFCFCFCFCFCFCFCFCFCFCFCFC68
:10588000FCFCFCFCFCFCFCFCFCFCFCFCFCFCFCFC58
:10589000FCFCFCFCFCFCFCFCFCFCFCFCFCFCFCFC48
:1058A000FCFCFCFCFCFCFCFCFCFCFCFCFCFCFCFC38
:1058B000FCFCFCFCFCFCFCFCFCFCFCFCFCFCFCFC28
:1058C000FCFCFCFCFCFCFCFCFCFCFCFCFCFCFCFC18
:1058D000FCFCFCFCFCFCFCFCFCFCFCFCFCFCFCFC08
:1058E000FCFCFCFCFFFFE4FCF6FFFFFFFCFCFCFC07
:1058F000FCFCFCFCFCFCFCFCFCFCFCFCD8FCFCFC0C
:10590000FEFEFEFEFEFEFEFEFEFEFEFEFEFEFEFEB7
:10591000FEFEFEFEFEFEFEFEFEFEFEFEFEFEFEFEA7
:10592000FEFEFEFEFEFEFEFEFEFEFEFEFEFEFEFE97
:10593000FEFEFEFEFEFEFEFEFEFEFEFEFEFEFEFE87
:10594000FBFBFBFBFBFBFBFBFBFBFBFBFBFBFBFBA7
:10595000FBFBFBFBFBFBFBFBFBFBFBFBFBFBFBFB97
:10596000FBFBFBFBFBFBFBFBFBFBFBFBFBFBFBFB87
:10597000FBFBFBFBFBFBFBFBFBFBFBFBFBFBFBFB77
:10598000FCFCFCFCFCFCFCFCFCFCFCFCFCFCFCFC57
:10599000FFFFE4FC09FFFFFFFCFCFCFCFCFCFCFC43
:1059A000FCFCFCFCFCFCFCFCFCFCFCFCFCFCFCFC37
:1059B000FCFCFCFCFCFCFCFCFCFCFCFCFCFCFCFC27
:1059C000FCFCFCFCFCFCFCFCFCFCFCFCFCFCFCFC17
:1059D000FCFCFCFCFCFCFCFCFCFCFCFCFCFCFCFC07
:1059E000FCFCFCFCFCFCFCFCFCFCFCFCFCFCFCFCF7
:1059F000FCFCFCFCFCFCFCFCFCFCFCFCFCFCFCFCE7
:105A0000FCFCFCFCFCFCFCFCFCFCFCFCFCFCFCFCD6
:105A1000FCFCFCFCFCFCFCFCFCFCFCFCFCFCFCFCC6
:105A2000FCFCFCFCFFFFE4FCF6FFFFFFFCFCFCFCC5
:105A3000FCFCFCFCFCFCFCFCFCFCFCFCD8FCFCFCCA
:105A4000FEFEFEFEFEFEFEFEFEFEFEFEFEFEFEFE76
:105A5000FEFEFEFEFEFEFEFEFEFEFEFEFEFEFEFE66
:105A6000FEFEFEFEFEFEFEFEFEFEFEFEFEFEFEFE56
:105A7000FEFEFEFEFEFEFEFEFEFEFEFEFEFEFEFE46
:105A8000FBFBFBFBFBFBFBFBFBFBFBFBFBFBFBFB66
:105A9000FBFBFBFBFBFBFBFBFBFBFBFBFBFBFBFB56
:105AA000FBFBFBFBFBFBFBFBFBFBFBFBFBFBFBFB46
:105AB000FBFBFBFBFBFBFBFBFBFBFBFBFBFBFBFB36
:105AC000FCFCFCFCFCFCFCFCFCFCFCFCFCFCFCFC16
:105AD000FFFFE4FC09FFFFFFFCFCFCFCFCFCFCFC02
:105AE000FCFCFCFCFCFCFCFCFCFCFCFCFCFCFCFCF6
:105AF000FCFCFCFCFCFCFCFCFCFCFCFCFCFCFCFCE6
:105B0000FCFCFCFCFCFCFCFCFCFCFCFCFCFCFCFCD5
:105B1000FCFCFCFCFCFCFCFCFCFCFCFCFCFCFCFCC5
:105B2000FCFCFCFCFCFCFCFCFCFCFCFCFCFCFCFCB5
:105B3000FCFCFCFCFCFCFCFCFCFCFCFCFCFCFCFCA5
:105B4000FCFCFCFCFCFCFCFCFCFCFCFCFCFCFCFC95
:105B5000FCFCFCFCFCFCFCFCFCFCFCFCFCFCFCFC85
:105B6000FCFCFCFCFFFFE4FCF6FFFFFFFCFCFCFC84
:105B7000FCFCFCFCFCFCFCFCFCFCFCFCD8FCFCFC89
:105B8000FEFEFEFEFEFEFEFEFEFEFEFEFEFEFEFE35
:105B9000FEFEFEFEFEFEFEFEFEFEFEFEFEFEFEFE25
:105BA000FEFEFEFEFEFEFEFEFEFEFEFEFEFEFEFE15
:105BB000FEFEFEFEFEFEFEFEFEFEFEFEFEFEFEFE05
:105BC000FBFBFBFBFBFBFBFBFBFBFBFBFBFBFBFB25
:105BD000FBFBFBFBFBFBFBFBFBFBFBFBFBFBFBFB15
:105BE000FBFBFBFBFBFBFBFBFBFBFBFBFBFBFBFB05
:105BF000FBFBFBFBFBFBFBFBFBFBFBFBFBFBFBFBF5
:105C0000FCFCFCFCFCFCFCFCFCFCFCFCFCFCFCFCD4
:105C1000FFFFE4FC09FFFFFFFCFCFCFCFCFCFCFCC0
:105C2000FCFCFCFCFCFCFCFCFCFCFCFCFCFCFCFCB4
:105C3000FCFCFCFCFCFCFCFCFCFCFCFCFCFCFCFCA4
:105C4000FCFCFCFCFCFCFCFCFCFCFCFCFCFCFCFC94
:105C5000FCFCFCFCFCFCFCFCFCFCFCFCFCFCFCFC84
:105C6000FCFCFCFCFCFCFCFCFCFCFCFCFCFCFCFC74
:105C7000FCFCFCFCFCFCFCFCFCFCFCFCFCFCFCFC64
:105C8000FCFCFCFCFCFCFCFCFCFCFCFCFCFCFCFC54
:105C9000FCFCFCFCFCFCFCFCFCFCFCFCFCFCFCFC44
:105CA000FCFCFCFCFFFFE4FCF6FFFFFFFCFCFCFC43
:105CB000FCFCFCFCFCFCFCFCFCFCFCFCD8FCFCFC48
:105CC000FEFEFEFEFEFEFEFEFEFEFEFEFEFEFEFEF4
:105CD000FEFEFEFEFEFEFEFEFEFEFEFEFEFEFEFEE4
:105CE000FEFEFEFEFEFEFEFEFEFEFEFEFEFEFEFED4
:105CF000FEFEFEFEFEFEFEFEFEFEFEFEFEFEFEFEC4
:105D0000FBFBFBFBFBFBFBFBFBFBFBFBFBFBFBFBE3
:105D1000FBFBFBFBFBFBFBFBFBFBFBFBFBFBFBFBD3
:105D2000FBFBFBFBFBFBFBFBFBFBFBFBFBFBFBFBC3
:105D3000FBFBFBFBFBFBFBFBFBFBFBFBFBFBFBFBB3
:105D4000FCFCFCFCFCFCFCFCFCFCFCFCFCFCFCFC93
:105D5000FFFFE4FC09FFFFFFFCFCFCFCFCFCFCFC7F
:105D6000FCFCFCFCFCFCFCFCFCFCFCFCFCFCFCFC73
:105D7000FCFCFCFCFCFCFCFCFCFCFCFCFCFCFCFC63
:105D8000FCFCFCFCFCFCFCFCFCFCFCFCFCFCFCFC53
:105D9000FCFCFCFCFCFCFCFCFCFCFCFCFCFCFCFC43
:105DA000FCFCFCFCFCFCFCFCFCFCFCFCFCFCFCFC33
:105DB000FCFCFCFCFCFCFCFCFCFCFCFCFCFCFCFC23
:105DC000FCFCFCFCFCFCFCFCFCFCFCFCFCFCFCFC13
:105DD000FCFCFCFCFCFCFCFCFCFCFCFCFCFCFCFC03
:105DE000FCFCFCFCFFFFE4FCF6FFFFFFFCFCFCFC02
:105DF000FCFCFCFCFCFCFCFCFCFCFCFCD8FCFCFC07
:105E0000FEFEFEFEFEFEFEFEFEFEFEFEFEFEFEFEB2
:105E1000FEFEFEFEFEFEFEFEFEFEFEFEFEFEFEFEA2
:105E2000FEFEFEFEFEFEFEFEFEFEFEFEFEFEFEFE92
:105E3000FEFEFEFEFEFEFEFEFEFEFEFEFEFEFEFE82
:105E4000FBFBFBFBFBFBFBFBFBFBFBFBFBFBFBFBA2
:105E5000FBFBFBFBFBFBFBFBFBFBFBFBFBFBFBFB92
:105E6000FBFBFBFBFBFBFBFBFBFBFBFBFBFBFBFB82
:105E7000FBFBFBFBFBFBFBFBFBFBFBFBFBFBFBFB72
:105E8000FCFCFCFCFCFCFCFCFCFCFCFCFCFCFCFC52
:105E9000FFFFE4FC09FFFFFFFCFCFCFCFCFCFCFC3E
:105EA000FCFCFCFCFCFCFCFCFCFCFCFCFCFCFCFC32
:105EB000A7A7AF85A7A7A7A7A7A7A7A7A7A7A7A78C
:105EC000A7A7A7A7A7A7A7A7A7A7A7A7A7A7A7A762
:105ED000A7A7A7A7A7A7A7A7A7A7A7A7A7A7A7A752
:105EE000A7A7A7A7A7A7A7A7A7A7A7A7A7A7A7A742
:105EF000A7A7A7A7A7A7A7A7A7A7A7A7A7A7A7A732
:105F0000A7A7A7A7A7A7A7A7A7A7A7A7A7A7A7A721
:105F1000FC46AFA7FCFCFCFCFCFCFCFCFCFCFCFC19
:105F2000FCFCFCFCFFFFE4FCF6FFFFFFFCFCFCFCC0
:105F3000FCFCFCFCFCFCFCFCFCFCFCFCD8FCFCFCC5
:105F4000FEFEFEFEFEFEFEFEFEFEFEFEFEFEFEFE71
:105F5000FEFEFEFEFEFEFEFEFEFEFEFEFEFEFEFE61
:105F6000FEFEFEFEFEFEFEFEFEFEFEFEFEFEFEFE51
:105F7000FEFEFEFEFEFEFEFEFEFEFEFEFEFEFEFE41
:105F8000FBFBFBFBFBFBFBFBFBFBFBFBFBFBFBFB61
:105F9000FBFBFBFBFBFBFBFBFBFBFBFBFBFBFBFB51
:105FA000FBFBFBFBFBFBFBFBFBFBFBFBFBFBFBFB41
:105FB000FBFBFBFBFBFBFBFBFBFBFBFBFBFBFBFB31
:105FC000FCFCFCFCFCFCFCFCFCFCFCFCFCFCFCFC11
:105FD000FFFFE4FC09FFFFFFFCFCFCFCFCFCFCFCFD
:105FE000FCFCFCFCFCFCFCFCFCFCFCFCFCFCFCFCF1
:105FF000A7A7A705A7A7A7A7A7A7A7A7A7A7A7A7D3
:10600000A7A7A7A7A7A7A7A7A7A7A7A7A7A7A7A720
:10601000A7A7A7A7A7A7A7A7A7A7A7A7A7A7A7A710
:10602000A7A7A7A7A7A7A7A7A7A7A7A7A7A7A7A700
:10603000A7A7A7A7A7A7A7A7A7A7A7A7A7A7A7A7F0
:10604000A7A7A7A7A7A7A7A7A7A7A7A7A7A7A7A7E0
:10605000FC85A7A7FCFCFCFCFCFCFCFCFCFCFCFCA1
:10606000FCFCFCFCFFFFE4FCF6FFFFFFFCFCFCFC7F
:10607000FCFCFCFCFCFCFCFCFCFCFCFCD8FCFCFC84
:10608000FEFEFEFEFEFEFEFEFEFEFEFEFEFEFEFE30
:10609000FEFEFEFEFEFEFEFEFEFEFEFEFEFEFEFE20
:1060A000FEFEFEFEFEFEFEFEFEFEFEFEFEFEFEFE10
:1060B000FEFEFEFEFEFEFEFEFEFEFEFEFEFEFEFE00
:1060C000FBFBFBFBFBFBFBFBFBFBFBFBFBFBFBFB20
:1060D000FBFBFBFBFBFBFBFBFBFBFBFBFBFBFBFB10
:1060E000FBFBFBFBFBFBFBFBFBFBFBFBFBFBFBFB00
:1060F000FBFBFBFBFBFBFBFBFBFBFBFBFBFBFBFBF0
:10610000FCFCFCFCFCFCFCFCFCFCFCFCFCFCFCFCCF
:10611000FFFFE4FC09FFFFFFFCFCFCFCFCFCFCFCBB
:10612000FCFCFCFCFCFCFCFCFCFCFCFCFCFCFCFCAF
:10613000A7A7A705A7A7A7A7A7A7A7A7A7A7A7A791
:10614000A7A7A7A7A7A7A7A7A7A7A7A7A7A7A7A7DF
:10615000A7A7A7A7A7A7A7A7A7A7A7A7A7A7A7A7CF
:10616000A7A7A7A7A7A7A7A7A7A7A7A7A7A7A7A7BF
:10617000A7A7A7A7A7A7A7A7A7A7A7A7A7A7A7A7AF
:10618000A7A7A7A7A7A7A7A7A7A7A7A7A7A7A7A79F
:10619000FC85A7A7FCFCFCFCFCFCFCFCFCFCFCFC60
:1061A000FCFCFCFCFFFFE4FCF6FFFFFFFCFCFCFC3E
:1061B000FCFCFCFCFCFCFCFCFCFCFCFCD8FCFCFC43
:1061C000FEFEFEFEFEFEFEFEFEFEFEFEFEFEFEFEEF
:1061D000FEFEFEFEFEFEFEFEFEFEFEFEFEFEFEFEDF
:1061E000FEFEFEFEFEFEFEFEFEFEFEFEFEFEFEFECF
:1061F000FEFEFEFEFEFEFEFEFEFEFEFEFEFEFEFEBF
:10620000FBFBFBFBFBFBFBFBFBFBFBFBFBFBFBFBDE
:10621000FBFBFBFBFBFBFBFBFBFBFBFBFBFBFBFBCE
:10622000FBFBFBFBFBFBFBFBFBFBFBFBFBFBFBFBBE
:10623000FBFBFBFBFBFBFBFBFBFBFBFBFBFBFBFBAE
:10624000FCFCFCFCFCFCFCFCFCFCFCFCFCFCFCFC8E
:10625000FFFFE4FC09FFFFFFFCFCFCFCFCFCFCFC7A
:10626000FCFCFCFCFCFCFCFCFCFCFCFCFCFCFCFC6E
:10627000A7A7A705A7A7A7A7A7A7A7A7A7A7A7A750
:10628000A7A7A7A7A7A7A7A7A7A7A7A7A7A7A7A79E
:10629000A7A7A7A7A7A7A7A7A7A7A7A7A7A7A7A78E
:1062A000A7A7A7A7A7A7A7A7A7A7A7A7A7A7A7A77E
:1062B000A7A7A7A7A7A7A7A7A7A7A7A7A7A7A7A76E
:1062C000A7A7A7A7A7A7A7A7A7A7A7A7A7A7A7A75E
:1062D000FC85A7A7FCFCFCFCFCFCFCFCFCFCFCFC1F
:1062E000FCFCFCFCFFFFE4FCF6FFFFFFFCFCFCFCFD
:1062F000FCFCFCFCFCFCFCFCFCFCFCFCD8FCFCFC02
:10630000FEFEFEFEFEFEFEFEFEFEFEFEFEFEFEFEAD
:10631000FEFEFEFEFEFEFEFEFEFEFEFEFEFEFEFE9D
:10632000FEFEFEFEFEFEFEFEFEFEFEFEFEFEFEFE8D
:10633000FEFEFEFEFEFEFEFEFEFEFEFEFEFEFEFE7D
:10634000FBFBFBFBFBFBFBFBFBFBFBFBFBFBFBFB9D
:10635000FBFBFBFBFBFBFBFBFBFBFBFBFBFBFBFB8D
:10636000FBFBFBFBFBFBFBFBFBFBFBFBFBFBFBFB7D
:10637000FBFBFBFBFBFBFBFBFBFBFBFBFBFBFBFB6D
:10638000FCFCFCFCFCFCFCFCFCFCFCFCFCFCFCFC4D
:10639000FFFFE4FC09FFFFFFFCFCFCFCFCFCFCFC39
:1063A000FCFCFCFCFCFCFCFCFCFCFCFCFCFCFCFC2D
:1063B000A7A7A705A7A7A7A7A7A7A7A7A7A7A7A70F
:1063C000A7A7A7A7A7A7A7A7A7A7A7A7A7A7A7A75D
:1063D000A7A7A7A7A7A7A7A7A7A7A7A7A7A7A7A74D
:1063E000A7A7A7A7A7A7A7A7A7A7A7A7A7A7A7A73D
:1063F000A7A7A7A7A7A7A7A7A7A7A7A7A7A7A7A72D
:10640000A7A7A7A7A7A7A7A7A7A7A7A7A7A7A7A71C
:10641000FC85A7A7FCFCFCFCFCFCFCFCFCFCFCFCDD
:10642000FCFCFCFCFFFFE4FCF6FFFFFFFCFCFCFCBB
:10643000FCFCFCFCFCFCFCFCFCFCFCFCD8FCFCFCC0
:10644000FEFEFEFEFEFEFEFEFEFEFEFEFEFEFEFE6C
:10645000FEFEFEFEFEFEFEFEFEFEFEFEFEFEFEFE5C
:10646000FEFEFEFEFEFEFEFEFEFEFEFEFEFEFEFE4C
:10647000FEFEFEFEFEFEFEFEFEFEFEFEFEFEFEFE3C
:10648000FBFBFBFBFBFBFBFBFBFBFBFBFBFBFBFB5C
:10649000FBFBFBFBFBFBFBFBFBFBFBFBFBFBFBFB4C
:1064A000FBFBFBFBFBFBFBFBFBFBFBFBFBFBFBFB3C
:1064B000FBFBFBFBFBFBFBFBFBFBFBFBFBFBFBFB2C
:1064C000FCFCFCFCFCFCFCFCFCFCFCFCFCFCFCFC0C
:1064D000FFFFE4FC09FFFFFFFCFCFCFCFCFCFCFCF8
:1064E000FCFCFCFCFCFCFCFCFCFCFCFCFCFCFCFCEC
:1064F000A7A7A705A7A7A7A7A7A7A7A7A7A7A7A7CE
:10650000A7A7A7A7A7A7A7A7A7A7A7A7A7A7A7A71B
:10651000A7A7A7A7A7A7A7A7A7A7A7A7A7A7A7A70B
:10652000A7A7A7A7A7A7A7A7A7A7A7A7A7A7A7A7FB
:10653000A7A7A7A7A7A7A7A7A7A7A7A7A7A7A7A7EB
:10654000A7A7A7A7A7A7A7A7A7A7A7A7A7A7A7A7DB
:10655000FC85A7A7FCFCFCFCFCFCFCFCFCFCFCFC9C
:10656000FCFCFCFCFFFFE4FCF6FFFFFFFCFCFCFC7A
:10657000FCFCFCFCFCFCFCFCFCFCFCFCD8FCFCFC7F
:10658000FEFEFEFEFEFEFEFEFEFEFEFEFEFEFEFE2B
:10659000FEFEFEFEFEFEFEFEFEFEFEFEFEFEFEFE1B
:1065A000FEFEFEFEFEFEFEFEFEFEFEFEFEFEFEFE0B
:1065B000FEFEFEFEFEFEFEFEFEFEFEFEFEFEFEFEFB
:1065C000FBFBFBFBFBFBFBFBFBFBFBFBFBFBFBFB1B
:1065D000FBFBFBFBFBFBFBFBFBFBFBFBFBFBFBFB0B
:1065E000FBFBFBFBFBFBFBFBFBFBFBFBFBFBFBFBFB
:1065F000FBFBFBFBFBFBFBFBFBFBFBFBFBFBFBFBEB
:10660000FCFCFCFCFCFCFCFCFCFCFCFCFCFCFCFCCA
:10661000FFFFE4FC09FFFFFFFCFCFCFCFCFCFCFCB6
:10662000FCFCFCFCFCFCFCFCFCFCFCFCFCFCFCFCAA
:10663000A7A7A705A7A7A7A7A7A7A7A7A7A7A7A78C
:10664000A7A7A7A7A7A7A7A7A7A7A7A7A7A7A7A7DA
:10665000A7A7A7A7A7A7A7A7A7A7A7A7A7A7A7A7CA
:10666000A7A7A7A7A7A7A7A7A7A7A7A7A7A7A7A7BA
:10667000A7A7A7A7A7A7A7A7A7A7A7A7A7A7A7A7AA
:10668000A7A7A7A7A7A7A7A7A7A7A7A7A7A7A7A79A
:10669000FC85A7A7FCFCFCFCFCFCFCFCFCFCFCFC5B
:1066A000FCFCFCFCFFFFE4FCF6FFFFFFFCFCFCFC39
:1066B000FCFCFCFCFCFCFCFCFCFCFCFCD8FCFCFC3E
:1066C000FEFEFEFEFEFEFEFEFEFEFEFEFEFEFEFEEA
:1066D000FEFEFEFEFEFEFEFEFEFEFEFEFEFEFEFEDA
:1066E000FEFEFEFEFEFEFEFEFEFEFEFEFEFEFEFECA
:1066F000FEFEFEFEFEFEFEFEFEFEFEFEFEFEFEFEBA
:10670000FBFBFBFBFBFBFBFBFBFBFBFBFBFBFBFBD9
:10671000FBFBFBFBFBFBFBFBFBFBFBFBFBFBFBFBC9
:10672000FBFBFBFBFBFBFBFBFBFBFBFBFBFBFBFBB9
:10673000FBFBFBFBFBFBFBFBFBFBFBFBFBFBFBFBA9
:10674000FCFCFCFCFCFCFCFCFCFCFCFCFCFCFCFC89
:10675000FFFFE4FC09FFFFFFFCFCFCFCFCFCFCFC75
:10676000FCFCFCFCFCFCFCFCFCFCFCFCFCFCFCFC69
:10677000A7A7A705A7A7A7A7A7A7A7A7A7A7A7A74B
:10678000A7A7A7A7A7A7A7A7A7A7A7A7A7A7A7A799
:10679000A7A7A7A7A7A7A7A7A7A7A7A7A7A7A7A789
:1067A000A7A7A7A7A7A7A7A7A7A7A7A7A7A7A7A779
:1067B000A7A7A7A7A7A7A7A7A7A7A7A7A7A7A7A769
:1067C000A7A7A7A7A7A7A7A7A7A7A7A7A7A7A7A759
:1067D000FC85A7A7FCFCFCFCFCFCFCFCFCFCFCFC1A
:1067E000FCFCFCFCFFFFE4FCF6FFFFFFFCFCFCFCF8
:1067F000FCFCFCFCFCFCFCFCFCFCFCFCD8FCFCFCFD
:10680000FEFEFEFEFEFEFEFEFEFEFEFEFEFEFEFEA8
:10681000FEFEFEFEFEFEFEFEFEFEFEFEFEFEFEFE98
:10682000FEFEFEFEFEFEFEFEFEFEFEFEFEFEFEFE88
:10683000FEFEFEFEFEFEFEFEFEFEFEFEFEFEFEFE78
:10684000FBFBFBFBFBFBFBFBFBFBFBFBFBFBFBFB98
:10685000FBFBFBFBFBFBFBFBFBFBFBFBFBFBFBFB88
:10686000FBFBFBFBFBFBFBFBFBFBFBFBFBFBFBFB78
:10687000FBFBFBFBFBFBFBFBFBFBFBFBFBFBFBFB68
:10688000FCFCFCFCFCFCFCFCFCFCFCFCFCFCFCFC48
:10689000FFFFE4FC09FFFFFFFCFCFCFCFCFCFCFC34
:1068A000FCFCFCFCFCFCFCFCFCFCFCFCFCFCFCFC28
:1068B000A7A7A705A7A7A7A7A7A7A7A7A7A7A7A70A
:1068C000A7A7A7A7A7A7A7A7A7A7A7A7A7A7A7A758
:1068D000A7A7A7A7A7A7A7A7A7A7A7A7A7A7A7A748
:1068E000A7A7A7A7A7A7A7A7A7A7A7A7A7A7A7A738
:1068F000A7A7A7A7A7A7A7A7A7A7A7A7A7A7A7A728
:10690000A7A7A7A7A7A7A7A7A7A7A7A7A7A7A7A717
:10691000FC85A7A7FCFCFCFCFCFCFCFCFCFCFCFCD8
:10692000FCFCFCFCFFFFE4FCF6FFFFFFFCFCFCFCB6
:10693000FCFCFCFCFCFCFCFCFCFCFCFCD8FCFCFCBB
:10694000FEFEFEFEFEFEFEFEFEFEFEFEFEFEFEFE67
:10695000FEFEFEFEFEFEFEFEFEFEFEFEFEFEFEFE57
:10696000FEFEFEFEFEFEFEFEFEFEFEFEFEFEFEFE47
:10697000FEFEFEFEFEFEFEFEFEFEFEFEFEFEFEFE37
:10698000FBFBFBFBFBFBFBFBFBFBFBFBFBFBFBFB57
:10699000FBFBFBFBFBFBFBFBFBFBFBFBFBFBFBFB47
:1069A000FBFBFBFBFBFBFBFBFBFBFBFBFBFBFBFB37
:1069B000FBFBFBFBFBFBFBFBFBFBFBFBFBFBFBFB27
:1069C000FCFCFCFCFCFCFCFCFCFCFCFCFCFCFCFC07
:1069D000FFFFE4FC09FFFFFFFCFCFCFCFCFCFCFCF3
:1069E000FCFCFCFCFCFCFCFCFCFCFCFCFCFCFCFCE7
:1069F000A7A7A705A7A7A7A7A7A7A7A7A7A7A7A7C9
:106A0000A7A7A7A7A7A7A7A7A7A7A7A7A7A7A7A716
:106A1000A7A7A7A7A7A7A7A7A7A7A7A7A7A7A7A706
